:020000022000DC
:1060000000000120756302005D6302005F6302000F
:106010006163020063630200656302000000000028
:1060200000000000000000000000000067630200A4
:1060300069630200000000006B6302006D630200F0
:106040005D9B02006F6302009D9F02006F63020070
:106050006F6302006F630200199E02006F6302000B
:106060006F6302006F6302006F6302006F630200E0
:106070006F630200A5A002006F6302006F6302005D
:106080006F6302005D7302006F6302006F630200C2
:106090006F6302006F630200412803006F63020018
:1060A0006F6302006F6302006F6302006F630200A0
:1060B0006F6302006F630200000000000000000038
:1060C0006F6302006F6302006F6302006F63020080
:1060D0006F6302006F6302006F6302000000000044
:1060E00000000000000000000000000000000000B0
:1060F00000000000000000000000000000000000A0
:10610000000000000000000000000000000000008F
:10611000000000000000000000000000000000007F
:10612000000000000000000000000000000000006F
:10613000000000000000000000000000000000005F
:10614000000000000000000000000000000000004F
:10615000000000000000000000000000000000003F
:10616000000000000000000000000000000000002F
:10617000000000000000000000000000000000001F
:10618000000000000000000000000000000000000F
:1061900000000000000000000000000000000000FF
:1061A00000000000000000000000000000000000EF
:1061B00000000000000000000000000000000000DF
:1061C00000000000000000000000000000000000CF
:1061D00000000000000000000000000000000000BF
:1061E00000000000000000000000000000000000AF
:1061F000000000000000000000000000000000009F
:10620000354936480A1A02D0072291438D4634494F
:1062100034480A1A06D00722914381F309880222E2
:1062200082F3148830483149314A00F044F831484B
:106230003149324A00F03FF831483249324A00F0E1
:106240003AF832483249334A00F035F83248334997
:10625000334A00F030F833483349344A00F02BF821
:1062600033483449344A00F026F83448344900228F
:1062700000F02CF833483449002200F027F8334866
:106280003349091A082902DB002202604160314AC1
:1062900090471F481F49884205D00268043003B464
:1062A000904703BCF7E700208646EC46002000211B
:1062B000294A9047FEE7884207D0521A05D0037852
:1062C00001300B700131013AF9D17047884202D098
:1062D00002700130FAE770470000012000E0002062
:1062E0000000012000000120C0C403002C2B00206E
:1062F0006C310020D0630200D0630200A06903006B
:10630000C0C403002C2B00202C2B0020C86B0300E2
:10631000C86B0300C86B0300C86B0300C86B0300A5
:10632000C86B0300C86B0300C86B0300C0C4030044
:1063300000CB03006C3100206C3100206C31002058
:106340000C5800200C5800200C5800200C5800203D
:106350000C7800209D6302002DCC0200FEE7FEE7D2
:10636000FEE7FEE7FEE7FEE7FEE7FEE7FEE7FEE705
:1063700000F002B8FFF7FCBF0F484FF00701884359
:1063800085460E4880470E48016841F4700101605F
:10639000BFF34F8FBFF36F8FFFF732BF09480A4932
:1063A0000A4A884207D0521A05D0037801300B7090
:1063B0000131013AF9D170470000012071D002008B
:1063C00088ED00E0B46B0300182B00202C2B00207C
:1063D000022004F05FBB00002DE9F04780460D4627
:1063E00004F078FB0328044610D8012D10D0022DAC
:1063F00030D05DB91A4800F068FD1A4B04EB440236
:1064000013449E78184B1B5DB34219D0BDE8F0874A
:10641000144D00EB4002A918AE5C4A78470052B117
:10642000DFF84C900E484A464FF4804100F035FDAD
:1064300008B989F800803B192B449A780A4B1A5501
:10644000002EE3D0094B1B68002BDFD03046BDE89F
:10645000F047184700EB4004024804446678EFE731
:1064600090310020D0310020E9310020E4310020BB
:106470006C31002000780221FFF7AEBF08B5094B50
:106480001B7853B1002004F0DBFA012004F0D8FAA5
:10649000BDE80840032004F0D3BABDE8084004F08A
:1064A000DBBA00BF6D310020F8B57B4C2378054680
:1064B0001BB100232370FFF7E1FF172D00F2888046
:1064C000DFE805F00C17174354657680888D888DBA
:1064D000959A9A9A9A9AC4C9D1D9E4E4FFF7CEFF63
:1064E0006E4800F0F2FC6E4B002204461A70204603
:1064F000F8BD002004F08AFAF8B1002004F0A0FAF8
:10650000022D0CBF4FF4E1614FF47A61644B1D70B2
:106510004FF400404FF47A740025E0FB01454FF43E
:10652000FA620023204629460CF07EFB0022014639
:10653000BDE8F840594800F0B0BC04F075FA022DEF
:106540000CBFC8214FF4C871E0E7002004F05EFAE8
:1065500040B1002004F074FA4FF44871504B03220C
:106560001A70D5E704F060FAC821F7E7002004F0BC
:106570004DFA38B1002004F063FA4FF47A61484BC9
:106580000422EDE704F050FA4FF4C871F7E7002059
:1065900004F03CFA48B1002004F052FA404B0522C6
:1065A0001A7040F6CD410022C2E704F03DFAF5E74B
:1065B000002004F06FFA3A4B06221A70002240F2D3
:1065C0006661B5E7002004F02FFA354B07221A70F8
:1065D00000248CE70120207004F05CFAEEE7012033
:1065E000207004F057FA00224FF40051A0E704F0A5
:1065F00042FA2B4B0C22EAE72A482B4E00F065FCAE
:10660000D5F1110504461CD0D8B9012D13D0C823EB
:106610005D434FF400474FF47A7000214FF4FA6263
:106620000023C7FB05010CF0FFFA224601461D4876
:1066300000F033FC0446022004F0F6F90123337025
:1066400055E7022004F0FCF90023F8E7FFF716FFF6
:10665000134B1222BBE7FFF711FF002004F0E4F90F
:106660000F4B1322B3E7FFF709FF012004F0DCF919
:106670000B4B1422ABE7FFF701FF002004F0D4F925
:10668000012004F0D1F9064B1522A0E704F0F3F93C
:10669000034B1D709CE700BFE0310020B0310020AB
:1066A000E8310020703100206D310020044B1B6860
:1066B000DB0703D5034B1878FFF7F6BE704700BF22
:1066C000DC310020E8310020032801D804F0F4B9BF
:1066D00000207047044B1B6813F0010301D0FFF743
:1066E000E3BE1846704700BFDC31002038B51C4BB4
:1066F00018601C4B10F00204054619601AD01A4BA2
:106700001A480E221A700F22DA7010229A71112282
:106710005A72042140F2333200F054FA044648B968
:1067200000F0A6FA044628B90146114A114800F0C3
:10673000A9FB0446EB0711D5012004F0E3F96CB97D
:1067400021460D4A0D4800F09DFB044630B9BDE8D6
:1067500038400B4A0B48012100F094BB204638BD5D
:10676000DC310020E4310020D0310020C86B030070
:1067700075640200EC6B0300AD660200F06B030071
:10678000D1630200E86B0300032811D8012A0AD163
:1067900001290FD100F10E02D2B20D4B00EB4000E7
:1067A0001A54002070470129F7D0022904D049B1BA
:1067B000072070470022F8E7054B00EB4000184423
:1067C0004270EEE7024B00EB400018448270E8E7AD
:1067D000D0310020032808B512D804F08DF98000CC
:1067E00000F1A040D0F8003723F44033C0F8003760
:1067F000D0F8003743F44033C0F80037002008BD1C
:106800000620FCE708B5012202210020FFF7BCFFAB
:1068100008B1072810D1072202210120FFF7B4FF99
:1068200008B1072808D100210A220846FFF7ACFF6B
:1068300010B1072808BF002008BD00000388102BF6
:1068400010B502D0112B1ED010BD1A4C2168B1B961
:1068500001220846FFF798FF08B1072824D1072234
:1068600002210120FFF790FF08B107281CD1042264
:1068700002210020FFF788FF08B1072814D1236800
:1068800001332360E0E70B4A1368013B1360002BE0
:10689000DAD1FFF7B7FF0028D6D0074B1B68002BD3
:1068A000D2D0BDE810401847034B1B68002BE6D040
:1068B0009847E4E7F4310020F031002008B50020CB
:1068C000FFF788FF08B1062806D10120FFF782FFF5
:1068D00010B1062808BF002008BD00000D4B10B500
:1068E00018600C4629B10120FFF7EEFE40B10223EB
:1068F0002370094B1B6853B9BDE81040FFF782BFF6
:10690000FFF7E2FE08B10B23F2E72070F1E7002069
:1069100010BD00BFF0310020F431002005F032BD81
:106920000021084605F0E2BC10F1360F0AD058B13C
:1069300048F2165248F2115310F1380F14BF1046A6
:106940001846704748F21450704708B5084611467B
:1069500003F054F8002008BD30B5044685B000208F
:1069600002F0CEFF054678B9201D039005F013FA1A
:106970000649039800952B462A4605F082FA05B091
:10698000BDE83040FFF7D0BF05B030BD4B69020015
:1069900008B5043005F004FA02F0DEFF002008BD5F
:1069A00008B5043005F0D6FABDE80840FFF7BCBFD3
:1069B00008B5114604301A4605F001FABDE8084052
:1069C000FFF7B2BFC30710B507D4F023054A40084C
:1069D000145C23401943115410BD0901C9B20F239F
:1069E000F4E700BF2832002030B5094B1C78094B72
:1069F000196800239C4202DC0022104630BD11F8C9
:106A00003350854201EBC302F7D00133F2E700BFF8
:106A1000F83100203832002013B504460191FFF709
:106A2000E3FF38B143682BB10199204602B0BDE8BD
:106A30001040184702B010BD034B044819680022EB
:106A4000490800F02ABA00BFFC31002000320020C3
:106A500010B5C0B2FFF7C8FF0446007803F0D2F9C2
:106A600063785A1E53425341834208D1044BD3E901
:106A70000023134303D1BDE81040FFF7DDBF10BD75
:106A80002032002037B54308354AD35CC2074CBFDB
:106A90001B0903F00F0304460D46042B35D8DFE82D
:106AA00003F003252C383C0079B30121FFF78AFF5E
:106AB00000230DF107008DF8073000F0DFFA012008
:106AC000A4F12003C4F12001264A20FA01F100FAC2
:106AD00003F30B43A040D2E9004120430B43C2E93A
:106AE00000039DF8070000F0EDFA0EE0002918BF42
:106AF00002212046FFF766FF07E041B10321FFF7BF
:106B000061FF01212046FFF787FF03B030BD01215F
:106B1000EFE70029F9D10421EBE709B10321E8E708
:106B2000FFF750FF29462046FFF776FF0DF10700DB
:106B30008DF8075000F0A2FA0120A4F12003C4F15F
:106B40002001084A20FA01F100FA03F30B43A040A8
:106B5000D2E9004124EA000021EA0303BFE700BFB5
:106B600028320020203200202DE9F041124E134F30
:106B700000243378A34208DC114BD3E900231343EC
:106B800018D0BDE8F041FFF757BF3D6805EBC408DA
:106B900015F8340003F036F998F801305A1E5342C4
:106BA0005341181A4142414115F83400FFF76AFF7A
:106BB0000134DEE7BDE8F081F831002038320020F2
:106BC00020320020092AF7B505460C4616463CD966
:106BD00003F058F8D8B11E4B1E481D601E4B1F4FC6
:106BE0001C701F4B002110221E600CF0DCF91D4BA5
:106BF00000200021C3E90001013CE4B20326FF2C80
:106C00000BD1194A1948002100F03CF903E003F0C8
:106C100001F80028DFD003B0F0BD9DF8063015F86C
:106C200034008DF8046005EBC40223F007038DF8EF
:106C3000063001A993788DF805303A4603F02CF818
:106C4000013CE4B20028DAD0E5E70720E3E700BF23
:106C50003832002028320020F8310020516A02002A
:106C6000FC31002020320020696B0200006C030020
:106C700070B5084D084E00242B789C4201D30020AB
:106C800070BD3368012113F8340003F077F8013444
:106C9000F2E700BFF8310020383200201FB5002194
:106CA000039001AA44F20100CDE9011100F004F8BB
:106CB00005B05DF804FB000010B572B604F0C0FA30
:106CC00004F0FEF80028FBD1104B114C1149E41AD6
:106CD000E408240444F0010004F04EFA0E4B1B6853
:106CE000DB0700D500BE0D4944F0020004F044FA71
:106CF000BFF34F8F0A490B4BCA6802F4E06213439B
:106D0000CB60BFF34F8F00BFFDE700BF346A0300C5
:106D1000646A0300046C0300F0ED00E0106C0300F3
:106D200000ED00E00400FA05D0E90223D1E90201F8
:106D3000994208BF90422CBF0120002070470000FC
:106D400008B50B4800F0F5FA0A4B0B49D3E90023CC
:106D50001218D1E9000143F100038B4208BF8242BF
:106D600003D212F1807243F100031046194608BDA8
:106D70002C2B002040320020B832002037B50546C9
:106D80000C460A4801A901F09EFA60B10570446002
:106D900001A9064801F0C1FA18B1054800F0CEFA81
:106DA000002003B030BD0420FBE700BFA432002068
:106DB0002C2B002038B5184B1B78044613B900253E
:106DC000284638BD0028FAD0037F03F0FF05002BCA
:106DD000F5D0FFF7B5FFD4E90223994208BF9042EE
:106DE00014D3236903B92377D4E90530984721697F
:106DF0000029E4D0237F03F0FF05002BDFD0D4E986
:106E00000223521843F10003C4E902230348214638
:106E100002F025FBD4E700BF483200202C6C0300B1
:106E200013B5114B114918680190082310485822D6
:106E300001F014FA044698B90E4A0F4801A900F06F
:106E400065F9044660B90C48012100F055FA0123A8
:106E50000A4A0948194600F0B7F9094B01221A708D
:106E6000204602B010BD00BF286C03004C32002049
:106E7000A4320020E56E02002C2B0020FFFF7F00D3
:106E8000483200203AB103685A614A1E51425141CA
:106E90001961002070470720704738B5037F04460A
:106EA0000D4683B98261FFF74BFF2369401941F119
:106EB0000001C4E9020103B1256121460020BDE8BB
:106EC0003840FFF75BBF002038BD00230146037741
:106ED0000120FFF753BF0000014800F02ABA00BFAD
:106EE0002C2B00202DE9F04F85B0804600F00CFAE5
:106EF00040B15A4AD2E9003113F1807341F10001E7
:106F0000C2E900310021404600F00DFA38B1544E7C
:106F1000336823B13068FFF74DFF00233360012150
:106F2000404600F000FA20B1FFF70AFF4D4BC3E9DD
:106F300000014D484A4F4D4EDFF8389103A901F04A
:106F4000FCF9002845D1DFF82491454EDFF828A14F
:106F5000484602F09AFA3368002875D07BB133684E
:106F6000D0E90201D3E90223994208BF90422DD211
:106F700033681B7F1BB13168484602F070FA4846FF
:106F800002F07DFAD0E902B307460193FFF7D8FE7D
:106F9000019BBBEB000463EB0105012C75F10003C1
:106FA00045DBB4F5350F40D3FFF796FF304A024476
:106FB0004FF496030021504600F026F900283ED1F8
:106FC000336813B9404600F0F7F8376005B0BDE804
:106FD000F08F0378012B1DD0022B09D14FF0000A4E
:106FE000304602F04CFA002834D080F81CA0F7E7B5
:106FF0003BB941680B7F23B901230B77304602F080
:107000002EFA03A9184801F0C3F903A9164801F0A4
:1070100094F996E741683B68994202D100233B60AE
:10702000EFE7304602F034FAEBE7BA68C0E7002138
:10703000504600F06EF93846FFF7BCFE01E00D281F
:10704000F9D00023336083E7002BBFD1404600F026
:10705000B7F8BBE7012389F80030D2E740320020BF
:10706000C0320020B8320020A43200202C6C030073
:10707000FFFFB400483200202C2B002070B5EFF346
:10708000108672B60C4A946801239CB993600B4B2E
:107090000B4DD3F8801029401160C3F88050D3F80D
:1070A000841051604FF0FF32C3F88420047006B999
:1070B00062B670BD0370FAE7C432002000E100E060
:1070C000FC06FFBD084B9A6810B55AB150B9EFF3F2
:1070D000108172B6054A1C6814605C685460986040
:1070E00001B962B610BD00BFC432002000E100E06B
:1070F000435882B03BB10023435043580193019B56
:10710000012002B070471846FBE70000F8B5224B9B
:107110004679224C43F82620214A224B9B1A04EB45
:10712000C602DB0812791B04F70032B143F00200FB
:107130001D4904F021F80820F8BD02680D88C2F846
:10714000085590F9045002798978002DADBF05F1FA
:10715000604CDFF85CC002F00F0E0CF5614C4FEA9A
:107160004111C9B2B4BF0CF80E108CF800136D09B0
:107170000121DFF840C002F01F0201FA02F24CF8D0
:107180002520E21944F83600117143F00300074945
:1071900003F0F2FF0020CFE7D8320020D0320020E9
:1071A000346A0300746A0300386C03005A6C0300ED
:1071B00014ED00E000E100E0036801221A6070476E
:1071C000036801225A60704773B501F15005AD00A4
:1071D0000068ADB24FF480348C400026C0F80843FC
:1071E000C0F84843465101F5A8714559019522F070
:1071F0007F42019D40F82120C0F844430BB1C0F804
:10720000044302B070BD00002DE9F74F0D4622F097
:107210007F4402684FF4803705F150068F40804666
:10722000B60002EB8500C2F84873B6B2C2F8087324
:10723000D2F8041599464FF0000BD0F84035C0F84D
:10724000401542F806B05B1A9259009223F07F4332
:10725000012B009A4FEA850A0CD1264B4FF480602F
:1072600043F001039847D8F8003043F806B09B5923
:107270000193019BD8F80010D1F80465C1F844735C
:10728000A31B23F07F43012B1CD11A4B05F5A875D6
:10729000013443F0010341F825404FF480609847E2
:1072A000D8F80030D3F804359E4209D1D8F8003020
:1072B0000020C3F84473C3F8047303B0BDE8F08F33
:1072C0000D20FAE78A44C9F1FF13CAF84045D1F806
:1072D0000405221A013A22F07F4203F57F439342CC
:1072E000EED3002AE2D10134CAF84045D1F8043582
:1072F0009842DAE7706C030003680222C3F8442363
:1073000009B1C3F80423704700684FF48271FFF796
:10731000EFBE4FF4803303FA01F10368C3F848135A
:10732000C3F80813704750318900006889B2FFF72D
:10733000DFBE0368D3F804057047000090F90430FD
:1073400001215A0903F01F0301FA03F340320249F5
:1073500041F82230704700BF00E100E0024B034AD1
:107360001B681068184700BFD8320020D0320020B8
:1073700070B5064D0646002455F8043B0BB1304667
:1073800098470134042CF7D170BD00BFE8320020CB
:10739000033080B240F2FE33984230B51FD8134B11
:1073A0001A783AB91C895D892C440444A4B2B4F516
:1073B000806F0AD91A7DAAB99A8BDC8B22440244C9
:1073C00092B2B2F5806F0DD801220A8014461422C1
:1073D00002FB04335A8910445881002030BD48F222
:1073E0000860FBE748F20660F8E700BF1C330020A6
:1073F0000B4A0C4B5188142000FB0131CB6833B988
:107400000420496810700122074801F085BB074934
:107410000523137002238B80012209680023F3E700
:10742000003300201C330020182B0020E433002000
:1074300007B5002305490093054A09680548082354
:1074400001F0D4FA03B05DF804FB00BFE433002080
:10745000846C0300182B002007B50023014600931D
:10746000034A0448082301F0C1FA03B05DF804FBA5
:107470007C6C0300182B002013B500230C460093EE
:107480000146084A0848042301F0B0FA38B9074910
:10749000142303FB04140123237402B010BD48F22B
:1074A0000D60FAE7786C0300182B00201C330020D5
:1074B00037B50A480A4B42689C88196853880325E7
:1074C000033305709BB2002000909B0001EB840108
:1074D000044801F08BFA03B030BD00BF0033002038
:1074E000E4330020182B002010B50146044800F0BA
:1074F000EAFE1C22044600210BF055FD204610BD7B
:10750000D033002068B10268084B9A4209D1406824
:10751000074B984207D00133984214BF0320012043
:107520007047032070470020704700BFDEC0ADDE0B
:10753000FE011EF14388033300EB830399420BD312
:1075400082884FF6FF739A4208D0038833B180686F
:10755000431C584258417047022070470120704731
:107560002DE9F0410D460223154F2B80164600F5FC
:10757000805100F108044FF001088C420ED22368BC
:1075800001330BD02046FFF7D5FF48B10EB186F886
:107590000080022809D14FF480632B80BDE8F08180
:1075A000A3683A68934200D93B602B886288033312
:1075B00013442B806388033304EB8304DDE700BFAF
:1075C0001433002038B5144B14220D4602FB003052
:1075D0002B68446804F58051A3B15C88033403EB45
:1075E00084048C4215D22368013312D02046FFF761
:1075F000A1FF012808D002280BD00028F1D12C606F
:10760000012038BD0834ECE76388033304EB8304BE
:10761000E7E70020F5E700BF1C330020426873B5A0
:1076200004460D466AB3244BD9688A4229D31B69A4
:107630009A4226D812F0030323D1204900890989F0
:1076400088421ED12068916888421AD11C49486836
:10765000824203D900F5805082420DD389698A4263
:107660000CD901F580518A4208D201222A80B3FA4E
:1076700083F0400902B070BD1A46F7E748F209638B
:10768000F5E700232B801E460196288801A9FFF705
:1076900099FF30B92B8801339BB2012B2B80F3D992
:1076A000E8E7019B226899689142EED16360034B41
:1076B0001B892381DEE700BF182B00200033002048
:1076C0001C3300202DE9F8431C461D4B1B78064651
:1076D0000F46154673B382B37CB3DFF86C804FF06E
:1076E0001409A388012B02D948F2096020E009FBA4
:1076F00003F318F803302BB9A0882146FFF762FF87
:1077000020B92060A3880133A380EAE723681EB173
:10771000998832889142EFD11FB119883A889142F5
:10772000EAD19A68C5E90023064B1B892B8100200A
:10773000BDE8F88348F20160FAE748F20460F7E731
:10774000F8320020003300201C33002008B5074B1E
:107750005888191DFFF736FF18B1BDE80840FFF73C
:10776000A7BEBDE80840FFF743BE00BF00330020BE
:107770002DE9F04FA44FDFF8B49289B00646B84621
:107780003B6823B9A148494600F0D7FD3860D8F8D6
:10779000005029784B1E052B07D8DFE813F0220094
:1077A0007C007C000E010E01660148F20E6414227A
:1077B000002103A80BF0F7FB41F61D539C4208BFC4
:1077C0000024D8F8003004941A78013A052A00F20F
:1077D000F681DFE812F0E201E6010602160222025B
:1077E0002C022EB18A4B00225A604FF40644DEE789
:1077F0002B79032B1DD8DFE803F015022B368549C2
:107800000B78022B08461AD00B7D022B4FF0010398
:1078100017D114225343C2180020C8545068FFF7F0
:107820001BFE03E001232B71FFF702FE002800F08E
:10783000BE80774B00225A6048F20D64B7E7002300
:10784000E7E7734A13700023536041F61D54AEE717
:1078500071497248002302222B718A800968012233
:1078600001F05AF9E2E76C4C00262E712068694D50
:10787000FFF7F2FD6A4BD4F800C05A881423534333
:10788000EA18EE5451682160A188C2F804C0118141
:107890000222A280CAE7B5F814A0AA7DDFF874B16D
:1078A000AEB1022AEB8806D9142101FB0AB1DA1C19
:1078B000088902440A81142202FB0ABAC3F57F43F5
:1078C000BAF80A20FD331344AAF80A308DE71423CE
:1078D00003FB0AB318895C6804EB8004062A69D8A4
:1078E000DFE802F0274E36441D5A040041F61D54CD
:1078F000AA7DEB88022A06D9142101FB0AB1DA1C01
:10790000088902440A81142202FB0ABAC3F57F43A4
:10791000BAF80A20FD331344AAF80A3047E7414871
:10792000414900234360AB690360FFF777FE0028FD
:107930005BD00223AB75002300930423EA18214691
:10794000364801F053F8002831D048F20D64CFE7F3
:107950002B69002B14BF03230123AB750023009375
:1079600005F10C02042304F10801E9E70123AB75DA
:107970000022EB8800922A699B0004F10C01DFE7EA
:1079800003290CBF05230623AB75002300930423B2
:1079900005F10802E118D3E70623AB75224B1988DD
:1079A000204B5868FFF768FD04460028A0D109B0B5
:1079B000BDE8F08F48F20E649AE7002E7FF415AF11
:1079C0002B79012B34D0022B3FF43FAF002B7FF4F7
:1079D000ECAE02232B710DF10A01EB68039303A8AF
:1079E000CDE90466FFF71AFE10B948F20964DEE635
:1079F0000498BDF80A108388EB8003882B81FFF779
:107A00003BFD044627E000BF18330020D0330020A0
:107A1000F83200201C330020E4330020182B002013
:107A200000330020DC320020F0330020103300202F
:107A3000804B03AA3146A81DFFF744FE7D4B044648
:107A400068B999880498FFF717FD044648F209635E
:107A50009C423FF4FAAE002C7FF4A9AEA7E70822BF
:107A6000314618460BF09FFAF0E7002E7FF4BDAECA
:107A7000714B1A7BB2B11E731A78013A062A3FF68F
:107A800094AE01A151F822F02F7B0200557B020039
:107A9000737B0200797B0200AB7702007F7B0200E0
:107AA000917B02001A78072AE6D801A151F822F04A
:107AB000D17A0200797A0200797A0200F77A02001C
:107AC0000B7B02002B7B02002B7B0200F37A02006F
:107AD0001A895A4901321A8100225A801A730A7887
:107AE000B2FA82F252099A720A7DB2FA82F252090D
:107AF000DA72012207E0524958688A8840880332C6
:107B000002448A8002221A70B6E74C4C5A884C49CB
:107B1000142505FB0242086854685060888810816B
:107B200002228A800C600622EDE70722EBE79A7AB0
:107B300032B9DA7A8AB900221A705A805A6084E619
:107B40003E4900229A72CA68002AF2D1097C0029B3
:107B5000EFD05A80FFF7FAFD53E70022DA72374A76
:107B6000116A0029E7D192F82420002AE3D00122EB
:107B7000EFE7FFF79DFC44E7FFF73AFC41E72F4AA8
:107B80005B88142101FB03235868FFF765FC38E785
:107B900000225A60FFF74CFC33E700238DF80C30CD
:107BA0000DE001228DF80C201A89ADF818209A8872
:107BB000DB680593ADF81A2000238DF81C3003A86C
:107BC000FFF7D6FB002649461E48C8F8006000F0C3
:107BD000DFFB1D48012100F095FC00287FF4D0ADAB
:107BE000E5E602228DF80C201A89ADF818209A8853
:107BF000ADF81A20DA689B7D05929A1F53425341D3
:107C0000DBE703228DF80C20DA88ADF818201A89FA
:107C1000DB68ADF81A200593D1E704228DF80C201B
:107C2000DB88ADF818300023ADF81A30F3E70523F0
:107C3000B4E700BFF4330020003300201C330020E1
:107C4000E4330020D0330020E03300204068FFF709
:107C50008FBD000008B50548012100F03BFC18B9B4
:107C6000BDE80840FFF784BD08BD00BFE033002039
:107C70002DE9F3419846374B1B7806460D46002BFD
:107C80005CD000295DD009884FF6FF7399425BD024
:107C90006B88002B58D06B689B0758D14AB92F8945
:107CA0000DF102013846FFF773FB30B102B0BDE8B9
:107CB000F08113885788ADF8023001A8FFF714FC53
:107CC000044660B9BDF80230234A142101FB0323A6
:107CD00058890338C01B588148F20760E6E780F8EE
:107CE000008000238375BDF8023083826B680361D6
:107CF00001211A4800F0FAFB2B882381B8F1030F09
:107D00006B88A38004BF0423A3754FF0000508BF50
:107D10003368E06008BFA3611148E780658101A96D
:107D200000F0FBFA36B1E36833600E4B75601B89D7
:107D3000B5723381FFF78EFF0020B7E748F201608C
:107D4000B4E748F20460B1E748F20360AEE748F2F6
:107D50000260ABE7F83200201C330020143300200F
:107D6000D03300200033002008B5034607480268DE
:107D7000042A08D00168064A42F82130012100F0A7
:107D8000B5FB002008BD48F20B60FBE7EC33002098
:107D9000E83200202DE9F04F89B01422002103A819
:107DA0000BF001F9794A137803F0FF010091904636
:107DB0003BB103A8FFF7DCFA0027384609B0BDE85D
:107DC000F08F101D00F0AAFB0028F5D140F6F873E3
:107DD0004FF080521B685C1C08BF6D4B6D4C08BF98
:107DE0001B6811695269581C08BF02FB01F323612B
:107DF0006949A3F5405300222046E36000F0C4FD2A
:107E0000019407460028D8D164496548DFF8A4B139
:107E10001C238C2200F022FABA463D464FF003099B
:107E20003C46019BDE6856443046FFF76BFB012859
:107E300062D0032817D000283DD15A494FF0140CC6
:107E40000CFB04FC01EB0C0201F80C0056600CF179
:107E500010020CF1080C0A4430466144FFF780FB25
:107E600045F0020545E03268531C02D04E4B9A4261
:107E700034D1321D06F58051106801302ED1043204
:107E80009142F9D1DBF800203AB902220123CBF864
:107E90000060ABF8042000930BE014226243414BD6
:107EA000022099189854414A4E6054800134088148
:107EB000A4B245F001050AF5805ABAF5405FB0D189
:107EC000B9F1010F98BF0025EDB2022D03D0062DA8
:107ED00031D0002D39D148F20A676EE731491422BA
:107EE0006243881809F1FF394660032088541FFA5D
:107EF00089F90134A4B2DEE7009B6BB1294B14224F
:107F00006243991802209854DBF800204A60274AFF
:107F1000088154800134A4B200222549CBF80060C6
:107F20003046FFF71DFBBBF80420022A0CBF0422D9
:107F300008221543BFE7012388F8003003A8002377
:107F4000C8F80430FFF714FA37E702A8FFF7CCFAB5
:107F5000C8B10123013D03700A2D09D8DFE805F0FF
:107F600006080608070807080F110F000023037111
:107F700002A90B4800F0D1F9FFF76CFE1DE70323BF
:107F8000F5E70223F3E748F2076716E7F832002027
:107F900014100010182B0020806E030044330020C2
:107FA000D03300201C330020DEC0ADDE00330020C3
:107FB000E8330020E433002073B50D460446C8B111
:107FC000C1B10DF10601FFF729FBB0B10C4BBDF8B3
:107FD00006006668142202FB003001210C3000F01C
:107FE00085FA63682E600C336B600123A372002056
:107FF00002B070BD48F20460FAE748F20960F7E7A2
:108000001C33002013B50446A8B10DF10601FFF79B
:1080100005FB98B10C4ABDF80630142101FB03237F
:10802000DA6872B1A27A62B1DA680020013ADA60E5
:10803000A07202B010BD48F20460FAE748F209608D
:10804000F7E748F20560F4E71C3300200223002222
:10805000FFF70EBE18B103230022FFF709BE48F256
:1080600004607047114B1B7813B50446ABB14FF653
:10807000FF73984214D001A8FFF736FA98B1052390
:10808000037001230371C48001A9094800F045F978
:10809000FFF7E0FD002002B010BD48F20160FAE7F2
:1080A00048F20360F7E748F20760F4E7F83200208F
:1080B000D03300200F4B1B7807B5A3B101A8FFF701
:1080C00013FA98B10623037001A90B4800F025F9B3
:1080D0000A4B1A780AB101221A73FFF7BBFD002080
:1080E00003B05DF804FB48F20160F9E748F207606D
:1080F000F6E700BFF8320020D03300200033002024
:1081000007B5ADF80600ADF804100DF1060001A9A1
:10811000FFF7D8FA03B05DF804FB07B51346ADF8D6
:1081200006000A4600200DF10601FFF7CBFA03B066
:108130005DF804FB07B51346ADF806000A460DF1DD
:1081400006000021FFF7BEFA03B05DF804FB20B182
:1081500019B103680B600020704748F20460704753
:108160002DE9F84F3B4B1B780446002B6CD00028C0
:108170006DD0DFF8E4A0122200210AF014FF0323DF
:1081800023804FF0000BD04614274FF00109DAF896
:108190000410BAF80A50BAF808600846FFF7B2F9B6
:1081A000032808BF2388628804BF03F1FF332380BC
:1081B00007FB0B832E44DB681344638023891D4433
:1081C00063892581B6B233446381C6F58066A3898D
:1081D000B6B2B34201F1080538BFA68101F580515E
:1081E000A94229D92B68013326D02846FFF7A2F9E6
:1081F00001280AD0022815D00028F1D1A388013324
:10820000A3800AE04FF0010BC1E7E3880133E3806C
:10821000E3896A8803331344E3816B88033305EBF6
:108220008305DDE7E38884F810900133E380E38978
:10823000491B03EBA101E1810AF1140ABBF1000F14
:10824000E0D00020BDE8F88F48F20160FAE748F27C
:108250000460F7E7F83200201C33002010B561B14C
:10826000B2FBF3F403FB1424A4B244B9C0E9001434
:1082700084608281C381204610BD0E20FCE7092066
:10828000FAE782B050E8022FC188B2EB324F4FF0CC
:10829000000317BF92B241EA014142EA014104E002
:1082A0004268B2EB324F08BF012340E80212002AB5
:1082B000E8D18DF807309DF80730002B0CBF112056
:1082C000002002B0704737B550E8013F9DB2C48925
:1082D00025448489A54228BF2D1B0489A54202BFDD
:1082E000BFF32F8F002207E0C5EA030540E80154E1
:1082F000002CE9D14FF001028DF803200193019B7E
:108300009DF803200B6002F0FF0322B10B88006888
:10831000184403B030BD1846FBE70A884B889A42E0
:1083200009D150E8012FC2EA024240E80123002BA4
:10833000F7D1012070470020704737B550E8023F61
:108340001FFAA3F5C488A54202BFBFF32F8F0022F6
:108350000DE0C48925448489A54228BF2D1BC3EAAA
:10836000054540E80254002CE8D14FF001028DF899
:1083700003200193019B9DF803200B6002F0FF0393
:1083800022B14B880068184403B030BD1846FBE7A3
:108390000A884B889A4209D150E8022FC2EA224249
:1083A00040E80223002BF7D10120704700207047DE
:1083B00001F01F024B090121914000EB830000F006
:1083C00065B84B0910B501F01F040121A14000EB75
:1083D000830000F04FF8E04000F0010010BD01F014
:1083E0001F0301229A404B0900EB8300D14300F0A8
:1083F00065B84B0901F01F0150F82300C84000F098
:10840000010070472DE9F0474F1E7F0980460E4658
:108410000137002558F8254008EB8509E44394FA14
:10842000A4F4B4FA84F44FEA451A202C06D101359D
:10843000AF42EFD834462046BDE8F0875444A64208
:10844000F5D921464046FFF7BCFF0028F3D0D9F804
:108450000040E44394FAA4F4B4FA84F4E5E710B5D8
:10846000034653E8000F0A4643E8002494F0000F47
:10847000F7D110BD10B5034653E8000F40EA0102E2
:1084800043E8002494F0000FF6D110BD10B5034668
:1084900053E8002F42EA010043E8000494F0000F83
:1084A000F6D110BD10B5034653E8000F00EA0102F3
:1084B00043E8002494F0000FF6D110BD10B5034638
:1084C00053E8002F02EA010043E8000494F0000F93
:1084D000F6D110BD10B5034653E8000F00EB0102C2
:1084E00043E8002494F0000FF6D110BD10B5034608
:1084F00053E8002F02EB010043E8000494F0000F62
:10850000F6D110BD10B5034653E8002FA2EB0100D1
:1085100043E8000494F0000FF6D110BD0121FFF7ED
:10852000A9BF0121FFF7B2BF0021FFF7BBBF10B504
:1085300090B1D0E9012301689B1ADBB20A60013BCC
:10854000DBB2FF2B026802D10020107110BD116850
:108550004C1C14600B70F2E70E20F7E737B50546A8
:1085600000240DF107008DF80740FEF787FD2A680B
:108570006B68116899420ED9481E106011F8014CC1
:10858000EB68298A01FB0434AB6811791B1ADBB252
:10859000994238BF13719DF80700FEF793FD2046FE
:1085A00003B030BD37B5054600230DF107000C467A
:1085B0008DF80730FEF762FD2A681368591C1160B8
:1085C000E968641A298AB4FBF1F41C709DF807006D
:1085D000FEF778FD03B030BD826810B504462AB1BD
:1085E00043690168006998470023A36010BD0EB479
:1085F00003B5039921B104AB01AA019300F076F809
:1086000002B05DF804EB03B070470A2938B50446A0
:108610000D4602D10D21FFF7F8FFA3682268591C0F
:10862000A160D554D4E901329A4204D32046BDE872
:108630003840FFF7D1BF38BD2DE9F84F9846DDE946
:108640000A43154682460F460A464FF00109AA42E0
:108650000FD2C14538BFC14613F0010B01D16CB92F
:1086600000240126B8F1010F1BD908F1FF386E4331
:10867000F8E709F10109B2FBF5F2E8E79B070ED52F
:10868000B8F1000F0CBF30262026A145E9D2013CED
:1086900031465046FFF7B9FF002CF6D1E0E720261F
:1086A000F3E7B7FBF6F39D42E1D9DFF83C80B7FB77
:1086B000F6F3504618F8031006FB1377FFF7A5FFF3
:1086C0003346AB42B6FBF5F6F1D2BBF1000F02D058
:1086D0000CB1A14501D3BDE8F88F20215046013CE3
:1086E000FFF793FFF4E700BF956C03002DE9F74F08
:1086F000054617468846002900F0428118F8011BFC
:1087000049B92B7B002B00F03B81284603B0BDE824
:10871000F04FFFF761BF252940F0B780002698F899
:1087200000302D2B424608F1010823D0302B24D0F5
:108730002B2B25D000242A2B02F1010123D13B68E9
:108740001A1D1B683A601C440A4613782E2B26D14A
:1087500001324FF0000A104610F8011BA1F1300C55
:10876000BCF1090F1DD80A2303FB0A13A3F1300A39
:108770000246F0E746F00106D1E746F00206CEE7F2
:1087800046F00406CBE711F8013CA3F130000928BC
:10879000DBD80A2202FB0434303C0A46CBE74FF018
:1087A000000A12F8011B01F0FB0068289046F8D07F
:1087B000782909D86F290CD8632962D022D82529B5
:1087C00063D0582900F0888098F80030002B95D1AC
:1087D00097E770390829F7D801A353F821F000BFB3
:1087E0005B890200C9870200C9870200E98802008C
:1087F000C9870200C7880200C9870200C987020032
:10880000D9880200642901D06929DDD13A68D2F8FB
:108810000090111D89EAE9723960A2EBE9724FF00C
:10882000010B092A35DCD34538BFD3462CB1B9F149
:10883000000F01DB720700D5013CB30702D5BAF186
:10884000000F03D0F00701D44CBB0024B9F1000F96
:108850002DDAC9F100092D212846FFF7D6FE06F0D2
:108860000302022A04D1BAF1000F01D11CBB00247B
:10887000CDE9004653460A2249462846FFF7DCFE6A
:10888000A2E73B681A1D19783A602846FFF7BDFE3B
:108890009AE70A230BF1010BB2FBF3F2C1E7A34500
:1088A000D4D220212846013CFFF7AFFECCE7710768
:1088B000D5D52B21D0E7A345DAD230212846013C7B
:1088C000FFF7A3FED2E73968CDE900460A1D3A60FA
:1088D00053460A220968D0E739680A1D3A60CDE993
:1088E000004653461022F5E73B681A1D3A6016F021
:1088F0000106D3F8009028D1B9F1000F03D0484603
:108900000AF0CDFB0646B44200D904BB09F1FF3999
:1089100019F8011F00293FF457AF2846FFF775FEED
:10892000F6E728460136FFF770FE19F80610002911
:10893000F7D1A642BFF448AF002C3FF445AF202149
:108940002846013CFFF761FEF3E70026EDE7202112
:108950002846013CFFF759FED5E73B681A1D3A60EF
:10896000302128461C68FFF750FE78212846FFF783
:108970004CFE00220823CDE90032214610227CE77C
:1089800003B0BDE8F08F00BF13B50B46114680B9A8
:10899000104B1148114AC01A0E23C0080093104B07
:1089A0000004104940F0010002F0FDFB0E2002B06F
:1089B00010BD4BB9074B08480B4AC01AC0080E231C
:1089C00000930004064BECE703601B6802B0BDE8AF
:1089D00010401847346A0300C46A0300A56C030002
:1089E0003B6E0300AA6C0300D96C03002DE9F34130
:1089F00088B93D4B3D483E4AC01AC0080E243D4B45
:108A0000009400043C4940F0010002F0CCFB2046F9
:108A100002B0BDE8F0814AB9334B3448374AC01A36
:108A2000C0080E24334B00940004EBE7D0F800E0BC
:108A3000BEF1000F09D12C4B2C48314AC01AC00896
:108A400008242C4B00940004DCE74BB9264B274844
:108A50002C4AC01AC0080924264B00940004D1E710
:108A60004568D5F80480B3FBF8F508FB15354DB122
:108A70001D4B1E48244AC01AC00809241D4B0094EF
:108A80000004BFE78D0709D0174B18481F4AC01ACA
:108A9000C0081024174B00940004B3E712F0030F32
:108AA00009D0114B11481A4AC01AC0081024114BA2
:108AB00000940004A6E7C568A9420BD34D1EEC182C
:108AC0000569AC4206D8DEF80C40A44602B0BDE809
:108AD000F0416047044B05480E4AC01AC0081024F4
:108AE000044B009400048DE7346A0300C46A030059
:108AF000A56C03004D6E0300AA6C0300276D0300F4
:108B0000D36C0300E66C03002D6D0300576D03006A
:108B10006F6D0300926D0300F7B580B92A4B2B48A7
:108B20002B4AC01AC0080E242A4B009400042A497C
:108B300040F0010002F037FB204603B0F0BDD0F852
:108B400000C0BCF1000F09D11F4B2048234AC01AB6
:108B5000C00808241F4B00940004E8E74AB91A4BE8
:108B60001A481F4AC01AC00809241A4B009400046E
:108B7000DDE74768D7F800E00EF1FF370F4209D074
:108B8000114B1248174AC01AC0081024114B009408
:108B90000004CCE7C768B9420CD304694D1E0EFB34
:108BA0000255A54206D8DCF81040A44603B0BDE843
:108BB000F0406047044B05480B4AC01AC008102417
:108BC000044B00940004B2E7346A0300C46A030053
:108BD000A56C0300606E0300AA6C0300D36C030055
:108BE000E66C0300B96D0300DF6D030070B550B98A
:108BF0000E4D0F4C0026641B1423B4FBF3F4B44257
:108C000008D1002010E00368002BF1D0BDE87040CF
:108C1000DB6918472B6813B901361435EFE7DB69B8
:108C2000284698470028F7D070BD00BF182B0020B9
:108C30002C2B002029DF704728DF704770B50368B0
:108C40009E6886B004460D466EB114220021684627
:108C50000AF0A9F9A3680593237901952BB1012B9B
:108C60000DD06846B04706B070BD01238DF80030C6
:108C700023690293E368039363690493F1E7022392
:108C80008DF80030E3681B030293F5E70846704750
:108C900000207047024B187A003818BF0120704737
:108CA00098340020034B187A0122B0FA80F05A74ED
:108CB000400970479834002008B510461A460AF05B
:108CC00049F9002008BD000008B51422002104481D
:108CD0000AF069F90348FFF7D4FA002008BD00BF85
:108CE000983400208834002010B5094C094B4360AB
:108CF0002046FFF713FC40B909F088FD06492074AF
:108D00001C2306488C22FFF7A9FA002010BD00BFE3
:108D100098340020746E0300FC3300208834002057
:108D200070B5244C244E237A25463BB92349244868
:108D3000FFF703FB306008B9606070BD0223346840
:108D40002B72237973B1012B24D020460321FFF726
:108D500075FF00232B726B6018491948BDE87040FD
:108D6000FFF716BBD4E90523D21AB2F5805FD4E928
:108D7000031028BF4FF480529208012A38BF012205
:108D800019441844FFF756FF50B11128DDD10123D3
:108D90002B72D2E7D4E903031844FFF74DFFF3E742
:108DA0002B7C002BC9D10146BDE87040022000F0A9
:108DB00009B800BF98340020B0340020AC34002043
:108DC0008834002038B5831E012B45D8234C237AE4
:108DD000002B41D0022B09D1032830D0204B002298
:108DE0001B68E2601A793AB1012A22D0637C7BBB0E
:108DF000BDE83840FFF794BFD3E905128D1AB5F5E9
:108E0000805F94BF521902F580529A619142EDD170
:108E100002284FF0000308BF19462372104B18BFF9
:108E20000D211868FFF70AFF0E490F48FFF7B0FA47
:108E3000DCE71A6901321A615B699A42E7E7E36885
:108E40000133082B01D8E360D0E70023E360DFE7BC
:108E5000BDE8384009F0CABC38BD00BF98340020D6
:108E6000B0340020AC3400208834002000F0FD0332
:108E7000012B08D1044B00225A74421E504250412B
:108E80001874FFF74DBF70479834002010B5064C9A
:108E9000201DFFF743FB28B9637C1BB9BDE81040D8
:108EA000FFF73EBF10BD00BF983400202DE9F3410D
:108EB00080460D460F4801A916461F46FFF703FAE4
:108EC0000446A8B11C2200210AF06DF82D0B0123E5
:108ED000237101A90748C4F80080A760E5606661B6
:108EE000FFF71BFAFFF7D2FF002002B0BDE8F081C8
:108EF0000420FAE7883400202DE9F74381468846AC
:108F0000104801A917461E46FFF7DDF90446B0B127
:108F10001C2200210AF047F800250A9BA36001A942
:108F2000C4E9037807482571C4F800906661FFF72B
:108F3000F4F9FFF7ABFF284603B0BDE8F083042047
:108F4000FAE700BF883400202DE9F84FB0F806A0FA
:108F50004579D2F800B09DF828900AFB05F5043D4C
:108F600088460BEB0301A94203F1040488BFA5EB7B
:108F7000030BB4FBFAF607460AFB1644C2F800B02E
:108F80004EB9AAEB04055D4528BF5D46BBF1000F55
:108F900004D1BDE8F88F3F68013EF1E7043408EBE7
:108FA00006003C442A46B9F1000F0DD02146ABEB38
:108FB000050B09F0CFFFDA452E443F6855464FF0C8
:108FC000000428BF5D46E1E701462046EFE7FFF7D2
:108FD000AEBAF8B546790146721E054600239342A3
:108FE0002D6803D30024A64202D8F8BD0133F6E76A
:108FF0000F682846FFF7D6FA01343946F3E72DE922
:10900000F843068ACD1C0746FFF7A8FA043E35440C
:109010000446B5FBF6F5F0B14FF48073EDB28380F2
:10902000C680013D076081464FF00008A84512D276
:109030003846FFF793FA064648B163790133637106
:1090400008F10108C9F8000007608146EEE72046F4
:10905000FFF7BFFF34462046BDE8F8830121043006
:10906000FFF744BA10B5012104460430FFF74AFA6D
:1090700010F0FF0F04D12046BDE81040FFF7A9BF54
:1090800010BD1FB503920022009203AAFFF75CFFF8
:1090900005B05DF804FB1FB503920122009203AAFC
:1090A000FFF752FF05B05DF804FB33DF704741DF87
:1090B00070470000064B10B500241C70054B1C6067
:1090C000BFF35F8F0449054800F0B3F9204610BD97
:1090D000BD340020C0340020AC6E0300B434002046
:1090E00007B500230DF107008DF80730FDF7C6FF27
:1090F000F1EE103A23F09F03E1EE103ABFF35F8FD9
:10910000094B4022C3F884219DF80700FDF7DAFFE0
:1091100009F07CFB20B1FFF7CAFF03B05DF804FB48
:1091200020BF40BF20BFF8E700E100E070B5264D4A
:10913000044601212846FFF792F9BFF35F8F2E46C0
:1091400038B9042C0AD0214B1A781AB1BFF35F8FBB
:10915000286070BD1E4A147001221A701D4C1C4DEF
:109160006368BBB902F06CF801F0AAFE0028FBD1DD
:10917000174B1B78023B012B14D8BFF34F8F1649B6
:10918000164BCA6802F4E0621343CB60BFF34F8F03
:1091900000BFFDE71B682878984788B1204600F09B
:1091A00052F9DDE709F032FB08B1FFF77EFF4FF01F
:1091B00080430122C3F80025BFF34F8F20BFFDE796
:1091C000BFF35F8F3060C4E7C0340020BD3400209F
:1091D000BC340020B434002000ED00E00400FA05A7
:1091E000026813685268934291BFD01A80680130B8
:1091F000801888BFC01A704703682DE9F0411F68C6
:109200001E6815465A68964286BF83680133961BCE
:109210008846C268416888BF9E1BB542044607FB6A
:1092200002110CD86A43404609F094FEA3683D44FD
:109230009D4288BF002523681D60BDE8F08106FBC4
:1092400002F73A46404609F085FEE2686168AD1BC8
:109250006A4308EB070009F07DFEECE703688168CC
:109260001A685B688B4234BF01330023D31A58421B
:1092700058417047F7B5002304460DF107000D462D
:109280008DF80730FDF7FAFE2046FFF7E7FF10B133
:10929000237C002B3CD12268A66853685168B142F8
:1092A00034BF01310021516030B11168A0688142A2
:1092B00034BF013100211160E2686068511E072946
:1092C00020D8DFE801F004101F141F1F1F182A7890
:1092D000C2542046FFF784FF23689A68824200D276
:1092E0009860002415E02A8820F81320F1E72A6806
:1092F00040F82320EDE7D5E9006700EBC300C0E9A3
:109300000067E6E7294602FB030009F023FEE0E7D9
:1093100004249DF80700FDF7D5FE204603B0F0BDFC
:109320007FB5054601911446AAB10DF10F00002644
:109330008DF80F60FDF7A2FE2846FFF751FFA0420F
:1093400001990BD322462846FFF756FF34469DF875
:109350000F00FDF7B7FE204604B070BD0524F6E708
:1093600037B5044600250DF107008DF80750FDF7CD
:1093700085FE0C222946206809F015FE9DF807009D
:10938000FDF7A0FE03B030BD036818685B68C31A20
:1093900058425841704773B5002305460DF1070048
:1093A0000C4616468DF80730FDF768FE2846FFF795
:1093B000EBFF002832D129680B682EB90A68A8682B
:1093C000824238BF561C0E60EA686968501E072842
:1093D0001ED8DFE800F0040E1D121D1D1D16CB5C0B
:1093E000237000249DF80700FDF76CFE204602B0B4
:1093F00070BD31F813302380F3E751F82330236038
:10940000EFE701EBC301D1E90023C4E90023E8E75A
:1094100003FB0211204609F09DFDE2E70524E1E788
:10942000836800225A60C3E904229A60DA601A60F5
:1094300070470B684A684360934208BF002301608D
:1094400008BF43607047436843B10268916852683F
:109450000B449342436004BF00234360704770B5E0
:10946000446806460D46206818B1B36829469847F7
:1094700018B923682B60256070BD2468F3E7436842
:10948000186808B102681A60704743681868704726
:109490004368186800B97047884203D102681A60AF
:1094A0000120704703460068F4E7000010B50D493D
:1094B000A1F59472914201D800200FE08C1AE30FBD
:1094C00003EBE4035B1002EBC30452F83330834236
:1094D00005D802D204F10802ECE7606810BD21460D
:1094E000E8E700BFB873030008B5FFF7DFFF024BE2
:1094F000002808BF184608BD7B7203000648074ACB
:1095000003780749D35C012213B1043001F012BA89
:109510000C3000F0D7BF00BF342B00206035002096
:10952000EC3400200648074A03780749D35C01223F
:1095300013B1043001F0AAB90C3000F071BF00BFC4
:10954000342B002060350020ED34002037B505783D
:10955000012D0BD0022D2ED065B91E491E4800F0FA
:10956000E4F8002832D1FFF7DDFF03E0037A1BB9EE
:10957000FFF7C4FF03B030BD4368184C197820468C
:1095800000F0C1F880B18DF800500190144B68468E
:109590001B689847A168E368A2885B1A9A42E7D2E1
:1095A000104B01221A70E5E7A268E3689A42F1D0F5
:1095B0008DF80000EAE7C3688DF800500193FFF7CB
:1095C0009DFF074B68461B689847D3E703238DF838
:1095D0000030F6E7ED340020DC340020C8340020F1
:1095E000C4340020D8340020F0B51F46234B89B086
:1095F00004461A600D4600293DD08A882048096833
:1096000000F072F8002834D1AA89A9681D4800F03A
:109610006BF800282DD11C4E0FCE6D460FC596E875
:109620000F0085E80F0063690693237C174A1848EA
:109630008DF81C70003B18BF01238DF81430637C3B
:10964000002B14BF0E2300238DF81530E36802931E
:10965000A36803932368019369466368009300F04D
:1096600015FA30B90B4B18702368013301D0FFF79E
:1096700045FF09B0F0BD0720FBE700BFC434002060
:10968000C8340020DC340020B87303004D9502007C
:10969000342B0020D834002010B501460E4800F0CD
:1096A00032F80446A8B90D480D4A0378D35C63B17B
:1096B000043001F033F960B90A49074800F035F881
:1096C00038B9BDE81040FFF72DBF0C3000F0EEFEBA
:1096D000F1E7204610BD00BFDC340020342B002011
:1096E00060350020ED34002049B152B1531E1A40BC
:1096F00007D1826001608380C260104670470E20EF
:1097000070470920704710B58468C2688388121BAF
:10971000934208D3C26813400268D154C36801332E
:10972000C360002010BD0420FCE78268C3689A4231
:109730000AD08268838813400268D35C0B70836808
:1097400001338360002070470520704738B5074C0F
:10975000051E04F1080318BF1C4623682BB11A68C4
:1097600022605B6828469847F7E738BDF834002048
:1097700020B9054B01225A70FFF7E8BF012802D13A
:10978000014A9070F8E77047F034002020B9034B8D
:1097900001225A70FFF7DABF704700BFF034002093
:1097A00038B50B4C237883B90A486360A360236102
:1097B000E36000F0A9F9054609F028F808B900F0BF
:1097C000AFF901232370284638BD8525FBE700BF8C
:1097D000F03400207197020037B50B4C00230DF1D7
:1097E00007008DF80730FDF749FCE368013BE360B3
:1097F000E56815B900F0A6F9A5709DF80700FDF71A
:1098000061FC03B030BD00BFF0340020012813B567
:1098100008D003281CD018B9104B0122C3F88020AF
:1098200002B010BD0E4C00230DF107008DF807307B
:10983000FDF724FC23780BB9FFF7B2FFE3689DF82E
:1098400007000133E3600123A370FDF73BFCE7E76A
:1098500000F066F9FFF7C0FFE2E700BF00E100E0BB
:10986000F034002031DF70471FB500238DF807006A
:109870000DF10F008DF80F30FDF700FC08F0C6FF6A
:1098800050B909480DF10701FFF7F4FC0648FFF74E
:10989000E5FC08B100F0EAFB9DF80F00FDF712FCB3
:1098A00005B05DF804FB00BF0C6A030007B520B1EA
:1098B00003280BD003B05DF804FB0F4B1B78012B82
:1098C000F8D100F0D3FB00F0D9FBF3E700230DF152
:1098D00007008DF80730FDF7D1FB07480378012B0F
:1098E00005D10649013000F081FB00F0ADFB9DF889
:1098F0000700FDF7E7FBDDE754350020699802001B
:1099000013B5124C2378FBB9114A8DF807300028A3
:1099100008BF10460288A4F801200DF10700FDF7EA
:10992000ADFB08F073FF30B90A49601C00F05EFB24
:1099300040B900F089FB9DF8070001232370FDF773
:10994000C1FB002002B010BD8520FBE7543500208C
:10995000E27303006998020007B500230DF10700C8
:109960008DF80730FDF78AFB08F050FF18B900F0BA
:109970007DFB00F083FB9DF80700FDF7A3FB044887
:10998000FFF7EEFC034B00221A7003B05DF804FBF6
:109990000C6A0300543500202DE9F7430024DFF85A
:1099A000589005460E46A0460DF107008DF8078039
:1099B000FDF764FB08F02AFF074638B9324629460E
:1099C0004846FFF7ADFC044600F03EFB9DF807005B
:1099D000FDF778FB47B131462846FFF743FF42F2D7
:1099E00007039842044605D0022CDDD0204603B080
:1099F000BDE8F0830524F9E70C6A0300F8B50546D5
:109A00000C4604B9F8BD402C264628BF4026F7B2C4
:109A100039462846FFF7C0FF0028F9D1A41B35447A
:109A2000EFE700001FB503788DF80030436801931D
:109A300083688DF80830C368054A0393054B684670
:109A400053F8213052F82110984705B05DF804FB17
:109A5000583500205C3500201FB503788DF80030A4
:109A60004368019383688DF80830C368054A0393FF
:109A7000054B684653F8213052F82110984705B03D
:109A80005DF804FB583500205C350020F0B5194B1B
:109A900090F800C091F81DE043F82C20164B1646B4
:109AA0000A6943F82C20154B03F80CE00C460746D6
:109AB0000FCC89B06D460FC594E80F0085E80F0004
:109AC000CDF810C0BEF1000F09D0002E0C4A694637
:109AD00008BF3246381D00F011FE09B0F0BD002E5F
:109AE000084A694608BF324607F10C0000F0DCFB6B
:109AF000F3E700BF5C3500205835002060350020BA
:109B0000259A0200599A0200044A137923B90121C7
:109B1000106091801846704785207047643500209A
:109B2000074B1A68D2075FBFC02283F800230122C7
:109B30001A604FF080430122C3F81825704700BF18
:109B400000E100E0044B01221A604FF08042D2F89D
:109B50001834DB03FBD470470C000040154B07B5ED
:109B60001A687AB100221A601B680093009B4FF0BC
:109B700080430122C3F808230F4B587910B95A715A
:109B80001B6898470D4B1A6882B100221A601B6847
:109B90000193019B4FF080430222C3F80823064B38
:109BA0001B68012003B05DF804EB184703B05DF8B3
:109BB00004FB00BF000100406435002004010040A8
:109BC00000F1804000F5C040002382B003600368CC
:109BD0000193019B02B07047800000F1A040D0F8D3
:109BE000002722F44032C0F80027D0F8003743EABB
:109BF0000141C0F800177047054B4FF0FF320728AE
:109C000043F8202084BFC01880F84820704700BF68
:109C10006C35002010B5174C94F8583043BB04F154
:109C200030032021FF22013911F0FF0103F8012B3D
:109C3000F9D1C8B2FFF7E0FF01310C29F9D10422B4
:109C400000210D4809F0AFF90C4BC02283F8062320
:109C500040221A604FF4BE70FFF7B2FF084B4FF07E
:109C60000042C3F80423012384F85830002010BDBB
:109C70000820FCE76C350020C035002000E100E042
:109C800000600040034B93F85800003818BF0120D3
:109C9000704700BF6C350020F0B5364D2C1894F994
:109CA0003040002C64DA8C78C4F34004002C0BBFE5
:109CB000082300230C260826B34201D10420F0BD5E
:109CC00055F8237001373FD12E1845F8232086F828
:109CD000303014B9EA1882F848008A78540713D44F
:109CE000D60733D5820002F1A042D2F8004724F013
:109CF0000204C2F80047204EC20800F00707012402
:109D0000BC40B75C3C43B4548A780C7812F0020231
:109D100025D09B0003F1804303F5C0430202D3F832
:109D2000101521F4473121F44071C3F810152404B3
:109D3000D3F8101502F4F85204F4403422430A43D5
:109D4000C3F810250020BAE70133B5E74C7800F5D9
:109D5000E0724FF0A046A40046F82240CBE7083B53
:109D60002B4493F8501041EA841483F85040E9E7FB
:109D70000820A4E76C350020C035002038B51F4C02
:109D8000251895F93020072A16DD224492F848302C
:109D90009B09032B0BD14FF0A043D3F81015C14002
:109DA00001F001010231BDE83840FFF715BF012B7A
:109DB0000CBF02210321F6E7D3B2072B1CD8930076
:109DC00003F1804303F5C043D3F8100540F00100D0
:109DD000C3F8100502F14000800080B2FFF7F0FEEA
:109DE00051B195F9303054F823302BB1012303FAE7
:109DF00002F2034BC3F8042338BD00BF6C350020CA
:109E0000006000404FF0A043D3F8103523FA00F073
:109E100000F00100704700002DE9F04F87B00024EA
:109E20005A4D03944FF48072012102F1804303F5EF
:109E3000C04390B21B68012B06D1D5F804330B4206
:109E400002D0FFF7BDFE0C430432B2F5907F4FEA1B
:109E50004101EAD14E4B1B68012B0AD14FF4BE7071
:109E6000FFF7AEFE4FF0A04344F00044D3F81035A6
:109E7000039314F0FF0F1AD0464F002501263442F9
:109E800010D0AB0003F1804303F5C043D3F81005B5
:109E9000D3F8101557F8253023B1C1F30141C0F3B1
:109EA000042098470135082D4FEA4606E7D1002CDB
:109EB00065DA00214FF0FF33CDE90413354D01275A
:109EC0004FF0000A344ED1464FF0A04816F9013B3E
:109ED0005A1C45D0C3F3C20106AA5018DCB210F8D0
:109EE000042C03F03F0B03F0070307FA03F31A42B5
:109EF00036D005EB0B02A40992F9302055F8222048
:109F000052B9032C2CD10DF1100E1EF801C04CEAF1
:109F1000030C0EF801C001E0032CF4D00BF5E07146
:109F200010F80C0C58F821101842C1F3014105D06B
:109F3000022915D1032C0FD1214604E003290FD1AA
:109F4000032C09D102215846019209F10109FFF7BA
:109F500043FE019A5FFA89F912B1214658469047AB
:109F60000AF1010ABAF1040FB0D1B9F1000F06D01D
:109F70004FF0A043039AD3F81035934202D107B0B3
:109F8000BDE8F08F0393049B059399E700600040C0
:109F90007C6100406C350020BC350020014B1B6803
:109FA000184700BFC83500200E4B984237B50C4605
:109FB00002D0002003B030BD00230DF107008DF862
:109FC0000730FDF75BF8084B1D7915B901221C60BD
:109FD0001A719DF80700FDF775F8002DE9D01120E2
:109FE000E8E700BF00200040C835002010B5124C43
:109FF0002278FAB9114B1960037813F0010F104B56
:10A000001EBFD3F8042542F00102C3F80425D3F89B
:10A01000002222F00102C3F800224378094A5B01C2
:10A02000DBB282F80D334FF4005313600123237029
:10A03000002010BD8520FCE7D4350020D03500205D
:10A0400000D0004000E100E0064B00221A6082B020
:10A050001B680193019B044B0122C3F804231A607F
:10A0600002B0704700D1004000D00040024A0123F6
:10A07000C2F808335360704700D00040064A0123FD
:10A08000C2F808335360054B4FF40052C3F88020E8
:10A09000034B00221A70704700D0004000E100E03E
:10A0A000D4350020074B00221A6082B01B68019350
:10A0B000019B054BD3F80805044B1B68C0B202B0E6
:10A0C000184700BF00D1004000D00040D03500202C
:10A0D0000023435082B043580193019B02B0704764
:10A0E0000A4610B54FF48E71FFF7F2FF136A9168BC
:10A0F000C95C136A01331362C0F81C1510BD024617
:10A1000008B500684FF49271FFF7E2FF4FF48471D5
:10A110001068FFF7DDFF136801221A6008BD8B6924
:10A120000A4610B54FF4847123B9FFF7D1FFD0F878
:10A13000183510BDFFF7CCFF536AD168D0F8180569
:10A14000C854536A01335362F3E700001FB501237B
:10A150008DF80030044BCDE90110D3E900126846B8
:10A16000904705B05DF804FBD835002030B54C4869
:10A17000D0F8043313F4007F85B005464DD0D0F8F5
:10A180002431002B49D04FF49271FFF7A1FF4FF417
:10A190000173C0F80833434B93F829200AB9012210
:10A1A00042603F4902228DF80020D1F88024C1F896
:10A1B000802403929A690292DA6801920022C3E92C
:10A1C00006226846D3E9001290473548D0F81C3182
:10A1D0005BB134494A690B6A9A420A464AD991F8F6
:10A1E0002830002B46D1FFF77BFF2D48D0F84431B3
:10A1F0008BB14FF4A271FFF76BFF2A4B93F8292024
:10A200000AB1012202609A692AB10022586AD9680B
:10A210009A61FFF79BFF05B030BDD5F804335B07AB
:10A22000D3D5D5F80831002BCFD01E4C1C48214681
:10A23000FFF775FF636AA2699A422346C5D1E269B6
:10A24000E1684AB12369E3600023606AA261E361C7
:10A250006362FFF77BFFB8E794F829200AB901226F
:10A260006A600F4A4FF40170C2F808030022586A6E
:10A270009A61EEE70A484FF48E71FFF729FF5369A0
:10A28000002BB2D051690291002391688DF8003003
:10A29000019153616846D2E900139847A5E700BFD2
:10A2A00000200040D83500202DE9F843574B0579B0
:10A2B00091462C2202FB0532064692F82A200C46D3
:10A2C0009846002A40F09D8051490068FFF76CFED7
:10A2D0000746002840F0978021683368481C0BD05F
:10A2E0004FF0A04001228A40C0F8082501F5E07235
:10A2F0004FF0030C40F822C06068421C1FBF00F5FD
:10A30000E0724FF0A04C4FF0000E4CF822E0A26932
:10A31000C3F8242594F814C0627DBCF1010F4CEA07
:10A320000202C3F86C25C3F81405C3F80C151DD13F
:10A33000A1684A1C1FBF01F5E0724FF0A0404FF02A
:10A34000000C40F822C0E268501C0BD04FF0A04C2B
:10A3500001209040CCF8080502F5E0704FF0030EA4
:10A360004CF820E0C3F80825C3F810152C236B43E4
:10A3700008EB0302C2F80490226948F80320B9F1FF
:10A38000000F2BD03068247F4FF48E71FFF7A0FEB2
:10A3900030684FF4A271FFF79BFE32681D4BC2F884
:10A3A0000433110B42F30732002AA8BF02F16040C8
:10A3B0004FEA4413BABF184801F00F0400F561409A
:10A3C000DBB2B4BF035580F8003301F01F01012355
:10A3D00003FA01F15209114B43F8221033680422A9
:10A3E000C3F800252C2303FB05830022C3E90622C2
:10A3F00083F829205A61012283F82A203846BDE8D3
:10A40000F8830827FAE71127F8E700BFD8350020BE
:10A410006DA102008000020014ED00E000E100E008
:10A420002DE9F047204F90F804904FF02C0808FBDE
:10A43000097405466669002E34D162610068A16026
:10A4400026624FF48E7184F82860FFF741FE286879
:10A45000012383602146FFF743FE6368A0468BB962
:10A460002868D4F814A0236A9A4511D82A68D2F82B
:10A470001C31002BFBD00123D3602C2303FB097379
:10A4800000225A613046BDE8F08794F828303BB985
:10A49000D0F81C31002BF8D04146FFF721FEE2E74F
:10A4A0000F26EAE71126EDE7D83500200379044AA4
:10A4B0002C2101FB03235869003818BF0120704785
:10A4C000D83500202DE9F843394F05792C2303FBBB
:10A4D000057306465C6824B103684FF40170C3F845
:10A4E00008032C2303FB0573986950B1D869002831
:10A4F0003ED024B133684FF40172C3F80423112411
:10A5000033E09A61D9605862D8612C2303FB05734C
:10A5100093F829301BB910B93046FFF7F0FD4FF022
:10A520002C0909FB05783068D8F80430002B34D1A9
:10A530004FF4A271C146FFF7CBFD3068D0F824314B
:10A54000D0F80821D0F84441B2B90CB9002BF4D0AE
:10A550002C2202FB05750022AA6123BB2CBB95F8B7
:10A56000291033680122B1B11A602046BDE8F88392
:10A570001961DA610120C8E7002BE9D1002CE7D18D
:10A580004946FFF7CCFDD8F82430D8F818209A4275
:10A59000D3D82346DCE75A60E7E74FF40173C0F8ED
:10A5A00004330024E1E70324DFE70F24DDE700BFE5
:10A5B000D83500200023435082B043580193019BBB
:10A5C00002B070471FB501238DF80030044BCDE970
:10A5D0000110D3E900126846904705B05DF804FB0E
:10A5E000043600207FB5434AD2F82461002E60D0A3
:10A5F00010464FF49271FFF7DDFF02238DF8003013
:10A60000D2F88034C2F880340393D2F83C350293F8
:10A61000394BDA6801920022C3E906226846D3E981
:10A62000001290473348D0F8443173B14FF4A2710F
:10A63000FFF7C0FF304B9A693AB10022C3E9062206
:10A64000D968D0F83C05FFF7BDFF2A48D0F8203183
:10A65000ABB14FF49071FFF7ADFF0123C360264B00
:10A660005A6962B1D0F84C150291002299688DF8B0
:10A67000002001915A616846D3E9001290471D48B5
:10A68000D0F858319BB14FF4AC71FFF793FF1A4BE0
:10A690005A6962B1D0F84C150291002299688DF880
:10A6A000002001915A616846D3E90012904704B036
:10A6B00070BDD2F81031002BB4D04FF48871104621
:10A6C000FFF778FF0C4BD2F83C0599698842A9D175
:10A6D000DC69D96864B1D2F8005225F02005C2F8CF
:10A6E00000521A699C61DA60DE61FFF76BFF99E73F
:10A6F0009C61FAE700200040043600202DE9F84371
:10A700005D4B06799146242202FB0632044692F8FC
:10A7100020200D469846002A40F0AA80574900683C
:10A72000FFF742FC0746002840F0A4802968236810
:10A73000481C0BD04FF0A04001228A40C0F80825E9
:10A7400001F5E0724FF0030C40F822C06868421C2B
:10A750001FBF00F5E0724FF0A04C4FF0000E4CF818
:10A7600022E0AA69C3F8242595F814C06A7DBCF1DB
:10A77000010F4CEA0202C3F86C25C3F80C15C3F8AC
:10A7800014051DD1A9684A1C1FBF01F5E0724FF0E6
:10A79000A0404FF0000C40F822C0EA68501C0BD0DB
:10A7A0004FF0A04C01209040CCF8080502F5E07075
:10A7B0004FF0030E4CF820E0C3F80825C3F810153D
:10A7C0002423734308EB0302C2F804902A6948F873
:10A7D0000320B9F1000F3AD020682A7F4FF4887126
:10A7E000FFF7E8FE20684FF49071FFF7E3FE206862
:10A7F0004FF49271FFF7DEFE20684FF4A271FFF76D
:10A80000D9FE20684FF4AC71FFF7D4FE23681C49D1
:10A81000C3F80413190B43F30733002BAEBF03F146
:10A82000604001F00F0517484FEA4212A8BF00F53B
:10A830006140D2B2B4BF425580F8002301F01F013D
:10A84000012202FA01F15B090F4A42F82310236842
:10A850000822C3F80025242303FB06830022C3E952
:10A8600006225A61012283F820203846BDE8F88389
:10A870000827FAE71127F8E704360020E5A50200CB
:10A880001003420014ED00E000E100E001F060433D
:10A89000B3F1005F2DE9F041064638D11E4B077930
:10A8A000242505FB073598466C69002C31D16A6177
:10A8B0000068A9604FF49071FFF77CFE4FF4AC7113
:10A8C0003068FFF777FE33686A69A968C3F84415F2
:10A8D000C3F8482501229A606A68AAB9D3F82021F2
:10A8E000D3F858411AB9002CF8D00F2407E0002CF7
:10A8F000FBD10122DA60D3F85821002AFBD02423AF
:10A9000003FB078700237B612046BDE8F08110240C
:10A91000FAE71124F8E700BF043600200379044A5F
:10A92000242101FB03235869003818BF0120704718
:10A9300004360020F8B501F06043B3F1005F04462F
:10A940000F465ED10379304D242101FB0351496844
:10A9500021B100684FF40476C0F80863242000FB9E
:10A9600003539E6956B1D869002839D021B12368B4
:10A970004FF40472C3F80423112030E09A61DF60C1
:10A98000DE6120684FF48871FFF714FE20684FF4F1
:10A99000A271FFF70FFE2368C3F83475C3F838259A
:10A9A00016BB01221A602179242202FB015252684F
:10A9B0000ABBD3F81041D3F84421D3F8240114433F
:10A9C00002D10028F5D02246242303FB01550023A1
:10A9D000984218BF03209A42AB6118BF0F20F8BD00
:10A9E0001F61DA610126CCE7D3F8002242F0200291
:10A9F000C3F80022D7E74FF40472C3F80423002001
:10AA0000EDE71020EBE700BF04360020054A4FF0C9
:10AA1000A043105CD3F8043523FA00F0C04300F0E3
:10AA20000100704708740300044B1A5C0123934033
:10AA30004FF0A042C2F80C35704700BF0874030005
:10AA4000044B1A5C012393404FF0A042C2F8083532
:10AA5000704700BF0874030008B50020FFF7F0FF3F
:10AA60000120FFF7EDFF0220FFF7EAFFBDE80840F5
:10AA70000320FFF7E5BF08B50020FFF7D5FF012051
:10AA8000FFF7D2FF0220FFF7CFFFBDE80840032009
:10AA9000FFF7CABF074A4FF0A041105CD1F8043558
:10AAA0000122824022EA03001340C1F80805C1F8E0
:10AAB0000C35704708740300054A4FF0A043105C42
:10AAC000D3F8103523FA00F0C04300F001007047BE
:10AAD000047403000D2809D00E2809D00F2809D0CE
:10AAE00010280CBF03204FF0FF3070470020704744
:10AAF0000120704702207047014B185C704700BF6F
:10AB000004740300C20708B501460CD54FF0A043FA
:10AB10000322C3F84427C3F84827C3F84C27C3F8D7
:10AB20005027FFF799FF8B070AD54FF0A0430C225F
:10AB3000C3F83427C3F83827C3F83C27C3F84027A5
:10AB400008BD704707B5044B0093044A402300F04A
:10AB500032F803B05DF804FB61AB02002936002037
:10AB60002DE9F84388461446B2B10F4B0F4E03252A
:10AB7000002743F00109224608EB0701002002F0FC
:10AB800007FA0744241A48B933782BB14FF47A40B6
:10AB9000C847013D02D13570BDE8F8830123337009
:10ABA000002CE8D1F8E700BF10740300283600201D
:10ABB000704702F021BAF0B595B01D46164608461A
:10ABC0000C46FEF74BFA1A9B0D93CDE9086500255C
:10ABD0002B46082205A920460A958DF82C500C9585
:10ABE000FEF759FA079B0293069B03939DF81430D6
:10ABF0008DF8115003F00302012A1DD1BDF8142075
:10AC0000059DC3F3C203C2F383168DF81030B20062
:10AC100008230EA92046FEF73EFAC5F3952508AB9A
:10AC20000093324602AB0EA9284600F07FFB204677
:10AC3000FEF718FA15B0F0BD022AF8D1BDF816508B
:10AC4000C3F3C203C5F389158DF810300827082D0A
:10AC50002E4628BF08263B4632460EA92046FEF760
:10AC60001AFAAD1B08AB02AA31460EA8374400F011
:10AC7000C1FB002DEBD1DAE708B5FFF79AFF0448D6
:10AC8000042100F0BBFA034B01225A7108BD00BF3A
:10AC9000A46B0300482B0020037813F0040216D0A5
:10ACA00003F00303012B03D0022B09D001207047CE
:10ACB0000A6800880232C0F3831002440A60F5E794
:10ACC0000B684288023303EB92130B60EEE71046E9
:10ACD000704700002DE9F04F87B000230446861C22
:10ACE0000DF107000F4615468DF80730FCF7C6F941
:10ACF000454801683960D0E90132134401335B1AD9
:10AD0000824600F21C4700F5836900F21448B34202
:10AD10001CD30020002D73D004F00F039B0143F0DF
:10AD2000050363F30F00DAF80020DAF80830134067
:10AD3000033316444AF823009DF80700CAF8006060
:10AD4000FCF7C0F9012007B0BDE8F08F01213846BB
:10AD5000FDF7CCFB4846FDF7E4FB4046FDF7E1FB81
:10AD6000DAF80400DAF808B0029000EA0B000330C9
:10AD70000AEB800002A9FFF78FFF029B50BB0BEA92
:10AD800003020AEB820203F1020CD2680392013340
:10AD900003EA0B0B0AEB8B0B02F00302012ADBF830
:10ADA0000C10CDF808C023D0022A16D083464046A6
:10ADB000FDF7BAFB10B1029BCAF804305946384679
:10ADC000FDF794FBDAE901231344DAF8002001339C
:10ADD0009B1A9CE70BEA0300C9E7BDF80E30C3F3EA
:10ADE000891303334FEA114B0CEB93030293DEE715
:10ADF000BDF80C30C3F383134FEA114B6344F5E7FE
:10AE0000A40544F006008EE73C3700200B4B0C48AD
:10AE1000FF2210B59A600022C3F81824C3E900226B
:10AE2000C3F8142483F82024FEF7D1F8044610B99F
:10AE30000448FEF7F5FA204610BD00BF3C3700205D
:10AE4000446B03004C74030030B50A4C71B10A4ADC
:10AE50000A49121BD20800239A4201D1002030BDBA
:10AE600031F82350854202D00133F5E7034654F808
:10AE70003300F4E7346A0300446B0300182B00200E
:10AE8000094B013903EBC000032909D8DFE801F0C1
:10AE90000A02040604207047007970474079704721
:10AEA0000020704702207047346A0300034BD3E947
:10AEB0000030C31A58425841704700BF3C37002049
:10AEC0002DE9F04387B0FFF7F1FF0646002840F078
:10AED000F9807D4DC5F81804BFF34F8F6B68AC68DF
:10AEE00002932340033305EB830002A9FFF7D4FE4E
:10AEF000029B18B1D5F81824002A5FD004EA030297
:10AF0000991C013305EB8202234005EB8303D268D1
:10AF1000DB68049302F00303022B0392029160D1D9
:10AF2000BDF80E306948C3F38917502FB84628BFC3
:10AF30004FF0500868F38F1308F10801ADF80E3098
:10AF4000FEF75DF80646002800F0A780FEF786F8B9
:10AF50000023082203A93046FEF793F8029924EA59
:10AF600001020132B8EB820F4FEA820332D95FFA55
:10AF700088F85BB32140DCB2A8EB040803315FFA28
:10AF800088F9A046524C05EB810108234246304621
:10AF9000FEF777F834B108F108034A4621463046F7
:10AFA000FEF76FF8029B033703EB97070297D5F87C
:10AFB0001834002B49D1D5F8104459E02A689A4238
:10AFC0008FD86A60304607B0BDE8F08340491C4620
:10AFD0009946DAE70C40E11C0823424605EB810163
:10AFE000DDE7012B59D1BDF80C303848C3F383118C
:10AFF000062928BF062161F3891302318900ADF8C3
:10B000000C30FDF7FCFF0646002846D0FEF726F878
:10B010000023082203A93046FEF733F80027BDF8C5
:10B020000C20C2F38312BB00974203F10803BED287
:10B0300002994A1C21400331029205EB810104224E
:10B040003046FEF71EF80137E9E73046FEF70AF80A
:10B05000FFF72CFF80F00100C6B2B3E7E3685B792D
:10B0600023B1236831461B6820469847E3681C6873
:10B07000002CF3D13046FDF7F5FF0DF107008DF8F8
:10B080000740FBF7FBFFD5F818340BB9029B6B6048
:10B090009DF80700FCF716F8DAE7D5F8104454B924
:10B0A0000C4B0D480D49C01AC008000440F00200C6
:10B0B00000F062F8CCE7236820469B689847E36875
:10B0C0001C68ECE700267DE73C370020446B03005A
:10B0D00048370020346A0300646A030034740300B4
:10B0E0002DE9F74F224D04460F46924601A9012251
:10B0F0001846D5F808909B46FFF7ECFD20B3019E5B
:10B100004FF00008B21CD84508EB020126D11948BF
:10B110000021FDF7A4F980F31000000440EA144078
:10B12000E400731C04F0380403EA090306EA090684
:10B1300044F0010405EB8303033644EA881444EA2F
:10B140008724D86045F8264095F820341BB1FFF7D6
:10B15000B7FE0028FBD103B0BDE8F08F09EA01017A
:10B1600005EB81015AF82830CB6008F10108CAE7E5
:10B170003C370020583B002000231A46FFF7B0BFA1
:10B1800007B50123019201AAFFF7AAFF03B05DF8FA
:10B1900004FB07B5CDE9002302236A46FFF7A0FFB1
:10B1A00003B05DF804FB1FB5CDE90123069B0393B3
:10B1B00001AA0323FFF794FF05B05DF804FB1FB558
:10B1C000CDE90023069B0293079B03936A46042361
:10B1D000FFF786FF05B05DF804FB7FB5CDE90123DD
:10B1E000089B0393099B04930A9B059301AA0523DB
:10B1F000FFF776FF07B05DF804FB000030B50F499C
:10B20000D1F8102403460020144634B9DC682071BC
:10B210004AB9C1F81034226030BDE468257985420E
:10B2200006D02468F1E7D268116821601360F3E763
:10B2300001300A28E8D14FF0FF30EDE73C3700201D
:10B24000094A38B50123D2F8104482F820341D464B
:10B2500004B938BDE3685D71236820465B68984790
:10B26000E3681C68F4E700BF3C37002007B50346DD
:10B270000846197A052911D05B7A2BB1094A0A4987
:10B280000190FDF7B4F9019808490190FDF7AFF975
:10B29000019803B05DF804EBFDF79EB9002AF8D0E1
:10B2A000F2E700BF58740300A7AC030068990300DD
:10B2B00030B5C38885B004460D4633B1144A0092B8
:10B2C0001449154A2846FDF792F9217A05291DD01F
:10B2D000637A4BB1A088FFF7D3FD104B104953F8A8
:10B2E00020202846FDF783F9227A0E4BA08853F8D8
:10B2F000222003920021FFF7A7FD039A0A49034683
:10B30000284605B0BDE83040FDF771B905B030BD45
:10B3100058740300657403005D740300E474030053
:10B32000A7AC0300087503007D7403002DE9F0430A
:10B3300085B01F460C9D002395F80C902B73064694
:10B340000C46904629463846FFF7B2FFB8F1060F83
:10B3500009D8DFE808F00412181F283340003146EE
:10B360002846FDF744F9002229463846FFF77EFFBC
:10B3700085F80C9005B0BDE8F08322683146284678
:10B38000FDF735F9EFE7D4E9002331462846FDF70C
:10B390002EF9E8E7A36800933146D4E90023284654
:10B3A000FDF725F9DFE7E3680193A36800933146D1
:10B3B000D4E900232846FDF71AF9D4E7236902935C
:10B3C000E3680193A36800933146D4E9002328463B
:10B3D000FDF70DF9C7E76369039323690293E368F7
:10B3E0000193A36800933146D4E900232846FDF772
:10B3F000FEF8B8E708292DE9F74F80460E461746B4
:10B400001C463CD8002593F80C901D731946104635
:10B41000FFF74EFFDFF888A0DFF888B0AE4231D9E1
:10B4200018F8052059462046FDF7E1F80135082DAA
:10B43000F4D11949194DDFF870A02046FDF7D7F86F
:10B440004FF0000B5E4522D918F80B207E2A05D854
:10B450001046019207F0DCFC019A00B92E225146F9
:10B460002046FDF7C4F80BF1010BBBF1080FE9D141
:10B47000012221463846FFF7F9FE84F80C9003B00C
:10B48000BDE8F08F51462046FDF7B1F8CEE72946DA
:10B490002046FDF7ACF8E6E7917403008F740300D3
:10B4A0008D74030087740300937403004FF48C724F
:10B4B000002107F078BD20B100F58C73002298427E
:10B4C00000D1704700F8012BF9E70000C02AF0B561
:10B4D00041D0B2F5807F40D0802A40F0C5800A2359
:10B4E0000446036000F10803520944F8043F01EBED
:10B4F00082028A4233D103680C2B3ED00E2B6CD0D3
:10B500000A2B26D15A4D5B4900F1A006426955F835
:10B51000044B8768C2F307237C40CB5C6340140E66
:10B5200010300C5D83EA0443D4B20C5D83EA0463FB
:10B53000C2F307440C5D83EA042350F8044C836093
:10B5400063400468C36063400361534043618642C3
:10B55000DCD100208AE00C23C2E70E23C0E78B7801
:10B560004D781B0443EA05230D782B43CD7843EA3D
:10B57000056344F8043F0431BBE73D4C3D4900F10D
:10B58000C005C26954F8046B8768C2F307237E4084
:10B59000CB5C7340160E18308E5D83EA0643D6B23C
:10B5A0008E5D83EA0663C2F307468E5D83EA062357
:10B5B00050F80C6C8360734050F8086CC3607340A3
:10B5C00050F8046C03617340066843617340836103
:10B5D0005340C3618542D4D1BBE7254D254900F1D5
:10B5E000E006446A55F8042B8768C4F307237A40C1
:10B5F000CB5C87695340220E20308A5C83EA024389
:10B60000E2B28A5C83EA0263C4F307428A5C83EA9B
:10B61000022350F8142C8360534050F8102CC36060
:10B62000534050F80C2C03615340DAB243618A5CFA
:10B630007A401F0ECF5D82EA0762C3F30727C3F388
:10B640000743CF5DCB5C82EA072282EA034350F8CE
:10B65000042C836153400268C3615340036263401A
:10B6600043628642BDD174E76FF01F00F0BD00BF9A
:10B670001C8603001C7503002DE9F04F47680D6818
:10B680003B684C688E68C968DFF89882DFF898E2FA
:10B69000DFF898C25D407B685C40BB685E40FB6839
:10B6A0004B4001688FB049100139009107F130011A
:10B6B00051F8107C0197EFB251F8200C58F8277020
:10B6C00087EA00091F0E95485EF8277089EA070986
:10B6D000C4F307274FEA146B5CF827705EF82BB0B1
:10B6E00089EA0709C6F30747203150F8277089EA2D
:10B6F0000709E7B25FFA89F058F82770029051F80D
:10B700003C0C87EA000A2F0E84485EF827708AEA0C
:10B71000070AC6F30727C4F307445CF827708AEAD0
:10B72000070AC3F3074750F827708AEA070AF7B2F7
:10B73000CAF3072058F82770039051F8380C474097
:10B7400087EA0B07C3F3072B74485CF82BB087EA32
:10B750000B07C5F3074BDBB250F82BB058F823307A
:10B7600087EA0B07C7F30740360E049051F8340CF4
:10B770005EF82660C5F307254340684873405CF8CF
:10B78000256050F8244051F82C0C0590734063401C
:10B79000C3F30740069051F8280C0790F8B20890C0
:10B7A000C3F3072009901D0EC9F30740DBB20A90CE
:10B7B0000D93009B4FEA1A600B90002B51F8240C5C
:10B7C0000C905FFA8AF4C7F3072B4FEA1966CAF3A5
:10B7D000074AC9F307294FEA17675CDC5049039B06
:10B7E000019811F803C0029B0C5DCB5C43400498A8
:10B7F000085C83EA0C2383EA0043485D059D83EAE5
:10B80000006311F80B0013706C4084EA0024069862
:10B81000089D085C4D5D84EA0044885D079E84EACB
:10B8200000640998085C754085EA00250A980C9E1A
:10B83000085C85EA00450B98085C85EA00650D9870
:10B84000085C704011F8096080EA062011F80A606F
:10B85000C95D80EA064080EA0161180A5070180C40
:10B860001B0E9070D370230A5371230C93712B0A13
:10B8700053722B0C93720B0A14711572240E2D0E39
:10B88000117353730B0C090ED471D5729373D1736A
:10B890000FB0BDE8F08F029B5EF8255058F82330BA
:10B8A0001E4858F824405EF827706B40019D6B409D
:10B8B000039D5CF825505D40049B50F823305D40AB
:10B8C0005EF826305C40059B5C405CF82B305C40A9
:10B8D000069B50F823305C40089B58F823600B9B74
:10B8E0005EF823305E40079B5E40099B5CF8233086
:10B8F0005E400A9B50F823305E400D9B58F8233081
:10B900007B400C9F7B405CF829707B4050F82A708C
:10B910007B40009F013F0097CAE600BF1C7E0300EA
:10B920001C7503001C7603001C8203001C7A0300B4
:10B930002DE9F04F47680C683B684E688D68C96810
:10B94000DFF89C82DFF89CE2DFF89CC25C407B68F9
:10B950005E40BB685D40FB684B4001688FB049109A
:10B960000139009107F13001E7B251F8100C58F895
:10B970002770019051F8200C87EA0009370E96488D
:10B980005EF8277089EA0709C3F307274FEA136BAC
:10B990005CF827705EF82BB089EA0709C5F3074702
:10B9A000203150F8277089EA0709DFB25FFA89F081
:10B9B00058F82770029051F8340C87EA000A270ED5
:10B9C00085485EF827708AEA070AC5F30727C3F39C
:10B9D00007435CF827708AEA070AC6F3074750F85E
:10B9E00027708AEA070AEFB2CAF3072058F82770CF
:10B9F000039051F8380C474087EA0B07C6F3072B32
:10BA000075485CF82BB087EA0B07C4F3074BF6B216
:10BA100050F82BB058F8266087EA0B07C7F30740A9
:10BA20002D0E049051F83C0C5EF82550C4F3072409
:10BA3000464069486E405CF8245050F8233051F875
:10BA4000280C07906E405E40F8B251F82C3C0890EC
:10BA5000C6F3072005930990CAF30743C9F30740CB
:10BA600006930A904FEA1A600B9051F8240C0C9040
:10BA7000C6F307400D9000980028C9F3072B4FEA42
:10BA800017634FEA1664F5B25FFA8AFAC7F307271D
:10BA90004FEA19695CDC51490398019E11F800C016
:10BAA0000298085C7040049E8E5D80EA0C2080EA5B
:10BAB00006400E5D11F80B4080EA06604E5D059D64
:10BAC00010706E4086EA0426069C0C5D86EA0446E9
:10BAD000CC5C099B86EA0464CE5C089BCD5C079B2A
