:1000000000000120750300005D0300005F03000095
:1000100061030000630300006503000000000000AE
:100020000000000000000000000000006703000066
:1000300069030000000000006B0300006D03000076
:100040006F0300006F03000089060000CD0600006A
:100050006F0300006F030000390500006F0300000C
:100060006F0300006F0300006F030000010A00002F
:100070006F0300006F0300006F0300006F030000B8
:100080006F0300004D0400006F0300006F030000C9
:100090006F0300006F0300006F0300006F03000098
:1000A0006F0300006F0300006F0300006F03000088
:1000B0006F0300006F03000000000000000000005C
:1000C0006F0300006F0300006F0300006F03000068
:1000D0006F0300006F0300006F03000000000000CA
:1000E0000000000000000000000000000000000010
:1000F0000000000000000000000000000000000000
:1001000000000000000000000000000000000000EF
:1001100000000000000000000000000000000000DF
:1001200000000000000000000000000000000000CF
:1001300000000000000000000000000000000000BF
:1001400000000000000000000000000000000000AF
:10015000000000000000000000000000000000009F
:10016000000000000000000000000000000000008F
:10017000000000000000000000000000000000007F
:10018000000000000000000000000000000000006F
:10019000000000000000000000000000000000005F
:1001A000000000000000000000000000000000004F
:1001B000000000000000000000000000000000003F
:1001C000000000000000000000000000000000002F
:1001D000000000000000000000000000000000001F
:1001E000000000000000000000000000000000000F
:1001F00000000000000000000000000000000000FF
:10020000354936480A1A02D0072291438D463449AF
:1002100034480A1A06D00722914381F30988022242
:1002200082F3148830483149314A00F044F83148AB
:100230003149324A00F03FF831483249324A00F041
:100240003AF832483249334A00F035F832483349F7
:10025000334A00F030F833483349344A00F02BF881
:1002600033483449344A00F026F8344834490022EF
:1002700000F02CF833483449002200F027F83348C6
:100280003349091A082902DB002202604160314A21
:1002900090471F481F49884205D00268043003B4C4
:1002A000904703BCF7E700208646EC46002000217B
:1002B000294A9047FEE7884207D0521A05D00378B2
:1002C00001300B700131013AF9D17047884202D0F8
:1002D00002700130FAE770470000012000E00020C2
:1002E0000000012000000120780E00000000002026
:1002F0000C000020D0030000D00300003A0E0000E4
:10030000780E000000000020000000203C0E0000DD
:100310003C0E00003C0E00003C0E00003C0E0000B5
:100320003C0E00003C0E00003C0E0000780E000069
:10033000840E00000C0000200C0000200C000020A7
:10034000C5000020C8000020C8000020C800002010
:10035000C82000209D030000BD0A0000FEE7FEE764
:10036000FEE7FEE7FEE7FEE7FEE7FEE7FEE7FEE765
:1003700000F002B8FFF7FCBF0F484FF007018843B9
:1003800085460E4880470E48016841F470010160BF
:10039000BFF34F8FBFF36F8FFFF732BF09480A4992
:1003A0000A4A884207D0521A05D0037801300B70F0
:1003B0000131013AF9D1704700000120610B0000C2
:1003C00088ED00E03C0E000000000020000000204E
:1003D0001FB50021039001AA44F20100CDE90111EB
:1003E00000F004F805B05DF804FB000072B6094B9C
:1003F0001B68DB0700D500BEBFF34F8F0649074BD4
:10040000CA6802F4E0621343CB60BFF34F8F00BFB2
:10041000FDE700BFF0ED00E000ED00E00400FA05AC
:1004200072B6024A13680133136070470C00002053
:10043000034A1368013B136003B962B6704700BFFB
:100440000C000020FFF7ECBFFFF7F2BF024B034A9E
:100450001B681068184700BF18000020100000201B
:100460007FB503788DF804304368029383688DF874
:100470000C30C36804930369064A8DF81430064BA8
:1004800001A853F8213052F82110984707B05DF8C1
:1004900004FB00BF1C00002028000020F0B505462A
:1004A000174615F804CB124A42F82C70114A42F84C
:1004B0002C30114B0C460FCB85B06E4686E80F00F2
:1004C0002368009323798DF8053063798DF8063021
:1004D000A3680293002FA389084AADF80C3008BF27
:1004E0003A4663463146284600F01CF905B0F0BD97
:1004F000280000201C0000203C0E000061040000C9
:1005000000F1804000F5C040002382B00360036822
:100510000193019B02B07047800000F1A040D0F829
:10052000002722F44032C0F80027D0F8003743EA11
:100530000141C0F8001770472DE9F74F00244E4DD8
:1005400001944FF48072012102F1804303F5C0430E
:1005500090B21B68012B06D1D5F804330B4202D0B0
:10056000FFF7CEFF0C430432B2F5907F4FEA410112
:10057000EAD1424B1B68012B0CD14FF4BE70FFF740
:10058000BFFF4FF0A04344F00044D3F82025019270
:10059000C3F8202514F0FF0F1AD0394F012600258B
:1005A000344210D0AB0003F1804303F5C043D3F8CD
:1005B0001005D3F8101557F8253023B1C1F30141C8
:1005C000C0F3042098470135082D4FEA4606E7D1CD
:1005D000002C48DA2A4D4FF0A0482A4E4FF000096F
:1005E000012716F9013B5A1C31D0C3F3C20202A9FC
:1005F0000A44DCB212F8042C03F03F0A03F00703AC
:1006000007FA03F31A4222D00AF5E073504658F86D
:100610002330C3F3014BBBF1020F0CBF03210221B6
:10062000FFF77AFF07FA0AF3C8F8203505EB0A034B
:1006300093F9303055F823304BB1A109032904D088
:10064000BBF1020F12D1012901D15046984709F19F
:100650000109B9F1040FC4D1D8F820350193C8F8C5
:100660002035002BB9D103B0BDE8F08FBBF1030FEB
:10067000EDD10229E8E700BF006000407C61004046
:100680003400002084000020014B1B68184700BF85
:100690009000002038B50B4B98420C4601D000204A
:1006A00038BD0020FFF7CEFE074B1D7915B901229A
:1006B0001C601A710020FFF7C7FE002DEFD011203B
:1006C000EEE700BF0020004090000020114BD3F85F
:1006D000183182B0E3B1104B00221A601B680193FD
:1006E000019B0E4BD97FFF2907D0987F01228A40BA
:1006F0004FF0A04148B1C1F80C2500225A771A7278
:10070000D3E90021064802B01047C1F80825F4E7F4
:1007100002B07047003000401831004098000020BF
:10072000A00000202DE9F74F067901929A464FF07C
:100730002409624B09FB06F903EB090B07469BF8FA
:100740001C200C469846002A40F0B48005685C499D
:100750002846FFF79FFF002840F0AE80019B48F835
:100760000930CBF804A094F800C0217B4FF0A042E0
:10077000012303FA0CF3012994BFC2F80C35C2F827
:1007800008350CF5E0734FF0010E42F823E0637872
:10079000FF2B1FBF0EFA03FEC2F80CE503F5E07E47
:1007A0004FF0030918BF42F82E90A27808BF4FF00F
:1007B000FF33FF2A1FBF02F5E07E4FF0A04A4FF043
:1007C000040B4AF82EB04FF0240E0EFB068818BF1B
:1007D000914688F82020E27888F81F2008BF4FF063
:1007E000FF39FF2ADFF8D48017D094F804A04FF027
:1007F000010B0BFA02FB4FF0A04EBAF1000F4BD0E9
:10080000CEF80CB502F5E0724FF0030B4EF822B0B3
:10081000242202FB068282F81EA0C5F808C5C5F88E
:100820000C35A368C5F81095C5F82435637B003BEB
:1008300018BF0123022932D0032933D0012901D165
:1008400043F00203C5F85435A379C5F8C035072332
:10085000C5F80035019BABB13B68627943F30731C2
:1008600052010029C3F30733D2B21EDB154C6518C1
:1008700085F800230122490903F01F0302FA03F35C
:1008800044F82130242303FB0686002373770123D9
:10089000337703B0BDE8F08FCEF808B5B2E743F088
:1008A0000403CFE743F00603CCE7074903F00F0347
:1008B000CA54E7E70820ECE71120EAE79800002097
:1008C000CD06000000E100E014ED00E02DE9F34169
:1008D0000679474F242373431446FA180D46517F77
:1008E0008646002940F08180FB5823B114F0140F94
:1008F00004BF0123537795E80F004FF0240C0CFB45
:10090000067C0CF10C0888E80F009CF81F20FF2AD9
:1009100008D09CF81E10012393404FF0A042C1B1B3
:10092000C2F80835296821B101F06043B3F1005FD6
:1009300006D1AA6882B102F06043B3F1005F0BD028
:10094000242303FB067600237377102002B0BDE852
:10095000F081C2F80C35E5E7DEF800306868C3F8CE
:100960004415C3F84805E968C3F834250022C3F8E4
:100970003815C3F81821D3F818210192019A14F000
:10098000010218BF0122C3F8502514F0020218BF5B
:100990000122C3F8402522075CBF01221A612422EC
:1009A0007243BA58B2B9D3F81821002AFBD02423D5
:1009B00003FB0676F27FFF2A07D0B07F0123934026
:1009C0004FF0A04218B1C2F80C350020BEE7C2F8C3
:1009D0000835BBE714F004004FF0400202D0C3F822
:1009E0000823F2E7C3F80423B0E71120AEE700BF05
:1009F00098000020014B01221A707047C4000020AB
:100A000030B5164B164D0024012285B0C3F8404185
:100A100021469A602846072200F0DCF9114B124863
:100A20001C70124B0093224607236946CDE901351D
:100A30000393FFF74BFF08B1FFF7CAFC4FF0A0424A
:100A4000D2F80435D94301F4003103F40033C2F87D
:100A50000815C2F80C3505B030BD00BF00B000402D
:100A6000BC000020C4000020600E00000000002038
:100A70004FF080430022C3F8182501229A60D3F872
:100A80000421002AFBD00B4B4FF400621A60802235
:100A900083F82423084B4FF48032C3F80423202228
:100AA000C3F80825C822C3F8402501229A601A60BD
:100AB000704700BF00E100E000B000401FB50A4BE6
:100AC0000FCB6C4684E80F001D238DF80330074AD6
:100AD000074800232146FFF7E1FC08B1FFF778FC47
:100AE000FFF7C6FF20BFFDE74C0E0000F509000030
:100AF0005C0E00000B4B1B685A1C05BF0A4B0B4ACF
:100B00000B4A10680ABF1B781068C0F30310062B4D
:100B100005D1033803288CBF002001207047002036
:100B2000704700BF30010010E00F00F0E80F00F048
:100B300034010010074B1B78062B09D1064B1B68AC
:100B4000C3F30313033B032B02D8044AD05C704762
:100B500000207047E00F00F0E80F00F0740E000076
:100B600008B5FFF7C7FF28B1834B844A1B68C3F35E
:100B700004231360FFF7DEFF10B1814B814A1A6036
:100B8000FFF7B8FF28B1804B804A1B68C3F342339C
:100B90001360FFF7CFFF20B17D4AD36823F0807345
:100BA000D360FFF7A7FF40B14FF080430022C3F8A6
:100BB0000C21C3F81021C3F83825FFF7BBFF10B193
:100BC000744B03221A60FFF7B5FF40B1724B052248
:100BD0001A6001229A6700229A603F225A606F4B86
:100BE0001A68511C0BBF6E4B6E4B1A781B6802BF04
:100BF00008331B68C3F30313062A4DD1033B032BB1
:100C00004AD8694AD35C002B46D04FF08052674BDC
:100C1000D2F80414C3F82015D2F80814C3F8241528
:100C2000D2F80C14C3F82815D2F81014C3F82C15F8
:100C3000D2F81414C3F83015D2F81814C3F83415C8
:100C4000D2F81C14C3F84015D2F82014C3F8441588
:100C5000D2F82414C3F84815D2F82814C3F84C1558
:100C6000D2F82C14C3F85015D2F83014C3F8541528
:100C7000D2F83414C3F86015D2F83814C3F86415E8
:100C8000D2F83C14C3F86815D2F84014C3F86C15B8
:100C9000D2F84424C3F87025FFF72CFF28B1444B49
:100CA000444A1B6803F04F031360FFF723FF48B16A
:100CB0004FF08043D3F80024D20744BF6FF0010205
:100CC000C3F80024354B1B68062B0CD1354B1B6831
:100CD000033B032B07D8384AD35C23B1374A136848
:100CE00043F480631360364AD2F8883043F47003CB
:100CF000C2F88830BFF34F8FBFF36F8F4FF01023D0
:100D0000D3F80022002A03DBD3F80432002B2FDAB9
:100D10002C4B0122C3F80425D3F80024002AFBD071
:100D20004FF010221521C2F80012D3F80024002A37
:100D3000FBD04FF010231522C3F80422214B1A4692
:100D4000D3F800140029FBD00021C3F80415D2F811
:100D50000034002BFBD0BFF34F8F19491A4BCA68E0
:100D600002F4E0621343CB60BFF34F8F00BFFDE797
:100D7000164B174A1A6008BD240300104035014085
:100D800074C007400DF0ADBA440200103C050040AD
:100D9000F0ED00E0A00500401056004030010010CA
:100DA000E00F00F0340100106C0E000000C00040A5
:100DB00058020010E40E0040700E00003C17004086
:100DC00000ED00E000E001400400FA05080000200A
:100DD0000090D0038446002A2DD010F0030F04D0D9
:100DE00000F8011B013A26D0F7E7C9B241EA012118
:100DF00041EA0141202A12D3A2F120022DE9F00399
:100E00000B460C460D460E460F4688468946A0E81E
:100E1000FA03203AFBD2BDE8F00320320BD0042ABB
:100E200005D340F8041B043A05D0042AF9D200F88F
:0A0E3000011B013AFBD16046704738
:100E3C00FFFFFFFF0006FF00000000400000000065
:100E4C00FFFFFFFF06FF0000000000400000000055
:100E5C000000000000300040000000000100000015
:0C0E6C0000000101000000010100000076
:0C0E78004E6F7264696300000090D003AC
:040000030000037581
:00000001FF
