:020000022000DC
:1060000000000120756302005D6302005F6302000F
:106010006163020063630200656302000000000028
:1060200000000000000000000000000067630200A4
:1060300069630200000000006B6302006D630200F0
:10604000559902006F630200619D02006F630200B8
:106050006F6302006F630200119C02006F63020015
:106060006F6302006F6302006F6302006F630200E0
:106070006F630200899E02006F6302006F6302007B
:106080006F630200597302006F6302006F630200C6
:106090006F6302006F630200D52403006F63020088
:1060A0006F6302006F6302006F6302006F630200A0
:1060B0006F6302006F630200000000000000000038
:1060C0006F6302006F6302006F6302006F63020080
:1060D0006F6302006F6302006F6302000000000044
:1060E00000000000000000000000000000000000B0
:1060F00000000000000000000000000000000000A0
:10610000000000000000000000000000000000008F
:10611000000000000000000000000000000000007F
:10612000000000000000000000000000000000006F
:10613000000000000000000000000000000000005F
:10614000000000000000000000000000000000004F
:10615000000000000000000000000000000000003F
:10616000000000000000000000000000000000002F
:10617000000000000000000000000000000000001F
:10618000000000000000000000000000000000000F
:1061900000000000000000000000000000000000FF
:1061A00000000000000000000000000000000000EF
:1061B00000000000000000000000000000000000DF
:1061C00000000000000000000000000000000000CF
:1061D00000000000000000000000000000000000BF
:1061E00000000000000000000000000000000000AF
:1061F000000000000000000000000000000000009F
:10620000354936480A1A02D0072291438D4634494F
:1062100034480A1A06D00722914381F309880222E2
:1062200082F3148830483149314A00F044F831484B
:106230003149324A00F03FF831483249324A00F0E1
:106240003AF832483249334A00F035F83248334997
:10625000334A00F030F833483349344A00F02BF821
:1062600033483449344A00F026F83448344900228F
:1062700000F02CF833483449002200F027F8334866
:106280003349091A082902DB002202604160314AC1
:1062900090471F481F49884205D00268043003B464
:1062A000904703BCF7E700208646EC46002000211B
:1062B000294A9047FEE7884207D0521A05D0037852
:1062C00001300B700131013AF9D17047884202D098
:1062D00002700130FAE770470000012000E0002062
:1062E0000000012000000120A8AF03002C2B00209B
:1062F00070310020D0630200D06302000855030013
:10630000A8AF03002C2B00202C2B002030570300BB
:106310003057030030570300305703003057030055
:10632000305703003057030030570300A8AF030075
:10633000ECB5030070310020703100207031002076
:1063400044450020444500204445002044450020A9
:10635000446500209D6302007DCA0200FEE7FEE75F
:10636000FEE7FEE7FEE7FEE7FEE7FEE7FEE7FEE705
:1063700000F002B8FFF7FCBF0F484FF00701884359
:1063800085460E4880470E48016841F4700101605F
:10639000BFF34F8FBFF36F8FFFF732BF09480A4932
:1063A0000A4A884207D0521A05D0037801300B7090
:1063B0000131013AF9D1704700000120F5CC02000B
:1063C00088ED00E01C570300182B00202C2B002028
:1063D000022004F035BA00002DE9F04780460D4652
:1063E00004F04EFA0328044610D8012D10D0022DD7
:1063F00030D05DB91A4800F068FD1A4B04EB440236
:1064000013449E78184B1B5DB34219D0BDE8F0874A
:10641000144D00EB4002A918AE5C4A78470052B117
:10642000DFF84C900E484A464FF4804100F035FDAD
:1064300008B989F800803B192B449A780A4B1A5501
:10644000002EE3D0094B1B68002BDFD03046BDE89F
:10645000F047184700EB4004024804446678EFE731
:1064600098310020D8310020F1310020EC3100209B
:106470007031002000780221FFF7AEBF08B5094B4C
:106480001B7853B1002004F0B1F9012004F0AEF9FB
:10649000BDE80840032004F0A9B9BDE8084004F0B5
:1064A000B1B900BF71310020F8B57B4C23780546A7
:1064B0001BB100232370FFF7E1FF172D00F2888046
:1064C000DFE805F00C17174354657680888D888DBA
:1064D000959A9A9A9A9AC4C9D1D9E4E4FFF7CEFF63
:1064E0006E4800F0F2FC6E4B002204461A70204603
:1064F000F8BD002004F060F9F8B1002004F076F94E
:10650000022D0CBF4FF4E1614FF47A61644B1D70B2
:106510004FF400404FF47A740025E0FB01454FF43E
:10652000FA620023204629460CF0C8F900220146F1
:10653000BDE8F840594800F0B0BC04F04BF9022D1A
:106540000CBFC8214FF4C871E0E7002004F034F913
:1065500040B1002004F04AF94FF44871504B032237
:106560001A70D5E704F036F9C821F7E7002004F0E7
:1065700023F938B1002004F039F94FF47A61484B1F
:106580000422EDE704F026F94FF4C871F7E7002084
:1065900004F012F948B1002004F028F9404B05221C
:1065A0001A7040F6CD410022C2E704F013F9F5E776
:1065B000002004F045F93A4B06221A70002240F2FE
:1065C0006661B5E7002004F005F9354B07221A7023
:1065D00000248CE70120207004F032F9EEE701205E
:1065E000207004F02DF900224FF40051A0E704F0D0
:1065F00018F92B4B0C22EAE72A482B4E00F065FCD9
:10660000D5F1110504461CD0D8B9012D13D0C823EB
:106610005D434FF400474FF47A7000214FF4FA6263
:106620000023C7FB05010CF049F9224601461D482D
:1066300000F033FC0446022004F0CCF80123337050
:1066400055E7022004F0D2F80023F8E7FFF716FF21
:10665000134B1222BBE7FFF711FF002004F0BAF83A
:106660000F4B1322B3E7FFF709FF012004F0B2F844
:106670000B4B1422ABE7FFF701FF002004F0AAF850
:10668000012004F0A7F8064B1522A0E704F0C9F892
:10669000034B1D709CE700BFE8310020B83100209B
:1066A000F03100207831002071310020044B1B684C
:1066B000DB0703D5034B1878FFF7F6BE704700BF22
:1066C000E4310020F0310020032801D804F0CAB8DA
:1066D00000207047044B1B6813F0010301D0FFF743
:1066E000E3BE1846704700BFE431002038B51C4BAC
:1066F00018601C4B10F00204054619601AD01A4BA2
:106700001A480E221A700F22DA7010229A71112282
:106710005A72042140F2333200F054FA044648B968
:1067200000F0A6FA044628B90146114A114800F0C3
:10673000A9FB0446EB0711D5012004F0B9F86CB9A8
:1067400021460D4A0D4800F09DFB044630B9BDE8D6
:1067500038400B4A0B48012100F094BB204638BD5D
:10676000E4310020EC310020D83100203057030004
:106770007564020054570300AD66020058570300C9
:10678000D163020050570300032811D8012A0AD10F
:1067900001290FD100F10E02D2B20D4B00EB4000E7
:1067A0001A54002070470129F7D0022904D049B1BA
:1067B000072070470022F8E7054B00EB4000184423
:1067C0004270EEE7024B00EB400018448270E8E7AD
:1067D000D8310020032808B512D804F063F88000EF
:1067E00000F1A040D0F8003723F44033C0F8003760
:1067F000D0F8003743F44033C0F80037002008BD1C
:106800000620FCE708B5012202210020FFF7BCFFAB
:1068100008B1072810D1072202210120FFF7B4FF99
:1068200008B1072808D100210A220846FFF7ACFF6B
:1068300010B1072808BF002008BD00000388102BF6
:1068400010B502D0112B1ED010BD1A4C2168B1B961
:1068500001220846FFF798FF08B1072824D1072234
:1068600002210120FFF790FF08B107281CD1042264
:1068700002210020FFF788FF08B1072814D1236800
:1068800001332360E0E70B4A1368013B1360002BE0
:10689000DAD1FFF7B7FF0028D6D0074B1B68002BD3
:1068A000D2D0BDE810401847034B1B68002BE6D040
:1068B0009847E4E7FC310020F831002008B50020BB
:1068C000FFF788FF08B1062806D10120FFF782FFF5
:1068D00010B1062808BF002008BD00000D4B10B500
:1068E00018600C4629B10120FFF7EEFE40B10223EB
:1068F0002370094B1B6853B9BDE81040FFF782BFF6
:10690000FFF7E2FE08B10B23F2E72070F1E7002069
:1069100010BD00BFF8310020FC31002005F09EBD05
:106920000021084605F04EBD10F1360F0AD058B1CF
:1069300048F2165248F2115310F1380F14BF1046A6
:106940001846704748F21450704708B5084611467B
:1069500002F03EFF002008BD30B5044685B000209F
:1069600002F0B8FE054678B9201D039005F068FADC
:106970000649039800952B462A4605F0B6FA05B05D
:10698000BDE83040FFF7D0BF05B030BD4B69020015
:1069900008B5043005F059FA02F0C8FE002008BD21
:1069A00008B5043005F038FBBDE80840FFF7BCBF70
:1069B00008B5114604301A4605F055FABDE80840FE
:1069C000FFF7B2BFC30710B507D4F023054A40084C
:1069D000145C23401943115410BD0901C9B20F239F
:1069E000F4E700BF3032002030B5094B1C78094B6A
:1069F000196800239C4202DC0022104630BD11F8C9
:106A00003350854201EBC302F7D00133F2E700BFF8
:106A1000003200204032002013B504460191FFF7F8
:106A2000E3FF38B143682BB10199204602B0BDE8BD
:106A30001040184702B010BD034B044819680022EB
:106A4000490800F02ABA00BF0432002008320020B2
:106A500010B5C0B2FFF7C8FF0446007803F0CEF8C7
:106A600063785A1E53425341834208D1044BD3E901
:106A70000023134303D1BDE81040FFF7DDBF10BD75
:106A80002832002037B54308354AD35CC2074CBFD3
:106A90001B0903F00F0304460D46042B35D8DFE82D
:106AA00003F003252C383C0079B30121FFF78AFF5E
:106AB00000230DF107008DF8073000F0DFFA012008
:106AC000A4F12003C4F12001264A20FA01F100FAC2
:106AD00003F30B43A040D2E9004120430B43C2E93A
:106AE00000039DF8070000F0EDFA0EE0002918BF42
:106AF00002212046FFF766FF07E041B10321FFF7BF
:106B000061FF01212046FFF787FF03B030BD01215F
:106B1000EFE70029F9D10421EBE709B10321E8E708
:106B2000FFF750FF29462046FFF776FF0DF10700DB
:106B30008DF8075000F0A2FA0120A4F12003C4F15F
:106B40002001084A20FA01F100FA03F30B43A040A8
:106B5000D2E9004124EA000021EA0303BFE700BFB5
:106B600030320020283200202DE9F041124E134F20
:106B700000243378A34208DC114BD3E900231343EC
:106B800018D0BDE8F041FFF757BF3D6805EBC408DA
:106B900015F8340003F032F898F801305A1E5342C9
:106BA0005341181A4142414115F83400FFF76AFF7A
:106BB0000134DEE7BDE8F0810032002040320020E1
:106BC00028320020092AF7B505460C4616463CD95E
:106BD00002F054FFD8B11E4B1E481D601E4B1F4FC4
:106BE0001C701F4B002110221E600BF088FF1D4BF4
:106BF00000200021C3E90001013CE4B20326FF2C80
:106C00000BD1194A1948002100F03CF903E002F0C9
:106C1000F7FE0028DFD003B0F0BD9DF8063015F870
:106C200034008DF8046005EBC40223F007038DF8EF
:106C3000063001A993788DF805303A4602F028FF16
:106C4000013CE4B20028DAD0E5E70720E3E700BF23
:106C5000403200203032002000320020516A020011
:106C60000432002028320020696B020068570300BC
:106C700070B5084D084E00242B789C4201D30020AB
:106C800070BD3368012113F8340002F073FF013442
:106C9000F2E700BF00320020403200201FB5002183
:106CA000039001AA44F20100CDE9011100F004F8BB
:106CB00005B05DF804FB000010B572B604F0B2F93F
:106CC00004F008F80028FBD1104B114C1149E41ACC
:106CD000E408240444F0010004F040F90E4B1B6862
:106CE000DB0700D500BE0D4944F0020004F036F980
:106CF000BFF34F8F0A490B4BCA6802F4E06213439B
:106D0000CB60BFF34F8F00BFFDE700BF9C55030072
:106D1000CC5503006C570300F0ED00E078570300FA
:106D200000ED00E00400FA05D0E90223D1E90201F8
:106D3000994208BF90422CBF0120002070470000FC
:106D400008B50B4800F0F1FA0A4B0B49D3E90023D0
:106D50001218D1E9000143F100038B4208BF8242BF
:106D600003D212F1807243F100031046194608BDA8
:106D70002C2B002048320020C032002037B50546B9
:106D80000C460A4801A901F09EFA60B10570446002
:106D900001A9064801F0C1FA18B1054800F0CAFA85
:106DA000002003B030BD0420FBE700BFAC32002060
:106DB0002C2B002038B5184B1B78044613B900253E
:106DC000284638BD0028FAD0037F03F0FF05002BCA
:106DD000F5D0FFF7B5FFD4E90223994208BF9042EE
:106DE00014D3236903B92377D4E90530984721697F
:106DF0000029E4D0237F03F0FF05002BDFD0D4E986
:106E00000223521843F10003C4E902230348214638
:106E100002F025FBD4E700BF503200209457030056
:106E200013B5114B114918680190082310485822D6
:106E300001F014FA044698B90E4A0F4801A900F06F
:106E400065F9044660B90C48012100F051FA0123AC
:106E50000A4A0948194600F0B3F9094B01221A7091
:106E6000204602B010BD00BF9057030054320020EE
:106E7000AC320020E56E02002C2B0020FFFF7F00CB
:106E8000503200203AB103685A614A1E51425141C2
:106E90001961002070470720704738B5037F04460A
:106EA0000D4683B98261FFF74BFF2369401941F119
:106EB0000001C4E9020103B1256121460020BDE8BB
:106EC0003840FFF75BBF002038BD00230146037741
:106ED0000120FFF753BF0000014800F026BA00BFB1
:106EE0002C2B00202DE9F04F85B0804600F008FAE9
:106EF00040B15A4AD2E9003113F1807341F10001E7
:106F0000C2E900310021404600F009FA38B1544E80
:106F1000336823B13068FFF74DFF00233360012150
:106F2000404600F0FCF920B1FFF70AFF4D4BC3E9E2
:106F300000014D484A4F4D4EDFF8389103A901F04A
:106F4000FCF9002845D1DFF82491454EDFF828A14F
:106F5000484602F09AFA3368002875D07BB133684E
:106F6000D0E90201D3E90223994208BF90422DD211
:106F700033681B7F1BB13168484602F070FA4846FF
:106F800002F07DFAD0E902B307460193FFF7D8FE7D
:106F9000019BBBEB000463EB0105012C75F10003C1
:106FA00045DBB4F5350F40D3FFF796FF304A024476
:106FB0004FF496030021504600F022F900283ED1FC
:106FC000336813B9404600F0F3F8376005B0BDE808
:106FD000F08F0378012B1DD0022B09D14FF0000A4E
:106FE000304602F04CFA002834D080F81CA0F7E7B5
:106FF0003BB941680B7F23B901230B77304602F080
:107000002EFA03A9184801F0C3F903A9164801F0A4
:1070100094F996E741683B68994202D100233B60AE
:10702000EFE7304602F034FAEBE7BA68C0E7002138
:10703000504600F06AF93846FFF7BCFE01E00D2823
:10704000F9D00023336083E7002BBFD1404600F026
:10705000B3F8BBE7012389F80030D2E748320020BB
:10706000C8320020C0320020AC3200209457030008
:10707000FFFFB400503200202C2B002070B5EFF33E
:10708000108672B60C4A946801239CB993600B4B2E
:107090000B4DD3F8801029401160C3F88050D3F80D
:1070A000841051604FF0FF32C3F88420047006B999
:1070B00062B670BD0370FAE7CC32002000E100E058
:1070C000FC06FFBD084B9A6810B55AB150B9EFF3F2
:1070D000108172B6054A1C6814605C685460986040
:1070E00001B962B610BD00BFCC32002000E100E063
:1070F000435882B03BB10023435043580193019B56
:10710000012002B070471846FBE70000F8B5204B9D
:107110004479204D43F824201F4A204B05EBC4043A
:107120009B1A2279DB081B0432B143F002001C4990
:1071300003F014FF0820F8BD02680C88C2F8084567
:1071400090F904608A7804795201002ED2B219DBDA
:1071500014498F1987F800230122760904F01F04CF
:1071600002FA04F441F82640427905EBC2010124F9
:1071700045F832000C7143F003000B4903F0EEFEBA
:107180000020D8E7094904F00F040A55ECE700BFD6
:10719000E0320020D83200209C550300DC5503006B
:1071A000A057030000E100E0C257030014ED00E027
:1071B000036801221A607047036801225A60704711
:1071C00073B501F15005AD000068ADB24FF48034E5
:1071D0008C400026C0F80843C0F84843465101F5EA
:1071E000A8714559019522F07F42019D40F8212068
:1071F000C0F844430BB1C0F8044302B070BD0000B6
:107200002DE9F74F0D4622F07F4402684FF4803796
:1072100005F150068F408046B60002EB8500C2F8AB
:107220004873B6B2C2F80873D2F8041599464FF005
:10723000000BD0F84035C0F8401542F806B05B1A94
:107240009259009223F07F43012B009A4FEA850A5E
:107250000CD1264B4FF4806043F001039847D8F8D7
:10726000003043F806B09B590193019BD8F80010F9
:10727000D1F80465C1F84473A31B23F07F43012BAD
:107280001CD11A4B05F5A875013443F0010341F8F0
:1072900025404FF480609847D8F80030D3F8043583
:1072A0009E4209D1D8F800300020C3F84473C3F8D7
:1072B000047303B0BDE8F08F0D20FAE78A44C9F1EA
:1072C000FF13CAF84045D1F80405221A013A22F00A
:1072D0007F4203F57F439342EED3002AE2D101348B
:1072E000CAF84045D1F804359842DAE7E057030080
:1072F00003680222C3F8442309B1C3F8042370478A
:1073000000684FF48271FFF7F3BE4FF4803303FA45
:1073100001F10368C3F84813C3F8081370475031EC
:107320008900006889B2FFF7E3BE0368D3F804055B
:107330007047000090F90430002B09DB5A09012145
:1073400003F01F0301FA03F34032024941F82230EF
:10735000704700BF00E100E0024B034A1B68106861
:10736000184700BFE0320020D832002070B5064D2B
:107370000646002455F8043B0BB1304698470134CB
:10738000042CF7D170BD00BFF0320020033080B272
:1073900040F2FE33984230B51FD8134B1A783AB9F1
:1073A0001C895D892C440444A4B2B4F5806F0AD9C9
:1073B0001A7DAAB99A8BDC8B2244024492B2B2F5B0
:1073C000806F0DD801220A801446142202FB043378
:1073D0005A8910445881002030BD48F20860FBE70C
:1073E00048F20660F8E700BF243300200B4A0C4B3C
:1073F0005188142000FB0131CB6833B9042049685F
:1074000010700122074801F087BB0749052313705C
:1074100002238B80012209680023F3E70833002050
:1074200024330020182B0020EC33002007B5002364
:1074300005490093054A09680548082301F0D6FA72
:1074400003B05DF804FB00BFEC330020F4570300E9
:10745000182B002007B5002301460093034A044877
:10746000082301F0C3FA03B05DF804FBEC570300F6
:10747000182B002013B500230C4600930146084A40
:107480000848042301F0B2FA38B90749142303FB72
:1074900004140123237402B010BD48F20D60FAE712
:1074A000E8570300182B00202433002037B50A4882
:1074B0000A4B42689C88196853880325033305707A
:1074C0009BB2002000909B0001EB8401044801F076
:1074D0008DFA03B030BD00BF08330020EC3300202C
:1074E000182B002010B50146044800F0ECFE1C22C9
:1074F000044600210BF003FB204610BDD8330020CA
:1075000068B10268084B9A4209D14068074B98421B
:1075100007D00133984214BF032001207047032095
:1075200070470020704700BFDEC0ADDEFE011EF1D7
:107530004388033300EB830399420BD382884FF6D1
:10754000FF739A4208D0038833B18068431C5842C5
:107550005841704702207047012070472DE9F041E3
:107560000D460223154F2B80164600F5805100F181
:1075700008044FF001088C420ED2236801330BD06F
:107580002046FFF7D5FF48B10EB186F800800228EB
:1075900009D14FF480632B80BDE8F081A3683A687D
:1075A000934200D93B602B886288033313442B80BD
:1075B0006388033304EB8304DDE700BF1C33002042
:1075C00038B5144B14220D4602FB00302B6844687A
:1075D00004F58051A3B15C88033403EB84048C422E
:1075E00015D22368013312D02046FFF7A1FF0128EE
:1075F00008D002280BD00028F1D12C60012038BD22
:107600000834ECE76388033304EB8304E7E70020E6
:10761000F5E700BF24330020426873B504460D46E9
:107620006AB3244BD9688A4229D31B699A4226D867
:1076300012F0030323D120490089098988421ED111
:107640002068916888421AD11C494868824203D94F
:1076500000F5805082420DD389698A420CD901F528
:1076600080518A4208D201222A80B3FA83F040096D
:1076700002B070BD1A46F7E748F20963F5E7002348
:107680002B801E460196288801A9FFF799FF30B983
:107690002B8801339BB2012B2B80F3D9E8E7019BA8
:1076A000226899689142EED16360034B1B89238164
:1076B000DEE700BF182B0020083300202433002011
:1076C0002DE9F8431C461D4B1B7806460F46154610
:1076D00073B382B37CB3DFF86C804FF01409A388D6
:1076E000012B02D948F2096020E009FB03F318F8E6
:1076F00003302BB9A0882146FFF762FF20B9206034
:10770000A3880133A380EAE723681EB199883288F1
:107710009142EFD11FB119883A889142EAD19A6813
:10772000C5E90023064B1B892B810020BDE8F883A7
:1077300048F20160FAE748F20460F7E700330020FE
:10774000083300202433002008B5074B5888191D42
:10775000FFF736FF18B1BDE80840FFF7A7BEBDE848
:107760000840FFF743BE00BF083300202DE9F04F6B
:10777000A44FDFF8B49289B00646B8463B6823B9F7
:10778000A148494600F0D9FD3860D8F80050297862
:107790004B1E052B07D8DFE813F022007C007C008D
:1077A0000E010E01660148F20E641422002103A8A6
:1077B0000BF0A5F941F61D539C4208BF0024D8F8F0
:1077C000003004941A78013A052A00F2F881DFE8C3
:1077D00012F0E401E8010802180224022E022EB180
:1077E0008A4B00225A604FF40644DEE72B79032BC4
:1077F0001DD8DFE803F015022B3685490B78022BE4
:1078000008461AD00B7D022B4FF0010317D114222A
:107810005343C2180020C8545068FFF71BFE03E012
:1078200001232B71FFF702FE002800F0BE80774B8A
:1078300000225A6048F20D64B7E70023E7E7734A75
:1078400013700023536041F61D54AEE7714972482E
:10785000002302222B718A800968012201F05CF961
:10786000E2E76C4C00262E712068694DFFF7F2FDAF
:107870006A4BD4F800C05A8814235343EA18EE54D4
:1078800051682160A188C2F804C011810222A2803F
:10789000CAE7B5F814A0AA7DDFF874B1AEB1022A28
:1078A000EB8806D9142101FB0AB1DA1C08890244CD
:1078B0000A81142202FB0ABAC3F57F43BAF80A20F0
:1078C000FD331344AAF80A308DE7142303FB0AB3EF
:1078D00018895C6804EB8004062A69D8DFE802F0A6
:1078E000274E36441D5A040041F61D54AA7DEB88EC
:1078F000022A06D9142101FB0AB1DA1C08890244C4
:107900000A81142202FB0ABAC3F57F43BAF80A209F
:10791000FD331344AAF80A3047E7414841490023A0
:107920004360AB690360FFF777FE00285BD002235A
:10793000AB75002300930423EA182146364801F072
:1079400055F8002831D048F20D64CFE72B69002BA1
:1079500014BF03230123AB750023009305F10C0230
:10796000042304F10801E9E70123AB750022EB8849
:1079700000922A699B0004F10C01DFE703290CBF88
:1079800005230623AB7500230093042305F10802A9
:10799000E118D3E70623AB75224B1988204B5868B2
:1079A000FFF768FD04460028A0D109B0BDE8F08FBC
:1079B00048F20E649AE7002E7FF415AF2B79012B65
:1079C00034D0022B3FF43FAF002B7FF4ECAE022308
:1079D0002B710DF10A01EB68039303A8CDE904664E
:1079E000FFF71AFE10B948F20964DEE60498BDF804
:1079F0000A108388EB8003882B81FFF73BFD044648
:107A000027E000BF20330020D833002000330020BF
:107A100024330020EC330020182B002008330020F2
:107A2000E4320020F833002018330020814B03AAF1
:107A30003146A81DFFF744FE7E4B044668B999887D
:107A40000498FFF717FD044648F209639C423FF48F
:107A5000FAAE002C7FF4A9AEA7E7082231461846FB
:107A60000BF04DF8F0E7002E7FF4BDAE724B1A7BA1
:107A7000B2B11E731A78013A062A3FF694AE01A1FC
:107A800051F822F02F7B0200557B0200737B02002D
:107A9000797B0200A77702007F7B0200917B0200C6
:107AA0001A78072AE6D801A151F822F0CD7A02000F
:107AB000757A0200757A0200F37A0200077B0200F1
:107AC0002B7B02002B7B0200EF7A02001A895B49B4
:107AD00001321A8100225A801A730A78B2FA82F2AD
:107AE00052099A720A7DB2FA82F25209DA720122BE
:107AF00007E0534958688A884088033202448A80E4
:107B000002221A70B6E74D4C5A884D49142505FBE0
:107B100002420868546850608888108102200C6016
:107B20008880002111740622EBE70722E9E79A7AA0
:107B300032B9DA7A8AB900221A705A805A6082E61B
:107B40003E4900229A72CA68002AF2D1097C0029B3
:107B5000EFD05A80FFF7F8FD51E70022DA72374A7A
:107B6000116A0029E7D192F82420002AE3D00122EB
:107B7000EFE7FFF79BFC42E7FFF738FC3FE72F4AB0
:107B80005B88142101FB03235868FFF763FC36E789
:107B900000225A60FFF74AFC31E700238DF80C30D1
:107BA0000DE001228DF80C201A89ADF818209A8872
:107BB000DB680593ADF81A2000238DF81C3003A86C
:107BC000FFF7D4FB002649461E48C8F8006000F0C5
:107BD000DFFB1D48012100F095FC00287FF4CEADAD
:107BE000E3E602228DF80C201A89ADF818209A8855
:107BF000ADF81A20DA689B7D05929A1F53425341D3
:107C0000DBE703228DF80C20DA88ADF818201A89FA
:107C1000DB68ADF81A200593D1E704228DF80C201B
:107C2000DB88ADF818300023ADF81A30F3E70523F0
:107C3000B4E700BFFC3300200833002024330020C9
:107C4000EC330020D8330020E83300204068FFF7F1
:107C50008DBD000008B50548012100F03BFC18B9B6
:107C6000BDE80840FFF782BD08BD00BFE833002033
:107C70002DE9F3419846374B1B7806460D46002BFD
:107C80005CD000295DD009884FF6FF7399425BD024
:107C90006B88002B58D06B689B0758D14AB92F8945
:107CA0000DF102013846FFF771FB30B102B0BDE8BB
:107CB000F08113885788ADF8023001A8FFF712FC55
:107CC000044660B9BDF80230234A142101FB0323A6
:107CD00058890338C01B588148F20760E6E780F8EE
:107CE000008000238375BDF8023083826B680361D6
:107CF00001211A4800F0FAFB2B882381B8F1030F09
:107D00006B88A38004BF0423A3754FF0000508BF50
:107D10003368E06008BFA3611148E780658101A96D
:107D200000F0FBFA36B1E36833600E4B75601B89D7
:107D3000B5723381FFF78EFF0020B7E748F201608C
:107D4000B4E748F20460B1E748F20360AEE748F2F6
:107D50000260ABE700330020243300201C330020F6
:107D6000D83300200833002008B5034607480268CE
:107D7000042A08D00168064A42F82130012100F0A7
:107D8000B5FB002008BD48F20B60FBE7F433002090
:107D9000F03200202DE9F04F89B01422002103A811
:107DA0000AF0ADFE794A137803F0FF010091904686
:107DB0003BB103A8FFF7DAFA0027384609B0BDE85F
:107DC000F08F101D00F0AAFB0028F5D140F6F873E3
:107DD0004FF080521B685C1C08BF6D4B6D4C08BF98
:107DE0001B6811695269581C08BF02FB01F323612B
:107DF0006949A3F5405300222046E36000F0C4FD2A
:107E0000019407460028D8D164496548DFF8A4B139
:107E10001C238C2200F022FABA463D464FF003099B
:107E20003C46019BDE6856443046FFF769FB01285B
:107E300062D0032817D000283DD15A494FF0140CC6
:107E40000CFB04FC01EB0C0201F80C0056600CF179
:107E500010020CF1080C0A4430466144FFF77EFB27
:107E600045F0020545E03268531C02D04E4B9A4261
:107E700034D1321D06F58051106801302ED1043204
:107E80009142F9D1DBF800203AB902220123CBF864
:107E90000060ABF8042000930BE014226243414BD6
:107EA000022099189854414A4E6054800134088148
:107EB000A4B245F001050AF5805ABAF5405FB0D189
:107EC000B9F1010F98BF0025EDB2022D03D0062DA8
:107ED00031D0002D39D148F20A676EE731491422BA
:107EE0006243881809F1FF394660032088541FFA5D
:107EF00089F90134A4B2DEE7009B6BB1294B14224F
:107F00006243991802209854DBF800204A60274AFF
:107F1000088154800134A4B200222549CBF80060C6
:107F20003046FFF71BFBBBF80420022A0CBF0422DB
:107F300008221543BFE7012388F8003003A8002377
:107F4000C8F80430FFF712FA37E702A8FFF7CAFAB9
:107F5000C8B10123013D03700A2D09D8DFE805F0FF
:107F600006080608070807080F110F000023037111
:107F700002A90B4800F0D1F9FFF76CFE1DE70323BF
:107F8000F5E70223F3E748F2076716E7003300201E
:107F900014100010182B0020F05903004C3300205F
:107FA000D833002024330020DEC0ADDE08330020AB
:107FB000F0330020EC33002073B50D460446C8B101
:107FC000C1B10DF10601FFF727FBB0B10C4BBDF8B5
:107FD00006006668142202FB003001210C3000F01C
:107FE00085FA63682E600C336B600123A372002056
:107FF00002B070BD48F20460FAE748F20960F7E7A2
:108000002433002013B50446A8B10DF10601FFF793
:1080100003FB98B10C4ABDF80630142101FB032381
:10802000DA6872B1A27A62B1DA680020013ADA60E5
:10803000A07202B010BD48F20460FAE748F209608D
:10804000F7E748F20560F4E724330020022300221A
:10805000FFF70EBE18B103230022FFF709BE48F256
:1080600004607047114B1B7813B50446ABB14FF653
:10807000FF73984214D001A8FFF734FA98B1052392
:10808000037001230371C48001A9094800F045F978
:10809000FFF7E0FD002002B010BD48F20160FAE7F2
:1080A00048F20360F7E748F20760F4E70033002086
:1080B000D83300200F4B1B7807B5A3B101A8FFF7F9
:1080C00011FA98B10623037001A90B4800F025F9B5
:1080D0000A4B1A780AB101221A73FFF7BBFD002080
:1080E00003B05DF804FB48F20160F9E748F207606D
:1080F000F6E700BF00330020D8330020083300200B
:1081000007B5ADF80600ADF804100DF1060001A9A1
:10811000FFF7D6FA03B05DF804FB07B51346ADF8D8
:1081200006000A4600200DF10601FFF7C9FA03B068
:108130005DF804FB07B51346ADF806000A460DF1DD
:1081400006000021FFF7BCFA03B05DF804FB20B184
:1081500019B103680B600020704748F20460704753
:108160002DE9F84F3B4B1B780446002B6CD00028C0
:108170006DD0DFF8E4A0122200210AF0C0FC032336
:1081800023804FF0000BD04614274FF00109DAF896
:108190000410BAF80A50BAF808600846FFF7B0F9B8
:1081A000032808BF2388628804BF03F1FF332380BC
:1081B00007FB0B832E44DB681344638023891D4433
:1081C00063892581B6B233446381C6F58066A3898D
:1081D000B6B2B34201F1080538BFA68101F580515E
:1081E000A94229D92B68013326D02846FFF7A0F9E8
:1081F00001280AD0022815D00028F1D1A388013324
:10820000A3800AE04FF0010BC1E7E3880133E3806C
:10821000E3896A8803331344E3816B88033305EBF6
:108220008305DDE7E38884F810900133E380E38978
:10823000491B03EBA101E1810AF1140ABBF1000F14
:10824000E0D00020BDE8F88F48F20160FAE748F27C
:108250000460F7E7003300202433002010B561B13B
:10826000B2FBF3F403FB1424A4B244B9C0E9001434
:1082700084608281C381204610BD0E20FCE7092066
:10828000FAE782B050E8022FC188B2EB324F4FF0CC
:10829000000317BF92B241EA014142EA014104E002
:1082A0004268B2EB324F08BF012340E80212002AB5
:1082B000E8D18DF807309DF80730002B0CBF112056
:1082C000002002B0704737B550E8013F9DB2C48925
:1082D00025448489A54228BF2D1B0489A54202BFDD
:1082E000BFF32F8F002207E0C5EA030540E80154E1
:1082F000002CE9D14FF001028DF803200193019B7E
:108300009DF803200B6002F0FF0322B10B88006888
:10831000184403B030BD1846FBE70A884B889A42E0
:1083200009D150E8012FC2EA024240E80123002BA4
:10833000F7D1012070470020704737B550E8023F61
:108340001FFAA3F5C488A54202BFBFF32F8F0022F6
:108350000DE0C48925448489A54228BF2D1BC3EAAA
:10836000054540E80254002CE8D14FF001028DF899
:1083700003200193019B9DF803200B6002F0FF0393
:1083800022B14B880068184403B030BD1846FBE7A3
:108390000A884B889A4209D150E8022FC2EA224249
:1083A00040E80223002BF7D10120704700207047DE
:1083B00001F01F024B090121914000EB830000F006
:1083C00065B84B0910B501F01F040121A14000EB75
:1083D000830000F04FF8E04000F0010010BD01F014
:1083E0001F0301229A404B0900EB8300D14300F0A8
:1083F00065B84B0901F01F0150F82300C84000F098
:10840000010070472DE9F0474F1E7F0980460E4658
:108410000137002558F8254008EB8509E44394FA14
:10842000A4F4B4FA84F44FEA451A202C06D101359D
:10843000AF42EFD834462046BDE8F0875444A64208
:10844000F5D921464046FFF7BCFF0028F3D0D9F804
:108450000040E44394FAA4F4B4FA84F4E5E710B5D8
:10846000034653E8000F0A4643E8002494F0000F47
:10847000F7D110BD10B5034653E8000F40EA0102E2
:1084800043E8002494F0000FF6D110BD10B5034668
:1084900053E8002F42EA010043E8000494F0000F83
:1084A000F6D110BD10B5034653E8000F00EA0102F3
:1084B00043E8002494F0000FF6D110BD10B5034638
:1084C00053E8002F02EA010043E8000494F0000F93
:1084D000F6D110BD10B5034653E8000F00EB0102C2
:1084E00043E8002494F0000FF6D110BD10B5034608
:1084F00053E8002F02EB010043E8000494F0000F62
:10850000F6D110BD10B5034653E8002FA2EB0100D1
:1085100043E8000494F0000FF6D110BD0121FFF7ED
:10852000A9BF0121FFF7B2BF0021FFF7BBBF10B504
:1085300090B1D0E9012301689B1ADBB20A60013BCC
:10854000DBB2FF2B026802D10020107110BD116850
:108550004C1C14600B70F2E70E20F7E737B50546A8
:1085600000240DF107008DF80740FEF787FD2A680B
:108570006B68116899420ED9481E106011F8014CC1
:10858000EB68298A01FB0434AB6811791B1ADBB252
:10859000994238BF13719DF80700FEF793FD2046FE
:1085A00003B030BD37B5054600230DF107000C467A
:1085B0008DF80730FEF762FD2A681368591C1160B8
:1085C000E968641A298AB4FBF1F41C709DF807006D
:1085D000FEF778FD03B030BD826810B504462AB1BD
:1085E00043690168006998470023A36010BD0EB479
:1085F00003B5039921B104AB01AA019300F076F809
:1086000002B05DF804EB03B070470A2938B50446A0
:108610000D4602D10D21FFF7F8FFA3682268591C0F
:10862000A160D554D4E901329A4204D32046BDE872
:108630003840FFF7D1BF38BD2DE9F84F9846DDE946
:108640000A43154682460F460A464FF00109AA42E0
:108650000FD2C14538BFC14613F0010B01D16CB92F
:1086600000240126B8F1010F1BD908F1FF386E4331
:10867000F8E709F10109B2FBF5F2E8E79B070ED52F
:10868000B8F1000F0CBF30262026A145E9D2013CED
:1086900031465046FFF7B9FF002CF6D1E0E720261F
:1086A000F3E7B7FBF6F39D42E1D9DFF83C80B7FB77
:1086B000F6F3504618F8031006FB1377FFF7A5FFF3
:1086C0003346AB42B6FBF5F6F1D2BBF1000F02D058
:1086D0000CB1A14501D3BDE8F88F20215046013CE3
:1086E000FFF793FFF4E700BF055803002DE9F74FAC
:1086F000054617468846002900F0428118F8011BFC
:1087000049B92B7B002B00F03B81284603B0BDE824
:10871000F04FFFF761BF252940F0B780002698F899
:1087200000302D2B424608F1010823D0302B24D0F5
:108730002B2B25D000242A2B02F1010123D13B68E9
:108740001A1D1B683A601C440A4613782E2B26D14A
:1087500001324FF0000A104610F8011BA1F1300C55
:10876000BCF1090F1DD80A2303FB0A13A3F1300A39
:108770000246F0E746F00106D1E746F00206CEE7F2
:1087800046F00406CBE711F8013CA3F130000928BC
:10879000DBD80A2202FB0434303C0A46CBE74FF018
:1087A000000A12F8011B01F0FB0068289046F8D07F
:1087B000782909D86F290CD8632962D022D82529B5
:1087C00063D0582900F0888098F80030002B95D1AC
:1087D00097E770390829F7D801A353F821F000BFB3
:1087E0005B890200C9870200C9870200E98802008C
:1087F000C9870200C7880200C9870200C987020032
:10880000D9880200642901D06929DDD13A68D2F8FB
:108810000090111D89EAE9723960A2EBE9724FF00C
:10882000010B092A35DCD34538BFD3462CB1B9F149
:10883000000F01DB720700D5013CB30702D5BAF186
:10884000000F03D0F00701D44CBB0024B9F1000F96
:108850002DDAC9F100092D212846FFF7D6FE06F0D2
:108860000302022A04D1BAF1000F01D11CBB00247B
:10887000CDE9004653460A2249462846FFF7DCFE6A
:10888000A2E73B681A1D19783A602846FFF7BDFE3B
:108890009AE70A230BF1010BB2FBF3F2C1E7A34500
:1088A000D4D220212846013CFFF7AFFECCE7710768
:1088B000D5D52B21D0E7A345DAD230212846013C7B
:1088C000FFF7A3FED2E73968CDE900460A1D3A60FA
:1088D00053460A220968D0E739680A1D3A60CDE993
:1088E000004653461022F5E73B681A1D3A6016F021
:1088F0000106D3F8009028D1B9F1000F03D0484603
:108900000AF057F90646B44200D904BB09F1FF3911
:1089100019F8011F00293FF457AF2846FFF775FEED
:10892000F6E728460136FFF770FE19F80610002911
:10893000F7D1A642BFF448AF002C3FF445AF202149
:108940002846013CFFF761FEF3E70026EDE7202112
:108950002846013CFFF759FED5E73B681A1D3A60EF
:10896000302128461C68FFF750FE78212846FFF783
:108970004CFE00220823CDE90032214610227CE77C
:1089800003B0BDE8F08F00BF13B50B46114680B9A8
:10899000104B1148114AC01A0E23C0080093104B07
:1089A0000004104940F0010002F0EFFA0E2002B07E
:1089B00010BD4BB9074B08480B4AC01AC0080E231C
:1089C00000930004064BECE703601B6802B0BDE8AF
:1089D000104018479C5503002C56030015580300FF
:1089E000AB5903001A580300495803002DE9F3411D
:1089F00088B93D4B3D483E4AC01AC0080E243D4B45
:108A0000009400043C4940F0010002F0BEFA204608
:108A100002B0BDE8F0814AB9334B3448374AC01A36
:108A2000C0080E24334B00940004EBE7D0F800E0BC
:108A3000BEF1000F09D12C4B2C48314AC01AC00896
:108A400008242C4B00940004DCE74BB9264B274844
:108A50002C4AC01AC0080924264B00940004D1E710
:108A60004568D5F80480B3FBF8F508FB15354DB122
:108A70001D4B1E48244AC01AC00809241D4B0094EF
:108A80000004BFE78D0709D0174B18481F4AC01ACA
:108A9000C0081024174B00940004B3E712F0030F32
:108AA00009D0114B11481A4AC01AC0081024114BA2
:108AB00000940004A6E7C568A9420BD34D1EEC182C
:108AC0000569AC4206D8DEF80C40A44602B0BDE809
:108AD000F0416047044B05480E4AC01AC0081024F4
:108AE000044B009400048DE79C5503002C560300B2
:108AF00015580300BD5903001A5803009758030086
:108B000043580300565803009D580300C7580300FC
:108B1000DF58030002590300F7B580B92A4B2B48F0
:108B20002B4AC01AC0080E242A4B009400042A497C
:108B300040F0010002F029FA204603B0F0BDD0F861
:108B400000C0BCF1000F09D11F4B2048234AC01AB6
:108B5000C00808241F4B00940004E8E74AB91A4BE8
:108B60001A481F4AC01AC00809241A4B009400046E
:108B7000DDE74768D7F800E00EF1FF370F4209D074
:108B8000114B1248174AC01AC0081024114B009408
:108B90000004CCE7C768B9420CD304694D1E0EFB34
:108BA0000255A54206D8DCF81040A44603B0BDE843
:108BB000F0406047044B05480B4AC01AC008102417
:108BC000044B00940004B2E79C5503002C560300AC
:108BD00015580300D05903001A58030043580300E6
:108BE00056580300295903004F59030070B550B976
:108BF0000E4D0F4C0026641B1423B4FBF3F4B44257
:108C000008D1002010E00368002BF1D0BDE87040CF
:108C1000DB6918472B6813B901361435EFE7DB69B8
:108C2000284698470028F7D070BD00BF182B0020B9
:108C30002C2B002029DF704728DF704770B50368B0
:108C40009E6886B004460D466EB114220021684627
:108C500009F055FFA3680593237901952BB1012BEA
:108C60000DD06846B04706B070BD01238DF80030C6
:108C700023690293E368039363690493F1E7022392
:108C80008DF80030E3681B030293F5E70846704750
:108C900000207047024B187A003818BF0120704737
:108CA000A0340020034B187A0122B0FA80F05A74E5
:108CB00040097047A034002008B510461A4609F054
:108CC000F5FE002008BD000008B51422002104486C
:108CD00009F015FF0348FFF7D4FA002008BD00BFD4
:108CE000A03400209034002010B5094C094B43609B
:108CF0002046FFF713FC40B909F0D2FB0649207467
:108D00001C2306488C22FFF7A9FA002010BD00BFE3
:108D1000A0340020E45903000434002090340020E3
:108D200070B5244C244E237A25463BB92349244868
:108D3000FFF703FB306008B9606070BD0223346840
:108D40002B72237973B1012B24D020460321FFF726
:108D500075FF00232B726B6018491948BDE87040FD
:108D6000FFF716BBD4E90523D21AB2F5805FD4E928
:108D7000031028BF4FF480529208012A38BF012205
:108D800019441844FFF756FF50B11128DDD10123D3
:108D90002B72D2E7D4E903031844FFF74DFFF3E742
:108DA0002B7C002BC9D10146BDE87040022000F0A9
:108DB00009B800BFA0340020B8340020B43400202B
:108DC0009034002038B5831E012B45D8234C237ADC
:108DD000002B41D0022B09D1032830D0204B002298
:108DE0001B68E2601A793AB1012A22D0637C7BBB0E
:108DF000BDE83840FFF794BFD3E905128D1AB5F5E9
:108E0000805F94BF521902F580529A619142EDD170
:108E100002284FF0000308BF19462372104B18BFF9
:108E20000D211868FFF70AFF0E490F48FFF7B0FA47
:108E3000DCE71A6901321A615B699A42E7E7E36885
:108E40000133082B01D8E360D0E70023E360DFE7BC
:108E5000BDE8384009F014BB38BD00BFA034002085
:108E6000B8340020B43400209034002000F0FD031A
:108E7000012B08D1044B00225A74421E504250412B
:108E80001874FFF74DBF7047A034002010B5064C92
:108E9000201DFFF743FB28B9637C1BB9BDE81040D8
:108EA000FFF73EBF10BD00BFA03400202DE9F34105
:108EB00080460D460F4801A916461F46FFF703FAE4
:108EC0000446A8B11C22002109F019FE2D0B012334
:108ED000237101A90748C4F80080A760E5606661B6
:108EE000FFF71BFAFFF7D2FF002002B0BDE8F081C8
:108EF0000420FAE7903400202DE9F74381468846A4
:108F0000104801A917461E46FFF7DDF90446B0B127
:108F10001C22002109F0F3FD00250A9BA36001A992
:108F2000C4E9037807482571C4F800906661FFF72B
:108F3000F4F9FFF7ABFF284603B0BDE8F083042047
:108F4000FAE700BF903400202DE9F84FB0F806A0F2
:108F50004579D2F800B09DF828900AFB05F5043D4C
:108F600088460BEB0301A94203F1040488BFA5EB7B
:108F7000030BB4FBFAF607460AFB1644C2F800B02E
:108F80004EB9AAEB04055D4528BF5D46BBF1000F55
:108F900004D1BDE8F88F3F68013EF1E7043408EBE7
:108FA00006003C442A46B9F1000F0DD02146ABEB38
:108FB000050B09F07BFDDA452E443F6855464FF01E
:108FC000000428BF5D46E1E701462046EFE7FFF7D2
:108FD000AEBAF8B546790146721E054600239342A3
:108FE0002D6803D30024A64202D8F8BD0133F6E76A
:108FF0000F682846FFF7D6FA01343946F3E72DE922
:10900000F843068ACD1C0746FFF7A8FA043E35440C
:109010000446B5FBF6F5F0B14FF48073EDB28380F2
:10902000C680013D076081464FF00008A84512D276
:109030003846FFF793FA064648B163790133637106
:1090400008F10108C9F8000007608146EEE72046F4
:10905000FFF7BFFF34462046BDE8F8830121043006
:10906000FFF744BA10B5012104460430FFF74AFA6D
:1090700010F0FF0F04D12046BDE81040FFF7A9BF54
:1090800010BD1FB503920022009203AAFFF75CFFF8
:1090900005B05DF804FB1FB503920122009203AAFC
:1090A000FFF752FF05B05DF804FB33DF704741DF87
:1090B00070470000064B10B500241C70054B1C6067
:1090C000BFF35F8F0449054800F0B3F9204610BD97
:1090D000C5340020C83400201C5A0300BC340020D2
:1090E00007B500230DF107008DF80730FDF7C6FF27
:1090F000F1EE103A23F09F03E1EE103ABFF35F8FD9
:10910000094B4022C3F884219DF80700FDF7DAFFE0
:1091100009F0C6F920B1FFF7CAFF03B05DF804FB00
:1091200020BF40BF20BFF8E700E100E070B5264D4A
:10913000044601212846FFF792F9BFF35F8F2E46C0
:1091400038B9042C0AD0214B1A781AB1BFF35F8FBB
:10915000286070BD1E4A147001221A701D4C1C4DEF
:109160006368BBB901F05EFF01F0B4FD0028FBD1DC
:10917000174B1B78023B012B14D8BFF34F8F1649B6
:10918000164BCA6802F4E0621343CB60BFF34F8F03
:1091900000BFFDE71B682878984788B1204600F09B
:1091A00052F9DDE709F07CF908B1FFF77EFF4FF0D7
:1091B00080430122C3F80025BFF34F8F20BFFDE796
:1091C000BFF35F8F3060C4E7C8340020C53400208F
:1091D000C4340020BC34002000ED00E00400FA0597
:1091E000026813685268934291BFD01A80680130B8
:1091F000801888BFC01A704703682DE9F0411F68C6
:109200001E6815465A68964286BF83680133961BCE
:109210008846C268416888BF9E1BB542044607FB6A
:1092200002110CD86A43404609F040FCA3683D4453
:109230009D4288BF002523681D60BDE8F08106FBC4
:1092400002F73A46404609F031FCE2686168AD1B1E
:109250006A4308EB070009F029FCECE70368816822
:109260001A685B688B4234BF01330023D31A58421B
:1092700058417047F7B5002304460DF107000D462D
:109280008DF80730FDF7FAFE2046FFF7E7FF10B133
:10929000237C002B3CD12268A66853685168B142F8
:1092A00034BF01310021516030B11168A0688142A2
:1092B00034BF013100211160E2686068511E072946
:1092C00020D8DFE801F004101F141F1F1F182A7890
:1092D000C2542046FFF784FF23689A68824200D276
:1092E0009860002415E02A8820F81320F1E72A6806
:1092F00040F82320EDE7D5E9006700EBC300C0E9A3
:109300000067E6E7294602FB030009F0CFFBE0E730
:1093100004249DF80700FDF7D5FE204603B0F0BDFC
:109320007FB5054601911446AAB10DF10F00002644
:109330008DF80F60FDF7A2FE2846FFF751FFA0420F
:1093400001990BD322462846FFF756FF34469DF875
:109350000F00FDF7B7FE204604B070BD0524F6E708
:1093600037B5044600250DF107008DF80750FDF7CD
:1093700085FE0C222946206809F0C1FB9DF80700F4
:10938000FDF7A0FE03B030BD036818685B68C31A20
:1093900058425841704773B5002305460DF1070048
:1093A0000C4616468DF80730FDF768FE2846FFF795
:1093B000EBFF002832D129680B682EB90A68A8682B
:1093C000824238BF561C0E60EA686968501E072842
:1093D0001ED8DFE800F0040E1D121D1D1D16CB5C0B
:1093E000237000249DF80700FDF76CFE204602B0B4
:1093F00070BD31F813302380F3E751F82330236038
:10940000EFE701EBC301D1E90023C4E90023E8E75A
:1094100003FB0211204609F049FBE2E70524E1E7DE
:10942000836800225A60C3E904229A60DA601A60F5
:1094300070470B684A684360934208BF002301608D
:1094400008BF43607047436843B10268916852683F
:109450000B449342436004BF00234360704770B5E0
:10946000446806460D46206818B1B36829469847F7
:1094700018B923682B60256070BD2468F3E7436842
:10948000186808B102681A60704743681868704726
:109490004368186800B97047884203D102681A60AF
:1094A0000120704703460068F4E7000010B50D493D
:1094B000A1F59472914201D800200FE08C1AE30FBD
:1094C00003EBE4035B1002EBC30452F83330834236
:1094D00005D802D204F10802ECE7606810BD21460D
:1094E000E8E700BF285F030008B5FFF7DFFF024B86
:1094F000002808BF184608BDEB5D030038B5074CCF
:10950000051E04F1080318BF1C4623682BB11A6816
:1095100022605B6828469847F7E738BDD4340020BE
:1095200020B9054B01225A70FFF7E8BF012802D18C
:10953000014A9070F8E77047CC34002020B9034B03
:1095400001225A70FFF7DABF704700BFCC34002009
:1095500038B50E4C2378B3B90D486360A36023611E
:10956000E36000F0C5F9054608F09AFF08B900F07D
:10957000CBF901232370074BD3F800340BB101233F
:10958000A370284638BD8525F5E700BFCC34002000
:10959000219502000000014037B50D4C00230DF16C
:1095A00007008DF80730FDF769FDE368013BE360D4
:1095B000E36833B9074BD3F8005415B900F0B6F996
:1095C000A5709DF80700FDF77DFD03B030BD00BF1D
:1095D000CC34002000000140012813B50CD0032832
:1095E00020D038B9124B0122C3F88020BFF34F8F2F
:1095F000BFF36F8F02B010BD0E4C00230DF10700BA
:109600008DF80730FDF73AFD23780BB9FFF7A0FF7F
:10961000E3689DF807000133E3600123A370FDF7C1
:1096200051FDE7E700F070F9FFF7B6FFE2E700BF92
:1096300000E100E0CC34002031DF70471FB500238B
:109640008DF807000DF10F008DF80F30FDF716FDB6
:1096500008F026FF50B909480DF10701FFF70AFE8F
:109660000648FFF7FBFD08B100F0EEFB9DF80F0088
:10967000FDF728FD05B05DF804FB00BF745503003D
:1096800007B520B103280BD003B05DF804FB0F4BE6
:109690001B78012BF8D100F0D7FB00F0DDFBF3E7DE
:1096A00000230DF107008DF80730FDF7E7FC0748B0
:1096B0000378012B05D10649013000F085FB00F04D
:1096C000B1FB9DF80700FDF7FDFCDDE7303500201C
:1096D0003D96020013B5124C2378FBB9114A8DF860
:1096E0000730002808BF10460288A4F801200DF1B9
:1096F0000700FDF7C3FC08F0D3FE30B90A49601C2F
:1097000000F062FB40B900F08DFB9DF807000123DB
:109710002370FDF7D7FC002002B010BD8520FBE7C9
:1097200030350020325F03003D96020007B500236C
:109730000DF107008DF80730FDF7A0FC08F0B0FE32
:1097400018B900F081FB00F087FB9DF80700FDF7DA
:10975000B9FC0448FFF704FE034B00221A7003B063
:109760005DF804FB74550300303500202DE9F74304
:109770000024DFF8589005460E46A0460DF107007C
:109780008DF80780FDF77AFC08F08AFE074638B9A5
:10979000324629464846FFF7C3FD044600F042FB27
:1097A0009DF80700FDF78EFC47B131462846FFF7CC
:1097B00043FF42F207039842044605D0022CDDD055
:1097C000204603B0BDE8F0830524F9E77455030093
:1097D000F8B505460C4604B9F8BD402C264628BF0E
:1097E0004026F7B239462846FFF7C0FF0028F9D1D6
:1097F000A41B3544EFE700001FB503788DF8003057
:109800004368019383688DF80830C368054A039361
:10981000054B684653F8213052F82110984705B09F
:109820005DF804FB34350020383500201FB503787F
:109830008DF800304368019383688DF80830C36861
:10984000054A0393054B684653F8213052F821101E
:10985000984705B05DF804FB34350020383500200A
:10986000F0B5194B90F800C091F81DE043F82C209A
:10987000164B16460A6943F82C20154B03F80CE0EA
:109880000C4607460FCC89B06D460FC594E80F0013
:1098900085E80F00CDF810C0BEF1000F09D0002EF2
:1098A0000C4A694608BF3246381D00F0E9FD09B090
:1098B000F0BD002E084A694608BF324607F10C0089
:1098C00000F0D4FBF3E700BF38350020343500202A
:1098D0003C350020F99702002D98020000F18040ED
:1098E000002382B0036003680193019B02B07047BC
:1098F000044A137923B901211060918018467047FA
:109900008520704740350020074B1A68D20704D4E1
:10991000C02283F8002301221A604FF08043012205
:10992000C3F81825704700BF00E100E04FF0804207
:1099300008B50223C2F808334FF48270FFF7CEFF58
:10994000034B01211960D2F81834DB03FBD408BDA6
:109950000C000040124B1B6810B573B14FF48070BF
:10996000FFF7BCFF4FF080430122C3F808230D4BE3
:10997000587910B95A711B6898470B4B1B6873B123
:109980004FF48270FFF7AAFF4FF080430222C3F822
:109990000823044BBDE810401B680120184710BD88
:1099A00000010040403500200401004000F18040EB
:1099B00000F5C040002382B0036003680193019B5F
:1099C00002B07047800000F1A040D0F8002722F4D8
:1099D0004032C0F80027D0F8003743EA0141C0F810
:1099E00000177047054B4FF0FF32072843F820203F
:1099F00084BFC01880F84820704700BF4835002059
:109A000010B51A4C94F858306BBB4FF0FF3222FA65
:109A100003F1C90748BFE11803F1010348BF81F80A
:109A20003020202BF3D10021C8B2FFF7DBFF01313A
:109A30000C29F9D1042200210D4809F060F80D4BE2
:109A4000C02283F8062340221A604FF4BE70FFF74D
:109A5000ADFF094B4FF00042C3F80423012384F803
:109A60005830002010BD0820FCE700BF483500201A
:109A70009C35002000E100E000600040034B93F8BB
:109A80005800003818BF0120704700BF483500203B
:109A9000F0B5364D2C1894F93040002C64DA8C78EF
:109AA000C4F34004002C0BBF082300230C26082617
:109AB000B34201D10420F0BD55F8237001373FD1E6
:109AC0002E1845F8232086F8303014B9EA1882F8A9
:109AD00048008A78540713D4D60733D5820002F1A0
:109AE000A042D2F8004724F00204C2F80047204EFA
:109AF000C20800F007070124BC40B75C3C43B454E3
:109B00008A780C7812F0020225D09B0003F1804382
:109B100003F5C0430202D3F8101521F4473121F4B4
:109B20004071C3F810152404D3F8101502F4F8524C
:109B300004F4403422430A43C3F810250020BAE756
:109B40000133B5E74C7800F5E0724FF0A046A40071
:109B500046F82240CBE7083B2B4493F8501041EAEB
:109B6000841483F85040E9E70820A4E74835002032
:109B70009C35002038B51F4C251895F93020072A50
:109B800016DD224492F848309B09032B0BD14FF08D
:109B9000A043D3F81015C14001F001010231BDE826
:109BA0003840FFF70FBF012B0CBF02210321F6E75E
:109BB000D3B2072B1CD8930003F1804303F5C043B5
:109BC000D3F8100540F00100C3F8100502F1400081
:109BD000800080B2FFF7EAFE51B195F9303054F8B9
:109BE00023302BB1012303FA02F2034BC3F8042301
:109BF00038BD00BF48350020006000404FF0A04352
:109C0000D3F8103523FA00F000F00100704700008F
:109C10002DE9F74F00244E4D01944FF4807201213D
:109C200002F1804303F5C04390B21B68012B06D1BB
:109C3000D5F804330B4202D0FFF7B8FE0C430432D0
:109C4000B2F5907F4FEA4101EAD1424B1B68012BEC
:109C50000CD14FF4BE70FFF7A9FE4FF0A04344F0C3
:109C60000044D3F820250192C3F8202514F0FF0FFB
:109C70001AD0394F00250126344210D0AB0003F131
:109C8000804303F5C043D3F81005D3F8101557F8F7
:109C9000253023B1C1F30141C0F3042098470135B9
:109CA000082D4FEA4606E7D1002C48DA2A4D4FF03E
:109CB000A0482A4E4FF00009012716F9013B5A1C13
:109CC00031D0C3F3C20202A90A44DCB212F8042C58
:109CD00003F03F0A03F0070307FA03F31A4222D006
:109CE0000AF5E073504658F82330C3F3014BBBF13B
:109CF000020F0CBF03210221FFF764FE07FA0AF3EB
:109D0000C8F8203505EB0A0393F9303055F82330B5
:109D10004BB1A109032904D0BBF1020F12D10129D3
:109D200001D15046984709F10109B9F1040FC4D196
:109D3000D8F820350193C8F82035002BB9D103B0ED
:109D4000BDE8F08FBBF1030FEDD10229E8E700BFBA
:109D5000006000407C6100404835002098350020BC
:109D6000014B1B68184700BFA43500200E4B9842DA
:109D700037B50C4602D0002003B030BD00230DF1F2
:109D800007008DF80730FDF779F9084B1D7915B9F3
:109D900001221C601A719DF80700FDF793F9002D50
:109DA000E9D01120E8E700BF00200040A4350020E2
:109DB000034B984201BF034B00221A601A7170478F
:109DC00000200040A435002010B5124C2278FAB9CA
:109DD000114B1960037813F0010F104B1EBFD3F81D
:109DE000042542F00102C3F80425D3F8002222F032
:109DF0000102C3F800224378094A5B01DBB282F812
:109E00000D334FF40053136001232370002010BD65
:109E10008520FCE7B0350020AC35002000D00040A4
:109E200000E100E0064B00221A6082B01B6801933B
:109E3000019B044B0122C3F804231A6002B070474F
:109E400000D1004000D00040024A0123C2F808338C
:109E50005360704700D00040084A0123C2F808331D
:109E60005360074B4FF40052C3F88020BFF34F8F6D
:109E7000BFF36F8F034B00221A70704700D0004071
:109E800000E100E0B0350020074B00221A6082B0EC
:109E90001B680193019B054BD3F80805044B1B6815
:109EA000C0B202B0184700BF00D1004000D000404F
:109EB000AC3500200023435082B043580193019BEE
:109EC00002B070470A4610B54FF48E71FFF7F2FFEB
:109ED000136A9168C95C136A01331362C0F81C15D8
:109EE00010BD8B690A4610B54FF4847123B9FFF792
:109EF000E1FFD0F8183510BDFFF7DCFF536AD168D9
:109F0000D0F81805C854536A01335362F3E70000D0
:109F10001FB501238DF80030044BCDE90110D3E9C2
:109F200000126846904705B05DF804FBB435002088
:109F300030B54C48D0F8043313F4007F85B00546A3
:109F40004DD0D0F82431002B49D04FF49271FFF757
:109F5000B1FF4FF40173C0F80833434B93F8292045
:109F60000AB9012242603F4902228DF80020D1F84F
:109F70008024C1F8802403929A690292DA680192DF
:109F80000022C3E906226846D3E90012904735480B
:109F9000D0F81C315BB134494A690B6A9A420A46CF
:109FA0004AD991F82830002B46D1FFF78BFF2D4876
:109FB000D0F844318BB14FF4A271FFF77BFF2A4BED
:109FC00093F829200AB1012202609A692AB100227D
:109FD000586AD9689A61FFF79BFF05B030BDD5F884
:109FE00004335B07D3D5D5F80831002BCFD01E4CF6
:109FF0001C482146FFF775FF636AA2699A4223460F
:10A00000C5D1E269E1684AB12369E3600023606A6F
:10A01000A261E3616362FFF77BFFB8E794F8292050
:10A020000AB901226A600F4A4FF40170C2F80803AE
:10A030000022586A9A61EEE70A484FF48E71FFF7E2
:10A0400039FF5369002BB2D0516902910023916806
:10A050008DF80030019153616846D2E900139847AA
:10A06000A5E700BF00200040B43500202DE9F843EB
:10A07000544B057991462C2202FB0532064692F894
:10A080002A200C469846002A40F098804E490068E5
:10A09000FFF76CFE0746002840F092802168336885
:10A0A000481C0BD04FF0A04001228A40C0F8082580
:10A0B00001F5E0724FF0030C40F822C06068421CCA
:10A0C0001FBF00F5E0724FF0A04C4FF0000E4CF8AF
:10A0D00022E0A269C3F8242594F814C0627DBCF183
:10A0E000010F4CEA0202C3F86C25C3F81405C3F84B
:10A0F0000C151DD1A1684A1C1FBF01F5E0724FF07D
:10A10000A0404FF0000C40F822C0E268501C0BD079
:10A110004FF0A04C01209040CCF8080502F5E0700B
:10A120004FF0030E4CF820E0C3F80825C3F81015D3
:10A130002C236B4308EB0302C2F80490226948F811
:10A140000320B9F1000F21D03068247F4FF48E71C5
:10A15000FFF7B0FE4FF4A2713068FFF7ABFE326834
:10A160001A4BC2F80433110B42F307326301002A81
:10A17000DBB21EDB1648841884F800330123520931
:10A1800001F01F0103FA01F140F8221033680422A4
:10A19000C3F800252C2303FB05830022C3E9062214
:10A1A00083F829205A61012283F82A203846BDE825
:10A1B000F883084A01F00F015354E7E70827F5E751
:10A1C0001127F3E7B4350020319F02008000020020
:10A1D00000E100E014ED00E0F8B503680479304DCB
:10A1E0000022C3F800252C2202FB04525268A2B1BF
:10A1F0002C4AC3F808231A0B43F30733002B0CDB5C
:10A2000002F01F015B0901228A402033264941F8F0
:10A210002320BFF34F8FBFF36F8F0068D0F80C651A
:10A22000D0F81415D0F80835D0F810254FF0FF37C6
:10A23000BE42C0F8147518BF06F5E076C0F80C757C
:10A24000C0F80875C0F810751EBF4FF0A0474FF05A
:10A25000020C47F826C04E1C1FBF4FF0A04601F568
:10A26000E071022746F82170511C1FBF4FF0A0413A
:10A2700002F5E072022641F822605A1C1FBF03F566
:10A28000E0734FF0A042022142F82310FFF790FD47
:10A290002C2303FB0454002384F82A306360F8BDA8
:10A2A000B43500208402020000E100E02DE9F0470F
:10A2B000204F90F804904FF02C0808FB09740546D5
:10A2C0006669002E34D162610068A16026624FF495
:10A2D0008E7184F82860FFF7EDFD28680123836004
:10A2E0002146FFF7EFFD6368A0468BB92868D4F8D4
:10A2F00014A0236A9A4511D82A68D2F81C31002B81
:10A30000FBD00123D3602C2303FB097300225A6185
:10A310003046BDE8F08794F828303BB9D0F81C31BE
:10A32000002BF8D04146FFF7CDFDE2E70F26EAE724
:10A330001126EDE7B43500200023435082B0435886
:10A340000193019B02B070471FB501238DF80030C7
:10A35000044BCDE90110D3E900126846904705B0DF
:10A360005DF804FBE03500207FB5434AD2F8246154
:10A37000002E60D010464FF49271FFF7DDFF0223EC
:10A380008DF80030D2F88034C2F880340393D2F8CC
:10A390003C350293394BDA6801920022C3E9062268
:10A3A0006846D3E9001290473348D0F8443173B17E
:10A3B0004FF4A271FFF7C0FF304B9A693AB1002207
:10A3C000C3E90622D968D0F83C05FFF7BDFF2A484B
:10A3D000D0F82031ABB14FF49071FFF7ADFF0123FE
:10A3E000C360264B5A6962B1D0F84C150291002225
:10A3F00099688DF8002001915A616846D3E90012EE
:10A4000090471D48D0F858319BB14FF4AC71FFF71D
:10A4100093FF1A4B5A6962B1D0F84C150291002291
:10A4200099688DF8002001915A616846D3E90012BD
:10A43000904704B070BDD2F81031002BB4D04FF467
:10A4400088711046FFF778FF0C4BD2F83C059969EC
:10A450008842A9D1DC69D96864B1D2F8005225F0EC
:10A460002005C2F800521A699C61DA60DE61FFF7CC
:10A470006BFF99E79C61FAE700200040E03500207F
:10A480002DE9F8435B4B06799146242202FB063204
:10A49000044692F820200D469846002A40F0A580F8
:10A4A00055490068FFF762FC0746002840F09F808E
:10A4B00029682368481C0BD04FF0A04001228A4035
:10A4C000C0F8082501F5E0724FF0030C40F822C0F7
:10A4D0006868421C1FBF00F5E0724FF0A04C4FF0BF
:10A4E000000E4CF822E0AA69C3F8242595F814C0A0
:10A4F0006A7DBCF1010F4CEA0202C3F86C25C3F877
:10A500000C15C3F814051DD1A9684A1C1FBF01F51D
:10A51000E0724FF0A0404FF0000C40F822C0EA6813
:10A52000501C0BD04FF0A04C01209040CCF80805F7
:10A5300002F5E0704FF0030E4CF820E0C3F8082558
:10A54000C3F810152423734308EB0302C2F80490E8
:10A550002A6948F80320B9F1000F30D020682A7F1B
:10A560004FF48871FFF7E8FE20684FF49071FFF711
:10A57000E3FE20684FF49271FFF7DEFE20684FF48F
:10A58000A271FFF7D9FE4FF4AC712068FFF7D4FE3B
:10A5900023681A49C3F80413190B43F30733520114
:10A5A000002BD2B21CDB1648C51885F80023012207
:10A5B0005B0901F01F0102FA01F140F82310236842
:10A5C0000822C3F80025242303FB06830022C3E9E5
:10A5D00006225A61012283F820203846BDE8F8831C
:10A5E000084B01F00F015A54E9E70827F5E7112756
:10A5F000F3E700BFE035002069A30200100342002A
:10A6000000E100E014ED00E0F8B5444D04792423A6
:10A6100003FB045302465B680068ABB1404BC0F8D3
:10A62000083340F30733002B4FEA10310CDB01F005
:10A630001F065B090121B14020333A4E46F8231032
:10A64000BFF34F8FBFF36F8FD0F8003223F020039A
:10A65000C0F80032242303FB04539B692BB14FF451
:10A66000A271FFF769FE012343604FF4AC71FFF75D
:10A6700063FE0123C360242303FB0453D0F8581165
:10A680000029FBD0996919B1D0F844110029F5D0FF
:10A690000023C0F800351368D3F80C75D3F814659F
:10A6A000D3F80825D3F810154FF0FF3C6745C3F8E1
:10A6B0000CC518BF07F5E077C3F814C5C3F808C583
:10A6C000C3F810C51EBF4FF0A0434FF0020C43F873
:10A6D00027C0771C1FBF4FF0A04306F5E076022786
:10A6E00043F826704E1C1FBF01F5E0714FF0A043E8
:10A6F000022643F82160531C1FBF4FF0A04302F510
:10A70000E072022143F82210FFF752FB242303FBDF
:10A710000454002384F820306360F8BDE035002045
:10A720001003420000E100E001F06043B3F1005F7C
:10A730002DE9F041064638D11E4B0779242505FB4B
:10A74000073598466C69002C31D16A610068A960B0
:10A750004FF49071FFF7F0FD4FF4AC713068FFF7E4
:10A76000EBFD33686A69A968C3F84415C3F8482546
:10A7700001229A606A68AAB9D3F82021D3F8584117
:10A780001AB9002CF8D00F2407E0002CFBD10122CD
:10A79000DA60D3F85821002AFBD0242303FB078773
:10A7A00000237B612046BDE8F0811024FAE71124E4
:10A7B000F8E700BFE0350020054A4FF0A043105CE9
:10A7C000D3F8043523FA00F0C04300F001007047CD
:10A7D000585F0300044B1A5C012393404FF0A042E2
:10A7E000C2F80C35704700BF585F0300044B1A5C79
:10A7F000012393404FF0A042C2F80835704700BFD4
:10A80000585F030008B50020FFF7F0FF0120FFF7B5
:10A81000EDFF0220FFF7EAFFBDE808400320FFF745
:10A82000E5BF08B50020FFF7D5FF0120FFF7D2FFF5
:10A830000220FFF7CFFFBDE808400320FFF7CABFA3
:10A84000074A4FF0A041105CD1F804350122824044
:10A8500022EA03001340C1F80805C1F80C3570471F
:10A86000585F0300054A4FF0A043105CD3F8103541
:10A8700023FA00F0C04300F001007047545F03006A
:10A880000D2809D00E2809D00F2809D010280CBF98
:10A8900003204FF0FF3070470020704701207047C1
:10A8A00002207047014B185C704700BF545F0300E3
:10A8B000C20708B501460CD54FF0A0430322C3F8E8
:10A8C0004427C3F84827C3F84C27C3F85027FFF79D
:10A8D00099FF8B070AD54FF0A0430C22C3F8342709
:10A8E000C3F83827C3F83C27C3F8402708BDF0B5A4
:10A8F00095B01D46164608460C46FEF7AFFB1A9B60
:10A900000D93CDE9086500252B46082205A92046B0
:10A910000A958DF82C500C95FEF7BDFB079B029312
:10A92000069B03939DF814308DF8115003F0030239
:10A93000012A1DD1BDF81420059DC3F3C203C2F343
:10A9400083168DF81030B20008230EA92046FEF7BA
:10A95000A2FBC5F3952508AB0093324602AB0EA9C6
:10A96000284600F0D3FB2046FEF77CFB15B0F0BD77
:10A97000022AF8D1BDF81650C3F3C203C5F38915F6
:10A980008DF810300827082D2E4628BF08263B4694
:10A9900032460EA92046FEF77EFBAD1B08AB02AA8D
:10A9A00031460EA8374400F015FC002DEBD1DAE754
:10A9B000014B01221A707047453600207047000095
:10A9C00070B5124D06460FCD88B06C460FC495E8A1
:10A9D0000F00002E84E80F004FF0FF334FF0060207
:10A9E000CDE90023CDE90233094A0A484FF0EB7361
:10A9F00008BF002269460693FEF732FF08B1FCF754
:10AA00004DF9054B1E7008B070BD00BF5C5F0300C0
:10AA1000B1A90200342B00200436002007B5044BF6
:10AA20000093044A4023FFF762FF03B05DF804FB84
:10AA300039AA02000536002038B50D4B0D4D002017
:10AA400018700D4804782D5DD2B21C4665B10430F3
:10AA5000FFF76AFE08B1FCF721F9084B1A7812B12A
:10AA60002378002BFBD038BD0C30FFF71FFCF1E73B
:10AA7000453600203C350020342B002004360020D1
:10AA800008B50848084A0378D35C3BB10430FFF7A7
:10AA9000BBFDBDE808400020FFF792BF0C30FFF778
:10AAA0009BFBF6E7342B00203C3500200120FFF70C
:10AAB00087BF000008B5FFF7F9FF0448042100F044
:10AAC0008FFA034B01225A7108BD00BF0C570300D7
:10AAD000482B0020037813F0040216D003F0030380
:10AAE000012B03D0022B09D0012070470A6800888F
:10AAF0000232C0F3831002440A60F5E70B68428813
:10AB0000023303EB92130B60EEE710467047000030
:10AB10002DE9F04F87B000230446861C0DF1070095
:10AB20000F4615468DF80730FCF7A8FA404A5168E1
:10AB30003960936803F580735B1A924602F21C47F2
:10AB400002F5836902F21448B3421AD30020002DA3
:10AB500069D004F00F039B0143F0050363F30F007A
:10AB6000DAF80430DAB203321E444AF822009DF8C3
:10AB70000700CAF80460FCF7A5FA012007B0BDE899
:10AB8000F08F01213846FDF7B1FC4846FDF7C9FCBE
:10AB90004046FDF7C6FCDAF808000290C0B2033068
:10ABA0000AEB800002A9FFF795FF029B30BBDAB2E7
:10ABB0000AEB8202D16803919A1C0133DBB20AEBE3
:10ABC00083030292D3F80CB001F00303012B22D0CF
:10ABD000022B15D083464046FDF7A6FC10B1029B20
:10ABE000CAF8083059463846FDF780FCDAF80830D4
:10ABF000DAF8042003F580739B1AA5E7D8B2CEE7F4
:10AC0000BDF80E30C3F3891303334FEA1B4B02EB3D
:10AC100093030293DFE7BDF80C30C3F383134FEACD
:10AC20001B4B1344F5E7A40544F0060098E700BF6A
:10AC300018370020064B074810B500221A70FEF79F
:10AC4000C6F9044610B90448FEF7EAFB204610BDD9
:10AC500018370020AC560300B05F030030B50A4C33
:10AC600071B10A4A0A49121BD20800239A4201D143
:10AC7000002030BD31F82350854202D00133F5E782
:10AC8000034654F83300F4E79C550300AC56030028
:10AC9000182B0020094B013903EBC000032909D808
:10ACA000DFE801F00A0204060420704700797047CB
:10ACB0004079704700207047022070479C55030080
:10ACC000034BD3E90130C31A58425841704700BFC3
:10ACD000183700202DE9F04186B0FFF7F1FF054657
:10ACE000002840F0E680744CC4F81804BFF34F8F7E
:10ACF000A3680293DBB2033304EB830002A9FFF7DE
:10AD0000E9FE029B18B1D4F81824002A55D0DAB213
:10AD1000991C013304EB8202DBB204EB8303D2689B
:10AD2000DB68049302F00303022B039202914FD1DC
:10AD3000BDF80E306148C3F38917502F3E4628BF37
:10AD4000502666F38F1306F10801ADF80E30FEF7BA
:10AD500056F90546002800F09780FEF77FF900239A
:10AD600003A908222846FEF78CF90299CB43DBB2EF
:10AD70000133C9B20331B6EB830F4FEA830804EB0A
:10AD8000810122D908234246A6EB08062846FEF791
:10AD900078F9F6B24A4908F1080332462846FEF728
:10ADA00070F9029B033703EB97070297D4F8183426
:10ADB000002B41D1D4F8106451E062689A4299D8CE
:10ADC000A260284606B0BDE8F08108233246E5E7D8
:10ADD000012B59D1BDF80C303848C3F38311062933
:10ADE00028BF062161F3891302318900ADF80C30C8
:10ADF000FEF705F90546002846D0FEF72FF9002397
:10AE0000082203A92846FEF73CF90026BDF80C20CD
:10AE1000C2F38312B300964203F10803C6D202992B
:10AE20004A1CC9B20331029204EB81010422284674
:10AE3000FEF727F90136E9E72846FEF713F9FFF791
:10AE40003FFF80F00100C5B2BBE7F3685B7923B137
:10AE5000336829461B6830469847F3681E68002E01
:10AE6000F3D12846FEF7FEF80DF107008DF80760D4
:10AE7000FCF704F9D4F818340BB9029BA3609DF8D1
:10AE80000700FCF71FF9DAE7D4F8104454B90D4B6A
:10AE90000D480E49C01AC008000440F0020000F03E
:10AEA0005DF8CCE7236820469B689847E3681C68F8
:10AEB000ECE7002585E700BF18370020AC560300FB
:10AEC000243700209C550300CC550300995F0300F4
:10AED0002DE9F34704460E46924601A90122184681
:10AEE0009946FFF715FE1B4F10B3019D4FF0000868
:10AEF000AA1CC84508EB020123D117480021FDF721
:10AF0000AEFA80F31000000440EA1440E4006B1C29
:10AF100004F03804DBB2EDB244F0010407EB830324
:10AF2000033544EA881444EA8624D86047F825406B
:10AF30003B781BB1FFF7CEFE0028FBD102B0BDE885
:10AF4000F087C9B207EB81015AF82830CB6008F1CD
:10AF50000108CEE718370020343B002000231A46B2
:10AF6000FFF7B6BF07B50123019201AAFFF7B0FFB3
:10AF700003B05DF804FB07B5CDE9002302236A4660
:10AF8000FFF7A6FF03B05DF804FB1FB5CDE9012371
:10AF9000069B039301AA0323FFF79AFF05B05DF810
:10AFA00004FB1FB5CDE90023069B0293079B039387
:10AFB0006A460423FFF78CFF05B05DF804FB7FB5FC
:10AFC000CDE90123089B0393099B04930A9B0593F6
:10AFD00001AA0523FFF77CFF07B05DF804FB000022
:10AFE00030B50F49D1F8102403460020144634B977
:10AFF000DC6820714AB9C1F81034226030BDE468C1
:10B000002579854206D02468F1E7D268116821606D
:10B010001360F3E701300A28E8D14FF0FF30EDE785
:10B0200018370020084A38B50123D2F810441370AD
:10B030001D4604B938BDE3685D71236820465B682E
:10B040009847E3681C68F4E71837002007B5034603
:10B050000846197A052911D05B7A2BB1094A0A49A9
:10B060000190FDF7C4FA019808490190FDF7BFFA75
:10B07000019803B05DF804EBFDF7AEBA002AF8D0F2
:10B08000F2E700BFBC5F0300B7970300DE5F030079
:10B0900030B5C38885B004460D4633B1144A0092DA
:10B0A0001449154A2846FDF7A2FA217A05291DD030
:10B0B000637A4BB1A088FFF7EDFD104B104953F8B0
:10B0C00020202846FDF793FA227A0E4BA08853F8E9
:10B0D000222003920021FFF7C1FD039A0A4903468B
:10B0E000284605B0BDE83040FDF781BA05B030BD57
:10B0F000BC5F0300C95F0300C15F03004860030039
:10B10000B79703006C600300E15F03002DE9F04393
:10B1100085B01F460C9D002395F80C902B730646B6
:10B120000C46904629463846FFF7B2FFB8F1060FA5
:10B1300009D8DFE808F00412181F28334000314610
:10B140002846FDF754FA002229463846FFF77EFFCD
:10B1500085F80C9005B0BDE8F0832268314628469A
:10B16000FDF745FAEFE7D4E9002331462846FDF71D
:10B170003EFAE8E7A36800933146D4E90023284665
:10B18000FDF735FADFE7E3680193A36800933146E2
:10B19000D4E900232846FDF72AFAD4E7236902936D
:10B1A000E3680193A36800933146D4E9002328465D
:10B1B000FDF71DFAC7E76369039323690293E36808
:10B1C0000193A36800933146D4E900232846FDF794
:10B1D0000EFAB8E708292DE9F74F80460E461746C4
:10B1E0001C463CD8002593F80C901D731946104658
:10B1F000FFF74EFFDFF888A0DFF888B0AE4231D904
:10B2000018F8052059462046FDF7F1F90135082DBB
:10B21000F4D11949194DDFF870A02046FDF7E7F980
:10B220004FF0000B5E4522D918F80B207E2A05D876
:10B230001046019207F002FC019A00B92E225146F5
:10B240002046FDF7D4F90BF1010BBBF1080FE9D152
:10B25000012221463846FFF7F9FE84F80C9003B02E
:10B26000BDE8F08F51462046FDF7C1F9CEE72946EB
:10B270002046FDF7BCF9E6E7F55F0300F35F030046
:10B28000F15F0300EB5F0300F75F03004FF48C7284
:10B29000002107F034BC18B14FF48C7100F0C4BE2B
:10B2A00070470000C02AF0B541D0B2F5807F40D091
:10B2B000802A40F0C5800A230446036000F1080399
:10B2C000520944F8043F01EB82028A4233D10368F9
:10B2D0000C2B3ED00E2B6CD00A2B26D15A4D5B493D
:10B2E00000F1A006426955F8044B8768C2F30723B2
:10B2F0007C40CB5C6340140E10300C5D83EA044349
:10B30000D4B20C5D83EA0463C2F307440C5D83EAA4
:10B31000042350F8044C836063400468C3606340B6
:10B320000361534043618642DCD100208AE00C2354
:10B33000C2E70E23C0E78B784D781B0443EA052350
:10B340000D782B43CD7843EA056344F8043F04317C
:10B35000BBE73D4C3D4900F1C005C26954F8046BA0
:10B360008768C2F307237E40CB5C7340160E18300B
:10B370008E5D83EA0643D6B28E5D83EA0663C2F32E
:10B3800007468E5D83EA062350F80C6C8360734099
:10B3900050F8086CC360734050F8046C036173404C
:10B3A00006684361734083615340C3618542D4D1D1
:10B3B000BBE7254D254900F1E006446A55F8042B0A
:10B3C0008768C4F307237A40CB5C87695340220E19
:10B3D00020308A5C83EA0243E2B28A5C83EA026339
:10B3E000C4F307428A5C83EA022350F8142C83607A
:10B3F000534050F8102CC360534050F80C2C03619C
:10B400005340DAB243618A5C7A401F0ECF5D82EA14
:10B410000762C3F30727C3F30743CF5DCB5C82EA20
:10B42000072282EA034350F8042C836153400268E8
:10B43000C36153400362634043628642BDD174E7F7
:10B440006FF01F00F0BD00BF80710300806003003B
:10B450002DE9F04F97B043680D680E951C68A84F12
:10B46000A84E6C400E945D684C686C400F949D68CB
:10B470008C68C9686C40109403F11004DB68A24D1D
:10B4800000944B40119303680D945B100393013BB0
:10B4900004930193002320460293DDE90E91C1F34A
:10B4A0000723DDF840C057F823300693CCF3074359
:10B4B000CCF3072E56F823300793119B57F82E40F4
:10B4C0000894C3F3074E4FEA1C6856F82E400994BF
:10B4D000C3F3072E5FFA8CFC57F82E400A94C9F389
:10B4E000074E203056F82E400B94C9F3072E57F81C
:10B4F0002E400594C1F3074E844C56F82EB054F8F4
:10B5000028A055F82C805FFA83FE55F82EE08EEACD
:10B510000A0A4FEA116EC9B254F82EE055F821100C
:10B5200088EA0E084FEA196E5FFA89F954F82EC0BE
:10B5300081EA0C014FEA136C55F8293054F82C902D
:10B5400083EA0909019B002BDDE9063483EA040341
:10B55000089CA446099C8CEA040C0A9CA6460B9CF9
:10B560008EEA040E00F3D680039C0498002C009C05
:10B570004FEA4010D8BF002004442046029C04B18A
:10B580000D900D9E3068B5687468434083EA0907E2
:10B59000F36812978BEA0A0B8BEA030B059B8EEA82
:10B5A000050E8BEA030B5A4DCDF854B0FBB28CEA72
:10B5B000040CEC5C33695C404FEA1B638CEA0101CC
:10B5C000EB5C139184EA0364C1F307238EEA080855
:10B5D000EB5CCDF8508084EA0324C8F30743C7F33B
:10B5E0000729EB5C84EA0344CBB20E94E85C7369F0
:10B5F00058403B0EEB5C80EA0360C8F30723EB5C2A
:10B6000080EA0320CBF30743EB5C80EA03405FFA58
:10B6100088F34FEA186815F803A0B3690F908AEA17
:10B62000030A0B0EC1F30741EB5C8AEA036ACBF312
:10B6300007235FFA8BFBEB5C8AEA032AC7F3074315
:10B64000EB5C8AEA034A06F120030D93F66915F8CC
:10B650000B30CDF840A0734015F8086083EA06630C
:10B6600015F80960695C147083EA062383EA0143D4
:10B67000210A5170210C9170010A5171010C9171D4
:10B680004FEA1A2151724FEA1A4191724FEA1A6138
:10B69000D172190A1071137351731193190C240E7E
:10B6A0001B0E000ED0719173D47082F808A0D37372
:10B6B0000EA8042100F0B8FC0FA8042100F0B4FC8F
:10B6C00010A8042100F0B0FC11A8042100F0ACFC8B
:10B6D00012A8042100F0A8FC13A8042100F0A4FC87
:10B6E00014A8042100F0A0FC15A8042100F09CFC83
:10B6F0000DA8042100F098FC002017B0BDE8F08FE1
:10B70000806503008069030080610300806D030091
:10B710008060030050F8204C634083EA09031293D1
:10B7200050F81C4C8CEA040C8CEA010CCDF84CC08F
:10B7300050F8181C059C8EEA010181EA0801149159
:10B7400084EA0B0B50F8144C8BEA040B8BEA0A0AC0
:10B750003C4CCDF854A05FFA83F84FEA1A6E55F8C6
:10B76000288054F82EE050F8104C88EA0E0ECCF3E6
:10B7700007288EEA040E57F82880324C8EEA080E0D
:10B78000C1F3074856F828808EEA080ECDF838E055
:10B790005FFA8CF84FEA136E55F8288054F82EE0C3
:10B7A00050F80C4C88EA0E0EC1F307288EEA040EFE
:10B7B00057F82880234C8EEA080ECAF3074856F83B
:10B7C00028808EEA080ECDF83CE05FFA81F84FEA57
:10B7D0001C6E55F8288054F82EE050F8084C88EA82
:10B7E0000E0ECAF307288EEA040E57F82880154C6F
:10B7F0008EEA080EC3F307485FFA8AFA56F82880E3
:10B800008EEA080E4FEA1168CDF840E055F82A108C
:10B8100054F828E0C3F3072381EA0E0E50F8041C05
:10B8200057F82330CCF3074C8EEA0101594056F803
:10B830002C3059401191019B013B0193012302934C
:10B840002BE600BF806D03002DE9F04F97B04368F1
:10B850000D680E951C68DFF8A8E2DFF8A8C2A54FB6
:10B860006C400E945D684C686C400F949D688C68C9
:10B87000C9686C40109403F11004DB6800944B40DD
:10B88000119303680D945B100393013B04930193A0
:10B89000002325460293119C10980E99C4F30723A8
:10B8A000C1F307285EF823300693C0F307435EF820
:10B8B00028605CF823300793C4F307480F9B089671
:10B8C0005CF828600996C3F307284FEA11695EF80F
:10B8D00028600A96C1F30748C9B25CF828600B9645
:10B8E000C0F3072820355EF828600596C3F30748A3
:10B8F000814E5CF828B056F829A05FFA84F8240E2F
:10B9000057F8288056F8244088EA0A0A5FFA80F837
:10B91000000E57F8288056F8200088EA0408DCB2A8
:10B9200057F8244084EA00091C0E57F8213056F8D5
:10B9300024005840019B002BDDE9063183EA010316
:10B94000DDE9081481EA0404DDE90A1681EA06014A
:10B9500000F3DA80039E049D002E009E4FEA4515F9
:10B96000D8BF00252E443546029E06B10D95DDF860
:10B9700034C0DCF80050DCF80870DCF804605D408E
:10B98000DCF80C308BEA0A0B8BEA030B059B454075
:10B990008BEA030B7940EBB2584FCDF854B017F84F
:10B9A00003E0DCF810301295664086EA09068EEA5C
:10B9B000030E330E81EA0804FB5C13968EEA036ED5
:10B9C000CBF30723C4F30728FB5C14948EEA032E01
:10B9D000C4F30743FB5C8EEA034EF3B2CDF838E0C4
:10B9E000F85CDCF814305840230EFB5C80EA0360FE
:10B9F000C5F30723FB5C80EA0320CBF30743FB5C22
:10BA000080EA0340E3B20F90F95CDCF8183059404B
:10BA10004FEA1B635FFA8BFBFB5C81EA0361C6F3B1
:10BA20000723C6F30746FB5C81EA0321C5F30743FE
:10BA30002D0EFB5C7D5D81EA03410CF120030D932B
:10BA4000DCF81CC017F80B30109183EA0C0317F8D0
:10BA50000840107183EA056383EA0423BC5D117218
:10BA600083EA04434FEA1E2454704FEA1E44947044
:10BA70004FEA1E64D470040A5471040C000ED07195
:10BA8000080A5072080C090ED172190A1373517307
:10BA90001193190C1B0E9072917382F800E094714F
:10BAA000D3730EA8042100F0BFFA0FA8042100F000
:10BAB000BBFA10A8042100F0B7FA11A8042100F085
:10BAC000B3FA12A8042100F0AFFA13A8042100F081
:10BAD000ABFA14A8042100F0A7FA15A8042100F07D
