:020000022000DC
:1060000000000120756302005D6302005F6302000F
:106010006163020063630200656302000000000028
:1060200000000000000000000000000067630200A4
:1060300069630200000000006B6302006D630200F0
:10604000E19402006F630200219902006F63020075
:106050006F6302006F6302009D9702006F6302008E
:106060006F6302006F6302006F6302006F630200E0
:106070006F630200299A02006F6302006F630200DF
:106080006F630200F17202006F6302006F6302002F
:106090006F6302006F630200D50B03006F630200A1
:1060A0006F6302006F6302006F6302006F630200A0
:1060B0006F6302006F630200000000000000000038
:1060C0006F6302006F6302006F6302006F63020080
:1060D0006F6302006F6302006F6302000000000044
:1060E00000000000000000000000000000000000B0
:1060F00000000000000000000000000000000000A0
:10610000000000000000000000000000000000008F
:10611000000000000000000000000000000000007F
:10612000000000000000000000000000000000006F
:10613000000000000000000000000000000000005F
:10614000000000000000000000000000000000004F
:10615000000000000000000000000000000000003F
:10616000000000000000000000000000000000002F
:10617000000000000000000000000000000000001F
:10618000000000000000000000000000000000000F
:1061900000000000000000000000000000000000FF
:1061A00000000000000000000000000000000000EF
:1061B00000000000000000000000000000000000DF
:1061C00000000000000000000000000000000000CF
:1061D00000000000000000000000000000000000BF
:1061E00000000000000000000000000000000000AF
:1061F000000000000000000000000000000000009F
:10620000354936480A1A02D0072291438D4634494F
:1062100034480A1A06D00722914381F309880222E2
:1062200082F3148830483149314A00F044F831484B
:106230003149324A00F03FF831483249324A00F0E1
:106240003AF832483249334A00F035F83248334997
:10625000334A00F030F833483349344A00F02BF821
:1062600033483449344A00F026F83448344900228F
:1062700000F02CF833483449002200F027F8334866
:106280003349091A082902DB002202604160314AC1
:1062900090471F481F49884205D00268043003B464
:1062A000904703BCF7E700208646EC46002000211B
:1062B000294A9047FEE7884207D0521A05D0037852
:1062C00001300B700131013AF9D17047884202D098
:1062D00002700130FAE770470000012000E0002062
:1062E0000000012000000120A87A03002C2B0020D0
:1062F0004E310020D0630200D0630200F04A030058
:10630000A87A03002C2B00202C2B0020E44B030048
:10631000E44B0300E44B0300E44B0300E44B0300B5
:10632000E44B0300E44B0300E44B0300A87A0300B2
:10633000CC8003005031002050310020503100202B
:1063400024520020245200202452002024520020F5
:10635000247200209D630200C9B90200FEE7FEE737
:10636000FEE7FEE7FEE7FEE7FEE7FEE7FEE7FEE705
:1063700000F002B8FFF7FCBF0F484FF00701884359
:1063800085460E4880470E48016841F4700101605F
:10639000BFF34F8FBFF36F8FFFF732BF09480A4932
:1063A0000A4A884207D0521A05D0037801300B7090
:1063B0000131013AF9D170470000012091C102007A
:1063C00088ED00E0D04B0300182B00202C2B002080
:1063D000022004F021B800002DE9F04780460D4668
:1063E00004F03AF80328044610D8012D10D0022DED
:1063F00030D05DB91A4800F04AFD1A4B04EB440254
:1064000013449E78184B1B5DB34219D0BDE8F0874A
:10641000144D00EB4002A918AE5C4A78470052B117
:10642000DFF84C900E484A464FF4804100F017FDCB
:1064300008B989F800803B192B449A780A4B1A5501
:10644000002EE3D0094B1B68002BDFD03046BDE89F
:10645000F047184700EB4004024804446678EFE731
:1064600078310020B8310020D1310020CC3100201B
:106470005031002000780221FFF7AEBF08B5094B6C
:106480001B7853B1002003F09DFF012003F09AFF19
:10649000BDE80840032003F095BFBDE8084003F0C5
:1064A0009DBF00BF51310020F8B57B4C23780546D5
:1064B0001BB100232370FFF7E1FF172D00F2888046
:1064C000DFE805F00C17174354657680888D888DBA
:1064D000959A9A9A9A9AC4C9D1D9E4E4FFF7CEFF63
:1064E0006E4800F0D4FC6E4B002204461A70204621
:1064F000F8BD002003F04CFFF8B1002003F062FF6C
:10650000022D0CBF4FF4E1614FF47A61644B1D70B2
:106510004FF400404FF47A740025E0FB01454FF43E
:10652000FA620023204629460AF09EFC002201461A
:10653000BDE8F840594800F092BC03F037FF022D47
:106540000CBFC8214FF4C871E0E7002003F020FF22
:1065500040B1002003F036FF4FF44871504B032246
:106560001A70D5E703F022FFC821F7E7002003F0F7
:106570000FFF38B1002003F025FF4FF47A61484B3C
:106580000422EDE703F012FF4FF4C871F7E7002093
:1065900003F0FEFE48B1002003F014FF404B05223B
:1065A0001A7040F6CD410022C2E703F0FFFEF5E786
:1065B000002003F031FF3A4B06221A70002240F20D
:1065C0006661B5E7002003F0F1FE354B07221A7033
:1065D00000248CE70120207003F01EFFEEE701206D
:1065E000207003F019FF00224FF40051A0E703F0E0
:1065F00004FF2B4B0C22EAE72A482B4E00F047FC05
:10660000D5F1110504461CD0D8B9012D13D0C823EB
:106610005D434FF400474FF47A7000214FF4FA6263
:106620000023C7FB05010AF01FFC224601461D4856
:1066300000F015FC0446022003F0B8FE012333707D
:1066400055E7022003F0BEFE0023F8E7FFF716FF30
:10665000134B1222BBE7FFF711FF002003F0A6FE49
:106660000F4B1322B3E7FFF709FF012003F09EFE53
:106670000B4B1422ABE7FFF701FF002003F096FE5F
:10668000012003F093FE064B1522A0E703F0B5FEB0
:10669000034B1D709CE700BFC831002098310020DB
:1066A000D03100205831002051310020044B1B68AC
:1066B000DB0703D5034B1878FFF7F6BE704700BF22
:1066C000C4310020D0310020032801D803F0B6BE29
:1066D00000207047044B1B6813F0010301D0FFF743
:1066E000E3BE1846704700BFC431002038B51C4BCC
:1066F00018601C4B10F00204054619601AD01A4BA2
:106700001A480E221A700F22DA7010229A71112282
:106710005A72042140F2333200F054FA044648B968
:1067200000F0A6FA044628B90146114A114800F0C3
:106730008BFB0446EB0711D5012003F0A5FE6CB9D5
:1067400021460D4A0D4800F07FFB044630B9BDE8F4
:1067500038400B4A0B48012100F076BB204638BD7B
:10676000C4310020CC310020B8310020E44B0300BC
:1067700075640200084C0300AD6602000C4C030077
:10678000D1630200044C0300032811D8012A0AD166
:1067900001290FD100F10E02D2B20D4B00EB4000E7
:1067A0001A54002070470129F7D0022904D049B1BA
:1067B000072070470022F8E7054B00EB4000184423
:1067C0004270EEE7024B00EB400018448270E8E7AD
:1067D000B8310020032808B512D803F04FFE80001E
:1067E00000F1A040D0F8003723F44033C0F8003760
:1067F000D0F8003743F44033C0F80037002008BD1C
:106800000620FCE708B5012202210020FFF7BCFFAB
:1068100008B1072810D1072202210120FFF7B4FF99
:1068200008B1072808D100210A220846FFF7ACFF6B
:1068300010B1072808BF002008BD00000388102BF6
:1068400010B502D0112B1ED010BD1A4C2168B1B961
:1068500001220846FFF798FF08B1072824D1072234
:1068600002210120FFF790FF08B107281CD1042264
:1068700002210020FFF788FF08B1072814D1236800
:1068800001332360E0E70B4A1368013B1360002BE0
:10689000DAD1FFF7B7FF0028D6D0074B1B68002BD3
:1068A000D2D0BDE810401847034B1B68002BE6D040
:1068B0009847E4E7DC310020D831002008B50020FB
:1068C000FFF788FF08B1062806D10120FFF782FFF5
:1068D00010B1062808BF002008BD00000D4B10B500
:1068E00018600C4629B10120FFF7EEFE40B10223EB
:1068F0002370094B1B6853B9BDE81040FFF782BFF6
:10690000FFF7E2FE08B10B23F2E72070F1E7002069
:1069100010BD00BFD8310020DC31002004F02CBDB8
:106920000021084604F0EEBC10F1360F0AD058B131
:1069300048F2165248F2115310F1380F14BF1046A6
:106940001846704748F21450704708B5084611467B
:1069500002F016FD002008BD30B5044685B00020C9
:1069600002F090FC054678B9201D039004F01FFA50
:106970000649039800952B462A4604F08EFA05B086
:10698000BDE83040FFF7D0BF05B030BD4B69020015
:1069900008B5043004F010FA02F0A0FC002008BD95
:1069A00008B5043004F0E2FABDE80840FFF7BCBFC8
:1069B00008B5114604301A4604F00DFABDE8084047
:1069C000FFF7B2BFC30710B507D4F023054A40084C
:1069D000145C23401943115410BD0901C9B20F239F
:1069E000F4E700BF1032002030B5094B1C78094B8A
:1069F000196800239C4202DC0022104630BD11F8C9
:106A00003350854201EBC302F7D00133F2E700BFF8
:106A1000E03100202032002013B504460191FFF739
:106A2000E3FF38B143682BB10199204602B0BDE8BD
:106A30001040184702B010BD034B044819680022EB
:106A4000490800F00CBA00BFE4310020E831002012
:106A500010B5C0B2FFF7C8FF0446007802F094FEFC
:106A600063785A1E53425341834208D1044BD3E901
:106A70000023134303D1BDE81040FFF7DDBF10BD75
:106A80000832002037B54308354AD35CC2074CBFF3
:106A90001B0903F00F0304460D46042B35D8DFE82D
:106AA00003F003252C383C0079B30121FFF78AFF5E
:106AB00000230DF107008DF8073000F0C1FA012026
:106AC000A4F12003C4F12001264A20FA01F100FAC2
:106AD00003F30B43A040D2E9004120430B43C2E93A
:106AE00000039DF8070000F0CFFA0EE0002918BF60
:106AF00002212046FFF766FF07E041B10321FFF7BF
:106B000061FF01212046FFF787FF03B030BD01215F
:106B1000EFE70029F9D10421EBE709B10321E8E708
:106B2000FFF750FF29462046FFF776FF0DF10700DB
:106B30008DF8075000F084FA0120A4F12003C4F17D
:106B40002001084A20FA01F100FA03F30B43A040A8
:106B5000D2E9004124EA000021EA0303BFE700BFB5
:106B600010320020083200202DE9F041124E134F60
:106B700000243378A34208DC114BD3E900231343EC
:106B800018D0BDE8F041FFF757BF3D6805EBC408DA
:106B900015F8340002F0F8FD98F801305A1E5342FF
:106BA0005341181A4142414115F83400FFF76AFF7A
:106BB0000134DEE7BDE8F081E03100202032002022
:106BC00008320020092AF7B505460C4616463CD97E
:106BD00002F01AFDD8B11E4B1E481D601E4B1F4F00
:106BE0001C701F4B002110221E600AF09FFA1D4BE3
:106BF00000200021C3E90001013CE4B20326FF2C80
:106C00000BD1194A1948002100F01EF903E002F0E7
:106C1000C3FC0028DFD003B0F0BD9DF8063015F8A6
:106C200034008DF8046005EBC40223F007038DF8EF
:106C3000063001A993788DF805303A4602F0EEFC53
:106C4000013CE4B20028DAD0E5E70720E3E700BF23
:106C50002032002010320020E0310020516A020072
:106C6000E431002008320020696B0200104C030060
:106C700070B5084D084E00242B789C4201D30020AB
:106C800070BD3368012113F8340002F039FD01347E
:106C9000F2E700BFE0310020203200201FB50021C4
:106CA000039001AA44F20100CDE9011100F004F8BB
:106CB00005B05DF804FB000072B6094B1B68DB07EA
:106CC00000D500BEBFF34F8F0649074BCA6802F4D8
:106CD000E0621343CB60BFF34F8F00BFFDE700BFFF
:106CE000F0ED00E000ED00E00400FA05D0E9022339
:106CF000D1E90201994208BF90422CBF0120002037
:106D00007047000008B50B4800F0DDFA0A4B0B494C
:106D1000D3E900231218D1E9000143F100038B42AB
:106D200008BF824203D212F1807243F10003104681
:106D3000194608BD2C2B002028320020A03200204C
:106D400037B505460C460A4801A901F086FA60B13C
:106D50000570446001A9064801F0A9FA18B1054878
:106D600000F0B6FA002003B030BD0420FBE700BFFE
:106D70008C3200202C2B002038B5184B1B78044691
:106D800013B90025284638BD0028FAD0037F03F048
:106D9000FF05002BF5D0FFF7B5FFD4E90223994298
:106DA00008BF904214D3236903B92377D4E905308F
:106DB000984721690029E4D0237F03F0FF05002BC9
:106DC000DFD0D4E90223521843F10003C4E90223BF
:106DD0000348214602F02EF8D4E700BF30320020ED
:106DE000184C030013B5114B114918680190082382
:106DF0001048582201F0FCF9044698B90E4A0F4891
:106E000001A900F065F9044660B90C48012100F0C1
:106E10003DFA01230A4A0948194600F09FF9094B37
:106E200001221A70204602B010BD00BF144C0300AE
:106E3000343200208C320020A96E02002C2B00205E
:106E4000FFFF7F00303200203AB103685A614A1ECA
:106E5000514251411961002070470720704738B5F1
:106E6000037F04460D4683B98261FFF74BFF236918
:106E7000401941F10001C4E9020103B12561214635
:106E80000020BDE83840FFF75BBF002038BD00237D
:106E9000014603770120FFF753BF0000014800F0CF
:106EA00012BA00BF2C2B00202DE9F04F85B0804690
:106EB00000F0F4F940B15A4AD2E9003113F180737D
:106EC00041F10001C2E900310021404600F0F5F92E
:106ED00038B1544E336823B13068FFF74DFF0023BB
:106EE00033600121404600F0E8F920B1FFF70AFFC6
:106EF0004D4BC3E900014D484A4F4D4EDFF83891E4
:106F000003A901F0E4F9002845D1DFF82491454EAA
:106F1000DFF828A1484601F0A3FF3368002875D0A8
:106F20007BB13368D0E90201D3E90223994208BF5B
:106F300090422DD233681B7F1BB13168484601F067
:106F400079FF484601F086FFD0E902B30746019376
:106F5000FFF7D8FE019BBBEB000463EB0105012C9E
:106F600075F1000345DBB4F5350F40D3FFF796FF0D
:106F7000304A02444FF496030021504600F00EF9C7
:106F800000283ED1336813B9404600F0DFF837607F
:106F900005B0BDE8F08F0378012B1DD0022B09D17D
:106FA0004FF0000A304601F055FF002834D080F839
:106FB0001CA0F7E73BB941680B7F23B901230B778E
:106FC000304601F037FF03A9184801F0ABF903A9D7
:106FD000164801F07CF996E741683B68994202D176
:106FE00000233B60EFE7304601F03DFFEBE7BA6876
:106FF000C0E70021504600F056F93846FFF7BCFEC6
:1070000001E00D28F9D00023336083E7002BBFD1C6
:10701000404600F09FF8BBE7012389F80030D2E733
:1070200028320020A8320020A03200208C3200201C
:10703000184C0300FFFFB400303200202C2B00203E
:1070400070B5EFF3108672B60C4A946801239CB9B0
:1070500093600B4B0B4DD3F8801029401160C3F89F
:107060008050D3F8841051604FF0FF32C3F8842071
:10707000047006B962B670BD0370FAE7AC32002046
:1070800000E100E0FC06FFBD084B9A6810B55AB15C
:1070900050B9EFF3108172B6054A1C6814605C6841
:1070A0005460986001B962B610BD00BFAC320020D8
:1070B00000E100E0435882B03BB100234350435805
:1070C0000193019B012002B070471846FBE70000C6
:1070D000F0B51A4B46791A4C43F8262004EBC60348
:1070E000F7001B793BBB03680A88C3F8082590F9B1
:1070F00004508A780379002DADBF05F16041114934
:1071000003F00F0C01F561414FEA4212D2B2B4BF55
:1071100001F80C2081F800236D0901220A4903F0CF
:107120001F0302FA03F341F82530E31944F836004F
:107130001A710020F0BD0820FCE700BFC03200201B
:10714000B832002014ED00E000E100E00368012205
:107150001A607047036801225A60704773B501F1E5
:107160005005AD000068ADB24FF480348C4000266D
:10717000C0F80843C0F84843465101F5A871455985
:10718000019522F07F42019D40F82120C0F8444340
:107190000BB1C0F8044302B070BD00002DE9F74FF9
:1071A0000D4622F07F4402684FF4803705F1500607
:1071B0008F408046B60002EB8500C2F84873B6B235
:1071C000C2F80873D2F8041599464FF0000BD0F8B6
:1071D0004035C0F8401542F806B05B1A925900924B
:1071E00023F07F43012B009A4FEA850A0CD1264BEE
:1071F0004FF4806043F001039847D8F8003043F81B
:1072000006B09B590193019BD8F80010D1F8046592
:10721000C1F84473A31B23F07F43012B1CD11A4BED
:1072200005F5A875013443F0010341F825404FF4FA
:1072300080609847D8F80030D3F804359E4209D1D1
:10724000D8F800300020C3F84473C3F8047303B0C7
:10725000BDE8F08F0D20FAE78A44C9F1FF13CAF8A0
:107260004045D1F80405221A013A22F07F4203F585
:107270007F439342EED3002AE2D10134CAF840455D
:10728000D1F804359842DAE7304C03000368022253
:10729000C3F8442309B1C3F80423704700684FF4CE
:1072A0008271FFF707BF4FF4803303FA01F10368DF
:1072B000C3F84813C3F808137047503189000068B9
:1072C00089B2FFF7F7BE0368D3F8040570470000E2
:1072D00090F9043001215A0903F01F0301FA03F366
:1072E0004032024941F82230704700BF00E100E01F
:1072F000024B034A1B681068184700BFC0320020C9
:10730000B832002070B5064D0646002455F8043BFF
:107310000BB1304698470134042CF7D170BD00BF43
:10732000D0320020033080B240F2FE33984230B5B4
:107330001FD8134B1A783AB91C895D892C44044430
:10734000A4B2B4F5806F0AD91A7DAAB99A8BDC8BE6
:107350002244024492B2B2F5806F0DD801220A8015
:107360001446142202FB04335A8910445881002029
:1073700030BD48F20860FBE748F20660F8E700BF5E
:10738000043300200B4A0C4B5188142000FB0131C0
:10739000CB6833B90420496810700122074801F016
:1073A0000FB907490523137002238B800122096856
:1073B0000023F3E7E832002004330020182B0020DC
:1073C000CC33002007B5002305490093054A09681E
:1073D0000548082301F0C6F803B05DF804FB00BFC0
:1073E000CC330020444C0300182B002007B50023A9
:1073F00001460093034A0448082301F0B3F803B0A0
:107400005DF804FB3C4C0300182B002013B500234F
:107410000C4600930146084A0848042301F0A2F8EC
:1074200038B90749142303FB04140123237402B061
:1074300010BD48F20D60FAE7384C0300182B00200D
:107440000433002037B50A480A4B42689C88196803
:1074500053880325033305709BB2002000909B00E6
:1074600001EB8401044801F07DF803B030BD00BF9A
:10747000E8320020CC330020182B002010B5014644
:10748000044800F0EAFE1C220446002109F04EFEEA
:10749000204610BDB833002068B10268084B9A42FC
:1074A00009D14068074B984207D00133984214BF76
:1074B000032001207047032070470020704700BF61
:1074C000DEC0ADDEFE011EF14388033300EB830313
:1074D00099420BD382884FF6FF739A4208D00388F3
:1074E00033B18068431C58425841704702207047AE
:1074F000012070472DE9F0410D460223154F2B80E6
:10750000164600F5805100F108044FF001088C4246
:107510000ED2236801330BD02046FFF7D5FF48B1C8
:107520000EB186F80080022809D14FF480632B80C9
:10753000BDE8F081A3683A68934200D93B602B888C
:107540006288033313442B806388033304EB830482
:10755000DDE700BFFC32002038B5144B14220D4685
:1075600002FB00302B68446804F58051A3B15C88AD
:10757000033403EB84048C4215D22368013312D008
:107580002046FFF7A1FF012808D002280BD00028D1
:10759000F1D12C60012038BD0834ECE76388033357
:1075A00004EB8304E7E70020F5E700BF0433002085
:1075B000426873B504460D466AB3244BD9688A42C3
:1075C00029D31B699A4226D812F0030323D12049FC
:1075D0000089098988421ED12068916888421AD1A1
:1075E0001C494868824203D900F5805082420DD37D
:1075F00089698A420CD901F580518A4208D2012258
:107600002A80B3FA83F0400902B070BD1A46F7E74A
:1076100048F20963F5E700232B801E46019628886F
:1076200001A9FFF799FF30B92B8801339BB2012BD9
:107630002B80F3D9E8E7019B226899689142EED14B
:107640006360034B1B892381DEE700BF182B0020FA
:10765000E8320020043300202DE9F8431C461D4B7E
:107660001B7806460F46154673B382B37CB3DFF82A
:107670006C804FF01409A388012B02D948F20960ED
:1076800020E009FB03F318F803302BB9A08821464A
:10769000FFF762FF20B92060A3880133A380EAE7E7
:1076A00023681EB1998832889142EFD11FB11988A1
:1076B0003A889142EAD19A68C5E90023064B1B89B2
:1076C0002B810020BDE8F88348F20160FAE748F218
:1076D0000460F7E7E0320020E832002004330020A5
:1076E00008B5074B5888191DFFF736FF18B1BDE8DC
:1076F0000840FFF7A7BEBDE80840FFF743BE00BF44
:10770000E83200202DE9F04FA44FDFF8B49289B0A1
:107710000646B8463B6823B9A148494600F0D7FD64
:107720003860D8F8005029784B1E052B07D8DFE8C1
:1077300013F022007C007C000E010E01660148F26D
:107740000E641422002103A809F0F0FC41F61D5339
:107750009C4208BF0024D8F8003004941A78013AFB
:10776000052A00F2F681DFE812F0E201E6010602E6
:10777000160222022C022EB18A4B00225A604FF4CC
:107780000644DEE72B79032B1DD8DFE803F0150252
:107790002B3685490B78022B08461AD00B7D022B1D
:1077A0004FF0010317D114225343C2180020C854CC
:1077B0005068FFF71BFE03E001232B71FFF702FE69
:1077C000002800F0BE80774B00225A6048F20D641A
:1077D000B7E70023E7E7734A13700023536041F6CD
:1077E0001D54AEE771497248002302222B718A8032
:1077F0000968012200F0E4FEE2E76C4C00262E71DD
:107800002068694DFFF7F2FD6A4BD4F800C05A8832
:1078100014235343EA18EE5451682160A188C2F83A
:1078200004C011810222A280CAE7B5F814A0AA7D83
:10783000DFF874B1AEB1022AEB8806D9142101FB3E
:107840000AB1DA1C088902440A81142202FB0ABA2E
:10785000C3F57F43BAF80A20FD331344AAF80A306F
:107860008DE7142303FB0AB318895C6804EB8004DA
:10787000062A69D8DFE802F0274E36441D5A040074
:1078800041F61D54AA7DEB88022A06D9142101FB7A
:107890000AB1DA1C088902440A81142202FB0ABADE
:1078A000C3F57F43BAF80A20FD331344AAF80A301F
:1078B00047E74148414900234360AB690360FFF754
:1078C00077FE00285BD00223AB75002300930423CE
:1078D000EA182146364800F045FE002831D048F22B
:1078E0000D64CFE72B69002B14BF03230123AB7575
:1078F0000023009305F10C02042304F10801E9E7D9
:107900000123AB750022EB8800922A699B0004F1E9
:107910000C01DFE703290CBF05230623AB75002309
:107920000093042305F10802E118D3E70623AB75A1
:10793000224B1988204B5868FFF768FD0446002841
:10794000A0D109B0BDE8F08F48F20E649AE7002E8E
:107950007FF415AF2B79012B34D0022B3FF43FAFCE
:10796000002B7FF4ECAE02232B710DF10A01EB68C2
:10797000039303A8CDE90466FFF71AFE10B948F295
:107980000964DEE60498BDF80A108388EB8003885A
:107990002B81FFF73BFD044627E000BF00330020AA
:1079A000B8330020E032002004330020CC33002024
:1079B000182B0020E8320020C4320020D8330020E9
:1079C000F8320020804B03AA3146A81DFFF744FE81
:1079D0007D4B044668B999880498FFF717FD044663
:1079E00048F209639C423FF4FAAE002C7FF4A9AE42
:1079F000A7E708223146184609F098FBF0E7002E69
:107A00007FF4BDAE714B1A7BB2B11E731A78013A86
:107A1000062A3FF694AE01A151F822F0C37A020083
:107A2000E97A0200077B02000D7B02003F7702002B
:107A3000137B0200257B02001A78072AE6D801A1F1
:107A400051F822F0657A02000D7A02000D7A0200E8
:107A50008B7A02009F7A0200BF7A0200BF7A02008E
:107A6000877A02001A895A4901321A8100225A8003
:107A70001A730A78B2FA82F252099A720A7DB2FA3D
:107A800082F25209DA72012207E0524958688A8864
:107A90004088033202448A8002221A70B6E74C4CB6
:107AA0005A884C49142505FB024208685468506006
:107AB0008888108102228A800C600622EDE7072266
:107AC000EBE79A7A32B9DA7A8AB900221A705A80C8
:107AD0005A6084E63E4900229A72CA68002AF2D1AE
:107AE000097C0029EFD05A80FFF7FAFD53E7002206
:107AF000DA72374A116A0029E7D192F82420002A65
:107B0000E3D00122EFE7FFF79DFC44E7FFF73AFCE3
:107B100041E72F4A5B88142101FB03235868FFF7D4
:107B200065FC38E700225A60FFF74CFC33E700237E
:107B30008DF80C300DE001228DF80C201A89ADF87B
:107B400018209A88DB680593ADF81A2000238DF879
:107B50001C3003A8FFF7D6FB002649461E48C8F88C
:107B6000006000F0DFFB1D48012100F089FC0028C7
:107B70007FF4D0ADE5E602228DF80C201A89ADF82D
:107B800018209A88ADF81A20DA689B7D05929A1F12
:107B900053425341DBE703228DF80C20DA88ADF81D
:107BA00018201A89DB68ADF81A200593D1E7042262
:107BB0008DF80C20DB88ADF818300023ADF81A30B2
:107BC000F3E70523B4E700BFDC330020E8320020F0
:107BD00004330020CC330020B8330020C833002009
:107BE0004068FFF78FBD000008B50548012100F08F
:107BF0002FFC18B9BDE80840FFF784BD08BD00BFE1
:107C0000C83300202DE9F3419846374B1B780646D0
:107C10000D46002B5CD000295DD009884FF6FF731C
:107C200099425BD06B88002B58D06B689B0758D16A
:107C30004AB92F890DF102013846FFF773FB30B1C5
:107C400002B0BDE8F08113885788ADF8023001A872
:107C5000FFF714FC044660B9BDF80230234A142132
:107C600001FB032358890338C01B588148F2076081
:107C7000E6E780F8008000238375BDF80230838238
:107C80006B68036101211A4800F0EEFB2B88238109
:107C9000B8F1030F6B88A38004BF0423A3754FF0D2
:107CA000000508BF3368E06008BFA3611148E780A2
:107CB000658101A900F0FBFA36B1E36833600E4B31
:107CC00075601B89B5723381FFF78EFF0020B7E71F
:107CD00048F20160B4E748F20460B1E748F203609B
:107CE000AEE748F20260ABE7E03200200433002048
:107CF000FC320020B8330020E832002008B50346EB
:107D000007480268042A08D00168064A42F8213070
:107D1000012100F0A9FB002008BD48F20B60FBE741
:107D2000D4330020D03200202DE9F04F89B0142246
:107D3000002103A809F0FAF9794A137803F0FF014A
:107D4000009190463BB103A8FFF7DCFA00273846C4
:107D500009B0BDE8F08F101D00F09EFB0028F5D1A2
:107D600040F6F8734FF080521B685C1C08BF6D4BE7
:107D70006D4C08BF1B6811695269581C08BF02FB93
:107D800001F323616949A3F5405300222046E360D3
:107D900000F0DAFB019407460028D8D16449654811
:107DA000DFF8A4B11C238C2200F022FABA463D462B
:107DB0004FF003093C46019BDE6856443046FFF70E
:107DC0006BFB012862D0032817D000283DD15A4907
:107DD0004FF0140C0CFB04FC01EB0C0201F80C003E
:107DE00056600CF110020CF1080C0A443046614454
:107DF000FFF780FB45F0020545E03268531C02D0D6
:107E00004E4B9A4234D1321D06F580511068013034
:107E10002ED104329142F9D1DBF800203AB9022286
:107E20000123CBF80060ABF8042000930BE0142290
:107E30006243414B022099189854414A4E60548045
:107E400001340881A4B245F001050AF5805ABAF55B
:107E5000405FB0D1B9F1010F98BF0025EDB2022DFE
:107E600003D0062D31D0002D39D148F20A676EE7D4
:107E7000314914226243881809F1FF394660032012
:107E800088541FFA89F90134A4B2DEE7009B6BB174
:107E9000294B14226243991802209854DBF80020E1
:107EA0004A60274A088154800134A4B2002225493F
:107EB000CBF800603046FFF71DFBBBF80420022A18
:107EC0000CBF042208221543BFE7012388F80030C5
:107ED00003A80023C8F80430FFF714FA37E702A814
:107EE000FFF7CCFAC8B10123013D03700A2D09D870
:107EF000DFE805F006080608070807080F110F005D
:107F00000023037102A90B4800F0D1F9FFF76CFEC2
:107F10001DE70323F5E70223F3E748F2076716E7B7
:107F2000E032002014100010182B0020584C0300E1
:107F30002C330020B833002004330020DEC0ADDE37
:107F4000E8320020D0330020CC33002073B50D463A
:107F50000446C8B1C1B10DF10601FFF729FBB0B16C
:107F60000C4BBDF806006668142202FB00300121AC
:107F70000C3000F079FA63682E600C336B600123DB
:107F8000A372002002B070BD48F20460FAE748F224
:107F90000960F7E70433002013B50446A8B10DF1DA
:107FA0000601FFF705FB98B10C4ABDF80630142115
:107FB00001FB0323DA6872B1A27A62B1DA680020A9
:107FC000013ADA60A07202B010BD48F20460FAE72C
:107FD00048F20960F7E748F20560F4E7043300204F
:107FE00002230022FFF70EBE18B103230022FFF781
:107FF00009BE48F204607047114B1B7813B5044664
:10800000ABB14FF6FF73984214D001A8FFF736FAD0
:1080100098B10523037001230371C48001A90948A5
:1080200000F045F9FFF7E0FD002002B010BD48F276
:108030000160FAE748F20360F7E748F20760F4E707
:10804000E0320020B83300200F4B1B7807B5A3B1F6
:1080500001A8FFF713FA98B10623037001A90B4892
:1080600000F025F90A4B1A780AB101221A73FFF7BA
:10807000BBFD002003B05DF804FB48F20160F9E7A6
:1080800048F20760F6E700BFE0320020B833002076
:10809000E832002007B5ADF80600ADF804100DF188
:1080A000060001A9FFF7D8FA03B05DF804FB07B595
:1080B0001346ADF806000A4600200DF10601FFF751
:1080C000CBFA03B05DF804FB07B51346ADF8060024
:1080D0000A460DF106000021FFF7BEFA03B05DF875
:1080E00004FB20B119B103680B600020704748F20F
:1080F000046070472DE9F84F3B4B1B780446002B7A
:108100006CD000286DD0DFF8E4A01222002109F025
:108110000DF8032323804FF0000BD04614274FF0B7
:108120000109DAF80410BAF80A50BAF808600846EB
:10813000FFF7B2F9032808BF2388628804BF03F160
:10814000FF33238007FB0B832E44DB6813446380DB
:1081500023891D4463892581B6B233446381C6F502
:108160008066A389B6B2B34201F1080538BFA68183
:1081700001F58051A94229D92B68013326D0284620
:10818000FFF7A2F901280AD0022815D00028F1D162
:10819000A3880133A3800AE04FF0010BC1E7E38815
:1081A0000133E380E3896A8803331344E3816B88F6
:1081B000033305EB8305DDE7E38884F81090013392
:1081C000E380E389491B03EBA101E1810AF1140A71
:1081D000BBF1000FE0D00020BDE8F88F48F201604D
:1081E000FAE748F20460F7E7E032002004330020A9
:1081F00010B561B1B2FBF3F403FB1424A4B244B98B
:10820000C0E9001484608281C381204610BD0E2025
:10821000FCE70920FAE782B050E8022FC188B2EBF0
:10822000324F4FF0000317BF92B241EA014142EAD8
:10823000014104E04268B2EB324F08BF012340E83D
:108240000212002AE8D18DF807309DF80730002B84
:108250000CBF1120002002B0704737B550E8013F35
:108260009DB2C48925448489A54228BF2D1B048959
:10827000A54202BFBFF32F8F002207E0C5EA030526
:1082800040E80154002CE9D14FF001028DF80320A1
:108290000193019B9DF803200B6002F0FF0322B1C4
:1082A0000B880068184403B030BD1846FBE70A8805
:1082B0004B889A4209D150E8012FC2EA024240E8B5
:1082C0000123002BF7D1012070470020704737B5FC
:1082D00050E8023F1FFAA3F5C488A54202BFBFF3CE
:1082E0002F8F00220DE0C48925448489A54228BF30
:1082F0002D1BC3EA054540E80254002CE8D14FF09D
:1083000001028DF803200193019B9DF803200B606F
:1083100002F0FF0322B14B880068184403B030BD5F
:108320001846FBE70A884B889A4209D150E8022F89
:10833000C2EA224240E80223002BF7D10120704715
:108340000020704701F01F024B090121914000EB12
:10835000830000F065B84B0910B501F01F0401213E
:10836000A14000EB830000F04FF8E04000F0010076
:1083700010BD01F01F0301229A404B0900EB83005E
:10838000D14300F059B84B0901F01F0150F8230008
:10839000C84000F0010070472DE9F0474F1E7F09EB
:1083A00080460E460137002558F8254008EB850920
:1083B000E44394FAA4F4B4FA84F44FEA451A202C66
:1083C00006D10135AF42EFD834462046BDE8F087EC
:1083D0005444A642F5D921464046FFF7BCFF002889
:1083E000F3D0D9F80040E44394FAA4F4B4FA84F446
:1083F000E5E710B5034653E8000F0A4643E80024BA
:1084000094F0000FF7D110BD10B5034653E8000FEC
:1084100040EA010243E8002494F0000FF6D110BDB9
:1084200010B5034653E8002F42EA010043E8000478
:1084300094F0000FF6D110BD10B5034653E8002F9D
:1084400002EA010043E8000494F0000FF6D110BDE9
:1084500010B5034653E8000F00EB010243E8002487
:1084600094F0000FF6D110BD10B5034653E8002F6D
:1084700002EB010043E8000494F0000FF6D110BDB8
:1084800010B5034653E8002FA2EB010043E80004B7
:1084900094F0000FF6D110BD0121FFF7B5BF10B564
:1084A00090B1D0E9012301689B1ADBB20A60013B5D
:1084B000DBB2FF2B026802D10020107110BD1168E1
:1084C0004C1C14600B70F2E70E20F7E737B5054639
:1084D00000240DF107008DF80740FEF7B1FD2A6872
:1084E0006B68116899420ED9481E106011F8014C52
:1084F000EB68298A01FB0434AB6811791B1ADBB2E3
:10850000994238BF13719DF80700FEF7BDFD204664
:1085100003B030BD37B5054600230DF107000C460A
:108520008DF80730FEF78CFD2A681368591C11601E
:10853000E968641A298AB4FBF1F41C709DF80700FD
:10854000FEF7A2FD03B030BD0B4610B4114628B1B2
:1085500023B103605DF8044B1B6818470E205DF8DB
:10856000044B70472DE9F04108B302B3D0F800E0A6
:10857000BEF1000F1ED0FBB14568D5F80480B3FBF7
:10858000F8F508FB1535BDB942EA010C1CF0030FE4
:1085900014D1C568A94211D34D1EEC180569AC422F
:1085A0000CD8DEF80C40A446BDE8F04160470E2030
:1085B000BDE8F0810820FBE70920F9E71020F7E784
:1085C000F0B5D8B1D0F800C0BCF1000F18D0CAB1D6
:1085D0004768D7F800E00EF1FF370F4214D1C768A3
:1085E000B94211D304694D1E0EFB0255A5420BD8AA
:1085F000DCF81040A446BDE8F04060470E20F0BD16
:108600000820FCE70920FAE71020F8E770B550B918
:108610000E4D0F4C0026641B1423B4FBF3F4B4423C
:1086200008D1002010E00368002BF1D0BDE87040B5
:10863000DB6918472B6813B901361435EFE7DB699E
:10864000284698470028F7D070BD00BF182B00209F
:108650002C2B002029DF704728DF704770B5036896
:108660009E6886B004460D466EB11422002168460D
:1086700008F05CFDA3680593237901952BB1012BCC
:108680000DD06846B04706B070BD01238DF80030AC
:1086900023690293E368039363690493F1E7022378
:1086A0008DF80030E3681B030293F5E70846704736
:1086B00000207047024B187A003818BF012070471D
:1086C00080340020034B187A0122B0FA80F05A74EB
:1086D000400970478034002008B510461A4608F05B
:1086E000FCFC002008BD000008B51422002104484D
:1086F00008F01CFD0348FFF78EFD002008BD00BFF9
:10870000803400207034002010B5094C094B4360C0
:108710002046FFF7C1FE40B908F042FA064920742E
:108720001C2306488C22FFF763FD002010BD00BF0C
:10873000803400204C4C0300E433002070340020CF
:1087400070B5244C244E237A25463BB9234924484E
:10875000FFF7BDFD306008B9606070BD022334686A
:108760002B72237973B1012B24D020460321FFF70C
:1087700075FF00232B726B6018491948BDE87040E3
:10878000FFF7D0BDD4E90523D21AB2F5805FD4E952
:10879000031028BF4FF480529208012A38BF0122EB
:1087A00019441844FFF756FF50B11128DDD10123B9
:1087B0002B72D2E7D4E903031844FFF74DFFF3E728
:1087C0002B7C002BC9D10146BDE87040022000F08F
:1087D00009B800BF80340020983400209434002071
:1087E0007034002038B5831E012B45D8234C237AE2
:1087F000002B41D0022B09D1032830D0204B00227E
:108800001B68E2601A793AB1012A22D0637C7BBBF3
:10881000BDE83840FFF794BFD3E905128D1AB5F5CE
:10882000805F94BF521902F580529A619142EDD156
:1088300002284FF0000308BF19462372104B18BFDF
:108840000D211868FFF70AFF0E490F48FFF76AFD70
:10885000DCE71A6901321A615B699A42E7E7E3686B
:108860000133082B01D8E360D0E70023E360DFE7A2
:10887000BDE8384008F084B938BD00BF803400201E
:1088800098340020943400207034002000F0FD0360
:10889000012B08D1044B00225A74421E5042504111
:1088A0001874FFF74DBF70478034002010B5064C98
:1088B000201DFFF7F1FD28B9637C1BB9BDE810400E
:1088C000FFF73EBF10BD00BF803400202DE9F3410B
:1088D00080460D460F4801A916461F46FFF7BDFC0E
:1088E0000446A8B11C22002108F020FC2D0B012316
:1088F000237101A90748C4F80080A760E56066619C
:10890000FFF7D5FCFFF7D2FF002002B0BDE8F081F1
:108910000420FAE7703400202DE9F74381468846A9
:10892000104801A917461E46FFF797FC0446B0B150
:108930001C22002108F0FAFB00250A9BA36001A974
:10894000C4E9037807482571C4F800906661FFF711
:10895000AEFCFFF7ABFF284603B0BDE8F083042070
:10896000FAE700BF703400202DE9F84FB0F806A0F8
:108970004579D2F800B09DF828900AFB05F5043D32
:1089800088460BEB0301A94203F1040488BFA5EB61
:10899000030BB4FBFAF607460AFB1644C2F800B014
:1089A0004EB9AAEB04055D4528BF5D46BBF1000F3B
:1089B00004D1BDE8F88F3F68013EF1E7043408EBCD
:1089C00006003C442A46B9F1000F0DD02146ABEB1E
:1089D000050B08F082FBDA452E443F6855464FF000
:1089E000000428BF5D46E1E701462046EFE7FFF7B8
:1089F00056BDF8B546790146721E054600239342DE
:108A00002D6803D30024A64202D8F8BD0133F6E74F
:108A10000F682846FFF77EFD01343946F3E72DE95C
:108A2000F843068ACD1C0746FFF750FD043E354447
:108A30000446B5FBF6F5F0B14FF48073EDB28380D8
:108A4000C680013D076081464FF00008A84512D25C
:108A50003846FFF73BFD064648B163790133637141
:108A600008F10108C9F8000007608146EEE72046DA
:108A7000FFF7BFFF34462046BDE8F8831FB50392D9
:108A80000022009203AAFFF76FFF05B05DF804FB18
:108A90001FB503920122009203AAFFF765FF05B0FC
:108AA0005DF804FB33DF704741DF7047064B10B5BC
:108AB00000241C70054B1C60BFF35F8F0449054800
:108AC00000F0A2F9204610BDA5340020A8340020F3
:108AD000784C03009C34002007B500230DF10700FB
:108AE0008DF80730FEF7ACFAF1EE103A23F09F0351
:108AF000E1EE103ABFF35F8F094B4022C3F88421A7
:108B00009DF80700FEF7C0FA08F04AF820B1FFF719
:108B1000CBFF03B05DF804FB20BF40BF20BFF8E7E8
:108B200000E100E070B5224D044601212846FFF720
:108B300060FCBFF35F8F2E4638B9042C0AD01D4B62
:108B40001A781AB1BFF35F8F286070BD1A4A14708B
:108B500001221A70194C184D636828787BB90238C5
:108B6000012813D8BFF34F8F1549164BCA6802F47A
:108B7000E0621343CB60BFF34F8F00BFFDE71B687C
:108B8000984788B1204600F049F9E5E708F008F871
:108B900008B1FFF787FF4FF080430122C3F800259B
:108BA000BFF34F8F20BFFDE7BFF35F8F3060CCE78F
:108BB000A8340020A5340020A43400209C340020D8
:108BC00000ED00E00400FA05026813685268934261
:108BD00091BFD01A80680130801888BFC01A7047D2
:108BE00003682DE9F0411F681E6815465A689642D1
:108BF00086BF83680133961B8846C268416888BF78
:108C00009E1BB542044607FB02110CD86A4340463E
:108C100008F063FAA3683D449D4288BF002523689D
:108C20001D60BDE8F08106FB02F73A46404608F0B9
:108C300054FAE2686168AD1B6A4308EB070008F06C
:108C40004CFAECE7036881681A685B688B4234BFB2
:108C500001330023D31A584258417047F7B5002317
:108C600004460DF107000D468DF80730FEF7E8F9D0
:108C70002046FFF7E7FF10B1237C002B3CD1226890
:108C8000A66853685168B14234BF01310021516078
:108C900030B11168A068814234BF013100211160F8
:108CA000E2686068511E072920D8DFE801F004104F
:108CB0001F141F1F1F182A78C2542046FFF784FF75
:108CC00023689A68824200D29860002415E02A88BE
:108CD00020F81320F1E72A6840F82320EDE7D5E9D2
:108CE000006700EBC300C0E90067E6E7294603FB25
:108CF000020008F0F2F9E0E704249DF80700FEF70F
:108D0000C3F9204603B0F0BD7FB505460191144676
:108D1000AAB10DF10F0000268DF80F60FEF790F953
:108D20002846FFF751FFA04201990BD3224628465F
:108D3000FFF756FF34469DF80F00FEF7A5F92046D1
:108D400004B070BD0524F6E737B5044600250DF1E3
:108D500007008DF80750FEF773F90C2229462068AA
:108D600008F0E4F99DF80700FEF78EF903B030BD76
:108D7000036818685B68C31A58425841704773B556
:108D8000002305460DF107000C4616468DF8073006
:108D9000FEF756F92846FFF7EBFF002832D1296885
:108DA0000B682EB90A68A868824238BF561C0E604C
:108DB000EA686968501E07281ED8DFE800F0040E34
:108DC0001D121D1D1D16CB5C237000249DF807008D
:108DD000FEF75AF9204602B070BD31F813302380F7
:108DE000F3E751F823302360EFE701EBC301D1E94A
:108DF0000023C4E90023E8E703FB0211204608F042
:108E00006CF9E2E70524E1E70B684A6843609342A6
:108E100008BF0023016008BF43607047436843B147
:108E20000268916852680B449342436004BF002378
:108E30004360704770B5446806460D46206818B117
:108E4000B3682946984718B923682B60256070BD20
:108E50002468F3E74368186808B102681A6070472D
:108E60004368186870474368186800B970478842BB
:108E700003D102681A600120704703460068F4E7D6
:108E80000648074A03780749D35C012213B104302E
:108E900001F012BA0C3000F0D7BF00BF342B002015
:108EA00048350020D43400200648074A0378074993
:108EB000D35C012213B1043001F0AAB90C3000F0E8
:108EC00071BF00BF342B002048350020D53400206E
:108ED00037B50578012D0BD0022D2ED065B91E496E
:108EE0001E4800F0E4F8002832D1FFF7DDFF03E070
:108EF000037A1BB9FFF7C4FF03B030BD4368184CB9
:108F00001978204600F0C1F880B18DF8005001902A
:108F1000144B68461B689847A168E368A2885B1AEF
:108F20009A42E7D2104B01221A70E5E7A268E36883
:108F30009A42F1D08DF80000EAE7C3688DF800503E
:108F40000193FFF79DFF074B68461B689847D3E7DF
:108F500003238DF80030F6E7D5340020C434002018
:108F6000B0340020AC340020C0340020F0B51F46DF
:108F7000234B89B004461A600D4600293DD08A88EB
:108F80002048096800F072F8002834D1AA89A9683D
:108F90001D4800F06BF800282DD11C4E0FCE6D46F9
:108FA0000FC596E80F0085E80F0063690693237CE0
:108FB000174A18488DF81C70003B18BF01238DF824
:108FC0001430637C002B14BF0E2300238DF8153062
:108FD000E3680293A3680393236801936946636877
:108FE000009300F015FA30B90B4B18702368013369
:108FF00001D0FFF745FF09B0F0BD0720FBE700BF38
:10900000AC340020B0340020C4340020844C030071
:10901000D18E0200342B0020C034002010B5014650
:109020000E4800F032F80446A8B90D480D4A0378FE
:10903000D35C63B1043001F033F960B90A490748E1
:1090400000F035F838B9BDE81040FFF72DBF0C30FF
:1090500000F0EEFEF1E7204610BD00BFC434002052
:10906000342B002048350020D534002049B152B1BE
:10907000531E1A4007D1826001608380C26010468F
:1090800070470E2070470920704710B58468C26889
:109090008388121B934208D3C26813400268D154DC
:1090A000C3680133C360002010BD0420FCE7826860
:1090B000C3689A420AD08268838813400268D35CEE
:1090C0000B70836801338360002070470520704770
:1090D00038B5074C051E04F1080318BF1C46236869
:1090E0002BB11A6822605B6828469847F7E738BDBD
:1090F000E034002020B9054B01225A70FFF7E8BF89
:10910000012802D1014A9070F8E77047D834002056
:1091100020B9034B01225A70FFF7DABF704700BF36
:10912000D834002038B50B4C237883B90A486360E3
:10913000A3602361E36000F0A9F9054607F030FD64
:1091400008B900F0AFF901232370284638BD852502
:10915000FBE700BFD8340020F590020037B50B4C78
:1091600000230DF107008DF80730FDF769FFE36874
:10917000013BE360E56815B900F0A6F9A5709DF81C
:109180000700FDF781FF03B030BD00BFD8340020D9
:10919000012813B508D003281CD018B9104B0122A0
:1091A000C3F8802002B010BD0E4C00230DF1070063
:1091B0008DF80730FDF744FF23780BB9FFF7B2FFB6
:1091C000E3689DF807000133E3600123A370FDF716
:1091D0005BFFE7E700F066F9FFF7C0FFE2E700BFDB
:1091E00000E100E0D834002031DF70471FB50023D4
:1091F0008DF807000DF10F008DF80F30FDF720FFFF
:1092000007F0CEFC50B909480DF10701FFF726FD24
:109210000648FFF717FD08B100F0EAFB9DF80F00C4
:10922000FDF732FF05B05DF804FB00BF5C4B0300A7
:1092300007B520B103280BD003B05DF804FB0F4B3A
:109240001B78012BF8D100F0D3FB00F0D9FBF3E73A
:1092500000230DF107008DF80730FDF7F1FE0748F8
:109260000378012B05D10649013000F081FB00F0A5
:10927000ADFB9DF80700FDF707FFDDE73C3500205B
:10928000ED91020013B5124C2378FBB9114A8DF809
:109290000730002808BF10460288A4F801200DF10D
:1092A0000700FDF7CDFE07F07BFC30B90A49601CD2
:1092B00000F05EFB40B900F089FB9DF80700012338
:1092C0002370FDF7E1FE002002B010BD8520FBE712
:1092D0003C350020A44C0300ED91020007B50023AB
:1092E0000DF107008DF80730FDF7AAFE07F058FCD6
:1092F00018B900F07DFB00F083FB9DF80700FDF737
:10930000C3FE0448FFF720FD034B00221A7003B090
:109310005DF804FB5C4B03003C3500202DE9F7436E
:109320000024DFF8589005460E46A0460DF10700D0
:109330008DF80780FDF784FE07F032FC074638B948
:10934000324629464846FFF7DFFC044600F03EFB64
:109350009DF80700FDF798FE47B131462846FFF714
:1093600043FF42F207039842044605D0022CDDD0A9
:10937000204603B0BDE8F0830524F9E75C4B030009
:10938000F8B505460C4604B9F8BD402C264628BF62
:109390004026F7B239462846FFF7C0FF0028F9D12A
:1093A000A41B3544EFE700001FB503788DF80030AB
:1093B0004368019383688DF80830C368054A0393B6
:1093C000054B684653F8213052F82110984705B0F4
:1093D0005DF804FB40350020443500201FB50378BC
:1093E0008DF800304368019383688DF80830C368B6
:1093F000054A0393054B684653F8213052F8211073
:10940000984705B05DF804FB403500204435002046
:10941000F0B5194B90F800C091F81DE043F82C20EE
:10942000164B16460A6943F82C20154B03F80CE03E
:109430000C4607460FCC89B06D460FC594E80F0067
:1094400085E80F00CDF810C0BEF1000F09D0002E46
:109450000C4A694608BF3246381D00F011FE09B0BB
:10946000F0BD002E084A694608BF324607F10C00DD
:1094700000F0DCFBF3E700BF44350020403500205E
:1094800048350020A9930200DD930200044A1379B5
:1094900023B90121106091801846704785207047DC
:1094A0004C350020074B1A68D2075FBFC02283F8F3
:1094B000002301221A604FF080430122C3F81825CF
:1094C000704700BF00E100E0044B01221A604FF03A
:1094D0008042D2F81834DB03FBD470470C00004004
:1094E000154B07B51A687AB100221A601B68009301
:1094F000009B4FF080430122C3F808230F4B58799B
:1095000010B95A711B6898470D4B1A6882B1002236
:109510001A601B680193019B4FF080430222C3F83D
:109520000823064B1B68012003B05DF804EB1847C5
:1095300003B05DF804FB00BF000100404C35002083
:109540000401004000F1804000F5C040002382B0DB
:10955000036003680193019B02B07047800000F133
:10956000A040D0F8002722F44032C0F80027D0F8FD
:10957000003743EA0141C0F800177047054B4FF030
:10958000FF32072843F8202084BFC01880F8482005
:10959000704700BF5435002010B5174C94F8583070
:1095A00043BB04F130032021FF22013911F0FF01F8
:1095B00003F8012BF9D1C8B2FFF7E0FF01310C2904
:1095C000F9D1042200210D4807F0B0FD0C4BC02258
:1095D00083F8062340221A604FF4BE70FFF7B2FFF3
:1095E000084B4FF00042C3F80423012384F858309D
:1095F000002010BD0820FCE754350020A8350020CD
:1096000000E100E000600040034B93F85800003890
:1096100018BF0120704700BF54350020F0B5364D0B
:109620002C1894F93040002C64DA8C78C4F3400490
:10963000002C0BBF082300230C260826B34201D1BF
:109640000420F0BD55F8237001373FD12E1845F89E
:10965000232086F8303014B9EA1882F848008A7856
:10966000540713D4D60733D5820002F1A042D2F8B2
:10967000004724F00204C2F80047204EC20800F060
:1096800007070124BC40B75C3C43B4548A780C788B
:1096900012F0020225D09B0003F1804303F5C04382
:1096A0000202D3F8101521F4473121F44071C3F8B8
:1096B00010152404D3F8101502F4F85204F44034C1
:1096C00022430A43C3F810250020BAE70133B5E767
:1096D0004C7800F5E0724FF0A046A40046F8224016
:1096E000CBE7083B2B4493F8501041EA841483F8ED
:1096F0005040E9E70820A4E754350020A8350020B1
:1097000038B51F4C251895F93020072A16DD22445C
:1097100092F848309B09032B0BD14FF0A043D3F8AC
:109720001015C14001F001010231BDE83840FFF7DA
:1097300015BF012B0CBF02210321F6E7D3B2072B83
:109740001CD8930003F1804303F5C043D3F8100500
:1097500040F00100C3F8100502F14000800080B223
:10976000FFF7F0FE51B195F9303054F823302BB1AA
:10977000012303FA02F2034BC3F8042338BD00BFF0
:1097800054350020006000404FF0A043D3F810355E
:1097900023FA00F000F00100704700002DE9F04FBF
:1097A00087B000245A4D03944FF48072012102F1D6
:1097B000804303F5C04390B21B68012B06D1D5F856
:1097C00004330B4202D0FFF7BDFE0C430432B2F566
:1097D000907F4FEA4101EAD14E4B1B68012B0AD121
:1097E0004FF4BE70FFF7AEFE4FF0A04344F00044CC
:1097F000D3F81035039314F0FF0F1AD0464F01260B
:109800000025344210D0AB0003F1804303F5C04380
:10981000D3F81005D3F8101557F8253023B1C1F34C
:109820000141C0F3042098470135082D4FEA460650
:10983000E7D1002C65DA00214FF0FF33CDE90413A6
:10984000354D364E4FF00009CA4601274FF0A0486B
:1098500016F9013B5A1C45D0C3F3C20106AA5018A1
:10986000DCB210F8042C03F03F0B03F0070307FAF7
:1098700003F31A4236D005EB0B02A40992F930200B
:1098800055F8222052B9032C2CD10DF1100E1EF8E0
:1098900001C04CEA030C0EF801C001E0032CF4D027
:1098A0000BF5E07110F80C0C58F821101842C1F3B8
:1098B000014105D0022915D1032C0FD1214604E026
:1098C00003290FD1032C09D102215846019209F135
:1098D0000109FFF743FE019A5FFA89F912B12146A7
:1098E000584690470AF1010ABAF1040FB0D1B9F114
:1098F000000F06D04FF0A043039AD3F810359342DF
:1099000002D107B0BDE8F08F0393049B059398E75D
:10991000006000407C61004054350020A4350020E8
:10992000014B1B68184700BFB03500200E4B984212
:1099300037B50C4602D0002003B030BD00230DF136
:1099400007008DF80730FDF77BFB084B1D7915B933
:1099500001221C601A719DF80700FDF795FB002D90
:10996000E9D01120E8E700BF00200040B03500201A
:1099700010B5124C2278FAB9114B1960037813F024
:10998000010F104B1EBFD3F8042542F00102C3F8AB
:109990000425D3F8002222F00102C3F80022437804
:1099A000094A5B01DBB282F80D334FF400531360B8
:1099B00001232370002010BD8520FCE7BC3500206A
:1099C000B835002000D0004000E100E0064B002246
:1099D0001A6082B01B680193019B044B0122C3F8FB
:1099E00004231A6002B0704700D1004000D000404C
:1099F000024A0123C2F808335360704700D0004088
:109A0000064A0123C2F808335360054B4FF4005255
:109A1000C3F88020034B00221A70704700D000402A
:109A200000E100E0BC350020074B00221A6082B044
:109A30001B680193019B054BD3F80805044B1B6879
:109A4000C0B202B0184700BF00D1004000D00040B3
:109A5000B83500200023435082B043580193019B46
:109A600002B070470A4610B54FF48E71FFF7F2FF4F
:109A7000136A9168C95C136A01331362C0F81C153C
:109A800010BD024608B500684FF49271FFF7E2FF7F
:109A90004FF484711068FFF7DDFF136801221A602C
:109AA00008BD8B690A4610B54FF4847123B9FFF7DE
:109AB000D1FFD0F8183510BDFFF7CCFF536AD1683D
:109AC000D0F81805C854536A01335362F3E7000015
:109AD0001FB501238DF80030044BCDE90110D3E907
:109AE00000126846904705B05DF804FBC0350020C1
:109AF00030B54C48D0F8043313F4007F85B00546E8
:109B00004DD0D0F82431002B49D04FF49271FFF79B
:109B1000A1FF4FF40173C0F80833434B93F8292099
:109B20000AB9012242603F4902228DF80020D1F893
:109B30008024C1F8802403929A690292DA68019223
:109B40000022C3E906226846D3E90012904735484F
:109B5000D0F81C315BB134494A690B6A9A420A4613
:109B60004AD991F82830002B46D1FFF77BFF2D48CA
:109B7000D0F844318BB14FF4A271FFF76BFF2A4B41
:109B800093F829200AB1012202609A692AB10022C1
:109B9000586AD9689A61FFF79BFF05B030BDD5F8C8
:109BA00004335B07D3D5D5F80831002BCFD01E4C3A
:109BB0001C482146FFF775FF636AA2699A42234653
:109BC000C5D1E269E1684AB12369E3600023606AB4
:109BD000A261E3616362FFF77BFFB8E794F8292095
:109BE0000AB901226A600F4A4FF40170C2F80803F3
:109BF0000022586A9A61EEE70A484FF48E71FFF727
:109C000029FF5369002BB2D051690291002391685A
:109C10008DF80030019153616846D2E900139847EE
:109C2000A5E700BF00200040C03500202DE9F84323
:109C3000574B057991462C2202FB0532064692F8D5
:109C40002A200C469846002A40F09D805149006821
:109C5000FFF76CFE0746002840F0978021683368C4
:109C6000481C0BD04FF0A04001228A40C0F80825C4
:109C700001F5E0724FF0030C40F822C06068421C0E
:109C80001FBF00F5E0724FF0A04C4FF0000E4CF8F3
:109C900022E0A269C3F8242594F814C0627DBCF1C7
:109CA000010F4CEA0202C3F86C25C3F81405C3F88F
:109CB0000C151DD1A1684A1C1FBF01F5E0724FF0C1
:109CC000A0404FF0000C40F822C0E268501C0BD0BE
:109CD0004FF0A04C01209040CCF8080502F5E07050
:109CE0004FF0030E4CF820E0C3F80825C3F8101518
:109CF0002C236B4308EB0302C2F80490226948F856
:109D00000320B9F1000F2BD03068247F4FF48E71FF
:109D1000FFF7A0FE30684FF4A271FFF79BFE326898
:109D20001D4BC2F80433110B42F30732002AA8BFBF
:109D300002F160404FEA4413BABF184801F00F0423
:109D400000F56140DBB2B4BF035580F8003301F089
:109D50001F01012303FA01F15209114B43F82210AC
:109D600033680422C3F800252C2303FB058300225B
:109D7000C3E9062283F829205A61012283F82A20A8
:109D80003846BDE8F8830827FAE71127F8E700BF4F
:109D9000C0350020F19A02008000020014ED00E0BE
:109DA00000E100E02DE9F047204F90F804904FF0DB
:109DB0002C0808FB097405466669002E34D16261DF
:109DC0000068A16026624FF48E7184F82860FFF766
:109DD00041FE2868012383602146FFF743FE636844
:109DE000A0468BB92868D4F814A0236A9A4511D8E4
:109DF0002A68D2F81C31002BFBD00123D3602C231E
:109E000003FB097300225A613046BDE8F08794F8DD
:109E100028303BB9D0F81C31002BF8D04146FFF771
:109E200021FEE2E70F26EAE71126EDE7C035002024
:109E30000379044A2C2101FB03235869003818BF19
:109E400001207047C03500202DE9F843394F0579CE
:109E50002C2303FB057306465C6824B103684FF4AA
:109E60000170C3F808032C2303FB0573986950B1F4
:109E7000D86900283ED024B133684FF40172C3F88A
:109E80000423112433E09A61D9605862D8612C23ED
:109E900003FB057393F829301BB910B93046FFF75F
:109EA000F0FD4FF02C0909FB05783068D8F8043034
:109EB000002B34D14FF4A271C146FFF7CBFD3068BF
:109EC000D0F82431D0F80821D0F84441B2B90CB907
:109ED000002BF4D02C2202FB05750022AA6123BBC3
:109EE0002CBB95F8291033680122B1B11A602046C5
:109EF000BDE8F8831961DA610120C8E7002BE9D1D8
:109F0000002CE7D14946FFF7CCFDD8F82430D8F82B
:109F100018209A42D3D82346DCE75A60E7E74FF48B
:109F20000173C0F804330024E1E70324DFE70F24C2
:109F3000DDE700BFC03500200023435082B0435806
:109F40000193019B02B070471FB501238DF80030CB
:109F5000044BCDE90110D3E900126846904705B0E3
:109F60005DF804FBEC3500207FB5434AD2F824614C
:109F7000002E60D010464FF49271FFF7DDFF0223F0
:109F80008DF80030D2F88034C2F880340393D2F8D0
:109F90003C350293394BDA6801920022C3E906226C
:109FA0006846D3E9001290473348D0F8443173B182
:109FB0004FF4A271FFF7C0FF304B9A693AB100220B
:109FC000C3E90622D968D0F83C05FFF7BDFF2A484F
:109FD000D0F82031ABB14FF49071FFF7ADFF012302
:109FE000C360264B5A6962B1D0F84C150291002229
:109FF00099688DF8002001915A616846D3E90012F2
:10A0000090471D48D0F858319BB14FF4AC71FFF721
:10A0100093FF1A4B5A6962B1D0F84C150291002295
:10A0200099688DF8002001915A616846D3E90012C1
:10A03000904704B070BDD2F81031002BB4D04FF46B
:10A0400088711046FFF778FF0C4BD2F83C059969F0
:10A050008842A9D1DC69D96864B1D2F8005225F0F0
:10A060002005C2F800521A699C61DA60DE61FFF7D0
:10A070006BFF99E79C61FAE700200040EC35002077
:10A080002DE9F8435D4B06799146242202FB063206
:10A09000044692F820200D469846002A40F0AA80F7
:10A0A00057490068FFF742FC0746002840F0A480AB
:10A0B00029682368481C0BD04FF0A04001228A4039
:10A0C000C0F8082501F5E0724FF0030C40F822C0FB
:10A0D0006868421C1FBF00F5E0724FF0A04C4FF0C3
:10A0E000000E4CF822E0AA69C3F8242595F814C0A4
:10A0F0006A7DBCF1010F4CEA0202C3F86C25C3F87B
:10A100000C15C3F814051DD1A9684A1C1FBF01F521
:10A11000E0724FF0A0404FF0000C40F822C0EA6817
:10A12000501C0BD04FF0A04C01209040CCF80805FB
:10A1300002F5E0704FF0030E4CF820E0C3F808255C
:10A14000C3F810152423734308EB0302C2F80490EC
:10A150002A6948F80320B9F1000F3AD020682A7F15
:10A160004FF48871FFF7E8FE20684FF49071FFF715
:10A17000E3FE20684FF49271FFF7DEFE20684FF493
:10A18000A271FFF7D9FE20684FF4AC71FFF7D4FE3F
:10A1900023681C49C3F80413190B43F30733002B3E
:10A1A000AEBF03F1604001F00F0517484FEA4212BD
:10A1B000A8BF00F56140D2B2B4BF425580F8002379
:10A1C00001F01F01012202FA01F15B090F4A42F876
:10A1D000231023680822C3F80025242303FB0683E9
:10A1E0000022C3E906225A61012283F82020384662
:10A1F000BDE8F8830827FAE71127F8E7EC350020D7
:10A20000699F02001003420014ED00E000E100E04D
:10A2100001F06043B3F1005F2DE9F041064638D10B
:10A220001E4B0779242505FB073598466C69002CE1
:10A2300031D16A610068A9604FF49071FFF77CFE2C
:10A240004FF4AC713068FFF777FE33686A69A9682C
:10A25000C3F84415C3F8482501229A606A68AAB970
:10A26000D3F82021D3F858411AB9002CF8D00F2484
:10A2700007E0002CFBD10122DA60D3F85821002A34
:10A28000FBD0242303FB078700237B612046BDE826
:10A29000F0811024FAE71124F8E700BFEC35002024
:10A2A0000379044A242101FB03235869003818BFAD
:10A2B00001207047EC350020F8B501F06043B3F1A0
:10A2C000005F04460F465ED10379304D242101FB27
:10A2D0000351496821B100684FF40476C0F808635F
:10A2E000242000FB03539E6956B1D869002839D059
:10A2F00021B123684FF40472C3F80423112030E025
:10A300009A61DF60DE6120684FF48871FFF714FE08
:10A3100020684FF4A271FFF70FFE2368C3F834756D
:10A32000C3F8382516BB01221A602179242202FBCA
:10A33000015252680ABBD3F81041D3F84421D3F834
:10A340002401144302D10028F5D02246242303FB24
:10A3500001550023984218BF03209A42AB6118BFF1
:10A360000F20F8BD1F61DA610126CCE7D3F8002287
:10A3700042F02002C3F80022D7E74FF40472C3F87A
:10A3800004230020EDE71020EBE700BFEC350020B0
:10A39000054A4FF0A043105CD3F8043523FA00F0CF
:10A3A000C04300F001007047AA4C0300044B1A5C44
:10A3B000012393404FF0A042C2F80C35704700BF14
:10A3C000AA4C0300044B1A5C012393404FF0A042B7
:10A3D000C2F80835704700BFAA4C030008B500203A
:10A3E000FFF7F0FF0120FFF7EDFF0220FFF7EAFF84
:10A3F000BDE808400320FFF7E5BF08B50020FFF7E0
:10A40000D5FF0120FFF7D2FF0220FFF7CFFFBDE805
:10A4100008400320FFF7CABF074A4FF0A041105C75
:10A42000D1F804350122824022EA03001340C1F82A
:10A430000805C1F80C357047AA4C0300054A4FF0D7
:10A44000A043105CD3F8103523FA00F0C04300F0AD
:10A4500001007047A64C03000D2809D00E2809D032
:10A460000F2809D010280CBF03204FF0FF30704791
:10A47000002070470120704702207047014B185C94
:10A48000704700BFA64C0300C20708B501460CD5B3
:10A490004FF0A0430322C3F84427C3F84827C3F86A
:10A4A0004C27C3F85027FFF799FF8B070AD54FF0C9
:10A4B000A0430C22C3F83427C3F83827C3F83C273D
:10A4C000C3F8402708BD4FF48C72002106F02EBE61
:10A4D00020B100F58C730022984200D1704700F83B
:10A4E000012BF9E7C02AF0B541D0B2F5807F40D00A
:10A4F000802A40F0C5800A230446036000F1080367
:10A50000520944F8043F01EB82028A4233D10368C6
:10A510000C2B3ED00E2B6CD00A2B26D15A4D5B490A
:10A5200000F1A006426955F8044B8768C2F307237F
:10A530007C40CB5C6340140E10300C5D83EA044316
:10A54000D4B20C5D83EA0463C2F307440C5D83EA72
:10A55000042350F8044C836063400468C360634084
:10A560000361534043618642DCD100208AE00C2322
:10A57000C2E70E23C0E78B784D781B0443EA05231E
:10A580000D782B43CD7843EA056344F8043F04314A
:10A59000BBE73D4C3D4900F1C005C26954F8046B6E
:10A5A0008768C2F307237E40CB5C7340160E1830D9
:10A5B0008E5D83EA0643D6B28E5D83EA0663C2F3FC
:10A5C00007468E5D83EA062350F80C6C8360734067
:10A5D00050F8086CC360734050F8046C036173401A
:10A5E00006684361734083615340C3618542D4D19F
:10A5F000BBE7254D254900F1E006446A55F8042BD8
:10A600008768C4F307237A40CB5C87695340220EE6
:10A6100020308A5C83EA0243E2B28A5C83EA026306
:10A62000C4F307428A5C83EA022350F8142C836047
:10A63000534050F8102CC360534050F80C2C036169
:10A640005340DAB243618A5C7A401F0ECF5D82EAE2
:10A650000762C3F30727C3F30743CF5DCB5C82EAEE
:10A66000072282EA034350F8042C836153400268B6
:10A67000C36153400362634043628642BDD174E7C5
:10A680006FF01F00F0BD00BFB05D0300AE4C0300D3
:10A690002DE9F04F47680D683B684C688E68C968C3
:10A6A000DFF89882DFF898E2DFF898C25D407B68B7
:10A6B0005C40BB685E40FB684B4001688FB049104E
:10A6C0000139009107F1300151F8107C0197EFB288
:10A6D00051F8200C58F8277087EA00091F0E95489A
:10A6E0005EF8277089EA0709C4F307274FEA146B5D
:10A6F0005CF827705EF82BB089EA0709C6F30747B4
:10A70000203150F8277089EA0709E7B25FFA89F02B
:10A7100058F82770029051F83C0C87EA000A2F0E77
:10A7200084485EF827708AEA070AC6F30727C4F34D
:10A7300007445CF827708AEA070AC3F3074750F812
:10A7400027708AEA070AF7B2CAF3072058F8277079
:10A75000039051F8380C474087EA0B07C3F3072BE7
:10A7600074485CF82BB087EA0B07C5F3074BDBB2E4
:10A7700050F82BB058F8233087EA0B07C7F307408F
:10A78000360E049051F8340C5EF82660C5F30725A8
:10A790004340684873405CF8256050F8244051F805
:10A7A0002C0C059073406340C3F30740069051F8AA
:10A7B000280C0790F8B20890C3F3072009901D0EEB
:10A7C000C9F30740DBB20A900D93009B4FEA1A6071
:10A7D0000B90002B51F8240C0C905FFA8AF4C7F30D
:10A7E000072B4FEA1966CAF3074AC9F307294FEA4C
:10A7F00017675CDC5049039B019811F803C0029B6A
:10A800000C5DCB5C43400498085C83EA0C2383EA2C
:10A810000043485D059D83EA006311F80B00137047
:10A820006C4084EA00240698089D085C4D5D84EA2B
:10A830000044885D079E84EA00640998085C7540BE
:10A8400085EA00250A980C9E085C85EA00450B986D
:10A85000085C85EA00650D98085C704011F8096095
:10A8600080EA062011F80A60C95D80EA064080EAA5
:10A870000161180A5070180C1B0E9070D370230AD7
:10A880005371230C93712B0A53722B0C93720B0A86
:10A8900014711572240E2D0E117353730B0C090EC7
:10A8A000D471D5729373D1730FB0BDE8F08F029B52
:10A8B0005EF8255058F823301E4858F824405EF8BA
:10A8C00027706B40019D6B40039D5CF825505D40F7
:10A8D000049B50F823305D405EF826305C40059BB9
:10A8E0005C405CF82B305C40069B50F823305C40A9
:10A8F000089B58F823600B9B5EF823305E40079B53
:10A900005E40099B5CF823305E400A9B50F8233080
:10A910005E400D9B58F823307B400C9F7B405CF8D9
:10A9200029707B4050F82A707B40009F013F0097C0
:10A93000CAE600BFB0550300AE4C0300B04D0300A3
:10A94000B0590300B05103002DE9F04F47680C687F
:10A950003B684E688D68C968DFF89C82DFF89CE22E
:10A96000DFF89CC25C407B685E40BB685D40FB6872
:10A970004B4001688FB049100139009107F1300157
:10A98000E7B251F8100C58F82770019051F8200CDC
:10A9900087EA0009370E96485EF8277089EA0709AA
:10A9A000C3F307274FEA136B5CF827705EF82BB0F0
:10A9B00089EA0709C5F30747203150F8277089EA6B
:10A9C0000709DFB25FFA89F058F82770029051F852
:10A9D000340C87EA000A270E85485EF827708AEA59
:10A9E000070AC5F30727C3F307435CF827708AEA11
:10A9F000070AC6F3074750F827708AEA070AEFB23A
:10AA0000CAF3072058F82770039051F8380C4740D4
:10AA100087EA0B07C6F3072B75485CF82BB087EA6B
:10AA20000B07C4F3074BF6B250F82BB058F826606A
:10AA300087EA0B07C7F307402D0E049051F83C0C32
:10AA40005EF82550C4F30724464069486E405CF820
:10AA5000245050F8233051F8280C07906E405E4087
:10AA6000F8B251F82C3C0890C6F3072005930990E2
:10AA7000CAF30743C9F3074006930A904FEA1A60E6
:10AA80000B9051F8240C0C90C6F307400D900098E1
:10AA90000028C9F3072B4FEA17634FEA1664F5B293
:10AAA0005FFA8AFAC7F307274FEA19695CDC514954
:10AAB0000398019E11F800C00298085C7040049E43
:10AAC0008E5D80EA0C2080EA06400E5D11F80B4096
:10AAD00080EA06604E5D059D10706E4086EA042691
:10AAE000069C0C5D86EA0446CC5C099B86EA0464FD
:10AAF000CE5C089BCD5C079B5D400A9BCB5C85EAE6
:10AB0000062585EA03450B9B0C9ECB5C85EA036515
:10AB100011F80A307340CE5D83EA06230D9E8E5DE8
:10AB200011F8091083EA064383EA0163010A5170B0
:10AB3000010C9170000E210AD0705171210C91719D
:10AB4000290A5172290C9172190A14711572240E76
:10AB50002D0E13735173190C1B0ED471D572917392
:10AB6000D3730FB0BDE8F08F029E5EF8244058F812
:10AB700026601F485EF823305EF829905CF8277045
:10AB80007440019E7440039E5CF826607440049EED
:10AB900050F82660744058F825605E40059B5E4082
:10ABA0005CF82B305E40069B50F823305E40089BDB
:10ABB00058F823500B9B5EF823305D40079B5D40A7
:10ABC000099B5CF823305D400A9B50F823300C98B9
:10ABD0005D4058F82A3083EA090343407B400D98D2
:10ABE000034F57F82070009801387B400090C7E66B
:10ABF000D8660300D85D0300D85E0300D86A03005E
:10AC0000D862030010B50C46012C11461A4603D138
:10AC1000FFF73EFD002010BDFFF796FEFAE72DE995
:10AC2000F041B2F5C07FADF5467D06460F461546AC
:10AC30007BD84FF4D07200215EA806F077FA18A8EE
:10AC4000FFF741FC0DF5C8786BBA2A460024ADF831
:10AC50008A313946302340468DF88F31ADF888412E
:10AC600006F03BFA802304AA08F80530114619358E
:10AC7000234602F8013B0133202BFAD14FF48072B6
:10AC800018A8FFF72FFC002410220021684606F0C8
:10AC90004DFAA8460DF287136A46A3F11007117802
:10ACA00017F8010F41409F4202F8011BF7D1B8F19C
:10ACB000100F6B4694BFA8EB0808A8F110086A466D
:10ACC000012118A8FFF79EFF07F11003B8F1000F4C
:10ACD000E2D10CAB18191022694606F0FEF99DF876
:10ACE0007B3110340133302C8DF87B31CCD14FF4D3
:10ACF00080720CA918A8FFF7F5FB06F1300414AB1D
:10AD00001A46012118A8FFF77DFF3046102214A92A
:10AD1000103606F0E2F9B442F1D118A8FFF7D8FBDB
:10AD200000200DF5467DBDE8F0816FF03700F8E7B3
:10AD30002DE9F0418CB004460D46302200216846D2
:10AD400006F0F4F94FF0000804F120076E460DEB11
:10AD5000080304F10F010A780132D2B2084601F863
:10AD600001290AB9A042F6D122460121384608F14C
:10AD70001008FFF747FFB8F1300FE7D16B1E2F35F2
:10AD8000327813F8011F4A40AB4206F8012BF7D185
:10AD900069464FF480723846FFF7A4FB102208A9D9
:10ADA000204606F09AF900200CB0BDE8F0814FF47F
:10ADB000A072002106F0BAB910B5044638B12030AF
:10ADC000FFF786FB04F5A07300229C4200D110BD62
:10ADD00004F8012BF9E72DE9F0418369B3F5C07F51
:10ADE000E0B00446884616462DD8C3F5C07393429A
:10ADF00029D34FF4C0720021684606F097F9D4F8C1
:10AE00003831A269D4F83C01694698470546E8B94B
:10AE1000A769B8F1000F07D036B10DEB0700324635
:10AE2000414606F05AF937443A4669466846FFF704
:10AE3000F6FE69462046FFF77BFF01232361284683
:10AE400060B0BDE8F0816FF03705F8E76FF03305CB
:10AE5000F5E7F0B58BB004460F46164600212022D8
:10AE600002A81D4606F062F904F120000190FFF7E8
:10AE70002AFB119BA36142F21073E36102A9C4E9AA
:10AE80004E7601984FF48072FFF72CFB109A2946FA
:10AE90002046FFF7A0FF0BB0F0BD13B5302401949E
:10AEA000049C0094FFF7D5FF02B010BD2DE9F041DE
:10AEB00090B0B2F5806FDDF8588004460E46154616
:10AEC0001F464DD8B8F5807F4DD83022002104A808
:10AED00006F02CF92269E3699A4201DC636943B107
:10AEE000424639462046FFF776FF70B110B0BDE804
:10AEF000F081B8F1000F08D03946424604A8FFF7A8
:10AF00008EFE04A92046FFF713FF04F1200745B980
:10AF100004A92046FFF70CFF23690133236128466B
:10AF2000E4E704F10F0213780133DBB2114602F8B3
:10AF300001390BB9A142F6D16B46224601213846B0
:10AF4000FFF760FE102DA84628BF4FF010083046CE
:10AF50004246694606F0C1F84644A5EB0805D6E727
:10AF60006FF03500C2E76FF03700BFE707B5002389
:10AF70000093FFF79BFF03B05DF804FB28B139B1E4
:10AF80000023C1E900301846704748F2105070475E
:10AF900048F21350704738B1006848F24053884275
:10AFA00014BF18460020704748F21050704730B167
:10AFB00019B10B68934205D30A600020704748F22C
:10AFC0001350704748F21450704700002DE9F041CB
:10AFD000884600AF06461146404614461D46FFF718
:10AFE000CDFFF8B929464046FFF7C8FFD0B998F819
:10AFF00004200F4B53F82230BBB156B90D4931F83C
:10B00000121031B107316A46C908A2EBC102954658
:10B010006E462A4621463046984718B9064B2360AB
:10B02000063B2B60BD46BDE8F08148F20350F9E7CE
:10B03000E06E0300D86E03007652464D70B50546AB
:10B040000C461E46FFF79AFF70B9AB796AB1B3425E
:10B050000ED12979094B53F8213063B111462046AE
:10B06000984708B9064B236070BD48F21050FBE7C3
:10B0700048F21150F8E748F20350F5E7EC6E030090
:10B080007052464D2DE9F0410D460D4904461646D5
:10B09000FFF781FF90B967683146BA792846FFF714
:10B0A00086FF58B93A79074B53F8223023B1294625
:10B0B0002046BDE8F041184748F20350BDE8F08152
:10B0C0007052464DF86E0300F0B528B14079D9B101
:10B0D0008AB948F2135315E01846F8E7441E0025D4
:10B0E0004E5D0F5D575516550135013CA542F7D908
:10B0F0001B1A014402448342F0D2002B48F2115241
:10B1000018BF13461846F0BD48F21053FAE7000086
:10B110002DE9F8430D4600AF04461D492846164662
:10B120009846FFF738FF48BB1A493046FFF733FF10
:10B1300020BBD5F804907368994522D199F8052071
:10B14000396A4046FFF733FFC0B999F80430124A14
:10B1500052F82390B9F1000F16D054B90F4A32F8C3
:10B16000133033B107336A46DB08A2EBC3039D46B5
:10B170006C464346324629462046C847BD46BDE890
:10B18000F88348F24150F9E748F20350F6E700BF70
:10B190007652464D7052464D046F03000C6F03000B
:10B1A000F8B50A4F0A4C0B4DE41B0121E408297045
:10B1B0000026A64203D102232B700020F8BD57F8C9
:10B1C000363098470028F9D10136F2E7C84B030022
:10B1D000D04B030010360020054B1A78022A04D009
:10B1E0001878431E5842584170470120704700BFED
:10B1F0001036002030B50023934201D1012006E033
:10B20000C55CCC5CA54203D08CBF0120002030BDC2
:10B210000133F1E72DE9F74F9DF830B01E460546A2
:10B220008846174600239E424FEAC30903F10102F4
:10B230004CD1FF23D2005B0033F0FF0103D109F1B1
:10B2400001094A45F7D1002D45D0002E46D0B8F16E
:10B25000000F46D0002F44D0324641463846FFF713
:10B26000C9FF002840D009F007030093009AFF238C
:10B2700013415BB24FEAD90A019305EBD9091C4887
:10B280005B46006832462946FBF78AFB0446C8B98C
:10B2900001465246284605F049FF009B2BB199F81C
:10B2A0000020019B1A4089F800203246414628467A
:10B2B000FFF7A0FF0028E2D029463846FFF79AFFA3
:10B2C0000028DCD0204603B0BDE8F08FFB5C002BEB
:10B2D000B0D11346A7E748F21354F3E748F21454E9
:10B2E000F0E748F21054EDE748F21754EAE700BFE0
:10B2F0006037002013B501240094FFF78BFF02B0E4
:10B3000010BD000070B5154B6A469A4206460D46C0
:10B3100019D3FFF761FFC8B1114C236823B1114B5A
:10B320001A68114B9A4214D0AEB9A5B90F4810490A
:10B330002060FBF711FB28B90A4B0B4A1A602368FF
:10B340000C4A1A6070BD48F21950FBE74FF40540F3
:10B35000F8E70020F6E748F21750F3E700E0002096
:10B3600060370020583700206572E54B1436002006
:10B370005C3700206169614D094B0A4A19689142A6
:10B380000AD1094A1068094A0168914204D1002291
:10B3900002601A60FBF7FCBA48F20250704700BF27
:10B3A000583700206572E54B603700206169614DB8
:10B3B00010B4114B6C469C4210D302B199B10F4BA3
:10B3C0001C680F4B9C4211D198B90E485DF8044B94
:10B3D000006813460A460C49FBF7EABA48F21950CE
:10B3E0005DF8044B704748F21050F9E748F20250FC
:10B3F000F6E748F21750F3E700E000205837002046
:10B400006572E54B603700205C37002073B513464A
:10B410000D460446F8B111B3144A1168144A91421A
:10B4200020D1144E01932A4601463068FBF7B8FA42
:10B4300048F27152904210D1002211461046FFF797
:10B44000B7FF50B9019B30682A46214602B0BDE8DB
:10B450007040FBF7A5BA48F2135002B070BD48F235
:10B460001450FAE748F20250F7E700BF58370020BF
:10B470006572E54B603700200122FFF7C7BF75DF1B
:10B48000704776DF70478FDF704770470378022B75
:10B4900002D14068FBF702BC012BFAD07047FBF7E2
:10B4A000FDBB000007B501460190054805F0E0F935
:10B4B0000199044803B05DF804EB05F0E5B800BF5E
:10B4C000983900206437002010B504460020FBF7AF
:10B4D00001F908B1FBF7E2FB24B9FBF7EFF908B17A
:10B4E000FBF7DCFB012010BD08B50020FDF78EF84E
:10B4F00018B1094B01221A7008BD084803F0B8F8CA
:10B5000008B1FBF7CBFB0120FBF7E4F80028F3D0F0
:10B51000BDE80840FBF7C2BBAC390020B0390020C1
:10B520000388212B07B532D008D8112B23D01F2B2D
:10B5300023D0102B0BD003B05DF804FB3B2B01D0C4
:10B54000562BF8D113218088FFF79BFF1AE08188E2
:10B55000134801F047FB08B1FBF7A0FB0720FBF7FE
:10B56000B9F808B1FBF79AFB01F000F90028E2D125
:10B57000FFF7BAFFDFE70020F1E700F1080180885C
:10B58000FFF77DFF0028D6D0FBF788FBD3E7002329
:10B5900001A98088ADF80430FFF775FFF2E700BF1E
:10B5A000602B002010B5044604F02DF9204604F06D
:10B5B00037F923780C2B03D1BDE81040FFF794BF77
:10B5C00010BD0000072808B513D00A280CD00428A5
:10B5D0001AD113210020FFF754FF30F0080313D0D5
:10B5E000BDE80840FBF75ABBBDE808400020FDF766
:10B5F00099BA064B1A783AB901221A7002F0D9FFAB
:10B60000BDE80840FFF770BF08BD00BF2C3A00201E
:10B610000238012806D8044B1A781AB100221A7091
:10B62000FFF762BF704700BFAC39002010B50B7840
:10B630000446A3B90A1D498805F00AF908B1FBF7C9
:10B640002DFB204605F0E0F808B1FBF727FB20466C
:10B6500005F0ACF818B1BDE81040FBF71FBB10BDFA
:10B6600070B50378042BB4B057D0062B4FD0012B04
:10B6700043D13822002106A805F058FD8022002180
:10B6800014A805F053FD082310224FF6FF710DEBAF
:10B690000300CDE9003305F049FD4FF6FF7003F0DC
:10B6A000A5FE02AD00244FF6FF76B04227D1214619
:10B6B00002A803F065FE08B1FBF7F0FA214602A8E4
:10B6C00003F080FE062802D008B1FBF7E7FA01ABD1
:10B6D00014AA694606A803F05DFEDDE900231343C2
:10B6E0000F4C01D0237833B10E48002102F0E3FF64
:10B6F00008B1FBF7D3FA0023237034B070BD082CD7
:10B70000D5D025F8020B013403F070FECDE7406878
:10B710000028F2D0FBF7C2FAEFE7FFF7E5FEECE70F
:10B720002C3A0020B03900202DE9F041152286B0D6
:10B7300004460D461748174FDFF85C80002105F0DE
:10B74000F5FC0021112201A8009105F0EFFC54EA5C
:10B75000050303D10F4806B0BDE8F0812046294615
:10B760000A22002305F080FB0023164620460A2209
:10B77000294605F079FB06F1300204460D463B46AA
:10B780004146D2B2684605F03EFC6946384605F0AF
:10B7900000FDDCE72D3A0020106F03002DE9F04F8B
:10B7A000ADF6144DC2798579044613025A194FF04B
:10B7B00000064FF0000046EB000094F805800102FF
:10B7C000130241EA12614FF0000913EB080241EB4A
:10B7D000090094F804800102130241EA12614FF05B
:10B7E000000913EB080241EB090094F80380010201
:10B7F000130241EA12614FF0000913EB080241EB1A
:10B80000090094F802800102130241EA12614FF02C
:10B81000000913EB080241EB090094F801800102D2
:10B82000130213EB080341EA12614FF0000994F888
:10B83000008041EB09021102180210EB080041EAF6
:10B8400013614FF0000902AF41EB09014FF47A7226
:10B85000002305F009FB627A237A94F80CA003EB2D
:10B860000223A27A03EB0243E27A03EB02634FF472
:10B870007A72B3FBF2F3524652000732002502F40B
:10B880007E72ADEB020D834607F58166884640F275
:10B89000FC72294607F20C407B60356005F046FCDF
:10B8A0004FF400622946304605F040FC58464146B8
:10B8B000FFF73AFF7B682549CDF800A002463046E5
:10B8C00005F0A1FBAB46224D0DF108090D34DA4518
:10B8D00004F1020415DCB9F96C201E49002000F0C7
:10B8E0000FFC1D49304605F0A3FB304605F09AFCDD
:10B8F00000240546AC4223DB07F60C47BD46BDE8F5
:10B90000F08F14F8013C14F8028C08EB03280FFAAE
:10B9100088F829F81B804FF48062002107F10800A5
:10B9200005F004FC4246294607F1080005F06BFBD0
:10B9300007F10801304605F07BFB0BF1010BC6E770
:10B94000305DFDF76BFB0134D4E700BF156F0300DA
:10B950001C6F0300206F0300246F030038B50B78C1
:10B96000012B05460C4602D0022B19D038BD0A1D0A
:10B97000498805F02DF808B1FBF790F9608800219F
:10B9800003F0F0FC112802D008B1FBF787F9284634
:10B9900004F0F8FF0028E9D0BDE83840FBF77EB995
:10B9A000BDE83840081DFFF7F9BE08B5037833B18C
:10B9B00003F03AFD38B1BDE80840FBF76FB9BDE8C8
:10B9C0000840FFF791BD08BD00B58DB0FBF70AFA3E
:10B9D00008B1FBF763F9FDF769F808B1FBF75EF909
:10B9E0006C490320FAF782FE08B1FBF757F906A964
:10B9F0000020FAF773FF08B1FBF750F99DF81830F3
:10BA00009A1E534253418DF8073005F04BF808B1A8
:10BA1000FBF744F9002306A90120069305F010F96D
:10BA200008B1FBF73BF906A805F076F908B1FBF77A
:10BA300035F95949594802F056F908B1FBF72EF982
:10BA40005648F72102F063F908B1FBF727F903F034
:10BA500039FC08B1FBF722F90522002106A805F000
:10BA600065FB069B03F07C424D4B134306939DF808
:10BA70001C3023F0030343F0030306A88DF81C30A9
:10BA800003F066FC08B1FBF709F9464803F048FCEF
:10BA900008B1FBF703F9444D0FCD06AC0FC495E890
:10BAA0000300424B424A02934FF4006384E80300D0
:10BAB000CDE9042303933F4A072302A906A8FDF713
:10BAC00055FA08B1FBF7EAF80822002106A805F0AC
:10BAD0002DFB394C394B069306A8079401F044F826
