:1000000000000120750300005D0300005F03000095
:1000100061030000630300006503000000000000AE
:100020000000000000000000000000005D0500006E
:1000300069030000000000007D0500006D03000062
:10004000851900006F0300006F0300006F030000BC
:100050006F0300006F030000211A00006F0300000F
:100060006F0300006F0300006F0300006F030000C8
:100070006F0300006F0300006F0300006F030000B8
:100080006F0300007D0600006F0300006F03000097
:100090006F0300006F0300006F0300006F03000098
:1000A0006F0300006F0300006F0300006F03000088
:1000B0006F0300006F03000000000000000000005C
:1000C0006F0300006F0300006F0300006F03000068
:1000D0006F0300006F0300006F03000000000000CA
:1000E0000000000000000000000000000000000010
:1000F0000000000000000000000000000000000000
:1001000000000000000000000000000000000000EF
:1001100000000000000000000000000000000000DF
:1001200000000000000000000000000000000000CF
:1001300000000000000000000000000000000000BF
:1001400000000000000000000000000000000000AF
:10015000000000000000000000000000000000009F
:10016000000000000000000000000000000000008F
:10017000000000000000000000000000000000007F
:10018000000000000000000000000000000000006F
:10019000000000000000000000000000000000005F
:1001A000000000000000000000000000000000004F
:1001B000000000000000000000000000000000003F
:1001C000000000000000000000000000000000002F
:1001D000000000000000000000000000000000001F
:1001E000000000000000000000000000000000000F
:1001F00000000000000000000000000000000000FF
:10020000354936480A1A02D0072291438D463449AF
:1002100034480A1A06D00722914381F30988022242
:1002200082F3148830483149314A00F044F83148AB
:100230003149324A00F03FF831483249324A00F041
:100240003AF832483249334A00F035F832483349F7
:10025000334A00F030F833483349344A00F02BF881
:1002600033483449344A00F026F8344834490022EF
:1002700000F02CF833483449002200F027F83348C6
:100280003349091A082902DB002202604160314A21
:1002900090471F481F49884205D00268043003B4C4
:1002A000904703BCF7E700208646EC46002000217B
:1002B000294A9047FEE7884207D0521A05D00378B2
:1002C00001300B700131013AF9D17047884202D0F8
:1002D00002700130FAE770470000012000E00020C2
:1002E0000000012000000120E41F000000000020A9
:1002F00004000020D0030000D0030000C41F000051
:10030000E41F00000000002000000020C41F0000C7
:10031000C41F0000C41F0000C41F0000C41F000051
:10032000C41F0000C41F0000C41F0000E41F000021
:10033000E81F00000400002004000020040000204A
:10034000BC110020BC110020BC110020BC110020F9
:10035000BC3100209D030000BD1B0000FEE7FEE74E
:10036000FEE7FEE7FEE7FEE7FEE7FEE7FEE7FEE765
:1003700000F002B8FFF7FCBF0F484FF007018843B9
:1003800085460E4880470E48016841F470010160BF
:10039000BFF34F8FBFF36F8FFFF732BF09480A4992
:1003A0000A4A884207D0521A05D0037801300B70F0
:1003B0000131013AF9D1704700000120B11C000061
:1003C00088ED00E0C41F00000000002000000020B5
:1003D000044B1A5C012393404FF0A042C2F8083549
:1003E000704700BFC41F000008B50020FFF7F0FFF2
:1003F0000120FFF7EDFF0220FFF7EAFFBDE808400C
:100400000320FFF7E5BF0000074A4FF0A041105C52
:10041000D1F804350122824022EA03001340C1F8DA
:100420000805C1F80C357047C41F0000C20708B5A5
:1004300001460CD54FF0A0430322C3F84427C3F86C
:100440004827C3F84C27C3F85027FFF7CDFF8B0789
:100450000AD54FF0A0430C22C3F83427C3F838273D
:10046000C3F83C27C3F8402708BD000038B5430750
:1004700004461CBF20F00704083400F06FFD0C4B4D
:100480001A681AB90B4A22F007021A600A490A6868
:1004900040F6F7701444844208D8A24206D21D6880
:1004A0000C60154400F0E8FD284638BD0025F9E74A
:1004B000040000201000002008100020704700F108
:1004C00008034FF0FF32C0E90223436003610023B9
:1004D0000360704700230361704743684B609A686C
:1004E0008A609A685160996003680861013303600B
:1004F000704730B50C68631C0AD103695A684A60BA
:1005000091608B605960036808610133036030BDFE
:1005100000F10802134652681568A542FAD9EDE7C2
:10052000D0E9011203698A6051605968814208BFAD
:100530005A60002202611A68013A1A60186870470E
:100540000548006880F3088862B661B6BFF34F8F34
:10055000BFF36F8F00DF00BF00000000064B19687B
:100560000868B0E8F04F80F30988BFF36F8F4FF051
:10057000000080F31188704720100020EFF30980FD
:10058000BFF36F8F144B1A681EF0100F08BF20EDD9
:10059000108A20E9F04F10604DF8043D4FF0400004
:1005A00080F31188BFF34F8FBFF36F8F00F02CFEE5
:1005B0004FF0000080F3118808BC19680868B0E8A3
:1005C000F04F1EF0100F08BFB0EC108A80F30988BE
:1005D000BFF36F8F704700BF20100020402383F3CC
:1005E0001188FEE74FF0807340E90213054B40F895
:1005F0000C3C6FF0020340F8202C40F8243C4438B7
:10060000704700BFDD0500000F4C08B5E02384F8FB
:10061000223000F06DF80D4B00221A60D4F88830BB
:100620000B4A43F47003C4F88830536843F04043E6
:100630005360236943F010032361FFF781FF4023D8
:1006400083F31188FEE700BF00ED00E00C100020EE
:1006500030EF00E0402383F31188024A136801332E
:10066000136070470C100020034A1368013B1360AD
:100670000BB983F3118870470C10002073B5194B28
:1006800000221A601B680193019BEFF3118640233F
:1006900083F31188144BD3F80445C3F8002103F504
:1006A00080731B680093009B00F060FC201A20F010
:1006B0007F4424F0010020B100F088FE022818BF1A
:1006C00001240025013C09D225B1084B4FF080528E
:1006D0005A6040BF86F3118802B070BD00F054FC30
:1006E0000543EFE7401101400010014000ED00E03C
:1006F00008B5002001F0D2F80A4B0B491F22C3F8BD
:1007000008250122C3F804230A601A600222C3F8F4
:100710004423064BE02283F811234FF400321A6081
:1007200008BD00BF001001400810014000E100E0DA
:100730007FB5044672B6264ED6F8045500F02CFE5E
:100740003346002841D0234EA64228BF2646AA1988
:1007500022F07F420121C3F80813C3F840251E4A46
:10076000002111601168019101994FF48031C3F8A3
:100770000413BFF34F8F3CB1184920BFD1F800419B
:10078000D1F804012043F8D04FF48031C3F80813A6
:100790000021116012680392039A114A11601268D5
:1007A0000292029A0122C3F80423D3F804355B1B9A
:1007B00023F07F40B042094B4FF4003228BF30464F
:1007C000C3F8802108B100F0D7FB62B604B070BD59
:1007D00000100140FDFFFF004011014000E100E07A
:1007E0000011014010B50446FFF734FFA46BFFF77A
:1007F0003BFFB4FA84F0400910BDF8B51546026C11
:10080000866B044652B9076847BB406800F0EEFDAE
:10081000676005460136A6632846F8BD65B980685D
:1008200001F074FBA368226C13446268A3609342D6
:10083000F0D32368A360EDE7C06801F067FB226C8A
:10084000E36851429B1A2268E36093423EBF6368AB
:100850005B18E360022D01D116B1013E0025D9E7F6
:100860003546D7E7034610B41A6C08466AB1DC680F
:10087000596814448C4228BF1968DC6028BFD960CD
:10088000D9685DF8044B01F041BB5DF8044B70473B
:1008900070B50446FFF7DEFE94F8455004F12406D7
:1008A0006DB2002D14DCFF2384F84530FFF7DCFE29
:1008B000FFF7D0FE94F8445004F110066DB2002DFD
:1008C00012DCFF2384F84430BDE87040FFF7CCBE53
:1008D000636A002BE7D0304600F0E8FC08B100F076
:1008E00055FD013D6DB2DCE72369002BE9D03046B0
:1008F00000F0DCFC08B100F049FD013D6DB2DEE71F
:1009000038B504460D46FFF7A5FED4E90F3122683D
:10091000A2604B43D0185B1A13446060E360002070
:10092000FF23A06384F8443084F845309DB92369DF
:100930006BB104F1100000F0B9FC40B10A4B4FF06C
:1009400080525A6040BFBFF34F8FBFF36F8FFFF7E6
:100950008BFE012038BD04F11000FFF7B0FD04F15B
:100960002400FFF7ACFDF2E700ED00E070B50646AD
:10097000484348300D46FFF779FD044648B155B16C
:1009800000F14803C4E90F65236001212046FFF709
:10099000B7FF204670BD0346F4E700002DE9FF478E
:1009A0004FF00008DFF8F8A0019204460F461E46FB
:1009B000C146FFF74FFEA26BE36B9A4201D3022EB2
:1009C0001AD1324639462046FFF717FF636A1BB13A
:1009D00004F1240000F06AFC40B1314B4FF080522A
:1009E0005A6040BFBFF34F8FBFF36F8FFFF73CFEDE
:1009F000012004B0BDE8F087019D1DB9FFF734FE6A
:100A00000020F6E7B8F1000F02D102A800F08AFC3E
:100A1000FFF72AFE00F0A2FAFFF71CFE94F844301C
:100A2000FF2B08BF84F8449094F84530FF2B08BF93
:100A300084F84590FFF718FE01A902A800F07EFC9B
:100A400038BBFFF707FEA26BE36B9A420FD1FFF7AB
:100A50000BFE019904F1100000F004FC2046FFF7A2
:100A600017FF00F009FB50B14FF00108A1E7FFF7B5
:100A7000FBFD2046FFF70CFF00F0FEFAF4E74FF015
:100A80008053CAF8043040BFBFF34F8FBFF36F8F5E
:100A9000EAE72046FFF7FCFE00F0EEFAB0E700BF01
:100AA00000ED00E0F8B504461746EFF3118640224A
:100AB00082F31188806BE26B904201D3022B1ED12E
:100AC00094F845501A466DB22046FFF796FE6B1C0F
:100AD00010D1636A0BB9012009E004F1240000F091
:100AE000E5FB0028F7D0002FF5D00120386086F311
:100AF0001188F8BD01356DB284F84550EBE7002050
:100B0000F5E700002DE9F04385B00027DFF8E49019
:100B1000019204460E46B846FFF79CFDA56BDDB179
:100B200031462046013DFFF79DFEA56323696BB169
:100B300004F1100000F0BAFB40B12E4B4FF0805290
:100B40005A6040BFBFF34F8FBFF36F8FFFF78CFD2D
:100B5000012005B0BDE8F083019D1DB9FFF784FDBC
:100B60000020F6E717B902A800F0DCFBFFF77CFDD8
:100B700000F0F4F9FFF76EFD94F84430FF2B08BF46
:100B800084F8448094F84530FF2B08BF84F84580F2
:100B9000FFF76AFD01A902A800F0D0FBF8B92046D2
:100BA000FFF720FEA8B1019904F1240000F05AFBE0
:100BB0002046FFF76DFE00F05FFA40B94FF080531A
:100BC000C9F8043040BFBFF34F8FBFF36F8F0127C9
:100BD000A2E72046FFF75CFE00F04EFAF7E720465A
:100BE000FFF756FE00F048FA2046FFF7FBFD00280D
:100BF000EDD0B5E700ED00E0054B1A6812B19A6838
:100C00002AB9012243F8321003EBC203586070473F
:100C10001010002070B504460D461646FFF71AFD69
:100C200094F84430FF2B04BF002384F8443094F838
:100C30004530FF2B04BF002384F84530FFF714FD37
:100C4000A36B2BB93246294604F1240000F01AFBAD
:100C50002046BDE87040FFF71BBE0000094B0A4A62
:100C60001B681268D06A58B9084A1268012A08D865
:100C7000012B06D8064B1868064B1B68C01A704734
:100C8000002070477C100020201000202C10002035
:100C9000AC100020F4100020064A13681968064BB7
:100CA00019B94FF0FF321A6070471268D268D268E3
:100CB0005268F8E724100020AC100020F8B51B4B58
:100CC0001B4F1D680446386804300E46FFF728FCA9
:100CD0003B4640B939681748CF6A02680121B940DC
:100CE00022EA01020260621C07D136B1196812487B
:100CF000BDE8F8400431FFF7F0BB1A682C195460C6
:100D000007D30E4A10681968BDE8F8400431FFF7B0
:100D1000F0BB0B4A106819680431FFF7EAFB094B76
:100D20001A68A24288BF1C60F8BD00BFF410002002
:100D3000201000207C100020CC1000202810002063
:100D400024100020AC1000202DE9F84F9500074634
:100D500028460E469846FFF789FB8146002800F09A
:100D60009F804820FFF782FB0446002800F0958012
:100D7000C0F830902A46A521484601F0F0F8D4F892
:100D800030B0731E04F13402033613F8011F02F869
:100D9000011B197809B19E42F7D10A9E022E28BF85
:100DA00002264FF0000A04F10409C4E90E6AE66263
:100DB000484684F837A0043DFFF78CFBC6F10306D4
:100DC00004F118005D44FFF785FBC4F840A02461DE
:100DD000A661646284F844A04246394625F00700C3
:100DE000FFF700FC0B9B206003B11C60FFF732FC97
:100DF000324B334E1A68334F01321A603268002A80
:100E000051D134601B68012B1FD12F48DFF8E880D7
:100E10002E4DFFF754FB2E48FFF751FB2D48FFF7EF
:100E20004EFB4046FFF74BFB2846FFF748FB2A489E
:100E3000FFF745FB2948FFF742FB2948FFF73FFB37
:100E4000284BC3F80080284B1D60284A28491368A6
:100E5000086801331360E26A012505FA02F30343CF
:100E60000B60194B142000FB02304946FFF735FB9D
:100E7000FFF7FAFB3B686BB13368DA6AE36A9A42C0
:100E800008D21C4B4FF080525A6040BFBFF34F8FC7
:100E9000BFF36F8F2846BDE8F88F4846FFF70EFB7B
:100EA0004FF0FF35F6E73B68002BCED13368DA6AA6
:100EB000E36A9A4298BF3460C7E700BF6810002019
:100EC00020100020C81000202C10002094100020BA
:100ED0004010002054100020B4100020E01000202A
:100EE000CC100020241000202810002078100020B2
:100EF0007C10002000ED00E08010002013B5114BA5
:100F00000193002410491148009423463C22FFF726
:100F10001BFF012813D100F0EDFA01280FD1402367
:100F200083F311880A4B4FF0FF321A60094B1860A7
:100F3000094B1C6002B0BDE81040FFF765BB02B072
:100F400010BD00BFA8100020C81F000085110000C0
:100F5000AC100020C8100020F4100020024A1368D2
:100F600001331360704700BF74100020014B1868F4
:100F7000704700BFF4100020024A13681844106044
:100F8000704700BFF41000202DE9F84F2F4B1B686D
:100F9000002B54D12E4B1D6801351D605DB92D4AC3
:100FA0002D4B1168186810602C4A196013680133C2
:100FB0001360FFF771FE2A4F3B68AB424FF000060B
:100FC00007D9284B1B68002B0CBF30460120BDE819
:100FD000F88FDFF88090DFF89880DFF898A0D9F8D4
:100FE00000301B681BB94FF0FF333B60E9E7D9F8CD
:100FF0000030DB68DC6863689D42F6D304F1040BC3
:101000005846FFF78DFAA36A1BB104F11800FFF7E9
:1010100087FAE26AD8F800100123934014200B43AA
:1010200000FB02A05946C8F80030FFF756FA0E4BF5
:10103000E26A1B68DB6A9A4228BF0126CFE70B4AA7
:101040001368013313600026BBE700BF7410002053
:10105000F41000202410002028100020B0100020E0
:10106000AC100020F810002020100020701000208C
:101070007C1000202C1000202DE9F341FFF7EAFA44
:101080002B4B1A68013A1A601C6834B10024FFF730
:10109000EBFA204602B0BDE8F081264B1B68002B1E
:1010A000F4D0254D254EDFF8A8801FE0EB68DC6802
:1010B00004F11800FFF734FA211D08460191FFF7EB
:1010C0002FFAE26A30680199012707FA02F3034315
:1010D000142000FB02803360FFF7FFF9184BE26A2F
:1010E0001B68DB6A9A4201D3164B1F602B68002BEA
:1010F000DCD10CB1FFF7D0FD134D2C6844B1114E7B
:101100000127FFF741FF00B13760013CF9D12C60A6
:101110000C4B1B68002BB9D00C4B4FF080525A601F
:1011200040BFBFF34F8FBFF36F8F0124AFE700BF06
:101130007410002068100020B41000207C100020E3
:1011400020100020F81000207010002000ED00E0BA
:101150002C10002008B548B9094B4FF080525A6056
:1011600040BFBFF34F8FBFF36F8F08BDFFF7F6FE91
:101170000021FFF7A3FDFFF77FFF0028ECD0F4E785
:1011800000ED00E0F8B51B4C1B4F1C4E2368DBB98B
:101190001B4B1B68012B08D91A4B4FF080525A6029
:1011A00040BFBFF34F8FBFF36F8FFFF757FD01288D
:1011B000EBD9FFF7D3FEFFF751FD012801D9FFF767
:1011C000B7FAFFF759FFE0E7FFF744FAFB68DD687D
:1011D000281DFFF7A5F93368013B33602368013B05
:1011E0002360FFF741FA286BFFF768F92846FFF7FD
:1011F00065F9CBE76C100020E0100020681000209B
:101200002C10002000ED00E0114B1A68114B30B596
:1012100012B101221A6030BD1A600F4B0F491B68D2
:10122000B3FA83F3C3F11F03142000FB03F28C18FD
:10123000083265686D6865600A44954204BF6A6853
:10124000626000FB03135B68DA68054BE2E700BFEE
:1012500074100020F81000207C1000202C100020BA
:101260002010002010B5064B0C4619681831FFF706
:1012700040F920460121BDE81040FFF71FBD00BF27
:101280002010002038B5084B0D4619681446183157
:10129000FFF723F9002C21460CBF28464FF0FF3002
:1012A000BDE83840FFF70ABD20100020C36837B5FD
:1012B000DC6804F1180108460191FFF731F9134B7E
:1012C00001991B6803BB211D08460191FFF728F90E
:1012D0000F48E26A05680199012393402B4303609C
:1012E0000C4B142000FB0230FFF7F7F80A4BE26AC0
:1012F0001B68DB6A9A4285BF084B012000201860FA
:10130000FFF7CAFC03B030BD0548EDE774100020BC
:101310007C1000202C10002020100020F81000204D
:10132000B4100020034B1B680360034B1B68436031
:10133000704700BFB0100020F410002070B50C46BC
:101340000546FFF787F90F4B196823685A1C10D020
:101350000D482E6800686A68864201D08A420FD91B
:10136000881A83420AD95B1A134423602846FFF780
:10137000D9FF0024FFF778F9204670BD00232360D1
:101380000124F7E7F4100020B0100020014B0122E7
:101390001A607047F8100020084B186860B9084BB5
:1013A0001B6853B9074B1868074B1B68013B9842F1
:1013B00014BF01200220704700207047B4100020A5
:1013C000F8100020CC10002068100020054B1B688E
:1013D00033B1054B1B68002B0CBF02200020704767
:1013E00001207047C810002074100020F7B5044693
:1013F00010B9002003B0F0BDC36BC16A826B013B22
:101400009142C363F5D0002BF3D1011D0846019131
:10141000FFF786F8104F114A019950B9E06A142677
:101420004643BB592BB913680125854023EA0503C0
:101430001360A36BE362C3F10300A0611068012491
:1014400004FA03F50543142000FB03701560FFF751
:1014500044F82046CEE700BF2C1000207C1000206E
:10146000F8B50F4CFFF7F6F82568ADB90D4F0E4EE5
:101470003846FFF724F83046FFF721F80B4B1F6082
:101480000B4B2A46102120201E60FFF76FFA2060C8
:1014900010B10849FFF7B0FBBDE8F840FFF7E4B82A
:1014A000301100200411002018110020FC10002031
:1014B00000110020CD1F0000914208B5416000617D
:1014C0000AD8D21A83699A420DD2084B011D1868B6
:1014D000FFF70FF8002008BD9A4201D2994202D2CC
:1014E000034B011DF3E70120F5E700BF00110020C9
:1014F000FC10002007B5FFF7B3FF084B186848B190
:10150000074B01930223009306490748002350220A
:10151000FFF71AFC03B05DF804FB00BF3011002098
:1015200034110020D21F0000091600002DE9F041FF
:10153000804628200F4616461D46FEF797FF0446B4
:1015400058B1FFF78DFF069BC4F80080C4E906760A
:1015500025626362201DFEF7BDFF2046BDE8F081D5
:101560007FB50F4C0546206816461A4680B10529FE
:10157000CDE9001602950DDCFFF728FF00230228B5
:1015800008BF089A206818BF1A466946FFF706FA8E
:1015900004B070BD00236946FFF784FAF8E700BF86
:1015A00030110020F0B5164D85B000272B681A6861
:1015B0002AB9144A11682960136005B0F0BDDB68D0
:1015C000DC681E68211D08460391FEF7A9FF636AC7
:1015D00020469847E3690399012BE7D1A369334477
:1015E0009E4205D2286863602461FEF782FFDDE732
:1015F00000230097324619462046FFF7B1FFD5E792
:10160000FC100020001100202DE9F04F634E89B03E
:10161000B246002732681368002B4BD0D268D2F84C
:1016200000B05F4D0393FFF799FCFFF79FFC2A681A
:10163000DFF87881039B90420446A9463CD2FFF72D
:10164000B1FF2C60FFF718FDD8F80000002204A9B4
:10165000FFF758FA0028DDD0049B0698002B6ADBC0
:10166000069C6369002B6DD1FFF780FCD9F8003030
:101670009842054601D2FFF795FF049BC9F8005038
:10168000092BE1D801A252F823F000BF4D1700004A
:101690004D1700004D170000491600008317000089
:1016A000951700004D1700004D1700004916000067
:1016B000831700009B46B4E7286003B3834538D8FE
:1016C000FFF7DAFCDAF80030DB68DD68281DFEF78A
:1016D00027FFEB69012B0ED1A9695B4622465944CD
:1016E0002846FFF7E9FE30B1002300975A46194615
:1016F0002846FFF735FF6B6A28469847A4E7294B31
:101700001B681A68B2FA82F25209D8F80000ABEBF3
:101710000401FFF77FFAFFF7AFFC002894D1224BBA
:101720004FF080525A6040BFBFF34F8FBFF36F8FAF
:101730008AE70022E9E7059B07999847049B002B5D
:1017400082DB8DE7201DFEF7EBFE8DE7A169059B8F
:101750002A4619442046FFF7AFFE00283FF474AF35
:10176000636A20469847E369012B7FF46DAFA26955
:101770000599009700230A4420461946FFF7F0FE1A
:1017800062E70599A1612B462A4629442046FFF7C6
:1017900093FE59E72046FEF791FE55E7FC10002026
:1017A0002C1100200011002000ED00E0301100207D
:1017B0001FB50021039001AA44F20100CDE90111F7
:1017C00000F004F805B05DF804FB000072B6094BA8
:1017D0001B68DB0700D500BEBFF34F8F0649074BE0
:1017E000CA6802F4E0621343CB60BFF34F8F00BFBF
:1017F000FDE700BFF0ED00E000ED00E00400FA05B9
:1018000072B6024A13680133136070473811002022
:10181000034A1368013B136003B962B6704700BF07
:1018200038110020FFF7ECBFFFF7F2BF38B5074CC7
:10183000051E04F1080318BF1C4623682BB11A6863
:1018400022605B6828469847F7E738BD44110020BE
:1018500020B9054B01225A70FFF7E8BF012802D1D9
:10186000014A9070F8E770473C11002038B5094CE8
:1018700023786BB908486360A3602361E36000F0DC
:1018800037F8054600F040F801232370284638BD9C
:101890008525FBE73C1100205118000038B5134C9A
:1018A000A378054603F0FF0073B115B16B68012002
:1018B00098470020FFF7B6FFE3680133E36000209C
:1018C000BDE83840FFF7B0BFFFF7ACFF25B1226994
:1018D00013463BB92A602561E368002BECD100F088
:1018E00025F8E9E79D42F7D01B68F2E73C1100209C
:1018F000044A137923B9012110609180184670477A
:101900008520704750110020074B1A68D2075FBF2F
:10191000C02283F8002301221A604FF08043012285
:10192000C3F81825704700BF00E100E037B5114B40
:1019300000221A601B680193019B4FF08043022232
:10194000C3F804230C4AD06840F08073D3600B4B7B
:101950001C6844F0010119605D685968491BB1F5C4
:101960000A5FFAD31C60064BD06001221A6003B0F4
:1019700030BD00BF04010040F0ED00E0001000E0C9
:1019800008000040154B07B51A687AB100221A60AA
:101990001B680093009B4FF080430122C3F808238B
:1019A0000F4B587910B95A711B6898470D4B1A683C
:1019B00082B100221A601B680193019B4FF08043A3
:1019C0000222C3F80823064B1B68012003B05DF810
:1019D00004EB184703B05DF804FB00BF00010040B2
:1019E000501100200401004000F1804000F5C0408B
:1019F000002382B0036003680193019B02B070472B
:101A0000800000F1A040D0F8002722F44032C0F856
:101A10000027D0F8003743EA0141C0F800177047AB
:101A20002DE9F04F87B000245A4D03944FF4807293
:101A3000012102F1804303F5C04390B21B68012BE2
:101A400006D1D5F804330B4202D0FFF7CDFF0C438B
:101A50000432B2F5907F4FEA4101EAD14E4B1B6848
:101A6000012B0AD14FF4BE70FFF7BEFF4FF0A04329
:101A700044F00044D3F81035039314F0FF0F1AD04C
:101A8000464F01260025344210D0AB0003F18043BD
:101A900003F5C043D3F81005D3F8101557F82530D7
:101AA00023B1C1F30141C0F3042098470135082D4B
:101AB0004FEA4606E7D1002C65DA00214FF0FF33EC
:101AC000CDE90413354D364E4FF00009CA460127C3
:101AD0004FF0A04816F9013B5A1C45D0C3F3C20190
:101AE00006AA5018DCB210F8042C03F03F0B03F0E8
:101AF000070307FA03F31A4236D005EB0B02A409D9
:101B000092F9302055F8222052B9032C2CD10DF136
:101B1000100E1EF801C04CEA030C0EF801C001E0E3
:101B2000032CF4D00BF5E07110F80C0C58F82110D0
:101B30001842C1F3014105D0022915D1032C0FD160
:101B4000214604E003290FD1032C09D10221584674
:101B5000019209F10109FFF753FF019A5FFA89F930
:101B600012B12146584690470AF1010ABAF1040F12
:101B7000B0D1B9F1000F06D04FF0A043039AD3F8CB
:101B80001035934202D107B0BDE8F08F0393049B58
:101B9000059398E7006000407C61004058110020E8
:101BA000A81100200120FEF72FBC08B50020FEF789
:101BB0002BFCC820FFF7CEFAF8E7000013B5FFF7BB
:101BC00055FE08B1FFF7F4FD0120FEF72FFC144B82
:101BD00001930223134900934FF4827200231248A9
:101BE000FFF7B2F8114B009301224FF47A710023F2
:101BF0000F48FFF79BFC0F4B04461860FFF7B6F940
:101C000000230246009301212046FFF7A9FC0A4A5F
:101C1000136943F004031361FFF770F9FEE700BF97
:101C2000B4110020DA1F0000AB1B0000A51B000050
:101C3000DF1F0000B811002000ED00E00C4B1B7806
:101C4000062B10D10B4B1B681A070CD10A4B1868D6
:101C500000F0F003302B08D000F0E000A0F14003CA
:101C6000584258417047002070470120704700BF1C
:101C7000E00F00F0E40F00F0E80F00F0094B1B78D4
:101C8000062B0CD1084B1B681A0708D1074B1868A4
:101C900000F0F000A0F13003584258417047002096
:101CA000704700BFE00F00F0E40F00F0E80F00F015
:101CB00008B5FFF7C3FF28B17D4B7E4A1B68C3F30D
:101CC00004231360FFF7DAFF10B17B4B7B4A1A60E5
:101CD000FFF7B4FF28B17A4B7A4A1B68C3F342334B
:101CE0001360FFF7CBFF20B1774AD36823F08073EE
:101CF000D360FFF7A3FF40B14FF080430022C3F849
:101D00000C21C3F81021C3F83825FFF7B7FF10B135
:101D10006E4B03221A60FFF7B1FF40B16C4B0522F6
:101D20001A6001229A6700229A603F225A60694B2A
:101D30001B78062B50D1684B1B6819074CD1674B99
:101D40001B6803F0F003502B46D14FF08052644BD8
:101D5000D2F80414C3F82015D2F80814C3F82415D7
:101D6000D2F80C14C3F82815D2F81014C3F82C15A7
:101D7000D2F81414C3F83015D2F81814C3F8341577
:101D8000D2F81C14C3F84015D2F82014C3F8441537
:101D9000D2F82414C3F84815D2F82814C3F84C1507
:101DA000D2F82C14C3F85015D2F83014C3F85415D7
:101DB000D2F83414C3F86015D2F83814C3F8641597
:101DC000D2F83C14C3F86815D2F84014C3F86C1567
:101DD000D2F84424C3F87025FFF730FF28B1414BF7
:101DE000414A1B6803F04F031360FFF727FF48B118
:101DF0004FF08043D3F80024D20744BF6FF00102B4
:101E0000C3F80024394B1B68062B08D1384B1B68DC
:101E1000062B01BF374A136843F480631360364AC8
:101E2000D2F8883043F47003C2F88830BFF34F8F84
:101E3000BFF36F8F4FF01023D3F80022002A03DB8B
:101E4000D3F80432002B2FDA2C4B0122C3F80425DF
:101E5000D3F80024002AFBD04FF010221521C2F83D
:101E60000012D3F80024002AFBD04FF010231522D3
:101E7000C3F80422214B1A46D3F800140029FBD0E2
:101E80000021C3F80415D2F80034002BFBD0BFF3B7
:101E90004F8F19491A4BCA6802F4E0621343CB60B2
:101EA000BFF34F8F00BFFDE7164B174A1A6008BDFE
:101EB000240300104035014074C007400DF0ADBA56
:101EC000440200103C050040F0ED00E0A005004099
:101ED00010560040E00F00F0E40F00F0E80F00F0B3
:101EE00000C0004058020010E40E00403001001015
:101EF000340100103C17004000ED00E000E001401C
:101F00000400FA05000000200090D003844640EA57
:101F1000010313F0030F18D18446202A0BD32DE9B7
:101F2000F007B1E8F807A0E8F807A2F12002202A9C
:101F3000F7D2BDE8F007042A07D351F8043B40F874
:101F4000043BA2F10402042AF7D2002A05D011F8BA
:101F5000013B00F8013B013AF9D1604670478446E5
:101F6000002A2DD010F0030F04D000F8011B013A15
:101F700026D0F7E7C9B241EA012141EA0141202A0E
:101F800012D3A2F120022DE9F0030B460C460D46B8
:101F90000E460F4688468946A0E8FA03203AFBD24F
:101FA000BDE8F00320320BD0042A05D340F8041B0F
:101FB000043A05D0042AF9D200F8011B013AFBD1FA
:041FC00060467047C0
:101FC4001112131449444C4500546D725100546D60
:101FD4007220537663004C454430004C4544310034
:041FE4000090D00396
:040000030000037581
:00000001FF
