:020000022000DC
:1060000000000120756302005D6302005F6302000F
:106010006163020063630200656302000000000028
:1060200000000000000000000000000067630200A4
:1060300069630200000000006B6302006D630200F0
:10604000C9DF02006F6302002DED02006F630200E2
:106050006F6302006F63020029EC02006F630200AD
:106060006F6302006F6302006F6302006F630200E0
:106070006F63020029F102006F6302006F63020088
:106080006F630200C58802006F6302006F63020045
:106090006F6302006F630200711104006F630200FE
:1060A0006F6302006F6302006F6302006F630200A0
:1060B0006F6302006F630200000000000000000038
:1060C0006F6302006F6302006F6302006F63020080
:1060D0006F6302006F6302006F6302000000000044
:1060E00000000000000000000000000000000000B0
:1060F00000000000000000000000000000000000A0
:10610000000000000000000000000000000000008F
:10611000000000000000000000000000000000007F
:10612000000000000000000000000000000000006F
:10613000000000000000000000000000000000005F
:10614000000000000000000000000000000000004F
:10615000000000000000000000000000000000003F
:10616000000000000000000000000000000000002F
:10617000000000000000000000000000000000001F
:10618000000000000000000000000000000000000F
:1061900000000000000000000000000000000000FF
:1061A00000000000000000000000000000000000EF
:1061B00000000000000000000000000000000000DF
:1061C00000000000000000000000000000000000CF
:1061D00000000000000000000000000000000000BF
:1061E00000000000000000000000000000000000AF
:1061F000000000000000000000000000000000009F
:10620000354936480A1A02D0072291438D4634494F
:1062100034480A1A06D00722914381F309880222E2
:1062200082F3148830483149314A00F044F831484B
:106230003149324A00F03FF831483249324A00F0E1
:106240003AF832483249334A00F035F83248334997
:10625000334A00F030F833483349344A00F02BF821
:1062600033483449344A00F026F83448344900228F
:1062700000F02CF833483449002200F027F8334866
:106280003349091A082902DB002202604160314AC1
:1062900090471F481F49884205D00268043003B464
:1062A000904703BCF7E700208646EC46002000211B
:1062B000294A9047FEE7884207D0521A05D0037852
:1062C00001300B700131013AF9D17047884202D098
:1062D00002700130FAE770470000012000E0002062
:1062E000000001200000012068CC04003C2B0020AD
:1062F0000C320020D0630200D0630200C04C0400C6
:1063000068CC04003C2B00203C2B0020D84E04001D
:10631000D84E0400D84E0400D84E0400D84E0400D5
:10632000D84E0400D84E0400D84E040068CC0400B7
:1063300038D304000C3200200C3200200C32002034
:10634000C4580020C4580020C4580020C45800205D
:10635000C47800209D630200DD530300FEE7FEE7E2
:10636000FEE7FEE7FEE7FEE7FEE7FEE7FEE7FEE705
:1063700000F002B8FFF7FCBF0F484FF00701884359
:1063800085460E4880470E48016841F4700101605F
:10639000BFF34F8FBFF36F8FFFF732BF09480A4932
:1063A0000A4A884207D0521A05D0037801300B7090
:1063B0000131013AF9D1704700000120096303005F
:1063C00088ED00E0C44E0400282B00203C2B002068
:1063D00000B583B00190019B1B68184600F03EF8A1
:1063E0000346002B04D105494FF4F6700DF038FF39
:1063F0004FF0A043184603B05DF804FBD84E0400EC
:1064000000B585B001900B468DF8033001AB1846FE
:10641000FFF7DEFF0390019A039B02F5E07253F849
:106420002230019A23F44031039B02F5E07243F8D5
:106430002210019A039B02F5E07253F822309DF876
:10644000032012041146019A1943039B02F5E072DE
:1064500043F8221000BF05B05DF804FB84B0019042
:10646000019B5B09029300230393029B002B03D142
:106470004FF0FF33039300BF019B03F01F03019311
:10648000039A019B22FA03F303F00103002B14BFCC
:1064900001230023DBB2184604B0704700B583B077
:1064A0000190019B032B04D801980AF0DBFC034602
:1064B00000E00023184603B05DF804FB00B587B088
:1064C00003460A468DF8073013468DF80630002340
:1064D0008DF81730002304939DF8073018460AF012
:1064E00009FD0490049B032B61D89DF80630022B14
:1064F00052D0022B5EDC002B31D0012B5AD1364911
:10650000049A13465B0013440B441B788DF8173034
:106510003149049A13465B0013440B4401331B7842
:10652000002B0ED02D4B2E4A4FF48041184601F01F
:10653000C1FC0390039B002B03D1294A9DF807302F
:1065400013702549049A13465B0013440B4402332D
:106550001978244A049B13440A461A702AE01F4BF8
:10656000184601F0DDFC1F4A049B134419781A48B1
:10657000049A13465B001344034402331B78994288
:1065800017D11549049A13465B0013440B44023398
:106590001B788DF817300CE00F49049A13465B0006
:1065A00013440B4401331B788DF8173002E000BF11
:1065B00000E000BF9DF81730002B09D00A4B1B6884
:1065C000002B05D0084B1B689DF8172010469847F4
:1065D00000BF07B05DF804FB5C3200206832002089
:1065E000883200208C3200205832002000B583B061
:1065F0000190019B1B7802211846FFF75FFF00BF47
:1066000003B05DF804FB000000B583B00C4B1B78B1
:10661000002B0FD00023019308E0019B022B02D036
:1066200001980AF0ABFB019B01330193019B032B03
:10663000F3D901E00AF0BCFB00BF03B05DF804FB36
:10664000143200202DE9F04F87B003468DF80F304B
:106650000023059300230493D14B1B78002B04D017
:10666000CF4B00221A70FFF7CFFF9DF80F30172B8A
:1066700000F2298201A252F823F000BFDD66020079
:10668000F5660200F56602008767020015680200E1
:106690008968020015690200356902004569020037
:1066A0006369020081690200AD690200CB690200E2
:1066B000D9690200D9690200D9690200D9690200CA
:1066C000D9690200696A0200776A02008B6A0200D7
:1066D0009F6A0200B96A0200B96A0200FFF794FFDC
:1066E000B04B184601F01CFC0590AF4A9DF80F30E6
:1066F0001370E9E100200AF0F9FA0346002B0DD0EF
:1067000000200AF03BFB9DF80F30022B02D14FF422
:10671000E16301E04FF47A6304930BE000200AF098
:1067200013FB9DF80F30022B01D1C82301E04FF479
:10673000C87304939C4A9DF80F301370994C049BC6
:1067400018464FF000014FF000024FF00003CB035A
:1067500043EA5043C20312F57A71009143F10003FA
:1067600001934FF4FA624FF00003DDE900011BF0E2
:10677000A8F802460B46134600221946204601F0AF
:1067800099FB0590A0E100200AF0B0FA0346002B27
:106790000DD000200AF0F2FA9DF80F30032B02D141
:1067A0004FF4487301E04FF47A6304930BE0002048
:1067B0000AF0CAFA9DF80F30032B01D1C82301E07B
:1067C0004FF4C8730493784A9DF80F301370754CDA
:1067D000049B18464FF000014FF000024FF00003F9
:1067E000CB0343EA5043C20312F57A7A43F1000B1C
:1067F0004FF4FA624FF00003504659461BF061F81F
:1068000002460B46134600221946204601F052FB71
:10681000059059E100200AF069FA0346002B06D0E2
:1068200000200AF0ABFA4FF47A63049305E00020ED
:106830000AF08AFA4FF4C87304935B4A9DF80F304C
:106840001370584C049B18464FF000014FF00002A3
:106850004FF00003CB0343EA5043C20312F57A78AA
:1068600043F100094FF4FA624FF0000340464946F5
:106870001BF027F802460B46134600221946204615
:1068800001F018FB05901FE100200AF02FFA0346E3
:10689000002B0CD000200AF071FA9DF80F30052B68
:1068A00001D1C82301E04FF47A6304930BE0002088
:1068B0000AF04AFA9DF80F30052B01D1C82301E0F8
:1068C0004FF4C8730493384A9DF80F301370354C59
:1068D000049B18464FF000014FF000024FF00003F8
:1068E000CB0343EA5043C20312F57A7643F1000723
:1068F0004FF4FA624FF00003304639461AF0E1FFD8
:1069000002460B46134600221946204601F0D2FAF1
:106910000590D9E000200AF071FA234A9DF80F3063
:106920001370204B002240F26661184601F0C2FA53
:106930000590C9E000200AF007FA1B4A9DF80F30C5
:106940001370C1E0164B01221A7001200AF056FAAA
:10695000144B002240F26661184601F0ABFA059034
:10696000B2E00F4B01221A7001200AF047FA0D4BDA
:1069700000224FF40051184601F09CFA0590A3E064
:10698000074B01221A7001200AF038FA054B002249
:1069900040F26661184601F08DFA059094E000BF60
:1069A0000D320020183200200C320020494B012209
:1069B0001A7001200AF022FA474B00224FF40051CE
:1069C000184601F077FA05907EE00AF004FA434A8F
:1069D0009DF80F30137077E0414B184601F0A0FA94
:1069E00005909DF80F30C3F111030493049B002B15
:1069F00033D0059B002B30D1049B012B26D9384E78
:106A0000049B9BB21A46C82303FB02F318464FEAC5
:106A1000E0714FF000024FF00003CB0343EA504314
:106A2000C20312F57A7443F100054FF4FA624FF095
:106A30000003204629461AF044FF02460B4613463F
:106A400000221946304601F035FA059002200AF07E
:106A50007BF9244B01221A7036E002200AF08EF9ED
:106A6000204B00221A702FE0FFF7CEFD1B4A9DF845
:106A70000F30137028E0FFF7C7FD00200AF064F91B
:106A8000164A9DF80F3013701EE0FFF7BDFD012080
:106A90000AF05AF9114A9DF80F30137014E0FFF70D
:106AA000B3FD00200AF050F901200AF04DF90B4A1D
:106AB0009DF80F30137007E00AF08DF9074A9DF832
:106AC0000F30137000E000BF059B184607B0BDE80B
:106AD000F08F00BF0D320020183200200C32002051
:106AE000383200201432002000B583B00190074BEB
:106AF0001B6803F00103002B04D0054B1B781846DC
:106B0000FFF7A0FD00BF03B05DF804FB10320020CA
:106B10000C32002000B583B0019002200AF06EF91B
:106B200000BF03B05DF804FB00B585B003468DF8E7
:106B3000073000230393084B1B6803F00103002B6D
:106B400005D09DF807301846FFF77CFD0390039BA6
:106B5000184605B05DF804FB1032002000B585B082
:106B600001900091002303932A4A019B13602A4A53
:106B7000009B1360019B03F00203002B2AD000232B
:106B8000029308E001220121029800F055F80390D9
:106B9000029B01330293029B032B02D8039B002B21
:106BA000F0D0039B002B06D140F2333204211B4866
:106BB00000F0A4FC0390039B002B02D100F026FD03
:106BC0000390039B002B05D1154A0021154801F0C5
:106BD0003DF90390019B03F00103002B14D0012029
:106BE0000AF0BEF9039B002B05D10F4A00210F4884
:106BF00001F02CF90390039B002B05D10C4A0121D5
:106C00000C4801F023F90390039B184605B05DF88A
:106C100004FB00BF1032002058320020144F040043
:106C2000ED650200104F0400E96A0200084F0400FD
:106C3000156B02000C4F040084B001900B468DF8D8
:106C4000033013468DF8023000230393019B032B7E
:106C50003CD89DF80230012B0BD19DF80330012B5D
:106C600004D1019BDBB20E33DBB200E000238DF8D0
:106C700002309DF80330022B0FD0022B23DC002BB7
:106C800016D0012B1FD11449019A13465B001344FF
:106C90000B449DF802201A701AE00F49019A13461E
:106CA0005B0013440B4401339DF802201A700FE07F
:106CB0000949019A13465B0013440B4402339DF8C3
:106CC00002201A7004E00723039301E007230393D3
:106CD000039B184604B070475C32002000B585B0B5
:106CE00001900B468DF80330019B032B14D89DF8BF
:106CF0000330002B01D0032300E000238DF80F3078
:106D000001980AF017F902469DF80F30194610460F
:106D1000FFF776FB002300E00623184605B05DF878
:106D200004FB00B583B0019001210198FFF7D6FF65
:106D30000346184603B05DF804FB00B583B001229A
:106D400000210020FFF778FF0190019B002B04D069
:106D5000019B072B01D0019B1CE00722022101208F
:106D6000FFF76AFF0190019B002B04D0019B072BCA
:106D700001D0019B0EE0042202210020FFF75CFFFE
:106D80000190019B002B04D0019B072B01D0019B9C
:106D900000E00023184603B05DF804FB00B583B0A3
:106DA000012202210020FFF747FF0190019B002BE9
:106DB00004D0019B072B01D0019B1CE0072202217C
:106DC0000120FFF739FF0190019B002B04D0019BAC
:106DD000072B01D0019B0EE00A2200210020FFF7C3
:106DE0002BFF0190019B002B04D0019B072B01D0AE
:106DF000019B00E00023184603B05DF804FB00B5DA
:106E000083B001900120FFF749FB0346002B03D01C
:106E1000019B02221A700CE00020FFF73FFB0346A3
:106E2000002B03D0019B0B221A7002E0019B002271
:106E30001A7000BF03B05DF804FB00B583B00020FA
:106E4000FFF76FFF0190019B002B04D0019B062BE5
:106E500001D0019B0CE00120FFF763FF0190019B33
:106E6000002B04D0019B062B01D0019B00E00023E6
:106E7000184603B05DF804FB00B585B001900091A1
:106E8000019B1B88102B02D0112B18D02FE01A4B1E
:106E90001B68002B0DD1FFF750FF0390039B002BC5
:106EA00007D0164B1B68002B03D0144B1B680398AC
:106EB0009847114B1B6801330F4A136017E00E4BC4
:106EC0001B68013B0C4A13600B4B1B68002B0DD158
:106ED000FFF764FF0390039B002B07D0074B1B6851
:106EE000002B03D0054B1B680398984700BF00BFD9
:106EF00005B05DF804FB00BF943200209032002002
:106F000000B585B001900091002303930A4A019BCC
:106F10001360009B002B02D00098FFF770FF074B17
:106F20001B68002B02D1FFF739FF0390039B184623
:106F300005B05DF804FB00BF9032002094320020C1
:106F400000B583B0002100200DF076F80190019B80
:106F5000184603B05DF804FB00B583B00DF0E6F809
:106F60000190019B184603B05DF804FB84B00190CA
:106F7000019B002B0BD0019B002B13DC019B13F119
:106F8000380F07D0019B13F1360F07D00AE000231A
:106F900003930BE048F21153039307E048F21453B4
:106FA000039303E048F21653039300BF039B184674
:106FB00004B0704700B585B0039002910192019929
:106FC000029806F059FD0023184605B05DF804FB51
:106FD00000B589B003900291039B0433079300200E
:106FE00006F072FC0690069B002B01D0069B10E079
:106FF00007980CF0EBF800230093002300220749C8
:1070000007980CF011FB05900598FFF7AFFF06906D
:10701000069B184609B05DF804FB00BFB56F02007F
:1070200000B585B00190019B0433039303980CF0E5
:10703000DAF806F08FFC0023184605B05DF804FB73
:1070400000B587B00390029101928DF80330039B45
:1070500004330593019A029905980CF0D2FB049031
:107060000498FFF783FF0346184607B05DF804FB5A
:1070700000B587B00390029101920093039B043303
:107080000593009A019905980CF055FA049004981C
:10709000FFF76CFF0346184607B05DF804FB0000DD
:1070A00084B003468DF807309DF807305B08DBB2EB
:1070B0001A460D4B9B5C8DF80F309DF8073003F09E
:1070C0000103002B04D09DF80F301B09DBB204E054
:1070D0009DF80F3003F00F03DBB28DF80E309DF8F2
:1070E0000E30184604B07047D032002084B00346FA
:1070F0000A468DF8073013468DF806309DF80730A4
:1071000003F00103002B01D00F2300E0F0238DF8E2
:107110000F309DF8073003F00103002B04D09DF8D9
:1071200006301B01DBB201E09DF806308DF80E3011
:107130009DF807305B08DBB21A46114B9A5C9DF84C
:1071400007305B08DBB219469DF80F301340DAB206
:107150000B4B5A549DF807305B08DBB21A46084BBC
:107160009A5C9DF807305B08DBB219469DF80E303B
:107170001343DAB2024B5A5400BF04B0704700BF49
:10718000D032002000B585B003468DF807300023CB
:10719000039310E00F4B1A68039BDB001344029328
:1071A000029B1B789DF807209A4201D1029B0DE0BB
:1071B000039B01330393084B1B781A46039B9342AE
:1071C000E8DB064988200DF04BF80023184605B08F
:1071D0005DF804FB983200209C320020404F0400F0
:1071E00000B585B003460A468DF8073013468DF882
:1071F00006309DF807301846FFF7C4FF0390039B45
:10720000002B0BD0039B5B68002B07D0039B5B68B4
:107210009DF806109DF807201046984700BF05B05E
:107220005DF804FB2DE9F04F87B003460A468DF860
:107230000F3013468DF80E309DF80F301846FFF7CB
:107240002FFF0346042B00F2C28001A252F823F064
:1072500065720200D9720200F57202002573020005
:107260003B7302009DF80E30002B00F0AD809DF8BE
:107270000F3001211846FFF739FF00238DF8173032
:107280000DF11703184600F0F1FE9DF80F104FF0B6
:1072900001024FF00003A1F12004C1F1200003FA24
:1072A00001F702FA04F4274322FA00F0074302FA36
:1072B00001F6494BD3E9002346EA020100913B4322
:1072C0000193454BDDE90012C3E900129DF8173028
:1072D000184600F0E1FE77E09DF80E30002B01D05B
:1072E000022200E000229DF80F3011461846FFF7F9
:1072F000FDFE6CE09DF80E30002B0CD09DF80F3099
:1073000003211846FFF7F2FE9DF80F3001211846C1
:10731000FFF766FF5BE09DF80F3001211846FFF78D
:10732000E5FE54E09DF80E30002B4FD19DF80F3054
:1073300004211846FFF7DAFE48E09DF80E30002BD6
:1073400006D09DF80F3003211846FFF7CFFE3EE030
:107350009DF80F3000211846FFF7C8FE9DF80F304A
:1073600000211846FFF73CFF00238DF816300DF181
:107370001603184600F07AFE9DF80F104FF0010238
:107380004FF00003A1F12006C1F1200003FA01F53E
:1073900002FA06F6354322FA00F0054302FA01F438
:1073A0006FEA04086FEA05090B4BD3E9002308EAEA
:1073B000020A09EA030B084BC3E900AB9DF816303B
:1073C000184600F069FE02E000BF00E000BF00BF09
:1073D00007B0BDE8F08F00BFC832002000B583B011
:1073E0000648074B1B685B080022194600F062FD47
:1073F000019000BF03B05DF804FB00BFA83200207D
:10740000A032002000B587B001900023059328E04A
:107410001C4B1A68059BDB0013440493049B1B78E8
:10742000184607F051FB03468DF80F30049B5B783C
:10743000012B0CBF01230023DBB21A469DF80F304D
:107440009A420CBF012300238DF80E30049B1B7859
:107450009DF80E2011461846FFF7E4FE059B013308
:107460000593094B1B781A46059B9342D0DB074BCB
:10747000D3E90023134301D0FFF7B0FF00BF07B0EB
:107480005DF804FB983200209C320020C8320020B6
:1074900000B585B001900B468DF80330019BDBB23F
:1074A0001846FFF76FFE0390039B1B78184607F002
:1074B0000BFB03468DF80B30039B5B78012B0CBF55
:1074C00001230023DBB21A469DF80B309A420CBF11
:1074D000012300238DF80A309DF80A30002B06D0D6
:1074E000054BD3E90023134301D1FFF777FF00BF1A
:1074F00005B05DF804FB00BFC832002000B58BB0BA
:1075000003900B4601928DF80B30019B092B01D89B
:10751000072367E007F0CCF9034683F00103DBB2F1
:10752000002B09D007F060F90990099B0893089B8C
:10753000002B01D0089B55E02C4A039B13602C4A7A
:107540009DF80B3013702B4A019B13601022002111
:1075500029481AF074FB29494FF000024FF000034C
:10756000C1E9002331E09DF80B30DB00039A13449E
:10757000079303238DF8143000238DF815309DF800
:1075800016306FF300038DF816309DF816306FF348
:1075900041038DF816309DF816306FF382038DF895
:1075A0001630079B9B788DF81530079B1B78184683
:1075B00005AB134A194607F087F90990099B069312
:1075C000069B002B01D0069B0CE09DF80B305A1E49
:1075D0008DF80B20002BC6D10A4A00210A4800F082
:1075E00035FC034618460BB05DF804FB98320020CA
:1075F0009C320020A0320020D0320020C83200206F
:107600009174020005740200B44F040000B583B009
:10761000114B1B68002B04D1104940F235100CF0BF
:107620001FFE002301930CE00B4B1A68019BDB004B
:1076300013441B780121184607F0C2F9019B01335E
:107640000193074B1B781A46019B9342ECD300230E
:10765000184603B05DF804FB98320020404F040048
:107660009C32002086B003900291019201238DF894
:1076700017309DF81730204A039B13601E4A029B67
:1076800053601D4A019B9360039B44F201029342A5
:1076900012D0039B44F20202934220D1019B164A6E
:1076A000D360154BDB681B68134A9361124BDB6890
:1076B0005B68114AD36112E0019B0F4A13610E4BC4
:1076C0001B699B680C4A53610B4B1B691B680A4A78
:1076D0009361094B1B695B68074AD36100BF72B6AF
:1076E00000BF00BF9DF81730DBB2002BFAD162B6A5
:1076F00000BF00BF06B07047E032002000B583B085
:1077000002900091019244F2010071466A4600F035
:1077100003F803B000BD00BF30B58BB007900691F1
:10772000059272B600BF0AF069FB00BF0AF024F9A7
:107730000346002BFAD1079B44F2020293422FD05A
:10774000079B44F20202934269D8079B44F201026C
:10775000934237D0079B44F2010293425FD8079BC4
:10776000012B05D0079B41F2010293420CD056E059
:10777000394A3A4BD31ADB081B0443F0010338495A
:1077800018460AF06FF857E0334A344BD31ADB0837
:107790001B0443F00103334918460AF063F84BE039
:1077A000059B09932C4A2D4BD31ADB081B0443F08D
:1077B0000100099B5B681A46099B1B682A490AF06D
:1077C00070F839E0059B0893234A244BD31ADB0851
:1077D0001B0443F00104089B9D68089B9B681846A6
:1077E00005F0F6FB03461846089B5B681946089BA4
:1077F0001B68069A02920193009103462A461B4990
:1078000020460AF090F8144A144BD31ADB081B04E4
:1078100043F00103164918460AF024F80CE00E4A1A
:107820000E4BD31ADB081B0443F00103069A1149DF
:1078300018460AF025F800BF0F4B1B6803F0010340
:10784000002B00D000BE059A06990798FFF70AFFA3
:1078500000BF0BB030BD00BF7C4D04004C4D040098
:10786000B84F0400D84F0400FC4F04001850040027
:107870004050040054500400F0ED00E0F0B583B037
:10788000124801F004F8034618464FF00001104B6F
:10789000D3E90023861841EB0307CDE900670D4BC0
:1078A000D3E90023DDE90001994208BF904207D2E5
:1078B000DDE9002312F1807443F10005CDE90045B4
:1078C000DDE900231046194603B0F0BD3C2B002033
:1078D000083300201033002088B001900091019BF4
:1078E0000793009B0693079BD3E90223CDE904236A
:1078F000069BD3E90223CDE90223DDE90423DDE978
:107900000201994208BF90422CBF01230023DBB241
:10791000184608B07047000030B585B00190019B53
:107920005B69002B03D12B49A2200CF099FC0023AA
:107930008DF80F30284B1B78002B45D0019B002B76
:1079400042D0019B1B7FDBB2002B3DD0FFF796FF9F
:10795000019BD3E90223994208BF90422CD3019B9B
:107960001B69002B02D1019B00221A77019B5B69E6
:10797000019A926910469847019B1B69002B23D0FE
:10798000019B1B7FDBB2002B1ED0019BD3E90201C0
:10799000019B1B691A464FF00003841841EB030555
:1079A000019BC3E90245019B19460C4805F06AFAA0
:1079B00001238DF80F3007E0019B1946074805F0B9
:1079C00061FA01238DF80F309DF80F30184605B08D
:1079D00030BD00BF7850040004330020F050040094
:1079E000F0B589B0019000910D230793009B002210
:1079F0001A70019BD3E90245FFF740FF02460B4690
:107A0000A61A65EB0307CDE90467DDE90423012A23
:107A100073F100031BDB049BB3F5350F05D300F0B6
:107A2000A7FA0246154B134403E0019BD3E9022356
:107A3000134603934FF49603039A0021104800F075
:107A400019FE0790079B002B05D1012313E00021AD
:107A50000B4800F0E7FE079B0D2B07D10198FFF7BD
:107A60005BFF03461A46009B1A7003E00549F520A8
:107A70000CF0F6FB0023184609B0F0BDFFFFB40080
:107A80003C2B00207850040000B583B0044805F07A
:107A900033FA0190019B184603B05DF804FB00BF68
:107AA000F050040000B583B0044805F047FA019097
:107AB000019B184603B05DF804FB00BFF0500400C2
:107AC00000B583B0FFF7E0FF0190019B002B02D0CF
:107AD000019B00221A77019B002BF3D100BF00BF4E
:107AE00003B05DF804FB0000054BD3E9002312F15D
:107AF000807043F10001024BC3E9000100BF7047F1
:107B00000833002010B582B00190124B1B68002B87
:107B10001DD0019800F0BBFE04460021019800F042
:107B2000A7FE03461946204600F016FA0346B3F5B1
:107B3000960F04D308494FF495700CF091FB054B58
:107B40001B681846FFF7E8FE024B00221A6000BFD0
:107B500002B010BD003300207850040000B583B09F
:107B60000190FFF78BFE02460B460349C1E9002353
:107B700000BF03B05DF804FB1033002000B585B0F2
:107B80000190FFF78FFF039000238DF80B30039BCC
:107B9000002B48D02B4B1B68002B03D101238DF801
:107BA0000B3019E0039BD3E90201264B1B68D3E994
:107BB0000223994208BF90420ED201238DF80B3068
:107BC000204B1B681B7FDBB2002B05D01D4B1B68B5
:107BD00019461D4805F056F99DF80B30002B2AD0A8
:107BE000FFF752FF03900DF10A0319460398FFF7C0
:107BF000F7FE0346002B12D0124B1B68002B02D15C
:107C0000019800F043FC0F4A039B13609DF80A3073
:107C100083F00103DBB2002BB3D000BF0EE0094BB1
:107C200000221A60ADE7074B1B68002B05D10198B5
:107C300000F042FC01E000BF00E000BF00BF05B063
:107C40005DF804FB00330020F050040000B587B05D
:107C500001902C4A03AB1946104602F0CAFE05906B
:107C600048E0059B1B78022B2ED0022B32DC002B28
:107C700002D0012B14D02DE0059B5B681B7FDBB28B
:107C800083F00103DBB2002B26D0059B5B68012249
:107C90001A77059B5B6819461B4805F0F3F81BE053
:107CA000059B5A68194B1B689A4203D1174B002257
:107CB0001A6012E0059B5B681946134805F052F9FB
:107CC00003468DF8133008E0FFF7FAFE104B01224F
:107CD0001A7002E000BF00E000BF0A4A03AB194679
:107CE000104602F09FFE074A03AB1946104602F009
:107CF00080FE0590059B002BB3D100BF00BF07B0ED
:107D00005DF804FB70330020F050040000330020C5
:107D10000433002000B583B00190019800F075FD98
:107D20000346002B01D0FFF7DFFE0021019800F091
:107D30008AFD0346002B02D00198FFF7E3FE0121E4
:107D4000019800F080FD0346002B02D00198FFF758
:107D500005FF0198FFF77AFF0198FFF70FFF00BFBB
:107D600003B05DF804FB000008B5024800F09CFD7C
:107D700000BF08BD3C2B002000B585B00346009134
:107D80008DF80730114A02AB1946104602F004FE86
:107D90000390039B002B13D0039B9DF807201A70C0
:107DA000039B009A5A60094A02AB1946104602F03A
:107DB0000CFE0346002B01D0FFF7D6FF002300E0A6
:107DC0000423184605B05DF804FB00BF70330020A3
:107DD00000B583B0164B1B68009316480823582241
:107DE000154902F092FD0190019B002B01D0019BEF
:107DF00019E06B46114A1946114800F0C9FA019082
:107E0000019B002B01D0019B0DE001210C4800F0EB
:107E1000EBFC01230B4A0121094800F063FB0A4BEC
:107E200001221A70019B184603B05DF804FB00BFE5
:107E3000EC5004007033002018330020157D020040
:107E40003C2B0020FFFF7F000433002000B587B0EB
:107E500003900B4601928DF80B30039B002B04D14D
:107E6000134940F22E200CF0FBF9019B002B04D1AA
:107E70000F4940F22F200CF0F3F9019B002B01D1A8
:107E8000072310E0039B1B680593059B019A5A6129
:107E90009DF80B30012B0CBF01230023DBB21A46E7
:107EA000059B1A610023184607B05DF804FB00BF6C
:107EB0007850040030B587B0039002910192039B83
:107EC000002B04D1154940F23E200CF0C9F9039B68
:107ED0000593059B1B7FDBB2002B01D000231AE02A
:107EE000059B019A9A61FFF7C9FC029B1A464FF065
:107EF0000003841841EB0305059BC3E90245059B7C
:107F00001B69002B02D0059B029A1A61059900207B
:107F1000FFF732FF0346184607B030BD7850040023
:107F200000B585B00190019B002B04D109494FF4A5
:107F300015700CF095F9019B0393039B00221A77AF
:107F400003990120FFF718FF0346184605B05DF8B6
:107F500004FB00BF7850040082B001900091019AA8
:107F6000009BD31A23F07F43184602B070470000ED
:107F700008B5034800F08BFC0346184608BD00BF57
:107F80003C2B002082B0EFF310830093009B019301
:107F900072B600BF019B184602B0704762B600BFC0
:107FA00000BF704700B585B00190FFF7EBFF03906D
:107FB000164B9B68002B1BD1144B01229A60144B6B
:107FC000D3F88020134B1340104A1360104B114A12
:107FD000C3F880200E4BD3F884300C4A53600C4B0E
:107FE0004FF0FF32C3F88420019B00221A7002E098
:107FF000019B01221A70039B002B01D1FFF7CEFFDA
:108000000023184605B05DF804FB00BF8433002050
:1080100000E100E0FC06FFBD00B585B003468DF829
:108020000730104B9B68002B16D09DF80730002BB3
:1080300012D1FFF7A7FF03900B4A0A4B1B6813608E
:10804000094A084B5B685360064B00229A60039B09
:10805000002B01D1FFF7A2FF0023184605B05DF801
:1080600004FB00BF8433002000E100E000B583B0D2
:10807000019000F02BF80346012B03D00549432063
:108080000CF0EEF80198FFF78DFF00BF03B05DF82C
:1080900004FB00BFFC50040000B583B003468DF81C
:1080A000073000F013F80346012B03D00649512096
:1080B0000CF0D6F89DF807301846FFF7ADFF00BF6B
:1080C00003B05DF804FB00BFFC50040084B0EFF384
:1080D00005830193019BC3F308030393039B002BC8
:1080E0000DD1EFF314830093009B0293029B03F0E6
:1080F0000103002B0CBF01230023DBB200E00123AE
:10810000184604B07047000082B003468DF807306F
:108110009DF90730002B0CDB9DF8073003F01F02A0
:1081200005499DF907305B09012000FA02F241F888
:10813000232000BF02B0704700E100E082B0034698
:108140008DF807309DF90730002B0DDB9DF80730C7
:1081500003F01F0206499DF907305B09012000FA70
:1081600002F2403341F8232000BF02B0704700BF45
:1081700000E100E082B0034600918DF807309DF9E0
:108180000730002B0ADB009BDAB20C499DF907305F
:108190005201D2B20B4483F800230BE0009BDAB209
:1081A00007499DF8073003F00F03043B5201D2B298
:1081B0000B441A7600BF02B0704700BF00E100E038
:1081C00000ED00E000B583B003460A468DF80730A5
:1081D00013468DF806309DF80630012B03D99DF823
:1081E0000630032B0BD99DF80630042B03D99DF8DC
:1081F0000630072B03D908496B200CF031F89DF8A5
:1082000006209DF9073011461846FFF7B3FF00BF5F
:1082100003B05DF804FB00BF7451040000B583B0E7
:1082200003468DF807309DF907301846FFF76CFFBD
:1082300000BF03B05DF804FB00B585B00190019B61
:10824000002B0AD0074B43F001030393019B9B01D2
:108250000293039B0298984700E000BF05B05DF8C9
:1082600004FB00BF9052040084B00390029101927D
:10827000039B029A02F5A872019943F8221000BFED
:1082800004B0704782B001900091019B009A02F502
:10829000A87253F82230184602B0704782B001909D
:1082A0000091019B009AC3F8042300BF02B07047FD
:1082B00082B001900091019B009AC3F8082300BF8F
:1082C00002B0704782B001900B46ADF80230BDF8A5
:1082D0000230019A13441B68184602B0704784B0FC
:1082E00001900B46ADF80230BDF80230019A1344FC
:1082F00000221A60BDF80230019A13441B680393F0
:10830000039B00BF04B0704782B00190019BD3F87B
:108310000435184602B0704700B583B00190009153
:10832000009BB3F5805F04D306494FF4BE700BF099
:1083300097FF019B009AC3F8082500BF03B05DF8C2
:1083400004FB00BFA451040082B001900B468DF8DD
:1083500003309DF80320019B13441A460123136048
:1083600000BF02B0704782B001900091019B009A5B
:10837000C3F8442300BF02B0704782B0019000915F
:10838000019B009AC3F8482300BF02B07047000069
:1083900000B587B0039002910192039B002B03D19B
:1083A000334955200BF05CFF029B002B03D1304971
:1083B00056200BF055FF019B002B03D12C49572071
:1083C0000BF04EFF039B5B7919462A4A019B42F84A
:1083D0002130039B5B79284ADB0013441B79002B77
:1083E0000ED008230593254A254BD31ADB081B041E
:1083F00043F002032349184609F034FA059B32E0A2
:10840000039B1A68029B1B8819461046FFF784FFDE
:10841000039B93F90420029B9B7819461046FFF7B3
:10842000D1FE039B93F904301846FFF7F7FE039B38
:108430005B79114ADB00134401221A71039B5B79BB
:1084400019460D4A039B42F83130002305930B4A2D
:108450000B4BD31ADB081B0443F003030A491846ED
:1084600009F000FA059B184607B05DF804FB00BF51
:10847000D451040090330020943300208C4D04002C
:108480004C4D0400445204006852040000B583B00F
:108490000190019B002B03D1064987200BF0E0FEE1
:1084A000019B1B6800211846FFF74EFF00BF03B079
:1084B0005DF804FBD451040000B583B00190019B2A
:1084C000002B03D106498D200BF0CAFE019B1B68CF
:1084D00004211846FFF738FF00BF03B05DF804FB26
:1084E000D451040000B587B00390029101928DF839
:1084F0000330039B002B03D1214996200BF0B0FEE3
:108500004FF48032029B02FA03F30593029B50332F
:108510009BB29B00ADF81230019B23F07F43019387
:10852000039B1B6805991846FFF7C2FE039B1B6857
:1085300005991846FFF721FF039B1B68BDF8122021
:1085400011461846FFF7CBFE039B1B68019A029960
:108550001846FFF789FE039B1B6805991846FFF72D
:1085600002FF9DF80330002B05D0039B1B68059983
:108570001846FFF793FE00BF07B05DF804FB00BF8D
:10858000D451040000B585B00390029113468DF8D4
:108590000730039B002B03D10B49A9200BF060FE91
:1085A000039B1B6802991846FFF7DDFE9DF8073014
:1085B000002B05D0039B1B6802991846FFF76EFE3F
:1085C00000BF05B05DF804FBD451040000B583B0D2
:1085D00001900091019B002B03D10A49B3200BF0BD
:1085E0003FFE019B1B6800991846FFF7C6FE019BE2
:1085F0001B6800991846FFF75BFE00BF03B05DF8EB
:1086000004FB00BFD451040000B583B001900B46B9
:10861000ADF80230019B002B03D10F49BA200BF0BB
:108620001FFE019B1B68BDF8022011461846FFF78C
:1086300049FE0346002B09D0019B1B68BDF80220B0
:1086400011461846FFF74BFE012300E000231846B1
:1086500003B05DF804FB00BFD451040082B0019068
:108660000091019A009BD31A23F07F43184602B071
:108670007047000000B58BB0039002910192009307
:10868000039B002B03D15749CD200BF0E9FD4FF49C
:108690008032029B02FA03F30993029B50339BB290
:1086A0009B00ADF82230019B23F07F430193099991
:1086B0000398FFF78BFF039B1B681846FFF724FE08
:1086C0000790039B1B6802991846FFF7DBFD069095
:1086D000039B1B68079A02991846FFF7C5FD039B89
:1086E0001B68BDF8222011461846FFF7F8FD0799D0
:1086F0000698FFF7B3FF0346012B0AD11020FFF7BE
:108700009BFD039B1B68BDF8222011461846FFF70E
:10871000E6FD039B1B681846FFF7F6FD07900799D7
:108720000198FFF79BFF0590039B1B68099918466A
:10873000FFF719FE059B012B15D1039B1868019BC0
:1087400001331A460299FFF78FFD1020FFF774FDE1
:10875000039B1B681846FFF7D7FD0246079B934211
:1087600035D00D2339E0039B1B68019A0299184606
:10877000FFF77AFD039B1B681846FFF7C5FD0790BE
:10878000019B013B07991846FFF768FF0590009B86
:10879000C3F1FF1303F57F43059A9A4201D90D23D4
:1087A0001BE0059B002B12D1039B1868019B013332
:1087B0001A460299FFF758FD039B1B681846FFF7FE
:1087C000A3FD0246079B934201D00D2305E0012241
:1087D00009990398FFF7D6FE002318460BB05DF801
:1087E00004FB00BFD451040000B583B001900B46D8
:1087F0008DF803309DF803301A4602210198FFF7E7
:10880000C1FE00BF03B05DF804FB00B583B001906A
:108810004FF482710198FFF7F7FE0346184603B044
:108820005DF804FB00B583B0019000914FF48032F5
:10883000009B02FA03F319460198FFF7C7FE00BF39
:1088400003B05DF804FB00B585B001900091009B7A
:1088500050339BB29B00ADF80E30BDF80E30194678
:108860000198FFF7D1FE0346184605B05DF804FBFA
:1088700000B583B001900091019B1B6800991846D8
:10888000FFF700FD0346184603B05DF804FB00B592
:1088900083B00190019B1B681846FFF735FD034626
:1088A000184603B05DF804FB00B583B00190019B4E
:1088B00093F904301846FFF741FC00BF03B05DF8A0
:1088C00004FB000008B5044B1B68044A12681046FC
:1088D000984700BF08BD00BF9033002094330020AC
:1088E00082B00190019B03F00303002B0CBF012316
:1088F0000023DBB2184602B07047000000B585B017
:108900000190002303930EE00B4A039B52F823309F
:10891000002B05D0084A039B52F823300198984752
:10892000039B01330393039B032BEDD900BF00BFCF
:1089300005B05DF804FB00BFAC33002082B00190AD
:108940000091019B1B78013B052B61D801A252F8D5
:1089500023F000BF6D890200758902009B89020027
:10896000CD890200ED890200098A0200009B0022E5
:108970001A704EE0009B01221A70019B1A89009B1D
:108980009A81019B9A88009BDA81019BDA68009B9F
:108990009A60009B00221A743BE0009B02221A702E
:1089A000019B1A89009B9A81019B9A88009BDA811E
:1089B000019BDA68009B9A60019B9B7D062B0CBF94
:1089C00001230023DAB2009B1A7422E0009B0322E9
:1089D0001A70019BDA88009B9A81019B1A89009B7F
:1089E000DA81019BDA68009B9A6012E0009B042206
:1089F0001A70019BDA88009B9A81009B0022DA8121
:108A0000009B00229A6004E0009B05221A7000E09F
:108A100000BF00BF02B0704784B001900091019B7D
:108A20000393039A009B9A4206D2039B1B68B3F1FF
:108A3000FF3F01D0012300E0002303F00103DBB27C
:108A4000184604B0704782B00190019B5B880333E5
:108A50009B00019A1344184602B0704700B583B0DA
:108A6000019000910198FFF7EEFF0246009B9342B0
:108A700001D2022311E0019B9B884FF6FF729342C3
:108A800008D0019B1B88002B04D0019B9B68B3F18D
:108A9000FF3F01D1012300E00023184603B05DF839
:108AA00004FB000000B583B00190019B002B13D0A4
:108AB0000D4BDB681A46019B93420DD30A4B1B6991
:108AC0001A46019B934207D80198FFF709FF034616
:108AD000002B01D0012300E0002303F00103DBB2EF
:108AE000184603B05DF804FB282B002082B00190EB
:108AF000019B002B04D0019B1B680B4A934201D0C1
:108B000003230DE0019B04331B68084A934204D001
:108B1000074A934203D1012302E0002300E003232C
:108B2000184602B0704700BFDEC0ADDEFE011EF188
:108B3000FF011EF184B00190019B1B68B3F1FF3F60
:108B400006D0019B1B680E4A934201D0002314E01B
:108B5000012303930CE0039B9B00019A13441B68C1
:108B6000B3F1FF3F01D0002307E0039B01330393E0
:108B7000039BB3F5806FEED30123184604B0704712
:108B8000DEC0ADDE82B003460A46ADF806301346BD
:108B9000ADF80430BDF80620134913469B0013447A
:108BA0009B000B4408331A88BDF804301344ADF819
:108BB0000430BDF806200C4913469B0013449B006B
:108BC0000B440A331A88BDF804301344ADF804305E
:108BD000BDF80430B3F5806F94BF01230023DBB2EE
:108BE000184602B0704700BF5C34002084B001908A
:108BF000009148F2096303930023ADF80A3027E09F
:108C0000BDF80A20164913469B0013449B000B44F1
:108C100004331B68009A9A4215D9BDF80A201049FE
:108C200013469B0013449B000B4404331B6803F55D
:108C30008053009A9A4206D200230393019BBDF809
:108C40000A201A8008E0BDF80A300133ADF80A3076
:108C5000BDF80A30012BD3D9039B184604B07047E6
:108C60005C34002000B589B0039002910192039B0F
:108C700003F580530693039B08330393029B022260
:108C80001A80039B079332E006990798FFF7E6FEE8
:108C900003468DF817309DF81730002B0AD1079B3B
:108CA0009A68184B1B689A4213D9079B9B68154A10
:108CB00013600EE0019B002B02D0019B01221A7071
:108CC0009DF81730022B04D1029B4FF480621A806A
:108CD00014E0029B1A88079B5B8813449BB2033302
:108CE0009AB2029B1A800798FFF7ADFE079006998B
:108CF0000798FFF791FE0346002BC5D109B05DF838
:108D000004FB00BFBC33002082B001900091009BA7
:108D10009B7D022B09D9019B1A89009BDB88134498
:108D20009BB203339AB2019B1A81019B5A89009B23
:108D3000DB88D31A9BB2033B9AB2019B5A8100BFD6
:108D400002B0704700B583B0074B1B68194600237B
:108D500000930823054A064802F044FD03461846DE
:108D600003B05DF804FB00BF84340020045304000A
:108D7000282B002000B585B00390039900230093B1
:108D80000823044A044802F02DFD0346184605B0A6
:108D90005DF804FB0C530400282B002000B585B0BF
:108DA00003460091ADF8063000238DF80F30BDF872
:108DB00006300333ADF80A30BDF80A3040F2FE3217
:108DC000934202D948F208634BE00023ADF80C301F
:108DD0003BE0BDF80C20254913469B0013449B0043
:108DE0000B441B78002B2BD1BDF80A20BDF80C30AA
:108DF00011461846FFF7C6FE0346002B20D001237C
:108E00008DF80F30009BBDF80C201A80BDF80C20A7
:108E1000164913469B0013449B000B440A331988E0
:108E2000BDF80C20BDF80A300B4498B20F49134628
:108E30009B0013449B000B440A3302461A8008E04F
:108E4000BDF80C300133ADF80C30BDF80C30012BFF
:108E5000BFD99DF80F30002B01D0002301E048F26C
:108E60000663184605B05DF804FB00BF5C340020C3
:108E700082B003460A46ADF806301346ADF804301A
:108E8000BDF804200D4913469B0013449B000B447E
:108E90000A331A88BDF80630D31A9BB2BDF80420F5
:108EA000033B98B2054913469B0013449B000B44B7
:108EB0000A3302461A8000BF02B070475C340020BB
:108EC00008B50121024801F01CFF0346184608BD01
:108ED000BC33002000B585B003460091ADF80630E4
:108EE000BDF80620244913469B0013449B000B4405
:108EF00004331B6803F580530293009B1B680393A4
:108F0000039B002B04D00398FFF79DFD039026E000
:108F1000BDF80620184913469B0013449B000B44E0
:108F200004331B680833039319E002990398FFF791
:108F300095FD0346022B10D0022B10DC002B02D033
:108F4000012B05D00BE0009B039A1A6001230EE071
:108F50000398FFF778FD039001E0002307E00299F2
:108F60000398FFF759FD0346002BDED10023184676
:108F700005B05DF804FB00BF5C34002000B585B08F
:108F800001900091019B5B681846FFF78BFD03463B
:108F9000002B19D0019B1A89244B1B899A4213D1AB
:108FA000019B1A68019B5B689B689A420CD1019BEC
:108FB0005B6819460098FFF719FE0346002B0CBFAB
:108FC00001230023DBB22CE0009B00221A8023E067
:108FD0000023029310E0029B0393039B9A68019B7A
:108FE0001B689A4208D1029A019B5A600F4B1A895A
:108FF000019B1A81012314E0009B1B8802AA1146E1
:109000001846FFF767FF0346002BE4D1009B1B883F
:1090100001339AB2009B1A80009B1B88012BD7D981
:109020000023184605B05DF804FB00BF8C34002017
:1090300000B587B00390029101920093324B1B78E8
:10904000DBB283F00103DBB2002B02D048F20163F4
:1090500055E0019B002B02D0009B002B49D148F228
:1090600004634CE0009B9B881946284A0B469B00F2
:109070000B449B0013441B78002B33D124E0009B4E
:109080001B680593039B002B06D0059B9A88039BC6
:109090001B889A4200D017E0029B002B06D0059B4C
:1090A0001A88029B1B889A4200D00DE0059B9A68A3
:1090B000019B1A60009B1A68019B5A60144B1A8925
:1090C000019B1A8100231AE0009B9B88009A11469D
:1090D0001846FFF7FFFE0346002BD0D1009B00226D
:1090E0001A6000E000BF009B9B8801339AB2009B8E
:1090F0009A80009B9B88012BB4D948F209631846DB
:1091000007B05DF804FB00BF9C3300205C340020F6
:109110008C34002000B587B0029101920093034681
:10912000ADF80E30BDF80E20324913469B001344B3
:109130009B000B4404331B6808330593BDF80E20D5
:109140002C4913469B0013449B000B4404331B68BB
:1091500003F58053049342E004990598FFF77EFCE1
:109160000346022B25D0022B38DC002B16D0012B16
:1091700034D1019B1B8801339AB2019B1A80009B5A
:109180001A88059B5B8813449BB203339AB2009BF9
:109190001A800598FFF757FC059020E0029B1B887A
:1091A00001339AB2029B1A800598FFF74CFC059098
:1091B00015E0019B1B8801339AB2019B1A80009B2A
:1091C0001A880499059BCB1A9B109BB213449AB240
:1091D000009B1A80089B01221A7007E000BF0499C7
:1091E0000598FFF719FC0346002BB5D107B05DF8D1
:1091F00004FB00BF5C34002000B585B00190084B33
:109200000199184601F0C8FB03901C220021039825
:1092100018F015FD039B184605B05DF804FB00BF70
:109220004C34002000B583B00190044B01991846DE
:1092300001F0CBFB00BF03B05DF804FB4C34002011
:1092400000B583B00190054B0199184601F0D1FBA0
:109250000346184603B05DF804FB00BF4C34002001
:1092600000B583B00190044B0199184601F0DAFB78
:1092700000BF03B05DF804FB4C34002008B50A4B76
:109280001B68002B04D109494FF424700AF0E8FF51
:109290000121054801F04DFD0346002B14BF0123B9
:1092A0000023DBB2184608BDA43300209852040006
:1092B00000B587B0002305930023ADF812300323D7
:1092C000ADF8103000238DF80F300023ADF80C30CE
:1092D000F7E0BDF80C301A03824BDB6813440293AD
:1092E0000298FFF703FC03468DF807309DF807301E
:1092F000032B08D0032B00F3DE80002B65D0012B5D
:1093000000F09880D7E00298FFF714FC0346002B8A
:109310003BD0754B1B68002B29D0BDF81220734938
:1093200013469B0013449B000B4402221A70BDF8A5
:1093300012206E4913469B0013449B000B440433D8
:10934000029A1A60BDF81220684913469B00134424
:109350009B000B44083302221A80654ABDF8123084
:109360005380BDF812300133ADF8123008E05E4A88
:10937000029B13605C4B02229A8001238DF80F3010
:10938000059B43F00103059396E0BDF81030013BC7
:10939000ADF81030BDF81220544913469B00134419
:1093A0009B000B440433029A1A60BDF812204F4907
:1093B00013469B0013449B000B4403221A70BDF814
:1093C00012300133ADF8123076E0BDF81220474973
:1093D00013469B0013449B000B4400221A70BDF8F7
:1093E0001220424913469B0013449B000B44043354
:1093F000029A1A60BDF8122013469B0013449B008A
:1094000008333A4A9918BDF8122013469B001344BA
:109410009B001033354A13441A460298FFF722FC8A
:10942000059B43F002030593BDF812300133ADF8FC
:10943000123041E09DF80F30002B29D0BDF81220EA
:109440002A4913469B0013449B000B4402221A70C6
:10945000BDF81220244B1968244813469B0013447E
:109460009B00034404331960BDF812201F491346C2
:109470009B0013449B000B44083302221A801C4AB1
:10948000BDF812305380BDF812300133ADF8123000
:10949000154A029B1360002216490298FFF7E2FB6F
:1094A000114B9B88022B01D1042300E00823059A6D
:1094B0001343059300E000BFBDF80C300133ADF855
:1094C0000C30BDF80C30022B7FF603AFBDF8103026
:1094D000012B01D800230593059BDBB2184607B08A
:1094E0005DF804FB282B0020843400205C3400202D
:1094F0008C3400208834002000B587B0039002919E
:10950000039B02229A750299039B1A1D0023009364
:109510000423074802F066F90590059B002B01D152
:10952000002301E048F20D63184607B05DF804FB24
:10953000282B002000B587B003900291039B1B6984
:10954000002B01D0032200E00122039B9A75029BAD
:1095500008331946039B03F10C02002300930423F4
:10956000074802F03FF90590059B002B01D100232D
:1095700001E048F20D63184607B05DF804FB00BF38
:10958000282B002000B587B003900291039B1B7825
:10959000032B01D1052200E00622039B9A75029B52
:1095A00004331946039B03F10802002300930423AC
:1095B000074802F017F90590059B002B01D1002305
:1095C00001E048F20D63184607B05DF804FB00BFE8
:1095D000282B002000B587B003900B46ADF80A3069
:1095E00003990023009304230D4A0E4802F0FAF871
:1095F0000590059B002B02D048F20D630BE0BDF8EF
:109600000A20094913469B0013449B000B44103366
:1096100001221A700023184607B05DF804FB00BF52
:1096200014530400282B00205C34002000B589B0BE
:10963000019002AB00221A605A609A60019BDB68BD
:1096400002930DF1160202AB11461846FFF796FC85
:109650000346002B12D0039B0693069B9A88019B1E
:10966000DA80069B1A88019B1A81039BBDF816209D
:1096700011461846FFF7AEFF079002E048F2096373
:109680000793079B184609B05DF804FB00B587B047
:109690000190019B981D02AA0D4B0021FFF7C8FC09
:1096A0000590059B002B08D1039B094A928811461F
:1096B0001846FFF78FFF059004E0082200210448B8
:1096C00018F0BDFA059B184607B05DF804FB00BF13
:1096D0009C34002000B587B003900291039B0122C7
:1096E0009A75029B0C331846039B1A69039BDB880F
:1096F0009B00002100910146074802F073F8059095
:10970000059B002B01D1002301E048F20D631846B0
:1097100007B05DF804FB00BF282B002082B0184B77
:109720001B8901339AB2164B1A81154B00225A80BD
:10973000134B00221A730023ADF8063018E0BDF871
:109740000620104913469B0013449B000B441A78D3
:10975000BDF80630002A0CBF01220022D1B2084A0F
:1097600013440A469A72BDF806300133ADF806304C
:10977000BDF80630012BE2D900BF00BF02B0704730
:109780008C3400205C34002084B0019000238DF8DC
:109790000F300023ADF80C3031E0BDF80C301C4A1E
:1097A00013449B7A002B25D0BDF80C30184A134483
:1097B00000229A72BDF80C20164913469B001344F0
:1097C0009B000B440C331B68002B13D1BDF80C20FD
:1097D000104913469B0013449B000B4410331B7825
:1097E000002B07D0019BBDF80C201A8001238DF8B7
:1097F0000F3008E0BDF80C300133ADF80C30BDF887
:109800000C30012BC9D99DF80F30184604B07047B1
:109810008C3400205C34002008B5084B05221A70F7
:10982000074B02229A80064B1B681946002301222F
:10983000044802F0B9F80346184608BD8C340020ED
:1098400084340020282B002000B583B0164B5B88A1
:10985000ADF80230BDF80220144913469B001344B2
:109860009B000B440C331B68002B14D10E4B0422BD
:109870001A70BDF802200D4913469B0013449B004B
:109880000B4404331B68194600230122084802F0E8
:109890008BF8019002E0FFF7BFFF0190019B184693
:1098A00003B05DF804FB00BF8C3400205C34002062
:1098B000282B002000B587B0104B5B680593104B38
:1098C0001A680F4B9B889B0013440493059B5B888D
:1098D0000333ADF80E30094B03221A700499074B7D
:1098E0005A68BDF80E309B0000200090054801F03A
:1098F00079FF0346184607B05DF804FB8C3400205E
:1099000084340020282B002000B583B00A4B5B88EC
:109910000A491846FFF7DEFA0346002B03D0FFF78B
:10992000C9FF019002E0FFF78FFF0190019B1846ED
:1099300003B05DF804FB00BF8C340020903400209D
:1099400008B50A4B06221A70084B5B881946084A6C
:109950000B469B000B449B00134404331B681846C2
:10996000FFF708FA0346184608BD00BF8C340020F4
:109970005C34002008B5054B07221A70034B002207
:109980005A60FFF7DFF90346184608BD8C34002003
:1099900008B50D48FFF7F8FE034683F00103DBB27C
:1099A000002B0BD0094B00221A70084B00225A8062
:1099B000064B00225A6041F61D5302E0FFF7A4FF58
:1099C0000346184608BD00BF8E3400208C340020AA
:1099D00082B0094B5B680193019B5B880333ADF850
:1099E0000230064B9A88BDF8023013449AB2034BFA
:1099F0009A8000BF02B070478C340020843400206D
:109A000082B01E4B1B6801931D4B5B8819461D4A93
:109A10000B469B000B449B00134404331B68174AFE
:109A20001360174B5B881946164A0B469B000B4484
:109A30009B0013440433019A1A60114B5B8819464A
:109A40000E4B98880F4A0B469B000B449B00134417
:109A5000083302461A80094B02229A80084B5B8821
:109A60001946084A0B469B000B449B0013441033D5
:109A700000221A7000BF02B0704700BF843400207B
:109A80008C3400205C34002008B51A4B1B78072B5F
:109A90002CD801A252F823F0B99A0200ED9A0200E4
:109AA000ED9A0200C59A0200D19A0200DD9A0200E6
:109AB000DD9A0200E59A0200FFF730FE0D4B01220D
:109AC0001A7014E0FFF784FF0A4B02221A700EE0AE
:109AD000FFF796FF074B06221A7008E0054B072296
:109AE0001A7004E0034B01221A7000E000BF00BFAF
:109AF00008BD00BF8C34002000B587B001900091F4
:109B000048F20E630593019B002B05D0634B0022A6
:109B10005A604FF40643BCE0009B1B79032B00F214
:109B2000AB8001A252F823F0399B0200479B020050
:109B3000D59B0200F59B0200009B01221A71FFF7E2
:109B400001F905909BE000238DF813300023ADF858
:109B500010302BE0BDF81020514913469B001344F0
:109B60009B000B441B78022B1BD1BDF810204C49E5
:109B700013469B0013449B000B4400221A700123E0
:109B80008DF81330BDF81020454913469B0013444F
:109B90009B000B4404331B681846FFF7EBF8059055
:109BA00008E0BDF810300133ADF81030BDF81030CA
:109BB000012BCFD99DF8133083F00103DBB2002BCA
:109BC0005CD0364B01221A70344B00225A6041F6A9
:109BD0001D535EE0009B00221A71324B02229A80D4
:109BE000304B1B681946002301222F4801F0DCFE90
:109BF000059044E0009B00221A712A4B1B6818460E
:109C0000FFF7B8F80590294B5B88ADF80E30254B6F
:109C10001B680293BDF80E20214913469B00134494
:109C20009B000B4404331B681E4A1360BDF80E20D2
:109C30001B4913469B0013449B000B440433029AB8
:109C40001A60BDF80E20174B9888154913469B00E3
:109C500013449B000B44083302461A80114B022226
:109C60009A80BDF80E200E4913469B0013449B00BA
:109C70000B4400221A7002E000BF00E000BF059B09
:109C8000002B05D0054B00225A6048F20D6300E01E
:109C90000023184607B05DF804FB00BF9C3300208A
:109CA0005C34002084340020282B00208C340020D9
:109CB00000B587B001900091009B9B8A1A4613461D
:109CC0009B0013449B003B4A13440493019B002BCD
:109CD00006D000990498FFF717F84FF4064364E0A4
:109CE000049B5A68049B1B899B0013440393009BAD
:109CF0009B7D062B4DD801A252F823F0419D020016
:109D0000659D02004D9D0200599D0200199D0200B3
:109D1000719D02008B9D0200274B00225A60009B20
:109D20009B69254A136025492348FFF727F9034615
:109D300083F00103DBB2002B02D048F2096334E068
:109D400003990098FFF7D8FB059026E00399009847
:109D5000FFF7F0FB059020E003990098FFF7BAFCAD
:109D600005901AE003990098FFF70CFC059014E0A9
:109D7000009B06229A75104B5B68104A12881146A8
:109D80001846FFF727FC059007E041F61D530593A1
:109D900003E048F20E63059300BF059B002B03D040
:109DA00000990498FEF7B0FF059B184607B05DF8D0
:109DB00004FB00BF5C340020A4340020B034002039
:109DC00000B585B001900091019B002B02D04FF4AB
:109DD000064329E0009B1B79022B1BD0022B1DDCC4
:109DE000002B02D0012B08D018E0009B02221A7130
:109DF0000098FFF71BFC039015E00098FFF746FC66
:109E00000390039B48F2096293420BD141F61D5324
:109E1000039307E041F61D53039304E048F20E63F9
:109E2000039300E000BF039B184605B05DF804FBF8
:109E300000B585B00190019B002B02D04FF4064382
:109E40003DE0214B1B7B002B03D01F4B00221A73DC
:109E500001E0FFF719FE1C4B1B78013B062B29D8AC
:109E600001A252F823F000BF859E02008D9E0200E1
:109E7000959E02009D9E0200B59E0200A59E0200D6
:109E8000AD9E0200FFF784FD039017E0FFF73CFD55
:109E9000039013E0FFF70EFD03900FE0FFF7D4FCF3
:109EA00003900BE0FFF74CFD039007E0FFF762FD26
:109EB000039003E048F20E63039300BF039B184630
:109EC00005B05DF804FB00BF8C34002000B589B0FC
:109ED0000190404B1B68002B05D13F48FFF7B0F9BC
:109EE00003463C4A13603B4B1B68002B04D13B49A3
:109EF00040F29E500AF0B4F9364B1B681B78013BC8
:109F0000052B2CD801A252F823F000BF259F020098
:109F1000359F0200359F0200459F0200459F0200C9
:109F2000559F02002B4B1B6819460198FFF7E4FD73
:109F3000019018E0274B1B6819460198FFF7B8FEFF
:109F4000019010E0234B1B6819460198FFF738FF7A
:109F5000019008E00198FFF76BFF019003E048F2E1
:109F60000E63019300BF019B002B2BD003AB00229B
:109F70001A605A609A60DA601A61019B41F61D52BC
:109F8000934201D0019B00E000230493114B1B6816
:109F900003AA11461846FEF7D1FC03AB1846FEF79C
:109FA000ADFC0C4B00221A60002301930A48FFF716
:109FB00057F9FFF763F9034683F00103DBB2002B87
:109FC00002D186E700BF00E000BF00BF09B05DF826
:109FD00004FB00BFB4340020B834002098520400C1
:109FE00008B50121054800F074FE0346002B02D19C
:109FF0000020FFF76BFF00BF08BD00BFA4330020A7
:10A0000000B583B00190019B5B681846FFF75EFFC7
:10A0100000BF03B05DF804FB00B58BB00390029164
:10A0200001928DF803300023ADF824300023ADF801
:10A030002630534B1B78DBB283F00103DBB2002BDD
:10A0400002D048F2016397E0029B002B02D148F254
:10A05000046391E0029B1B884FF6FF72934203D08A
:10A06000029B5B88002B02D148F2036384E0029BD1
:10A070005B681846FEF734FC034683F00103DBB24D
:10A08000002B02D048F2026376E0019B002B11D135
:10A09000029B9B68ADF826300DF11A02BDF8263000
:10A0A00011461846FEF77AFE0890089B002B09D04F
:10A0B000089B61E0019B1B88ADF81A30019B5B880F
:10A0C000ADF8263005AB1846FFF796F80790079BCA
:10A0D000002B0AD1BDF81A20BDF8263011461846CB
:10A0E000FEF7C6FE48F2076346E0079B9DF8032093
:10A0F0001A70079B00229A75BDF81A20079B9A8256
:10A10000029B5A68079B1A61FEF7DAFE0246079B1C
:10A11000DA60029B1A88079B1A81029B5A88079B68
:10A120009A80079BBDF82620DA809DF80330032B28
:10A1300006D1079B04229A75039B1A68079B9A61B4
:10A14000079BBDF824205A8105AB1846FFF76AF833
:10A15000039B002B0DD0039B00225A60079BDA68FB
:10A16000039B1A60039B00229A72064B1A89039B79
:10A170001A81FFF735FF002318460BB05DF804FB8A
:10A180009C3300208C34002000B585B001900C4B2E
:10A190001B68042B03D148F20B6303930BE0084BBD
:10A1A0001B680849019A41F823200121044800F066
:10A1B000A8FD00230393039B184605B05DF804FB3C
:10A1C000A8330020AC33002084B040F6F8731B683D
:10A1D000B3F1FF3F02D10F4B1B6802E040F6F8736A
:10A1E0001B6803934FF080531B6902934FF0805319
:10A1F0005B690193039BB3F1FF3F04D1019B029A7A
:10A2000002FB03F300E0039B0093009B184604B09D
:10A21000704700BF1410001000B583B04FF44053D6
:10A220000193FFF7D1FF0346054A1361044B1A69F6
:10A23000019BD31A024AD36000BF03B05DF804FB50
:10A24000282B002008B5FFF7E7FF00220349044848
:10A2500001F080FA0346184608BD00BF905604007E
:10A26000282B002008B504481C238C22034900F049
:10A270004CFB00BF08BD00BF4C340020C0330020A1
:10A2800000B58BB002AB00221A605A609A60DA60A7
:10A290001A61424B1B78DBB2002B05D002AB18468B
:10A2A000FEF72CFB002375E03D4800F05AFD034605
:10A2B000002B01D000236DE0FFF7C4FF0990099B3C
:10A2C000002B01D0099B65E0FFF7CCFFFEF7F0FF04
:10A2D00003468DF823309DF82330062B08D0062B3B
:10A2E00012DC002B01D0022B0ED148F20A6351E0A0
:10A2F0002A4B01221A70294B00225A6002AB1846E1
:10A30000FEF7FCFA002345E000BF01AB1846FEF75C
:10A3100073FF0790079B002B02D148F2076339E0D7
:10A32000079B01221A709DF82330013B0A2B29D884
:10A3300001A252F823F000BF65A3020085A302002A
:10A3400065A3020085A302007DA3020085A302008D
:10A350007DA3020085A302006DA3020075A3020085
:10A360006DA30200079B00221A710CE0079B0322D9
:10A370001A7108E0079B02221A7104E0079B012270
:10A380001A7100E000BF01AB1846FEF74BFFFFF764
:10A3900027FE002318460BB05DF804FB9C33002019
:10A3A000A033002000B585B001900091019B002BE7
:10A3B00002D0009B002B02D148F204632AE00DF189
:10A3C0000A0319460198FEF7D9FD0346002B1FD05A
:10A3D000019B5B680393BDF80A301A4613469B0045
:10A3E00013449B0008330D4A1344043301211846DB
:10A3F00000F087FC009B039A1A60019B5B6803F1E5
:10A400000C02009B5A60019B01229A72002301E01A
:10A4100048F20963184605B05DF804FB5C3400207F
:10A4200000B585B00190019B002B02D148F2046376
:10A430003BE00DF10A0319460198FEF79FFD034624
:10A44000002B2ED0BDF80A3019461A4A0B469B0045
:10A450000B449B0013440C331B68002B1DD0019B45
:10A460009B7A002B19D0BDF80A301A4611491346C1
:10A470009B0013449B000B440C331B68591E0D4872
:10A4800013469B0013449B0003440C331960019B4B
:10A4900000229A720023039306E048F205630393B7
:10A4A00002E048F209630393039B184605B05DF888
:10A4B00004FB00BF5C34002000B583B00190009124
:10A4C0000223002200990198FFF7A6FD03461846D3
:10A4D00003B05DF804FB00B583B001900091019BCF
:10A4E000002B02D148F2046306E003230022009906
:10A4F0000198FFF791FD0346184603B05DF804FB91
:10A5000000B585B00346ADF806301A4B1B78DBB2B8
:10A5100083F00103DBB2002B02D048F2016324E098
:10A52000BDF806304FF6FF72934202D148F2036342
:10A530001BE002AB1846FEF75FFE0390039B002B67
:10A5400002D148F2076310E0039B05221A70039BB7
:10A5500001221A71039BBDF80620DA8002AB18466F
:10A56000FEF760FEFFF73CFD0023184605B05DF8DE
:10A5700004FB00BF9C33002000B583B0154B1B7853
:10A58000DBB283F00103DBB2002B02D048F201639F
:10A590001BE06B461846FEF72FFE0190019B002B37
:10A5A00002D148F2076310E0019B06221A706B4645
:10A5B0001846FEF737FE084B1B78002B02D0064BDF
:10A5C00001221A73FFF70CFD0023184603B05DF853
:10A5D00004FB00BF9C3300208C34002000B585B004
:10A5E000029201930346ADF80E300B46ADF80C30E5
:10A5F00003A90DF10E00019B029AFEF719FD034617
:10A60000184605B05DF804FB00B585B0034602911D
:10A610000192ADF80E300DF10E01019B029A00205F
:10A62000FEF706FD0346184605B05DF804FB00B5CD
:10A6300085B0034602910192ADF80E300DF10E0087
:10A64000019B029A0021FEF7F3FC0346184605B071
:10A650005DF804FB82B001900091019B002B02D0B9
:10A66000009B002B02D148F2046304E0019B1A68AE
:10A67000009B1A600023184602B0704710B586B0E0
:10A6800003904FF48063ADF814300023ADF812301E
:10A690004F4B1B78DBB283F00103DBB2002B02D0FF
:10A6A00048F2016391E0039B002B02D148F204635E
:10A6B0008BE012220021039817F0C1FA039B0322BA
:10A6C0001A800023ADF816307AE0BDF81620414913
:10A6D00013469B0013449B000B4408331988BDF8B4
:10A6E00016203C4813469B0013449B0003440A3346
:10A6F0001B880B44ADF81030BDF8162035491346C1
:10A700009B0013449B000B4404331B681846FEF760
:10A71000EDF90346032B05D1039B1B88013B9AB23D
:10A72000039B1A80BDF816202A4913469B00134448
:10A730009B000B440C331968039B5A888BB213445B
:10A740009AB2039B5A80039B1989BDF816202148B1
:10A7500013469B0013449B0003440A331B880B449D
:10A760009AB2039B1A81039B5A89BDF81030134497
:10A770009AB2039B5A81BDF81420BDF81030D31A49
:10A78000ADF81230039B9B89BDF812209A4203D981
:10A79000039BBDF812209A81039B191D039B9A1DF0
:10A7A000039B03F10E04039B1033BDF816000093C6
:10A7B0002346FEF7AFFCBDF816300133ADF8163076
:10A7C000BDF81630012B80D90023184606B010BD05
:10A7D0009C3300205C34002086B001900091019BE6
:10A7E00053E8011F8AB2D88902449889824228BF5F
:10A7F000121A1889824202BFBFF32F8F002307E08D
:10A80000C2EA010243E801200028E9D14FF0010328
:10A810008DF80F30059002910492029A009B1A6005
:10A820009DF80F30DBB2184606B0704784B0019037
:10A83000019951E8013FC3EA034341E80132002A8C
:10A84000F7D10392029300BF04B0704786B0019025
:10A850000091019B53E8021F1FFAA1F2D88882429F
:10A8600002BFBFF32F8F00230DE0D88902449889DF
:10A87000824228BF121AC1EA024243E8022000289D
:10A88000E8D14FF001038DF80F300590029104924A
:10A89000029A009B1A609DF80F30DBB2184606B092
:10A8A000704784B00190019951E8023FC3EA234305
:10A8B00041E80232002AF7D10392029300BF04B0AC
:10A8C000704786B00190019B53E8021FDA88B1EB14
:10A8D000314F4FF0000017BF89B242EA024241EA0D
:10A8E000024204E05968B1EB314F08BF012043E850
:10A8F00002210029E8D18DF80F00059104929DF8FE
:10A900000F30DBB2184606B0704784B00390029156
:10A9100011461A460B46ADF806301346ADF8043022
:10A92000029B002B01D10E231FE0BDF80630BDF8BD
:10A930000420B3FBF2F102FB01F29B1A9BB2002B45
:10A9400001D0092311E0039B029A1A60039B0022A5
:10A950005A60039B00229A60039BBDF806209A81EF
:10A96000039BBDF80420DA810023184604B0704729
:10A9700000B585B001900198FFF7A3FF03468DF85D
:10A980000F309DF80F30002B01D0002300E0112381
:10A99000184605B05DF804FB00B585B00190009144
:10A9A000009B19460198FFF717FF0346002B07D0BD
:10A9B000019B1B68009A128813440393039B00E0D9
:10A9C0000023184605B05DF804FB00B583B0019084
:10A9D0000091009B1A88009B5B889A4204D10198E1
:10A9E000FFF724FF012300E00023184603B05DF8C1
:10A9F00004FB00B585B001900091009B19460198B9
:10AA0000FFF724FF0346002B07D0019B1B68009A29
:10AA1000528813440393039B00E00023184605B0BB
:10AA20005DF804FB00B583B001900091009B1A888B
:10AA3000009B5B889A4204D10198FFF732FF012303
:10AA400000E00023184603B05DF804FB00B585B0B4
:10AA500001900091009B5B099B00019A1A44009BA6
:10AA600003F01F03012101FA03F31946104600F019
:10AA7000E8F8039000BF05B05DF804FB00B583B0B3
:10AA800001900091009B5B099B00019A1A44009B76
:10AA900003F01F03012101FA03F31946104600F0E9
:10AAA000B8F80246009B03F01F0322FA03F303F0F9
:10AAB0000103002B14BF01230023DBB2184603B0AF
:10AAC0005DF804FB00B585B001900091009B5B0927
:10AAD0009B00019A1A44009B03F01F03012101FA15
:10AAE00003F3DB431946104600F0DBF8039000BF88
:10AAF00005B05DF804FB82B001900091009B5B09FA
:10AB00009B00019A13441A68009B03F01F0322FA6A
:10AB100003F303F00103002B14BF01230023DBB276
:10AB2000184602B0704700B58DB001900091002327
:10AB30000B934BE00B9B9B00019A13441B68DB4378
:10AB40000793079B93FAA3F30693069B0893089B2E
:10AB5000002B01D1202303E0089BB3FA83F3DBB27F
:10AB60000A932BE00B9B5B010A9A13440993099A01
:10AB7000009B9A4226D209990198FFF77FFF03466E
:10AB800083F00103DBB2002B01D0099B26E00B9B75
:10AB90009B00019A13441B68DB430493049B93FAC4
:10ABA000A3F30393039B0593059B002B01D1202363
:10ABB00003E0059BB3FA83F3DBB20A930A9B1F2BD6
:10ABC000D0D900E000BF0B9B01330B93009B013BEE
:10ABD0005B0901330B9A9A42ACD3009B18460DB027
:10ABE0005DF804FB10B487B001900091019B009ABE
:10ABF00053E8004F104643E8000191F0000FF7D1F1
:10AC0000059404900391059B184607B05DF8044B2A
:10AC1000704710B487B001900091019B009A53E8EF
:10AC2000004F44EA020043E8000191F0000FF6D122
:10AC3000059404900391059B184607B05DF8044BFA
:10AC4000704710B487B001900091019B009A53E8BF
:10AC5000004F44EA020043E8000191F0000FF6D1F2
:10AC6000059404900391049B184607B05DF8044BCB
:10AC7000704710B487B001900091019B009A53E88F
:10AC8000004F04EA020043E8000191F0000FF6D102
:10AC9000059404900391059B184607B05DF8044B9A
:10ACA000704710B487B001900091019B009A53E85F
:10ACB000004F04EA020043E8000191F0000FF6D1D2
:10ACC000059404900391049B184607B05DF8044B6B
:10ACD000704710B487B001900091019B009A53E82F
:10ACE000004F04EB020043E8000191F0000FF6D1A1
:10ACF000059404900391059B184607B05DF8044B3A
:10AD0000704710B487B001900091019B009A53E8FE
:10AD1000004F04EB020043E8000191F0000FF6D170
:10AD2000059404900391049B184607B05DF8044B0A
:10AD3000704710B487B001900091019B009A53E8CE
:10AD4000004FA4EB020043E8000191F0000FF6D1A0
:10AD5000059404900391049B184607B05DF8044BDA
:10AD6000704700B583B0019001210198FFF751FFB2
:10AD70000346184603B05DF804FB00B583B00190AC
:10AD800001210198FFF75DFF0346184603B05DF807
:10AD900004FB00B583B0019000210198FFF769FF23
:10ADA0000346184603B05DF804FB000000B583B00D
:10ADB00001900B468DF80330019B002B03D108490D
:10ADC000E82009F04DFA019BDA689DF803300199FB
:10ADD000098A01FB03F31344184603B05DF804FB32
:10ADE0002453040000B583B001900091019B002B17
:10ADF00003D10849F52009F033FA009B019AD26883
:10AE00009B1A019A128AB3FBF2F3DBB2184603B025
:10AE10005DF804FB2453040000B585B00190019B4C
:10AE2000002B01D10E234CE0019B1B68002B03D1AA
:10AE30002649FF2009F014FA019B5B68002B04D11E
:10AE400022494FF4807009F00BFA019B9B68002B9C
:10AE500004D11E4940F2011009F002FA019BDB689F
:10AE6000002B04D119494FF4817009F0F9F9019BC5
:10AE70001B8A002B04D1154940F2031009F0F0F9A8
:10AE8000019B9A68019B5B68D31A8DF80F30019B78
:10AE90001B68019A52681A6007E0019B1A681368E0
:10AEA000591C11609DF80F201A709DF80F305A1E22
:10AEB0008DF80F20002BF0D1019B1B6800221A7126
:10AEC0000023184605B05DF804FB00BF24530400BE
:10AED00000B585B00190019B002B04D11F494FF4B0
:10AEE000927009F0BDF90023039300238DF80A3016
:10AEF0000DF10A031846FDF7B9F8019B1B681A68A3
:10AF0000019B5B689A421FD9019B1B681A68013A32
:10AF10001A601B681B7819460198FFF747FF0390DA
:10AF2000019B9A68019B1B681B68D31A8DF80B3034
:10AF3000019B1B681B799DF80B209A4204D9019B49
:10AF40001B689DF80B201A719DF80A301846FDF712
:10AF5000A3F8039B184605B05DF804FB24530400D6
:10AF600010B584B001900091019B002B04D11549CC
:10AF700040F2471009F074F9009B002B04D11149ED
:10AF80004FF4A47009F06CF9009B039300238DF833
:10AF90000B300DF10B031846FDF768F8019B1B6899
:10AFA0001C68621C1A6003990198FFF71BFF034697
:10AFB00023709DF80B301846FDF76EF800BF04B003
:10AFC00010BD00BF2453040000B583B00190019B65
:10AFD000002B03D10C49312009F042F9019B9B68F9
:10AFE000002B0CD0019B5B69019A1069019A1168D2
:10AFF000019A92689847019B00229A6000E000BF86
:10B0000003B05DF804FB00BF985304000EB400B514
:10B0100084B00190019B002B03D11849422009F014
:10B020001FF9019B5B69002B03D11449432009F0F0
:10B0300017F9019B1B68002B03D11049442009F02C
:10B040000FF9019B5B68002B03D10C49452009F0E7
:10B0500007F9059B002B0AD00023039306AB03934B
:10B0600003AB1A460599019800F0B0F900E000BF63
:10B0700004B05DF804EB03B0704700BF98530400C0
:10B0800000B583B001900B468DF80330019B1A6820
:10B09000019B9B68581C0199886013449DF803200C
:10B0A0001A70019B9A68019B5B689A4202D30198CF
:10B0B000FFF78AFF00BF03B05DF804FB00B587B05F
:10B0C000039002910192009300230593009B03F0EB
:10B0D0000103002B24D00BE0029B01330293059B5C
:10B0E000013305939DF8133019460398FFF7C8FF05
:10B0F000029B1B788DF813309DF81330002BEBD199
:10B1000006E0019B013B019320210398FFF7B8FF64
:10B11000019A059B9A422ED9019B002BF1D12AE07E
:10B12000029B002B0BD0029816F005FE059006E05E
:10B13000019B013B019320210398FFF7A1FF019A96
:10B14000059B9A420FD9019B002BF1D10BE0029B8A
:10B1500001330293059B013305939DF81330194683
:10B160000398FFF78DFF029B1B788DF813309DF835
:10B170001330002BEBD100BF07B05DF804FB0000DB
:10B1800000B589B00390029101920093029B07934E
:10B190000123069307E0079A019BB2FBF3F30793A1
:10B1A000069B01330693079A019B9A42F3D2009AB9
:10B1B000069B9A4201D9009B06930B9B03F0010367
:10B1C000002B22D10A9B002B1FD00B9B03F0020304
:10B1D000002B06D0009B002B03D130238DF81730B5
:10B1E00002E020238DF8173008E00A9B013B0A9308
:10B1F0009DF8173019460398FFF742FF0A9B002B72
:10B2000003D0069A0A9B9A42EFD301230793009B2F
:10B21000012B03D9009B013B009309E0029A079B95
:10B22000B2FBF3F30493049A019B9A4200D205E027
:10B23000079B019A02FB03F30793E8E7029A079B37
:10B24000B2FBF3F30493049B079A02FB03F3029A05
:10B25000D31A0293154A049B13441B78194603988A
:10B26000FFF70EFF079A019BB2FBF3F30793079BCF
:10B27000002BE3D10B9B03F00103002B11D00A9BA1
:10B28000002B0ED006E00A9B013B0A932021039875
:10B29000FFF7F6FE0A9B002B03D0069A0A9B9A4200
:10B2A000F1D300BF09B05DF804FB00BF8454040073
:10B2B00000B589B00590049103920293049B002B82
:10B2C000B8BF5B4206930123079307E0039B069AEE
:10B2D00092FBF3F30693079B01330793039B069AB4
:10B2E0009A42F3DA029A079B9A4201D9029B07938A
:10B2F0000A9B002B0AD0049B002B04DB0B9B03F062
:10B300000403002B02D00A9B013B0A930B9B03F022
:10B310000203002B02D0029B002B16D00B9B03F0E4
:10B320000103002B11D10A9B002B0ED006E00A9BD3
:10B33000013B0A9320210598FFF7A2FE0A9B002BF0
:10B3400003D0079A0A9B9A42F1D3049B002B07DA99
:10B35000049B5B4204932D210598FFF791FE08E0C2
:10B360000B9B03F00403002B03D02B210598FFF760
:10B3700087FE0B9B03F00203002B19D00B9B03F0FD
:10B380000103002B14D1029B002B11D10A9B002B2F
:10B390000ED006E00A9B013B0A9330210598FFF787
:10B3A0006FFE0A9B002B03D0079A0A9B9A42F1D3A7
:10B3B00004990B9B01930A9B0093029B039A0598A7
:10B3C000FFF7DEFE00BF09B05DF804FB00B58FB0EB
:10B3D000059004910392059B002B04D1B64940F2DD
:10B3E000522008F03DFF059B5B69002B04D1B24958
:10B3F0004FF4157008F034FF059B1B68002B04D137
:10B40000AD4940F2552008F02BFF059B5B68002BEF
:10B4100004D1A94940F2562008F022FF049B002BDA
:10B4200000F09381049B1B788DF83730049B013327
:10B4300004939DF83730002B00F07E819DF8373063
:10B44000252B40F06D8100230A9301230C93049B6C
:10B450001B788DF837309DF83730302B0DD0302BDE
:10B460001BDC2B2B11D02D2B17D10A9B43F0010392
:10B470000A93049B0133049312E00A9B43F00203F6
:10B480000A93049B013304930AE00A9B43F00403EC
:10B490000A93049B0133049302E000230C9300BF42
:10B4A0000C9B002BD3D1002309939DF837302A2B16
:10B4B0000CD1039B1B68191D039A11601B68099A24
:10B4C00013440993049B013304931AE0049B1B78F3
:10B4D0008DF837309DF837302F2B12D99DF8373043
:10B4E000392B0ED8049B01330493099A13469B0011
:10B4F00013445B001A469DF837301344303B0993E0
:10B50000D3E700230B93049B1B788DF837309DF80D
:10B5100037302E2B1DD1049B01330493049B1B78E1
:10B520008DF837309DF837302F2B12D99DF83730F2
:10B53000392B0ED8049B013304930B9A13469B00BE
:10B5400013445B001A469DF837301344303B0B938D
:10B55000E4E7049B1B788DF837309DF837306C2B6F
:10B5600003D09DF83730682B07D1049B0133049337
:10B57000049B1B788DF83730EFE79DF83730252B8B
:10B5800000F0C480252BC0F2C680782B00F3C38066
:10B59000582BC0F2C080583B202B00F2BC8001A287
:10B5A00052F823F093B6020017B7020017B7020053
:10B5B00017B7020017B7020017B7020017B702004B
:10B5C00017B7020017B7020017B7020017B702003B
:10B5D00029B602004BB6020017B7020017B70200E7
:10B5E00017B7020017B702004BB6020017B70200E8
:10B5F00017B7020017B7020017B7020017B702000B
:10B6000017B70200D9B6020017B7020017B7020039
:10B61000BDB6020017B702006FB6020017B70200EE
:10B6200017B7020093B60200039B1B68191D039A0B
:10B6300011601B680C930C9B8DF81F309DF81F3018
:10B6400019460598FFF71CFD66E0039B1B68191D52
:10B65000039A11601B680C930A9B0193099B00934A
:10B660000B9B0A220C990598FFF722FE54E0039BDE
:10B670001B68191D039A11601B680C930C990A9B97
:10B680000193099B00930B9B0A220598FFF778FD15
:10B6900042E0039B1B68191D039A11601B680C9301
:10B6A0000C990A9B0193099B00930B9B1022059810
:10B6B000FFF766FD30E000BF0C540400039B1B68DD
:10B6C000191D039A11601B6808930A9B099A08992F
:10B6D0000598FFF7F3FC1FE0039B1B68191D039AF5
:10B6E00011601B680C9330210598FFF7C9FC782185
:10B6F0000598FFF7C5FC0C990023019308230093DC
:10B70000082310220598FFF73BFD05E02521059849
:10B71000FFF7B6FC00E000BF049B0133049305E093
:10B720009DF8373019460598FFF7AAFC049B1B7853
:10B73000002B7FF477AE00E000BF059B1B7B002B46
:10B7400004D00598FFF740FC00E000BF0FB05DF8A3
:10B7500004FB00BF00B587B0059004910392059BE0
:10B76000002B10D1194A1A4BD31ADB081B0443F0E3
:10B770000100184A18490E2300930B46174906F09A
:10B78000A4F80E231DE0049B002B10D10F4A104B90
:10B79000D31ADB081B0443F00100114A0E490E23A3
:10B7A00000930B460D4906F090F80E2309E0059B27
:10B7B000049A1A60059B1B681B68039905989847B3
:10B7C0000346184607B05DF804FB00BFD44D0400E3
:10B7D0004C4D0400A454040048560400AC5404002A
:10B7E000D854040010B586B00590049103920293DA
:10B7F000059B002B10D1604A604BD31ADB081B0459
:10B8000043F001005E4A5F490E2300930B465E49F8
:10B8100006F05BF80E23ABE0039B002B10D1564AD9
:10B82000564BD31ADB081B0443F00100574A554915
:10B830000E2300930B46544906F047F80E2397E079
:10B84000059B1B68002B10D14B4A4C4BD31ADB08CD
:10B850001B0443F001004E4A4A49082300930B465B
:10B86000494906F032F8082382E0029B002B10D1F0
:10B87000414A424BD31ADB081B0443F00100454AFE
:10B880004049092300930B463F4906F01EF809235F
:10B890006EE0059B5B685A68029BB3FBF2F102FB0A
:10B8A00001F29B1A002B10D0334A344BD31ADB0819
:10B8B0001B0443F00100384A3249092300930B4628
:10B8C000314906F002F8092352E0049800F062F9C9
:10B8D0000346002B10D1284A284BD31ADB081B043F
:10B8E00043F001002D4A2749102300930B462649B7
:10B8F00005F0EBFF10233BE0039B184600F04AF9EC
:10B900000346002B10D11C4A1C4BD31ADB081B0426
:10B9100043F00100224A1B49102300930B461A49A9
:10B9200005F0D3FF102323E0029A0499059800F054
:10B9300017F90346002B10D10F4A104BD31ADB081E
:10B940001B0443F00100174A0E49102300930B46D5
:10B950000D4905F0BAFF10230AE0059B1B68DC685F
:10B96000089B0093029B039A04990598A0470346FD
:10B97000184606B010BD00BFD44D04004C4D040065
:10B98000A45404005C560400AC5404003855040070
:10B99000E0540400F4540400405504006C550400C5
:10B9A00084550400A855040010B586B00590049194
:10B9B00003920293059B002B10D13E4A3E4BD31AB3
:10B9C000DB081B0443F001003C4A3D490E23009371
:10B9D0000B463C4905F079FF0E2368E0059B1B6888
:10B9E000002B10D1334A344BD31ADB081B0443F02D
:10B9F0000100354A3249082300930B46314905F0CE
:10BA000064FF082353E0039B002B10D1294A2A4BE3
:10BA1000D31ADB081B0443F001002C4A28490923F0
:10BA200000930B46274905F050FF09233FE0049996
:10BA3000059800F0BCF80346002B10D11D4A1E4BA0
:10BA4000D31ADB081B0443F00100214A1C491023D0
:10BA500000930B461B4905F038FF102327E0059B98
:10BA60005B681B68039A02FB03F31A460499059866
:10BA700000F076F80346002B10D10E4A0E4BD31A75
:10BA8000DB081B0443F00100124A0D491023009308
:10BA90000B460C4905F019FF102308E0059B1B68B5
:10BAA0001C69029B039A04990598A047034618460F
:10BAB00006B010BDD44D04004C4D0400A454040045
:10BAC00070560400AC540400E0540400F454040024
:10BAD000D0550400F855040000B585B00190019BD5
