:020000022000DC
:1060000000000120756302005D630200D91C0300DB
:106010006163020063630200656302000000000028
:1060200000000000000000000000000067630200A4
:1060300069630200000000006B6302006D630200F0
:1060400075A902006F63020085B0020059B3020017
:106050006F6302006F6302009DAF02006F63020076
:106060006F630200E1B902006F6302006F63020018
:106070006F63020061B202006F6302006F6302008F
:106080006F630200B17602006F6302006F6302006B
:10609000D97602006F630200757C03006F63020013
:1060A0006F6302006F6302006F6302006F630200A0
:1060B0006F6302006F630200000000000000000038
:1060C0006F6302006F6302006F6302006F63020080
:1060D00019BC02006F6302006F6302000000000041
:1060E00000000000000000000000000000000000B0
:1060F00000000000000000000000000000000000A0
:10610000000000000000000000000000000000008F
:10611000000000000000000000000000000000007F
:10612000000000000000000000000000000000006F
:10613000000000000000000000000000000000005F
:10614000000000000000000000000000000000004F
:10615000000000000000000000000000000000003F
:10616000000000000000000000000000000000002F
:10617000000000000000000000000000000000001F
:10618000000000000000000000000000000000000F
:1061900000000000000000000000000000000000FF
:1061A00000000000000000000000000000000000EF
:1061B00000000000000000000000000000000000DF
:1061C00000000000000000000000000000000000CF
:1061D00000000000000000000000000000000000BF
:1061E00000000000000000000000000000000000AF
:1061F000000000000000000000000000000000009F
:10620000354936480A1A02D0072291438D4634494F
:1062100034480A1A06D00722914381F309880222E2
:1062200082F3148830483149314A00F044F831484B
:106230003149324A00F03FF831483249324A00F0E1
:106240003AF832483249334A00F035F83248334997
:10625000334A00F030F833483349344A00F02BF821
:1062600033483449344A00F026F83448344900228F
:1062700000F02CF833483449002200F027F8334866
:106280003349091A082902DB002202604160314AC1
:1062900090471F481F49884205D00268043003B464
:1062A000904703BCF7E700208646EC46002000211B
:1062B000294A9047FEE7884207D0521A05D0037852
:1062C00001300B700131013AF9D17047884202D098
:1062D00002700130FAE7704700000120F0D800207A
:1062E0000000012000000120D81D040054300020CF
:1062F000A4300020D0630200D063020048AD030048
:10630000D81D040054300020543000202CAF03006E
:106310002CAF03002CAF03002CAF03002CAF030005
:106320002CAF03002CAF03002CAF0300D81D0400DA
:10633000281E0400A4300020A4300020A430002037
:106340005D4D0020604D0020604D0020604D00201C
:10635000606D00209D630200A1F10200FEE7FEE7F0
:10636000FEE7FEE7FEE7FEE7FEE7FEE7FEE7FEE705
:1063700000F002B8FFF7FCBF0F484FF00701884359
:1063800085460E4880470E48016841F4700101605F
:10639000BFF34F8FBFF36F8FFFF732BF09480A4932
:1063A0000A4A884207D0521A05D0037801300B7090
:1063B0000131013AF9D1704700000120A11A030010
:1063C00088ED00E018AF030040300020543000207A
:1063D00008B5022005F00EFD08BD000010B5084B01
:1063E0001B7853B1002400E00134032C07D8022CA1
:1063F000FAD0204605F098FCF6E705F0BFFC10BD8A
:10640000A530002038B50446BF4B1B78E3B9172CE4
:1064100000F28481DFE814F01E00280028005400F8
:106420008000A300CE00DB00E200EF00FC000901C9
:1064300016011C011C011C011C011C014D01530112
:106440005C01650171017101AF4B00221A70FFF709
:10645000C5FFDCE7FFF7C2FFAC4801F0A9F905462C
:10646000AB4B1C70284638BD002005F005FCE8B198
:10647000002005F059FC022C15D04FF47A63A44A91
:1064800014700024590CD8034FF47A72002310F5CD
:10649000FA70614111F038FE014622469B4801F036
:1064A00065F90546DEE74FF4E163E8E7002005F013
:1064B00011FC022C02D04FF4C873E0E7C823DEE7DA
:1064C000002005F0D9FBE8B1002005F02DFC032CDD
:1064D00015D04FF47A638E4A14700024590CD803F7
:1064E0004FF47A72002310F5FA70614111F00CFE3E
:1064F00001462246854801F039F90546B2E74FF4D6
:106500004873E8E7002005F0E5FB032C02D04FF4C8
:10651000C873E0E7C823DEE7002005F0ADFBC0B19B
:10652000002005F001FC4FF47A63794A14700024CE
:10653000590CD8034FF47A72002310F5FA706141B8
:1065400011F0E2FD01462246704801F00FF90546C0
:1065500088E7002005F0BEFB4FF4C873E5E7002094
:1065600005F08AFBE0B1002005F0DEFB052C15D01C
:106570004FF47A63664A14700024590CD8034FF420
:106580007A72002310F5FA70614111F0BDFD0146E9
:1065900022465E4801F0EAF8054663E7C823E9E7CA
:1065A000002005F097FB052C02D04FF4C873E1E7FB
:1065B000C823DFE7002005F01DFC554B1C700022AE
:1065C00040F6CD41514801F0D1F805464AE7002098
:1065D00005F080FB4E4B1C70002543E701204A4B21
:1065E000187005F007FC002240F6CD41474801F045
:1065F000BDF8054636E70120434B187005F0FAFB5D
:1066000000224FF48041414801F0B0F8054629E7E7
:1066100001203D4B187005F0EDFB002240F6CD4106
:106620003A4801F0A3F805461CE70120364B1870E4
:1066300005F0E0FB00224FF48041344801F096F869
:1066400005460FE705F0CCFB314B1C70002509E730
:10665000304801F0ADF80546D4F1110422D008BB52
:10666000012C06D8022005F035FB2B4B01221A70B5
:10667000F8E6A4B2C82303FB04F4E317D90341EA04
:106680005441E0034FF47A72002310F5FA7041F19F
:10669000000111F039FD014600221E4801F066F8A4
:1066A0000546DFE7022005F03FFB1B4B00221A7076
:1066B000D8E6FFF793FE164B1C700025D2E6FFF7D5
:1066C0008DFE002005F006FB114B1C700025C9E66D
:1066D000FFF784FE012005F0FDFA0D4B1C7000252C
:1066E000C0E6FFF77BFE002005F0F4FA012005F07C
:1066F000F1FA074B1C700025B4E605F071FB044B62
:106700001C700025AEE600BF18310020E8300020E4
:1067100020310020A8300020A53000200025A1E66F
:1067200008B5054B1B6813F0010F00D108BD034BE2
:106730001878FFF767FEF9E71431002020310020B8
:1067400070B506460D4605F0B5FB032805D804468E
:10675000012D03D0022D30D015B370BD1A4A00EBC5
:106760004003D118D55C4B787BB904EB4402164B3F
:1067700013449A78154B1A55002DEED0144B1B6814
:10678000002BEAD028469847E7E7124A4FF4004129
:10679000114800F0EBFF0028E7D10E4B1E70E4E734
:1067A0000D4801F005F8094B1A5D04EB4404064B53
:1067B0001C44A578AA42D0D1DEE700EB4004024B8E
:1067C0001C446578D8E700BF083100202431002040
:1067D0001C310020A4300020C830002008B5022160
:1067E0000078FFF7ADFF08BD032801D906207047E8
:1067F00038B5F1B1032505F06DFB044643091AD005
:10680000002304F01F02D34013F0010F16D04FF005
:10681000A04304F5E07053F8202022F4403243F8FE
:10682000202053F8202042EA054243F8202000208F
:1068300038BD0025DFE74FF0FF33E2E702494FF4B0
:10684000F67008F0B3FBE2E72CAF0300032801D990
:106850000020704708B505F0FFFA08BD08B50246EC
:10686000044B186810F0010000D108BD1046FFF776
:10687000C9FDFAE714310020032824D8012A06D0E4
:1068800001290CD0022910D0B1B10720704701298D
:1068900001D00022F4E700F10E02D2B2F0E700EBE3
:1068A00040000A4B1A540020704700EB4000074B91
:1068B000184442700020704700EB4000034B18441E
:1068C0008270002070470720704700BF0831002009
:1068D00070B50646224B1860224B196010F0020476
:1068E0001AD116F0010F26D1204670BD01221146A3
:1068F0002846FFF7C1FF04460135032D01D8002CBF
:10690000F4D064B19CB1002CEBD1174A0021174898
:1069100000F016FF0446E4E700252C46EDE740F2C0
:1069200066620421124800F04FFA0446EAE700F0DC
:10693000A3FA0446E7E7012005F0DCFA44B1002C95
:10694000D2D10C4A01210C4800F0FAFE0446CBE7F4
:106950000A4A00210A4800F0F3FE0446EFE700BFB0
:10696000143100201C310020DD67020080AF0300DD
:106970005CAF0300D16302007CAF0300216702001B
:1069800084AF030008B50121FFF72EFF08BD08B54D
:10699000012200210846FFF76FFF10B103460728C8
:1069A00012D1072202210120FFF766FF034608B13A
:1069B000072809D1042202210020FFF75DFF0346CA
:1069C00010B1072800D10023184608BD08B50122E0
:1069D00002210020FFF750FF10B10346072812D113
:1069E000072202210120FFF747FF034608B10728CD
:1069F00009D10A2200210846FFF73EFF034610B1E5
:106A0000072800D10023184608BD000008B50388F8
:106A1000102B02D0112B12D008BD114B1B6823B1D3
:106A20000F4A136801331360F6E7FFF7B0FF002841
:106A3000F6D00C4B1B68002BF2D09847F0E7084AC1
:106A40001368013B1360002BE6D1FFF7BFFF00285E
:106A5000E2D0044B1B68002BDED09847DCE700BF78
:106A60002C3100202831002010B504460120FFF70A
:106A7000EDFE10B10223237010BD0020FFF7E6FEEB
:106A800010B10B232370F7E700232370F4E708B558
:106A90000020FFF777FF10B10346062807D1012039
:106AA000FFF770FF034610B1062800D100231846F7
:106AB00008BD000008B5074B186011B10846FFF784
:106AC000D3FF054B1B680BB1002008BDFFF77EFF0D
:106AD000FBE700BF283100202C31002008B507F06B
:106AE00053FC08BD08B50021084607F0FDFB08BDB2
:106AF00010F1360F09D058B110F1380F02D048F21A
:106B00001650704748F21150704748F214507047C1
:106B10000020704708B50846114603F065FE0020C6
:106B200008BD000010B582B0041D002003F0B2FDC6
:106B300008B102B010BD204607F0CFF80022009245
:106B400013460349204607F024F9FFF7D1FFF0E789
:106B5000156B020008B5043007F0C6F803F0CEFD4F
:106B6000002008BD08B5043007F0ACF9FFF7C0FFFE
:106B700008BD08B511461A46043007F0C2F8FFF701
:106B8000B7FF08BD4308054AD35C10F0010F01D0E0
:106B90001809704703F00F00704700BF60310020F4
:106BA00010B410F001020CD00F230AB10901C9B2D0
:106BB0004008054A145C2340194311545DF8044B06
:106BC0007047F023F1E700BF6031002008B50146AF
:106BD00000230A4A12789A4209DD094A126802EB38
:106BE000C30012F833208A4206D00133F1E7054989
:106BF000882008F0DBF9002008BD00BF30310020FC
:106C00007031002088AF030038B504460D46FFF709
:106C1000DDFF20B1436813B129462046984738BDAF
:106C200008B5044B196800224908034800F09EFD8E
:106C300008BD00BF343100203831002010B5C0B28B
:106C4000FFF7C4FF0446007804F076F96378012B5F
:106C500014BF00230123834200D010BD034BD3E9AE
:106C600000231343F9D1FFF7DBFFF6E7583100208B
:106C700030B583B004460D46FFF784FF04282ED8B4
:106C8000DFE800F003272F3E450045B301212046F1
:106C9000FFF786FF00238DF807300DF1070000F0A5
:106CA000B7FD0122A4F12003C4F1200102FA03F38D
:106CB00022FA01F10B4302FA04F42C490A684868ED
:106CC000144303430C604B609DF8070000F0D4FDB3
:106CD00005E005B1022529462046FFF761FF03B014
:106CE00030BD45B103212046FFF75AFF0121204660
:106CF000FFF78AFFF3E701212046FFF751FFEEE798
:106D0000002DECD104212046FFF74AFFE7E725B12B
:106D100003212046FFF744FFE1E700212046FFF76B
:106D20003FFF00212046FFF76FFF00238DF807305B
:106D30000DF1070000F06CFD0120A4F12003C4F167
:106D4000200200FA03F320FA02F21343A040074A9C
:106D50001468516824EA000021EA030310605360BC
:106D60009DF8070000F088FDB9E700BF583100200A
:106D700070B50024114B1B78A34216DD104B1D6823
:106D800005EBC40615F8340004F0D6F87378012B2F
:106D900014BF00230123834214BF0021012115F8F1
:106DA0003400FFF765FF0134E4E7064BD3E9002325
:106DB000134300D170BDFFF733FFFBE730310020F4
:106DC0007031002058310020092A41D970B582B0B5
:106DD00006460D46144603F057FF18B903F004FFAA
:106DE000034690BB1C4B1E601C4B1D701C4B1C6053
:106DF000102200211B4811F0A8FA1B4B0020002193
:106E0000C3E900016C1EE4B2CDB106EBC40203235A
:106E10008DF804309DF8063003F0FC036FF3820315
:106E20008DF8063093788DF80530104A01A916F8D0
:106E3000340003F033FF034638B92546E2E70C4A35
:106E400000210C4800F07CFC0346184602B070BDDF
:106E500007231846704700BF7031002030310020F2
:106E60003431002060310020583100203D6C020098
:106E7000716D020008B0030010B50C4B1B686BB1BC
:106E800000240B4B1B78A3420ED9084B1B68012131
:106E900013F8340003F0AAFF0134F2E7054940F289
:106EA000351008F083F8EBE7002010BD70310020AA
:106EB0003031002088AF030082B001238DF8073005
:106EC0009DF80730134B186059609A6044F2010333
:106ED000984213D044F20203984207D10D4BDA6076
:106EE000DA6812689A61DA685268DA6172B69DF8F7
:106EF0000730002BFBD162B602B07047054B1A6118
:106F00001A6992685A611A6912689A611A69526814
:106F1000DA61EBE77431002000B583B00290009194
:106F2000019244F2010071466A4600F003F803B092
:106F300000BD00002DE9F04184B004460E46154620
:106F400072B605F06FFE05F0B1F90028FBD144F2EE
:106F500001039C423AD010D8012C1FD041F201030A
:106F60009C424FD12D482E4BC01AC00800042D4919
:106F700040F0010005F0D8FA1AE044F202039C4206
:106F800040D12648264BC01AC00800042B686A6806
:106F9000254940F0010005F0D1FB09E01F48204BD6
:106FA000C01AC0080004214940F0010005F0BCFAF5
:106FB0001F4B1B6813F0010F00D000BE2A4631465C
:106FC0002046FFF779FF04B0BDE8F081134F144B62
:106FD000FF1AFF083F0447F00107D5F80880404634
:106FE00003F0A6F903466A682968029601910092A7
:106FF00042461049384605F05DFD0F49384605F018
:1070000093FAD5E70548064BC01AC008000432467B
:107010000A4940F0010005F003FBC9E748AE030050
:1070200000AE03002CB0030050B003000CB003000E
:10703000F0ED00E06CB0030094B00300A8B00300D2
:107040002D4B1B888B4201D2092070472DE9F0415E
:1070500082B005460C46164600238DF807300DF128
:10706000070000F0D5FB254B1A78D2B2244B1978D3
:10707000CBB224480088814224D20133DBB29A4249
:1070800024D01F4B1F781A78D3B290421CD90133F9
:10709000DBB21B4A13709DF8070000F0EDFB4FF6C2
:1070A000FF739F4226D04FEAC708174B1B6803EBBC
:1070B000C70243F8376005B15CB90020908002B088
:1070C000BDE8F0810023DAE70023E2E74FF6FF771F
:1070D000E1E70E4B1B68084A10882246294607FB49
:1070E000003011F009F9084B1B689844A8F80440D7
:1070F0000020E4E70420E2E7A0310020A4310020D2
:1071000094310020A23100209C31002098310020D1
:10711000034BC3F80805034BC02283F811237047C3
:107120000010014000E100E010B50B4B4FF480323D
:10713000C3F84423C3F80423084A4FF40031C2F8CB
:107140008011116001241C604FF43C60044B234308
:107150009847044B1C7010BD0010014000E100E096
:10716000C0B00300B532002070B5104B4FF40032B0
:10717000C3F88020BFF34F8FBFF36F8F0C4D4FF4D8
:107180008033C5F84833C5F8083301266E60094CD2
:1071900034434FF43C60A047AE600025064B1D60B1
:1071A0004FF43C60A047054B1D7070BD00E100E04E
:1071B00000100140C0B00300C4320020B5320020EE
:1071C00010B4114B1C685CB1026823689A4218D84D
:1071D0009A1A2260C4610C4B18605DF8044B70472A
:1071E0001860FAE7521A1C46DB6913B1196891421C
:1071F000F8D313B11968891A19600260C361E0619C
:10720000EBE72346F1E700BFC832002070B5184B0A
:107210001E683446354624B1844202D02546E469CE
:10722000F9E714B3A5420CD02168E369EB6113B10F
:107230001A680A441A600E4B1868801B18BF012098
:1072400070BDF3690A4A1360002BEDD10123094A8E
:107250009360094A00211160084A13704FF43C60A2
:10726000074B43F001039847DEE70020E8E700BF43
:10727000C832002000100140C4320020B432002087
:10728000C0B00300024B4FF40032C3F80021704736
:1072900000E100E0024B4FF48012C3F80021704778
:1072A00000E100E008B543698069984708BD000027
:1072B0001B4B1868002832D070B51A4BD3F8044520
:1072C000194B1B68E41A24F07F44002504E00023D6
:1072D0000374FFF7E7FF304648B10368A34206D8BE
:1072E000E41A1D44C669037C002BF4D0EFE70F4B72
:1072F0001A780F4B1B789A4207D00D4B1A780D4B1A
:1073000043F82250FFF7C6FF70BD0133DBB2084AD5
:107310001370022BF1D1134600221A70EDE770476B
:10732000C832002000100140C4320020C0320020CA
:10733000C1320020B8320020104B1B78104A12785E
:10734000934217D00133DBB20C4A1370022B0DD0DD
:107350000A4B1A780B4B53F8223003600A4A116823
:107360000B4423F07F431360012070471346002233
:107370001A70EDE70023036018467047C032002002
:10738000C1320020B8320020C432002070B4002581
:107390000E4B1B68BBB11C68844212D8001B2544ED
:1073A00000241C60DE69094C2660DC68002CEFD0EC
:1073B0006E1826F07F465E609C601468DC61136086
:1073C000E6E7241A1C6070BC704700BFC83200207A
:1073D000F8B50546404B1F68002658E03F4A117833
:1073E0004B1CDBB213709278934227D001EB410320
:1073F0003A4A02EBC3039C681B79022B22D0032B71
:107400002FD0012B43D1237C002B40D1334A01EBF9
:10741000410302EBC303D86860601869A0605B6930
:10742000E36001EB410102EBC1018B69A3612C4BCD
:107430001B78002B30D0002363602DE0274B002207
:107440001A70D3E72046FFF7E1FE034600B9334642
:10745000002222741E461AE000221A74DA691E4BBA
:107460001A601D4B1B68002BF6D110E0521A22F057
:107470007F42A36893421CD99A1A2260002363605A
:10748000A36001222274E3612046FFF799FE9DB1BB
:10749000002DA3D02C46ED696168124B1A688B1A37
:1074A00023F07F4310488342E0D8A268134423604E
:1074B000E4E700232360E1E7084B1A785B789A42FF
:1074C000E6D12EB9044B1B68BB4203D0012000E07B
:1074D0000120F8BD0020FCE7C8320020A8310020C0
:1074E000B4320020C4320020FEFF7F00F8B51C4BF0
:1074F0001B688BB31F681B4BD3F804551A4B1C68D1
:107500002E1B26F07F460336184B1B780BB3B74271
:107510002CBFE419A41924F07F44124BC3F8404552
:10752000D3F804355B1B23F07F430333641B24F043
:107530007F44A3420CD90B4BD3F80425C3F8402554
:107540004FF43C600A4B43F001039847FFF79AFE63
:10755000F8BDFFF7E9FDDAE7FFF706FEF8E700BF41
:10756000C832002000100140C4320020B532002093
:10757000C0B0030070B582B0002301930D4B1E68AC
:107580000D4B1D686846FFF7D7FE044660B90198A9
:10759000FFF71EFF00B914B12846FFF7A7FF074BFE
:1075A00000221A7002B070BD01AA31460098FFF7A0
:1075B000EDFEECE7C4320020C8320020B4320020D7
:1075C000014B5870704700BFA83100200B4A537818
:1075D0000133DBB292789A420CD0084A12789A4270
:1075E0000AD003700548437803EB430300EBC30064
:1075F000043070470023F0E700207047A8310020D6
:107600002DE9F04182B007460E4690461D46002403
:107610008DF806400DF1060000F0FAF80DF10700B4
:10762000FFF7D4FFC0B10123037047600D4BD3F8BF
:1076300004358360C660C0F8108045619DF807007E
:10764000FFF7BEFF00249DF8060000F015F92CB1ED
:10765000204602B0BDE8F0810424F4E7FFF71AFEEB
:10766000F6E700BF0010014030B583B004460D4678
:1076700000238DF806300DF1060000F0C9F80DF179
:107680000700FFF7A3FF70B1057044609DF8070085
:10769000FFF796FF00249DF8060000F0EDF824B1F6
:1076A000204603B030BD0424F5E7FFF7F3FDF7E70C
:1076B00008B5084B0022C3F84021C3F84421C3F8A1
:1076C0004821C3F84C21C3F80021C3F80421FFF777
:1076D000EFFD08BD0010014008B5FFF74BFF08BDE6
:1076E00010B5FFF741FD0F4B00241C705C700B229E
:1076F0009A700D4B1C600D4B1C700D4B1C700D4B8C
:107700004FF48012C3F88021C02183F814131A604B
:107710002046FFF7FDFC084BD3F80425074B1A6001
:10772000204610BDA8310020C8320020C032002001
:10773000C132002000E100E000100140C43200200E
:10774000094B9B7843B14AB150B10368187C48B9E2
:10775000187459745A6170470820704707207047A1
:107760000720704708207047A831002013460E4AB2
:10777000927882B188B110B54C1F0C4A94420ED851
:10778000426972B1427C012A03D00022FFF738FF20
:1077900010BD0A46FAE70820704708207047072006
:1077A000F6E70820F4E700BFA8310020FAFFFF0049
:1077B00008B5094B9B7843B148B143694BB10023ED
:1077C00003740221FFF750FF08BD0820FCE70820E2
:1077D000FAE70820F8E700BFA8310020014BD3F8F2
:1077E0000405704700100140401A20F07F407047A8
:1077F000EFF30583C3F308033BB9EFF3148313F0EE
:10780000010F0CBF012000207047012070470000CD
:1078100038B50446FFF7ECFF01281CD1EFF31082C6
:1078200072B6114B9B68DBB90F4901238B600F4B7C
:10783000D3F880000E4D28400860C3F88050D3F87C
:10784000840048604FF0FF31C3F884100023237098
:1078500002B962B638BD0749432007F0A7FBDDE750
:1078600001232370F4E700BFCC32002000E100E0E8
:10787000FC06FFBDC8B0030010B50446FFF7B8FF13
:10788000012811D10B4B9B686BB164B9EFF31081E8
:1078900072B6084B1868084A106058685060002299
:1078A0009A6001B962B610BD0449512007F07EFB11
:1078B000E8E700BFCC32002000E100E0C8B00300E0
:1078C00038B50546002400E00134032C07D8044BEA
:1078D00053F82430002BF7D028469847F4E738BDFA
:1078E000E43200200378013B052B34D8DFE803F0B5
:1078F00003061120293100230B70704701230B7000
:1079000003898B818388CB81C3688B6000230B74D0
:10791000704702230B7003898B818388CB81C368F6
:107920008B60837D062B14BF002301230B747047EB
:1079300003230B70C3888B810389CB81C3688B6061
:10794000704704230B70C3888B810023CB818B602D
:10795000704705230B707047884207D20368B3F164
:10796000FF3F01D001207047002070470020704782
:107970004388033300EB8300704738B504460D4657
:10798000FFF7F6FF85420CD3A2884FF6FF739A42A9
:1079900009D023884BB1A368B3F1FF3F07D0002083
:1079A00038BD0220FCE70120FAE70120F8E70120BA
:1079B000F6E7000060B10A4AD26882420AD8084A53
:1079C0001269824208D310F0030F07D101207047DB
:1079D000002070470020704700207047002070474B
:1079E0004030002060B10168094A91420AD14368E1
:1079F000084A934208D00132934207D101207047D0
:107A00000320704703207047002070470320704711
:107A1000DEC0ADDEFE011EF10368B3F1FF3F04D00E
:107A20000A4A93420ED1012300E00123B3F5806F8F
:107A300006D250F82320B2F1FF3F05D10133F5E71C
:107A4000012070470020704700207047DEC0ADDE87
:107A500010B4094A00EB800402EB840423890B4430
:107A6000608910FA83F080B2B0F5806F8CBF00207F
:107A700001205DF8044B7047183300200023012BD0
:107A800019D810B403E001339BB2012B0ED803EBDD
:107A900083020A4C04EB820252688A42F3D202F556
:107AA00080528A42EFD90380002001E048F2096049
:107AB0005DF8044B704748F20960704718330020A6
:107AC000F8B50D46174600F5805600F1080402236C
:107AD0000B800DE00FB101223A70022B1CD063889D
:107AE0002A88134403332B802046FFF741FF0446C6
:107AF00031462046FFF730FF88B131462046FFF778
:107B00003CFF03460028E5D1A368054A126893426A
:107B1000E5D9034A1360E2E74FF480632B80F8BD98
:107B2000103300208B7D022B04D9CB8802891344AB
:107B300003330381CA8843899B1A033B43817047FF
:107B4000F8B5033086B240F2FE339E4221D80D468E
:107B5000002401E00134A4B2012C17D804EB840303
:107B60000D4A12F82330002BF4D131462046FFF79E
:107B70006FFF0028EED02C80074B04EB840203EB50
:107B80008202508930445081002001E048F20660B2
:107B9000F8BD48F20860FBE71833002010B4064A2D
:107BA00001EB810402EB840463891B1A033B6381AC
:107BB0005DF8044B704700BF18330020F8B50E463F
:107BC00000EB8000134B03EB8000446804F5805504
:107BD0000868A0B1FFF7CCFE044629462046FFF70F
:107BE000BBFE074698B129462046FFF7C6FE01288E
:107BF00007D002280AD00028EFD1346007E008340B
:107C0000EBE72046FFF7B4FE0446E6E700273846D8
:107C1000F8BD00BF1833002070B582B006460D468F
:107C20004068FFF7C7FE20B13289174B1B899A4283
:107C300018D000232B802B88012B23D800230193FD
:107C400001A92888FFF7BAFF0146B8B1019B9C68DB
:107C500032689442F4D173600B4B1B893381084620
:107C600002B070BD326871688B689A42E1D12846D3
:107C7000FFF704FFB0FA80F14909F0E72B880133E0
:107C80002B80D8E70021EAE7FC320020F8B51C463B
:107C90001F4B1B78002B34D005460F461646002A92
:107CA00032D03CB948F2046027E000232360A38867
:107CB0000133A380A388012B20D803EB8303154A4B
:107CC00012F82330002BF2D12146A088FFF776FF6F
:107CD0000028EAD023681DB199882A889142F3D1FF
:107CE0001FB119883A889142EED19B6833602368AE
:107CF0007360094B1B8933810020F8BD48F209608D
:107D0000FBE748F20160F8E748F20460F5E700BFDE
:107D1000F432002018330020FC3200202DE9F0411D
:107D2000884617461E4600EB80001D4B03EB800083
:107D3000456805F1080405F5805529462046FFF7FA
:107D40000BFE58B329462046FFF717FE01280DD039
:107D5000022818D00028F0D1B8F800300133A8F874
:107D600000302046FFF704FE0446E6E73B88013377
:107D70003B80638832881344033333802046FFF707
:107D8000F7FD0446D9E73B8801333B802C1B35883F
:107D900005EBA4043480069B01221A70BDE8F08133
:107DA000183300202DE9F0470024A1464FF00308C6
:107DB0002546274653E03046FFF72EFEC8B1424A1B
:107DC000126882B1414B05EB850103EB8100022271
:107DD00003F82120466002813D4B5D800135ADB244
:107DE00047F0010739E0384A166002219180814648
:107DF000F6E708F1FF381FFA88F8344A05EB8503E7
:107E000002EB83035E6005EB8503032102F8231078
:107E10000135ADB221E0B9F1000F0FD02B4B05EBCE
:107E2000850103EB8100022203F82120264909681D
:107E300041600281264B5D800135ADB2DFF888A03C
:107E4000514641F8046B00223046FFF739FEBAF87C
:107E50000430022B2DD008231F430134A4B2022C7E
:107E600029D81C4BDE6806EB04363046FFF7BAFD16
:107E70000128D0D003289ED00028EED1134905EB6D
:107E800085039A0001EB8303002088545E6005EBB4
:107E900085029200103205EB85039B0008330A44EB
:107EA00019443046FFF70CFE47F002070135ADB22A
:107EB000D3E70423D0E7B8F1010F02D9F8B2BDE847
:107EC000F0870027FAE700BFE033002018330020D6
:107ED000FC320020403000200B4A1389013313810B
:107EE0000023538013730CE003EB83018A000749DE
:107EF0008A5CB2FA82F25209034919448A72013348
:107F00009BB2012BF0D97047FC32002018330020BF
:107F100030B40546002301E001339BB2012B19D890
:107F20000E4A1A44927A002AF6D00C4A1A440021CA
:107F3000917203EB83020A4901EB8202D268002AA4
:107F4000EAD103EB830401EB8404207C0028E3D016
:107F50002B8000E0002030BC704700BFFC320020C6
:107F600018330020044B5B685B880333034A918815
:107F700011FA83F393807047FC320020E033002035
:107F800030B40C4805680C4B5B880C4903EB830448
:107F9000A2000A4454680460556084881481022257
:107FA000828003EB830303FA02F2114400230B7473
:107FB00030BC7047E0330020FC3200201833002032
:107FC00008B5124B1B78072B0AD8DFE803F0040929
:107FD000090A1016161AFFF77FFF0C4B01221A70C0
:107FE00008BDFFF7BFFF094B02221A70F8E7FFF741
:107FF000C7FF064B06221A70F2E7044B07221A70DD
:10800000EEE7024B01221A70EAE700BFFC320020C3
:1080100040F6F8731868B0F1FF3F07D04FF0805377
:108020001A695B69B0F1FF3F03D07047024B1868D3
:10803000F4E703FB02F0F8E71410001008B5FFF7AF
:10804000E7FF034B1861A0F54050D86008BD00BFA2
:108050004030002008B50146014800F011FF08BD7E
:10806000CC33002008B5064B05221A7005490223BF
:108070008B80002301220968034801F01DFC08BD24
:10808000FC320020E03300204030002008B50D4BCA
:108090005B8803EB83010C4A02EB8102D26872B960
:1080A000084A0421117003EB8303074901EB8301A4
:1080B000002301224968054801F0FEFB08BDFFF7D7
:1080C000D1FFFBE7FC3200201833002040300020B5
:1080D00000B583B0002300930823044A04490968CB
:1080E000044801F019FB03B05DF804FBB8B10300CC
:1080F000E03300204030002008B5044B07221A70FE
:1081000000225A60FFF7E4FF08BD00BFFC320020E8
:1081100000B583B00146002300930823034A0448B6
:1081200001F0FAFA03B05DF804FB00BFB0B1030040
:1081300040300020F8B530B90B79032B5FD8DFE869
:1081400003F0081E3944314B00225A604FF40640B8
:1081500005E001230B71FFF7BBFF00284FD1F8BDED
:108160000B4600EB800292000021995400EB800046
:1081700003EB80004068FFF7CBFF012310E00023F2
:10818000012B0AD8184603EB8302214911F822205B
:10819000022AE5D001339BB2F2E7002348F20E60D9
:1081A000002BDAD1194B01221A7000225A6041F6D5
:1081B0001D50D4E700230B71164902228A80012248
:1081C0000968154801F078FBC7E700250D71114CCF
:1081D0002068FFF79DFF114B5B8826680C4903EB75
:1081E000830201EB8202576827605660A6881681D9
:1081F0000222A28003EB83039340CD54ADE7034BEF
:1082000000225A6048F20D60A9E700BFF432002056
:1082100018330020E033002040300020FC320020E2
:1082200008B5064B06221A705B8803EB83039A009D
:10823000034B13445868FFF76BFF08BDFC32002066
:108240001833002000B583B0022383750023009308
:108250000423C218044801F05FFA10B903B05DF8B6
:1082600004FB48F20D60F9E74030002000B583B010
:10827000036973B10323837500230093042300F182
:108280000C020831054801F047FA20B903B05DF847
:1082900004FB0123EFE748F20D60F7E740300020D0
:1082A00000B583B001238375C388002200929B0030
:1082B00002690C31044801F02FFA10B903B05DF8DF
:1082C00004FB48F20D60F9E74030002000B583B0B0
:1082D0000378032B0ED00623837500230093042319
:1082E00000F108021944064801F016FA20B903B05B
:1082F0005DF804FB0523EFE748F20D60F7E700BFE8
:108300004030002010B582B00C46002300930423B7
:10831000084A0146084801F0FFF940B904EB84041B
:10832000064901EB84040123237402B010BD48F216
:108330000D60FAE7ACB10300403000201833002094
:1083400070B50C468B8A03EB83022D4E06EB82063A
:10835000A8B92B4A03EB830102EB8101496803EBC7
:10836000830302EB83031D8901EB8505A37D062BA7
:108370000BD8DFE803F0162E22280D343E003046DD
:10838000FFF7D0FB4FF4064515E048F20E650EE00E
:108390001C4800234360A36903601B49FFF73CFCB2
:1083A00050B329462046FFF74DFF05461DB1214633
:1083B0003046FFF7B7FB284670BD29462046FFF739
:1083C00055FF0546F2E729462046FFF769FF0546B7
:1083D000ECE729462046FFF779FF0546E6E7062346
:1083E000A375094B1988074B5868FFF78BFF0546A3
:1083F000DCE741F61D55DAE748F20965DBE700BF27
:1084000018330020D8320020EC33002010B584B09F
:108410000446002301930293C36800930DF10E01FB
:108420006846FFF7F9FB18B948F2096004B010BDBF
:1084300001988388E38003882381BDF80E10FFF73D
:1084400061FFF3E730B583B009484268094B19680A
:108450009C88538803339BB203250570002000904D
:108460009B0001EB8401044801F056F903B030BDD4
:10847000FC320020E03300204030002008B5064BDD
:10848000191D5888FFF79AFB10B1FFF7DBFF08BDF5
:10849000FFF7FCFDFBE700BFFC32002008B50748F2
:1084A000FFF736FD10B1FFF7E9FF08BD044B0022CE
:1084B0001A705A805A6041F61D50F6E7FE320020CD
:1084C000FC32002030BB08B5154B1B7B6BB1144B45
:1084D00000221A73124B1B78013B062B1DD8DFE8D4
:1084E00003F0070A0D101C131600FFF769FDF1E7F2
:1084F000FFF7D4FF08BDFFF7C1FFFBE7FFF7A2FFBF
:10850000F8E7FFF7C3FDF5E7FFF78AFEF2E7FFF7AD
:10851000F3FDEFE74FF40640704748F20E60E9E7DD
:10852000FC32002010B584B00B4B01AA00210630AC
:10853000FFF7ACFB40B9084B99880298FFF7E2FEC1
:108540000446204604B010BD04460822002102481B
:108550000FF0FBFEF5E700BFF0330020C8B908B507
:108560000B79012B0BD0022B16D013B148F20E6001
:1085700008BD02230B710846FFF748FFF8E70846DD
:10858000FFF7D0FF48F209639842F1D141F61D5040
:10859000EEE74FF40640704741F61D50E8E7000053
:1085A00008B50146014800F077FC08BDCC33002037
:1085B00008B5084B1B683BB10121064800F03CFDA3
:1085C000003818BF012008BD03494FF4247006F09D
:1085D000EDFCF1E7DC33002040B1030010B586B0BC
:1085E00004462BE02E48FFF735FD2E4B186029E09E
:1085F0002D4940F29E5006F0D9FC27E02046FFF7B7
:1086000099FD002849D00023019303930493059317
:1086100041F61D5398423ED00290224C01A9206899
:10862000FFF760F901A8FFF74BF9002323601C480E
:10863000FFF7B6FFFFF7BCFF78B30024194B1B68A8
:10864000002BCFD0174B1B68002BD1D0154B1968CE
:108650000B78013B052B1BD801A252F823F000BF79
:10866000FD8502007986020079860200818602007B
:1086700081860200898602002046FFF761FEC0E77E
:108680002046FFF76BFFBCE72046FFF71BFFB8E76C
:1086900048F20E60B7E70020BEE706B010BD00BF8D
:1086A0000C3300201433002040B1030008B54068AB
:1086B000FFF794FF08BD000008B50121014800F054
:1086C000ADFC08BD1033002008B5FFF7B7FC002251
:1086D0000249034800F0E8FF08BD00BFA8BB030043
:1086E0004030002008B51C238C220249024800F0CB
:1086F00092FB08BD40330020CC33002010B501466A
:10870000044800F0A6FB04461C2200210FF01DFEC9
:10871000204610BDCC33002008B50146014800F0CA
:10872000A4FB08BDCC33002008B50121034800F0AC
:1087300067FC00B108BDFFF751FFFBE7DC33002009
:108740002DE9F04383B00C463849097800295DD003
:1087500005469846002C5CD021884FF6FF7399425D
:108760005AD06388002B5AD0676817F0030759D195
:10877000002A33D01388ADF80630B2F8029068466C
:10878000FFF7BCFF0646002833D080F800800023A6
:108790008375BDF80630838263680361FFF78CFF41
:1087A000F060238833816388B380A6F80690B8F11F
:1087B000030F26D0002373816846FFF7ADFF3DB15C
:1087C00000236B60F2682A60AB72194B1B892B8106
:1087D000FFF7AAFF384603B0BDE8F083B4F808906D
:1087E0000DF106014846FFF7ABF90028C7D0074650
:1087F000F0E7BDF806104846FFF7D0F948F20767E2
:10880000E8E70423B3752B68B361D3E748F2016747
:10881000E0E748F20467DDE748F20367DAE748F289
:108820000367D7E748F20267D4E700BFF4320020BD
:10883000FC320020094A1268042A0BD008B503460E
:1088400006480168064A42F82130012100F0E6FBA3
:10885000002008BD48F20B60704700BFE8330020DD
:10886000E432002030B587B00023019302930393D4
:1088700004930593294B1B782BB9294800F0EAFB98
:1088800040B1002403E001A8FFF71AF800242046B5
:1088900007B030BDFFF718FF04460028F7D1FFF7F7
:1088A00021FFFFF77FFA054602282DD0062811D0B8
:1088B00068B36846FFF722FF60B301220270013DF2
:1088C0000A2D12D8DFE805F00F110F111D111D112F
:1088D000171A1700114B01221A7000225A6001A8C2
:1088E000FEF7EEFFD3E7002202716846FFF714FFA0
:1088F000FFF71AFFCBE703220271F6E702220271AB
:10890000F3E701220271F0E748F20A64BFE748F298
:108910000A64BCE748F20764B9E700BFF4320020FC
:10892000F832002010B370B582B00C46054601B392
:108930000DF10601FFF770F918B948F2096002B0AD
:1089400070BD6E68BDF8063003EB83008000083010
:10895000094B18440121043000F060FB26606B686D
:108960000C3363600123AB720020E8E748F2046037
:10897000704748F20460E2E718330020F8B110B500
:1089800082B004460DF10601FFF746F9D0B1BDF8FB
:10899000063003EB8301104A02EB8102D268AAB1D0
:1089A000A27AB2B10C4A02EB8101C968013903EB2A
:1089B000830302EB8303D9600020A07204E048F235
:1089C0000460704748F2096002B010BD48F20560CB
:1089D000FAE748F20560F7E71833002008B50223EC
:1089E0000022FFF7ADFE08BD28B110B50323002219
:1089F000FFF7A6FE10BD48F204607047114B1B78CC
:108A0000BBB110B582B004464FF6FF73984213D045
:108A100001A8FFF773FE90B10522027001220271D6
:108A2000C48001A8FFF778FEFFF77EFE002002B0A9
:108A300010BD48F20160704748F20360F7E748F262
:108A40000760F4E7F43200200F4B1B78B3B100B598
:108A500083B001A8FFF752FE98B10622027001A868
:108A6000FFF75AFE094B1B7813B1084B01221A730A
:108A7000FFF75AFE002003B05DF804FB48F20160E6
:108A8000704748F20760F6E7F4320020FC3200201D
:108A900000B583B0ADF80600ADF8041001A90DF1E2
:108AA0000600FFF7F3F803B05DF804FB00B583B0F0
:108AB0001346ADF806000A460DF106010020FFF747
:108AC000E5F803B05DF804FB00B583B01346ADF8DC
:108AD00006000A4600210DF10600FFF7D7F803B0A3
:108AE0005DF804FB20B131B103680B6000207047D2
:108AF00048F20460704748F2046070472B4B1B78C3
:108B0000002B4CD0F0B583B0044600284AD0122286
:108B100000210FF01AFC0323238000260FE0238896
:108B2000013B23801CE004F11003009304F10E03C9
:108B3000A21D211D3046FFF7F1F80136B6B2012E15
:108B40002AD8374606EB8603194A02EB83031D89B0
:108B50005A891544ADB25868FEF744FF0328DED0A9
:108B6000134B07EB870203EB8202D26861880A4449
:108B7000628007EB870703EB87077B892289134411
:108B8000238163892B446381C5F58065ADB2A389D8
:108B9000AB42C8D2A581C6E7002003B0F0BD48F2C1
:108BA0000160704748F20460F7E700BFF43200202C
:108BB00018330020BFF34F8F0549CA6802F4E06202
:108BC000044B1343CB60BFF34F8F00BFFDE700BFE3
:108BD00000ED00E00400FA0570B582B0064604F02E
:108BE00021F803F063FB0028FBD1404B9D6A26B3BC
:108BF0003F4B404CE41AE408240444F00104B269F9
:108C00003D49204603F00CFDB368F26801920093E1
:108C1000736832683949204603F0B6FEF369009361
:108C2000736932693649204603F01AFE2F4BDB6A1E
:108C300013F0020F0CD1002420E02D4B2D48C01A58
:108C4000C00800042F4940F0010003F06DFCEDE77F
:108C5000274B2848C01AC00800042B4940F00100E7
:108C600003F062FCE7E7224B2248C01AC008000468
:108C7000264940F0010003F0D3FC0134192C09D837
:108C80000123A3402B42F8D0214B53F82420002A83
:108C9000E9D1F2E715F0800F0DD115F4004F17D18F
:108CA0001C4B1B6813F0010F00D000BE3046FFF7CD
:108CB00081FF02B070BD0E4B0E48C01AC008000400
:108CC0000A4B5A6B144940F0010003F0A9FCE4E799
:108CD000074B0848C01AC0080004044B9A6B0F49A0
:108CE00040F0010003F09CFCDAE700BF00ED00E07B
:108CF00000AE030068AE0300C0B10300D8B10300AA
:108D000010B2030038B203006CB20300B0B203002B
:108D1000D8B70300F0ED00E0BCB20300DCB2030002
:108D200010B483B050E8013F9CB2C28914448289D8
:108D3000944228BFA41A0289944202BFBFF32F8F26
:108D4000002007E0C4EA030440E80142002AE9D118
:108D50004FF001008DF807000093009B0B609DF819
:108D6000070003B05DF8044B704750E8012FC2EADA
:108D7000024240E80123002BF7D1704710B483B0C2
:108D800050E8023F1FFAA3F4C288944202BFBFF327
:108D90002F8F00200DE0C28914448289944228BF9D
:108DA000A41AC3EA044440E80242002AE8D14FF082
:108DB00001008DF807000093009B0B609DF80700F1
:108DC00003B05DF8044B704750E8022FC2EA22421C
:108DD00040E80223002BF7D1704782B050E8022F01
:108DE000C188B2EB324F4FF0000317BF92B241EA95
:108DF000014142EA014104E04268B2EB324F08BF50
:108E0000012340E80212002AE8D18DF807309DF8CE
:108E1000070002B0704781B110B40C46B2FBF3F109
:108E200003FB112189B251B90460416081608281E4
:108E3000C38108465DF8044B70470E207047092037
:108E4000F8E708B5FFF7C9FF08B1002008BD1120F9
:108E5000FCE738B505460C46FFF762FF18B12868F5
:108E60002388184438BD0020FCE708B50A884B88E1
:108E70009A4201D0002008BDFFF777FF0120FAE7F2
:108E800038B505460C46FFF779FF18B128686388A6
:108E9000184438BD0020FCE708B50A884B889A4280
:108EA00001D0002008BDFFF78FFF0120FAE708B5C9
:108EB0004B0901F01F01012202FA01F100EB8300CE
:108EC00000F074F808BD10B54B0901F01F04012132
:108ED000A14000EB830000F05BF8E04000F00100EF
:108EE00010BD08B54A0901F01F01012303FA01F181
:108EF000C94300EB820000F075F808BD4B0950F83B
:108F0000230001F01F01C84000F0010070472DE967
:108F1000F04106460F46002518E0202301E0B3FA91
:108F200083F31F2B11D803EB4514A7420DD921461B
:108F30003046FFF7C8FFD8B1D8F80030DB4393FACA
:108F4000A3F3002BEBD12023EBE701357B1E5B095C
:108F50000133AB420BD906EB850856F82530DB43CD
:108F600093FAA3F3002BD8D0B3FA83F3D9E73C46A6
:108F70002046BDE8F08110B4034653E8000F0A46CE
:108F800043E8002494F0000FF7D15DF8044B7047DC
:108F900010B4034653E8000F40EA010243E80024FE
:108FA00094F0000FF6D15DF8044B704710B40346FF
:108FB00053E8002F42EA010043E8000494F0000F58
:108FC000F6D15DF8044B704710B4034653E8000F28
:108FD00000EA010243E8002494F0000FF6D15DF8A6
:108FE000044B704710B4034653E8002F02EA010017
:108FF00043E8000494F0000FF6D15DF8044B70478D
:1090000010B4034653E8000F00EB010243E80024CC
:1090100094F0000FF6D15DF8044B704710B403468E
:1090200053E8002F02EB010043E8000494F0000F26
:10903000F6D15DF8044B704710B4034653E8002F97
:10904000A2EB010043E8000494F0000FF6D15DF8B4
:10905000044B704708B50121FFF79AFF08BD08B51A
:109060000121FFF7A3FF08BD08B50021FFF7ACFF02
:1090700008BD000038B50C46054620B1EB68288ACB
:1090800000FB043038BD0249E82005F08FFFF5E70A
:109090004CB8030038B50C46054630B1E868241AD0
:1090A000288AB4FBF0F0C0B238BD0249F52005F0C3
:1090B0007DFFF3E74CB8030000283DD010B504460F
:1090C000036873B163688BB1A368ABB1E368CBB1DC
:1090D000238AEBB1A2686368D21AD2B221680B600E
:1090E00022E01649FF2005F061FFEBE713494FF43A
:1090F000807005F05BFFE7E7104940F2011005F0D2
:1091000055FFE3E70D494FF4817005F04FFFDFE7AE
:109110000A4940F2031005F049FFDBE721680A68BD
:10912000501C086013701A46531EDBB2002AF5D19A
:1091300023680020187110BD0E2070474CB8030042
:1091400030B583B00446E8B100238DF807300DF147
:109150000700FEF75DFB2268136861688B4217D930
:10916000591E116013F8011C2046FFF783FF0546C6
:10917000A368226811685B1ADBB21179994208D2A0
:10918000137106E006494FF4927005F00FFFDBE71C
:1091900000259DF80700FEF76FFB284603B030BDA1
:1091A0004CB8030070B582B00C460646B0B1DCB1D5
:1091B00000238DF807300DF10700FEF729FB336817
:1091C0001D686A1C1A6021463046FFF763FF28704D
:1091D0009DF80700FEF750FB02B070BD054940F254
:1091E000471005F0E3FEE2E702494FF4A47005F0F2
:1091F000DDFEDDE74CB8030010B5044640B1A268BF
:109200002AB163692168206998470023A36010BDD3
:109210000249312005F0CAFEF1E700BFC0B80300E3
:109220000EB430B582B0059D044690B16369ABB110
:109230002368C3B16368DBB135B106AB019301AA02
:109240002946204600F022F902B0BDE8304003B0C4
:1092500070470A49422005F0A9FEE7E70749432085
:1092600005F0A4FEE4E70549442005F09FFEE1E790
:109270000249452005F09AFEDEE700BFC0B80300B2
:1092800010B5026883685C1C8460D15482684368AE
:109290009A4200D210BDFFF7AFFFFBE72DE9F84F70
:1092A00082460F4615461E46DDF828900B9A0B465F
:1092B0004FF0010803E0B3FBF5F308F10108AB42FE
:1092C000F9D2B04500D2B04612F0010B13D1B9F17A
:1092D000000F10D012F0020F0FD086B1202405E04D
:1092E00009F1FF3921465046FFF7CAFFB9F1000FD7
:1092F00001D0C145F4D8012409E02024F6E7302448
:10930000F4E7B7FBF4F39D4205D805FB04F4012E06
:10931000F7D9013EF9E7B7FBF4F304FB13770F4AE3
:10932000D15C5046FFF7ACFF2346B4FBF5F4AB42EB
:10933000F1D2BBF1000F02D0B9F1000F07D1BDE8A7
:10934000F88F09F1FF3920215046FFF799FFB9F155
:10935000000FF4D0C145F4D8F1E700BF9CB9030079
:109360002DE9F04F83B08146884615469A460C9FFA
:10937000DDF834B081EAE174A4EBE1740126A54282
:1093800003DC94FBF5F40136F9E7564500D2564666
:1093900037B1B8F1000F02DB1BF0040F00D0013F22
:1093A0001BF0020F02D0BAF1000F03D01BF0010F27
:1093B00000D1D7B9B8F1000F1CDB1BF0040F20D18E
:1093C0000BF00303022B21D0CDF804B000975346D5
:1093D0002A4641464846FFF761FF03B0BDE8F08FDB
:1093E000013F20214846FFF74BFF002FE2D0B74254
:1093F000F6D8DFE7C8F100082D214846FFF740FF07
:10940000DEE72B214846FFF73BFFD9E7BAF1000F13
:10941000DAD12FB9D8E7013F30214846FFF730FFB6
:10942000002FD1D0B742F6D8CEE7F8B506460D46A4
:10943000144613F001070DD119B108460EF0DAFFFA
:109440000746BC4219D9C4B1013C20213046FFF780
:1094500017FFF6E70027297851B10135013730466B
:10946000FFF70EFFF7E7013C20213046FFF708FF2A
:10947000BC4201D9002CF6D1F8BD29780029FBD0D7
:1094800001353046FFF7FCFEF7E70000F0B583B08A
:109490000C461646054648B16B696BB12B688BB11B
:1094A0006B68ABB1002C40F08980D8E06F4940F286
:1094B000522005F07BFDEFE76C494FF4157005F085
:1094C00075FDEBE7694940F2552005F06FFDE7E7D0
:1094D000664940F2562005F069FDE3E700270122C6
:1094E00003E047F00107013482B121782D29F8D03B
:1094F000302903D02B2905D00022F5E747F00207D9
:109500000134F1E747F004070134EDE72A290CD0D4
:109510002178A1F13000C0B209280CD8013402EB47
:10952000820201EB4202303AF0E73368191D3160E4
:109530001B681A44013423782E2B02D00023217893
:1095400010E0013400232178A1F13000C0B20928D5
:10955000F5D8013403EB830301EB4303303BF2E71F
:1095600014F8011F6C29FBD06829F9D025296FD088
:1095700020D378291ED858291CD35839202919D826
:10958000DFE801F03C1818181818181818181811E6
:1095900026181818182618181818181850181847C8
:1095A000183118183C0033681A1D326019782846A3
:1095B000FFF766FE01342378002B4ED014F8011B10
:1095C00000294AD0252989D02846FFF759FEF2E71D
:1095D0003168081D30600968019700920A22284608
:1095E000FFF7BEFEE6E73168081D306009680197A5
:1095F00000920A222846FFF751FEDBE73168081D7A
:10960000306009680197009210222846FFF746FE55
:10961000D0E731680B1D33603B4609682846FFF7E9
:1096200004FFC7E733681A1D32601F6830212846DF
:10963000FFF726FE78212846FFF722FE002301933C
:1096400008230093102239462846FFF727FEB1E78A
:1096500025212846FFF714FEACE72B7B0BB903B09E
:10966000F0BD2846FFF7C8FDF9E700BF2CB903009D
:10967000C3688B4206D8114401390369994203D962
:1096800000207047002070470120704710F0030F42
:109690000CBF01200020704743681B68013B0B4250
:1096A0000CBF01200020704710B582B038B10B46C6
:1096B0001146A3B103601B68984702B010BD104B60
:1096C0001048C01AC00800040E2400940E4B0F4A24
:1096D0000F4940F0010003F0C3F82046EDE7084BC6
:1096E0000848C01AC00800040E240094064B094A1A
:1096F000074940F0010003F0B3F82046DDE700BF62
:1097000000AE030088AE030060BB0300ACB90300E9
:10971000B4B90300E0B903002DE9F04182B000289C
:1097200031D00E4615461C460746002A3BD0D0F8DD
:109730000080B8F1000F46D0002B54D043685A681F
:10974000B4FBF2F302FB1343002B5CD10846FFF796
:109750009DFF002867D02846FFF798FF002872D0A9
:10976000224631463846FFF783FF00287BD0D8F8E1
:109770000C80089B009323462A4631463846C04752
:1097800002B0BDE8F081404B4048C01AC008000458
:109790000E2400943E4B3F4A3F4940F0010003F045
:1097A0005FF82046ECE7384B3848C01AC008000480
:1097B0000E240094364B394A374940F0010003F03B
:1097C0004FF82046DCE7304B3048C01AC008000490
:1097D000082400942E4B324A2F4940F0010003F038
:1097E0003FF82046CCE7284B2848C01AC0080004A0
:1097F00009240094264B2B4A274940F0010003F02E
:109800002FF82046BCE7204B2048C01AC0080004AF
:10981000092400941E4B244A1F4940F0010003F024
:109820001FF82046ACE7184B1848C01AC0080004BF
:1098300010240094164B1D4A174940F0010003F014
:109840000FF820469CE7104B1048C01AC0080004CF
:10985000102400940E4B164A0F4940F0010002F00C
:10986000FFFF20468CE7084B0848C01AC0080004D8
:1098700010240094064B0F4A074940F0010002F003
:10988000EFFF20467CE700BF00AE030088AE030078
:1098900074BB0300ACB90300B4B9030040BA0300C1
:1098A000E8B90300FCB9030048BA030074BA030026
:1098B0008CBA0300B0BA03002DE9F04182B0F0B1D8
:1098C000884614461F460546066846B3002A36D029
:1098D000FFF7E2FE002842D06B681A6804FB02F230
:1098E00041462846FFF7C4FE002848D036693B466B
:1098F000224641462846B04702B0BDE8F081284BD9
:109900002848C01AC00800040E240094264B274A99
:10991000274940F0010002F0A3FF2046ECE7204B6E
:109920002048C01AC0080004082400941E4B214A95
:109930001F4940F0010002F093FF2046DCE7184B7E
:109940001848C01AC008000409240094164B1A4A8B
:10995000174940F0010002F083FF2046CCE7104B8E
:109960001048C01AC0080004102400940E4B134A7B
:109970000F4940F0010002F073FF2046BCE7084B9E
:109980000848C01AC008000410240094064B0C4A72
:10999000074940F0010002F063FF2046ACE700BF3A
:1099A00000AE030088AE030088BB0300ACB903001F
:1099B000B4B90300E8B90300FCB90300D8BA030046
:1099C00000BB030029DF704728DF704703689B68EE
:1099D0003BB300B587B00023009302930393049335
:1099E000019183680593037943B1012B10D003687B
:1099F0009B686846984707B05DF804FB01238DF823
:109A0000003003690293C368039343690493EEE74C
:109A100002238DF80030C3681B030293436904934B
:109A2000E5E7704710B542698369D21AB2F5805FE5
:109A300028BF4FF4805292080469C168012A38BFD8
:109A4000012219441819FFF7BDFF10BD08B5C268FF
:109A500000691044FFF7B8FF08BD0000114B002259
:109A6000DA6003791BB1012B0FD0104670474269B1
:109A70008369D11AB1F5805F94BF5B1803F58053F9
:109A800083619A4209D00020704703690133036162
:109A90004269934203D000207047012070470120A3
:109AA000704700BF94340020064AD3680133D36066
:109AB000082B01D80020704713460022DA600120ED
:109AC000704700BF9434002008467047002070475C
:109AD000024B187A003818BF0120704794340020D8
:109AE000034B01225A74187AB0FA80F0400970478B
:109AF0009434002008B502490248FFF7CDF908BDAB
:109B0000A83400208434002008B505490548FFF733
:109B1000B7F9054B1860003818BF012008BD00BF19
:109B2000A834002084340020AC34002008B51A4B3F
:109B30001B7AA3B1184B02221A72184B18680379CA
:109B4000ABB1012B1CD00321144B1868FFF73EFF6B
:109B5000114B00221A725A60FFF7CCFF08BDFFF7C5
:109B6000D3FF0028E6D10C4B00225A60F6E7FFF73E
:109B700059FF40B11128E6D1074B01221A72EDE7D7
:109B8000FFF764FFF5E7044B1B7C002BE6D10021B7
:109B9000022000F005F8E1E794340020AC34002006
:109BA000831E012B2DD810B50446164B1B7A53B1DA
:109BB000022B03D1022807D0032818D0114B5B7C5D
:109BC000E3B9FFF7B3FF10BD0F4B1868FFF746FF6F
:109BD0000028F3D00B4B00221A720B4B1868022C92
:109BE0000AD00D21FFF7F2FEFFF784FFE6E7064BF0
:109BF0001868FFF759FFEBE71146F3E70EF00CF892
:109C0000E1E7704794340020AC340020012802D0F2
:109C1000032800D0704708B5054B00225A7401286C
:109C200014BF002001201874FFF780FF08BD00BF9B
:109C30009434002008B50548FFF70CFA10B9044B1E
:109C40005B7C03B108BDFFF771FFFBE79834002090
:109C5000943400202DE9F04182B00746884616462C
:109C60001D4601A90E48FFF7F4F8B0B104461C22C6
:109C700000210EF06AFB012323712760A5604FEAE3
:109C80001831E160666101A90548FFF7EEF8FFF7BA
:109C9000D1FF002002B0BDE8F0810420FAE700BF48
:109CA000843400202DE9F04383B080460F4691466E
:109CB0001E4601A90F48FFF7CCF8C0B104461C228C
:109CC00000210EF042FB00252571C4F800800A9B9C
:109CD000A3602761C4F80C90666101A90548FFF7ED
:109CE000C4F8FFF7A7FF284603B0BDE8F0830420BF
:109CF000FAE700BF8434002008B510461A460EF07B
:109D0000FBFA002008BD000008B514220021044819
:109D10000EF01BFB0348FFF794F8002008BD00BFBE
:109D2000943400208434002008B5094B436009486E
:109D3000FFF790F908B1002008BD0DF081FF054B39
:109D400018741C238C2204490448FFF764F8F2E7D6
:109D50009CBB030094340020F8330020843400209E
:109D60002DE9F04F83B0884601929B469DF83090D4
:109D70000446E8B1E38894F805A00AFB03FAAAF1C7
:109D8000040ADA4519D9E7880BF10403B3FBF7F6A7
:109D900007FB1633019A156805EB0B02524501D9F2
:109DA000AAEB0B05019A156066B12468013EFBE73A
:109DB0001749B62005F0FAF8DCE71549C42005F08C
:109DC000F5F8E0E7A7EB030AAA4528BFAA46B34681
:109DD0000DE05246014618460EF08EFA2468A5EBB7
:109DE0000A05D344BA46AF4228BFAA4633465DB1FE
:109DF00008EB0B0023440433B9F1000FE9D05246BD
:109E000019460EF079FAE9E703B0BDE8F08F00BF1C
:109E1000C8BB030008B5FFF74FF908BDF8B5014608
:109E20004679701E0A460023834202D2126801332B
:109E3000FAE71768002405E00D683846FFF7B2F925
:109E400001342946A642F7D8F8BD2DE9F843074664
:109E5000048AA4F1040841440331B1FBF8F8FFF788
:109E60006FF90646F8B10025057101234371043CE2
:109E7000C4805FFA88F808F1FF38076081464545DD
:109E800011D23846FFF75CF9044640B173790133CB
:109E90007371C9F80000076001358146EFE730466D
:109EA000FFF7BCFF26463046BDE8F88308B5012120
:109EB0000430FFF7B3F808BD10B5044601210430A3
:109EC000FFF7BAF810F0FF0F00D010BD2046FFF7E3
:109ED000A5FFFAE710B584B0144603920022009261
:109EE00003AAFFF73DFF039BA34201D104B010BDBD
:109EF0000249F62005F05AF8F8E700BFC8BB030096
:109F000010B584B0144603920122009203AAFFF711
:109F100027FF039BA34201D104B010BD02494FF4B7
:109F2000807005F043F8F7E7C8BB030041DF7047D6
:109F300010B50024054B1C70054B1C60BFF35F8FF0
:109F40000449054800F098F9204610BDB8340020B7
:109F5000BC340020C0BC0300B034002010B582B077
:109F600000238DF807300DF10700FDF751FCF1EEED
:109F7000104A24F09F03E1EE103ABFF35F8F124BBB
:109F80004022C3F884219DF80700FDF775FC14F00A
:109F9000070F07D10DF054FE48B920BF40BF20BFC6
:109FA00002B010BD09497D2005F000F8F2E7FFF787
:109FB000BDFF0028F4D00228F2D004494FF4B0705D
:109FC00004F0F4FFECE700BF00E100E03CBC03005C
:109FD00002681368526839B1934203D8806801302F
:109FE000801A7047981A7047934201D8D01A704768
:109FF00080680130C01A70472DE9F0410446884658
:10A00000154603681F680021FFF7E2FF6168E268F8
:10A0100007FB0211A8420DD305FB02F240460EF0E9
:10A020006BF93D44A3689D4200D9002523681D605B
:10A03000BDE8F081064600FB02F73A4640460EF0C6
:10A040005BF9AD1BE26805FB02F2616808EB0700F3
:10A050000EF052F923681D60EAE7000070B505466E
:10A0600060B12B681E685C686DB1AB689C420FD212
:10A07000601C864214BF0020012070BD0549982055
:10A0800004F094FFEDE70349832004F08FFFECE731
:10A090000020EEE7CCBC03002DE9F04383B00D4671
:10A0A000044600282FD0002D32D000238DF8073031
:10A0B0000DF10700FDF7ACFB2046FFF7CFFF81460F
:10A0C00010B1237C002B6BD12768D7F804807E6801
:10A0D0001CB3A3689E4225D201367E60B9F1000F01
:10A0E00007D027683E68FCB1A3689E4221D20136A2
:10A0F0003E60E268531E072B46D8DFE803F01C33AE
:10A1000045384545453D2849A32004F04FFFCAE79F
:10A110002549A42004F04AFFC7E72349832004F01F
:10A1200045FFD6E70026D8E71F49832004F03EFF0D
:10A13000DAE70026DCE763682A7803F8082022685B
:10A1400011685368994226D85B1A9168994229D2BE
:10A15000936000249DF80700FDF78EFB204603B0B6
:10A16000BDE8F08363682A8823F81820E7E763686E
:10A170002A6843F82820E2E7636803EBC803D5E9BF
:10A180000001C3E90001DAE76068294608FB020024
:10A190000EF0B2F8D3E7A0680130411A0B44D4E7BF
:10A1A0000424D7E70024D5E7CCBC030070B582B007
:10A1B0000D461446064620B14DB174B9204602B092
:10A1C00070BD16494FF4EC7004F0F0FEF4E713494B
:10A1D00040F2D91004F0EAFEEFE700238DF80730D3
:10A1E0000DF10700FDF714FB336819685B689942AD
:10A1F00008D85B1A9C420AD905249DF80700FDF790
:10A200003BFBDBE7B2680132521A1344F2E7224605
:10A2100029463046FFF7F0FE0024EEE7CCBC0300F1
:10A2200030B583B0054688B100248DF807400DF1A4
:10A230000700FDF7EDFA0C22214628680EF085F89C
:10A240009DF80700FDF718FB03B030BD02494FF43D
:10A25000047004F0ABFEE7E7CCBC03008268002387
:10A26000936082681361826853618268D3608268F8
:10A27000536082681360704738B50C46054638B1A4
:10A280005CB12C6023686B60626893420AD038BD71
:10A290000649502004F08AFEF2E70449512004F0F8
:10A2A00085FEEEE700236B60F1E700BF40BD0300D1
:10A2B00010B5044658B1236873B1636833B122689E
:10A2C00091680B446360526893420AD010BD0649FE
:10A2D000632004F06BFEEEE70349642004F066FEA1
:10A2E000EBE700236360F1E740BD03000F4A02F58E
:10A2F00094718A4218D210B48C1AE30F03EBE40372
:10A300005B1002EBC30452F83330834206D9214676
:10A310008A42F1D300205DF8044B704702D204F169
:10A320000802F5E76068F6E700207047CCC103003B
:10A3300008B5FFF7DBFF00B108BD0148FCE700BF2F
:10A34000B8C10300026813461BB18B4203D01B68DF
:10A35000FAE70A60016070470346006808B10268C6
:10A360001A60704708B50DF06BFC20B9074BD3F8A5
:10A3700000342BB108BD06497B2004F017FEF5E739
:10A3800000F0CEFA034B00229A70F3E70000014080
:10A39000F4C20300C034002000B1704708B5064B7A
:10A3A00001225A700548FFF7D7FF18B14368002013
:10A3B0009847F7E708BD00BFC0340020C83400202C
:10A3C00010B5044610B1012C0CD010BD0C4B01226D
:10A3D0005A700C48FFF7C0FF0028F4D043680020F3
:10A3E0009847F6E7064B01229A7002E04368012085
:10A3F00098470548FFF7B0FF0028F7D1E5E700BF11
:10A40000C0340020C8340020D034002010B5104BD8
:10A410001B784BB185240F4BD3F8003413B10C4B90
:10A4200001229A70204610BD094B00229A605A60A2
:10A430001A61DA60084800F013FA04460DF000FCD7
:10A4400018B1034B01221A70E5E700F021FAF8E792
:10A45000C034002000000140C1A3020010B582B04A
:10A460000446224B1B78D3B1204B9B78E3B114B147
:10A4700063680120984700238DF807300DF107002D
:10A48000FDF7C6F9194AD3680133D3609DF8070078
:10A49000FDF7F2F9154BDB680BB302B010BD1449A0
:10A4A000F62004F083FDDFE700238DF807300DF17F
:10A4B0000700FDF7ADF91CB121460E48FFF742FF3A
:10A4C0000A4BDB6843B1094AD3680133D3609DF876
:10A4D0000700FDF7D1F9DDE700F0FCF9F3E70449E7
:10A4E0004FF4897004F062FDD7E700BFC03400204C
:10A4F000F4C20300D034002000B583B0144B1B78A5
:10A50000B3B1134BDB68CBB100238DF807300DF1ED
:10A510000700FDF77DF90E4BDA68013ADA60DB6877
:10A5200093B19DF80700FDF7A7F903B05DF804FBB0
:10A53000084940F2171004F039FDE2E705494FF4ED
:10A540008C7004F033FDDFE7FFF70CFFE9E700BF95
:10A55000C0340020F4C2030000B583B001280ED03F
:10A56000032824D010B103B05DF804FB174B01227F
:10A57000C3F88020BFF34F8FBFF36F8FF3E7002343
:10A580008DF807300DF10700FDF742F9104B1B78ED
:10A5900053B10F4BDA680132DA6001229A709DF8EC
:10A5A0000700FDF769F9DEE7FFF730FFF1E7084B39
:10A5B0001B7823B100F06CF9FFF79EFFD3E7054944
:10A5C00040F2522004F0F2FCF4E700BF00E100E0AA
:10A5D000C0340020F4C2030031DF704710B584B0EE
:10A5E0008DF8070000238DF80F300DF10F00FDF7F7
:10A5F0000FF90DF025FB28B19DF80F00FDF73CF990
:10A6000004B010BD064C0DF107012046FFF744FDD4
:10A610002046FFF723FD0028EED000F0E3FDEBE736
:10A62000A0AD030000B583B020B103280BD003B068
:10A630005DF804FB134B1B78012BF8D100F0D2FD21
:10A6400000F0E8FDF3E700238DF807300DF1070077
:10A65000FDF7DEF80B4B1B78012B04D09DF80700AB
:10A66000FDF70AF9E3E70849084800F047FD10B98B
:10A6700000F096FDF2E7064940F2071004F096FC60
:10A68000F6E700BF24350020DDA5020025350020B7
:10A6900070C3030010B582B0144B1B7823BBB0B15C
:10A6A0000288124BA3F8012000238DF807300DF12A
:10A6B0000700FDF7ADF80DF0C3FA50B90C490D488D
:10A6C00000F01CFD044660B900F06AFD02E00A4893
:10A6D000E6E70024054B01221A709DF80700FDF7FC
:10A6E000CBF8204602B010BD8524FAE724350020BF
:10A6F000DDA5020025350020E4C3030000B583B0CA
:10A70000124B1B78012B16D100238DF807300DF169
:10A710000700FDF77DF80DF093FA88B19DF807006A
:10A72000FDF7AAF80A48FFF77BFD084B00221A70D4
:10A7300003B05DF804FB0749902004F037FCE3E721
:10A7400000F050FD00F066FDE8E700BF2435002072
:10A75000A0AD030070C30300F0B583B006460F46FA
:10A760001E4B1B78012B01D100240FE01C49B720A0
:10A7700004F01CFCF8E73A4631461A48FFF716FD8C
:10A78000044600F00DFD0DE0022C1BD100238DF8D6
:10A7900007300DF10700FDF73BF80DF051FA0546C3
:10A7A0000028E8D09DF80700FDF766F8002DEBD0F3
:10A7B00039463046FFF710FF044642F2070398423D
:10A7C000E2D105240CB1052C02D1204603B0F0BD26
:10A7D0000349D12004F0EAFBF7E700BF243500204D
:10A7E00070C30300A0AD030070B505460E460C4BC8
:10A7F0001B78012B10D00B49E02004F0D7FB0BE0B5
:10A800003446402E28BF4024E1B22846FFF7A4FF7B
:10A810000028F9D1361B2544002EF1D170BD00BFB0
:10A820002435002070C303000B4BD96841F08072BF
:10A83000DA600A4B186840F001021A605A68074B48
:10A840005B689B1AB3F50A5FF9D3044B186003F5F4
:10A850005D43F033D9607047F0ED00E0001000E098
:10A8600010B5044648B1084B1B795BB9064B1C6018
:10A8700001221A710020587110BD0449A42004F06F
:10A8800095FBF0E78520F7E728350020E8C30300B3
:10A8900008B50D4B1B7953B10C4B1B6813F0010F1E
:10A8A0000AD04FF080430122C3F8182508BD08499B
:10A8B000BD2004F07BFBEFE7044BC02283F80023AC
:10A8C00001221A60EDE700BF2835002000E100E01A
:10A8D000E8C3030000B583B00D4B1B7993B10D4B5A
:10A8E00000221A601B680193019B4FF080430222F3
:10A8F000C3F80423FFF798FF074B01221A6003B047
:10A900005DF804FB0549EA2004F050FBE7E700BFCF
:10A91000283500200401004008000040E8C303007F
:10A9200000B583B0104B1B79C3B14FF080430222B6
:10A93000C3F8082303F5827300221A601B68019391
:10A94000019B0A4B01221A604FF08043D3F8183460
:10A9500013F4803FF8D103B05DF804FB0449F720FD
:10A9600004F024FBE1E700BF283500200C00004084
:10A97000E8C3030000B583B0154B1B6893B1144BBB
:10A9800000221A601B680093009B4FF08043012255
:10A99000C3F808230F4B5B7923B90E4B5A711B6820
:10A9A000002098470C4B1B6873B10B4B00221A60B8
:10A9B0001B680193019B4FF080430222C3F80823D8
:10A9C000044B1B680120984703B05DF804FB00BFEF
:10A9D000000100402835002004010040034B0344DF
:10A9E00093F9500000F03F00704700BF3035002061
:10A9F000034B034493F95000C0F38110704700BF2C
:10AA00003035002070B40646154662B1002365B1AA
:10AA10000824A34218D20E4A52F82320B2F1FF3F75
:10AA200005D00133F5E70823F1E70C24F1E758B22C
:10AA3000074A941984F8300042F8231035B9083BCE
:10AA4000134483F8506001E04FF0FF3070BC704752
:10AA500030350020064B4FF0FF3243F82020072806
:10AA600004D908381844FF2380F85030704700BFDD
:10AA70003035002010B4044600234BB94FF0A042FB
:10AA8000D2F8201544F8041BC2F820150133F4E76E
:10AA900000231BB100205DF8044B704750F82320C1
:10AAA0000AB90133F5E70120F5E700002DE9F84385
:10AAB000064691E04FF0FF333DE049494FF4F67010
:10AAC00004F074FA3DE04FF0030946E04FF0FF3325
:10AAD00046E043494FF4F67004F068FA46E04FF060
:10AAE000FF3356E03E494FF4F67004F05FFA56E04B
:10AAF000B8F1010F66D14146204698470135032D34
:10AB000066D8384B2B4493F95030B3F1FF3FF5D062
:10AB10002846FFF763FF0446C20800F0070101233F
:10AB20008B40B25C1342E9D02846FFF761FF8046B4
:10AB30006309BFD0002304F01F02D34013F0010FBC
:10AB4000BBD004F5E0734FF0A04252F82370C7F376
:10AB50000147022FB7D04FF002096309B6D0002396
:10AB600004F01F02D34013F0010FB2D04FF0A04306
:10AB700004F5E07253F8221021F4403143F822101A
:10AB800053F8221041EA094143F822106309A6D084
:10AB9000002304F01F02D34013F0010FA2D00123C1
:10ABA000A3404FF0A042C2F820350E4B1A1992F97B
:10ABB000302053F82230002BA0D0B8F1030F9AD0E8
:10ABC000022F95D0032F99D1B8F1020F96D192E7B9
:10ABD0003046FFF74FFF08B1002590E7BDE8F88346
:10ABE0002CAF03003035002010B582B0224B93F813
:10ABF0005840002C3DD1234604E04FF0FF3207E0DF
:10AC00000133DBB21F2B0FD818465A09F5D00022AA
:10AC100003F01F01CA4012F0010FF1D0164A02449E
:10AC2000FF2182F83010EBE70B2C05D82046FFF708
:10AC300011FF0134E4B2F7E70F4C0422002104F1C4
:10AC400054000DF082FB0D4BC02283F806234022F6
:10AC50001A600B4B002018601B680193019B094B85
:10AC60004FF00042C3F80423012384F8583002B0A7
:10AC700010BD0820FBE700BF3035002000E100E0F8
:10AC80007C61004000600040034B93F8580000389E
:10AC900018BF0120704700BF30350020F8B50446CA
:10ACA0000D46164643090ED0002304F01F02D34080
:10ACB00013F0010F0AD0484B234493F93030002B96
:10ACC0000ADB0820F8BD4FF0FF33EEE743494FF4AD
:10ACD0000C7004F06BF9EEE7AA78C2F3400231463B
:10ACE0002046FFF78FFE0646B0F1FF3F71D0AB78EC
:10ACF00013F0040F1FD113F0010F43D0630938D0B4
:10AD0000002304F01F02D34013F0010F34D04FF0A2
:10AD1000A04204F5E07152F8213023F0020342F81A
:10AD20002130E30804F007012D48012202FA01F165
:10AD3000C25C0A43C254AB7813F0020F3DD02B78AB
:10AD4000284906F5A27651F8262022F4473222F44B
:10AD5000407241F8262051F82620240204F4F854C9
:10AD60001B0403F440331C43144341F826400020E5
:10AD7000A8E74FF0FF33C4E71B494FF4F67004F027
:10AD800015F9C4E76F7863090ED0002304F01F02A1
:10AD9000D34013F0010F0AD0BF0004F5E0734FF069
:10ADA000A04242F82370BCE74FF0FF33EEE70E49B4
:10ADB0004FF4F67004F0FAF8EEE7083E2A78064BF6
:10ADC0001E4496F8503043EA821386F85030002033
:10ADD00078E7042076E700BF3035002060C4030028
:10ADE00084350020006000402CAF030070B582B0B5
:10ADF00004460D46430936D0002304F01F02D34019
:10AE000013F0010F32D0484B234493F93030002B1C
:10AE100032DB454B234493F93000072859DD0838CD
:10AE2000FFF7E6FD054603282CD0012846D0032570
:10AE3000630945D0002304F01F02D34013F0010F33
:10AE400041D04FF0A04304F5E07453F8242022F4DD
:10AE5000403243F8242053F8240040EA054543F8E3
:10AE6000245002B070BD4FF0FF33C6E72F494FF4B6
:10AE7000187004F09BF8C6E72C4940F2612004F0FA
:10AE800095F8C6E7630910D0002304F01F02D340F1
:10AE900013F0010F0CD04FF0A043D3F81035E3406E
:10AEA00013F0010FC4D10225C2E74FF0FF33ECE7E6
:10AEB0001F494FF4F67004F079F8ECE70225B7E784
:10AEC0004FF0FF33B7E71A494FF4F67004F06EF80D
:10AED000B7E7C3B2072BC4D800F140039BB29B0075
:10AEE0009BB2144900F5A27651F8262042F00102E7
:10AEF00041F8262003F1804303F5C04300221A6085
:10AF00001B680193019B002DABD0074B1C4494F9A7
:10AF1000302053F82230002BA3D0012303FA00F095
:10AF2000C1F804039DE700BF3035002060C4030072
:10AF30002CAF03000060004010B50446430917D051
:10AF4000002304F01F02D34013F0010F13D0630954
:10AF500017D0002304F01F02D34013F0010F13D0C9
:10AF60004FF0A043D3F81005E04000F0010010BD01
:10AF70004FF0FF33E5E7074940F2AF2004F016F841
:10AF8000E5E74FF0FF33E5E703494FF4F67004F0CF
:10AF90000DF8E5E760C403002CAF030070B584B082
:10AFA0000025039501204FF48073294603E04000FB
:10AFB00004339BB20131072912D803F1804202F514
:10AFC000C0421468012CF2D1254CD4F8044320422D
:10AFD000EDD00024146012680192019A0543E6E75F
:10AFE000204B1B68012B06D015F0FF0F31D1002D2F
:10AFF00032DB04B070BD1B4A00231360126802925A
:10B00000029A45F0004503A808E04FF0A042D2F8AC
:10B01000201540F8041BC2F820150133002BF4D092
:10B02000E2E776000134072CE1D82E42F9D00C4B30
:10B0300004F5A27253F82200C0F3042053F8221042
:10B04000C1F30141084B53F82430002BE9D0984755
:10B05000E7E701260024E6E703A8FFF727FDC8E796
:10B06000006000407C61004030350020034B984276
:10B0700001D1034870470020704700BF0020004006
:10B080008C35002008B5064B1B681BB1044B1B68B0
:10B09000984708BD0349512003F088FFF6E700BF39
:10B0A0008C350020DCC4030070B582B00C46054628
:10B0B000B8B12846FFF7DAFF0546B8B100238DF88E
:10B0C00007300DF10700FCF7A3FB2E7916B92C60B1
:10B0D00001232B719DF80700FCF7CEFB4EB9002031
:10B0E00005E00549772003F061FFE2E7002002B0A8
:10B0F00070BD1120FBE700BFDCC4030038B50C466F
:10B10000054600282FD0002C32D01F4B1B78002B77
:10B1100038D11E4B1C602B7813F0010F06D01C4A4F
:10B12000D2F8043543F00103C2F80435184AD2F8C6
:10B13000003223F00103C2F800326C78A31EDBB2A8
:10B14000012B03D9631FDBB2022B16D86401E4B2D2
:10B15000104B83F80D434FF400521A600A4B012242
:10B160001A70002038BD0C493E2003F01FFFCAE7CB
:10B1700009493F2003F01AFFC7E708496B2003F095
:10B1800015FFE3E78520EDE7983500209435002092
:10B1900000D0004000E100E054C50300C4C5030036
:10B1A00000B583B00B4B1B78012B0DD10A4B00224D
:10B1B0001A601B680193019B084B0122C3F804230A
:10B1C0001A6003B05DF804FB0549562003F0EEFE5B
:10B1D000ECE700BF9835002000D1004000D00040CF
:10B1E00054C5030008B5084B1B78012B06D1012379
:10B1F000064AC2F808330432136008BD04495E20D1
:10B2000003F0D4FEF3E700BF9835002000D00040E3
:10B2100054C5030008B50E4B1B78012B12D1012336
:10B220000C4AC2F80833043213600B4B4FF400523F
:10B23000C3F88020BFF34F8FBFF36F8F044B002202
:10B240001A7008BD0549652003F0B0FEE7E700BFAE
:10B250009835002000D0004000E100E054C5030014
:10B2600000B583B0074B00221A601B680193019B55
:10B27000054BD3F80805054B1B68C0B2984703B0CF
:10B280005DF804FB00D1004000D000409435002060
:10B2900038B50446C57FFF2D11D0837F0BB36B09F2
:10B2A00016D0002305F01F02D34013F0010F12D077
:10B2B000012303FA05F54FF0A043C3F80C55002312
:10B2C00063772372204650F8083B6168984738BD81
:10B2D0004FF0FF33E6E710494FF4F67003F066FED7
:10B2E000E6E76B090ED0002305F01F02D34013F0F0
:10B2F000010F0AD0012303FA05F54FF0A043C3F86C
:10B300000855DCE74FF0FF33EEE703494FF4F670E2
:10B3100003F04CFEEEE700BF2CAF0300D0F818316D
:10B32000B3B110B582B00C460023C0F81831D0F884
:10B3300018310193019B0B6823B12046FFF7A8FF4A
:10B3400002B010BD034940F2972003F02FFEF4E74E
:10B35000704700BF08C6030008B502490248FFF75E
:10B36000DDFF08BD9C3500200030004030B583B0C3
:10B370000446106820B100F06045B5F1005F33D19C
:10B38000956825B105F06045B5F1005F2CD1556891
:10B39000C4F84405C4F848559068D268C4F8340528
:10B3A000C4F838250022C4F81821D4F818210192D5
:10B3B000019A13F0010F1CD00122C4F8502513F09C
:10B3C000020F1AD00122C4F8402513F0080F01D152
:10B3D000012222610A68A2B113F0040050D0402378
:10B3E000C4F80833002002E000234B77102003B09C
:10B3F00030BD0022C4F85025E1E70022C4F8402502
:10B40000E3E7D4F81831002BFBD0CC7FFF2C3BD0E6
:10B410008B7FD3B163090FD0002304F01F02D34008
:10B4200013F0010F0BD0012303FA04F44FF0A043F3
:10B43000C3F80C450020DAE74FF0FF33EDE713497E
:10B440004FF4F67003F0B2FDEDE763090FD000236F
:10B4500004F01F02D34013F0010F0BD0012303FAB5
:10B4600004F44FF0A043C3F808450020BFE74FF0B5
:10B47000FF33EDE705494FF4F67003F097FDEDE774
:10B480004023C4F80433B2E70020B0E72CAF030038
:10B490002DE9F84F0646914698460D46002900F0E2
:10B4A000F580347904EBC403D54901EB83010B7FAC
:10B4B000002B40F0BE813768D2493846FFF7F4FDD3
:10B4C0008246002840F0B881CD4B04EBC40203EB68
:10B4D000820143F82290C1F804802B7B012B40F2BB
:10B4E000DA8095F800805FEA581300F0F180034697
:10B4F00008F01F02D34013F0010F00F0EC8001238D
:10B5000003FA08F34FF0A042C2F8083595F800801E
:10B510005FEA581300F0E580534608F01F02D3405D
:10B5200013F0010F00F0E08008F5E0784FF0A04341
:10B53000012243F8282095F80180B8F1FF0F40F070
:10B54000D9804FF0FF3995F80280B8F1FF0F40F035
:10B5500007814FF0FF3BA97804EBC403A84A02EB34
:10B56000830383F8201095F8038083F81F80B8F1D7
:10B57000FF0F32D02B79002B00F017815FEA5813B0
:10B5800000F00A81534608F01F02D34013F0010F68
:10B5900000F00581012303FA08F34FF0A042C2F83E
:10B5A0000C3595F803805FEA581300F01981534673
:10B5B00008F01F02D34013F0010F00F0148108F5CA
:10B5C000E0734FF0A042032142F82310297904EBE5
:10B5D000C4038B4A02EB830399772B78C7F80835AD
:10B5E000C7F80C95C7F810B5AB68C7F824352A7BA7
:10B5F0006B7B003B18BF0123022A00F0FD80032A69
:10B6000000F00881012A00F0F480C7F85435AB79C6
:10B61000C7F8C0350723C7F8003504EBC403784AE0
:10B6200052F8233033B3376847F307376D79AB1ED1
:10B63000DBB2012B04D96B1FDBB2022B00F2ED80D1
:10B64000002FC0F2EF806D01EDB207F1604707F502
:10B65000614787F8005333681A0B43F30733002B15
:10B6600008DB02F01F025B09012101FA02F26649C0
:10B6700041F82320624B04EBC40203EB8202002159
:10B680005177012313775046BDE8F88F5F49AD200D
:10B6900003F08CFC05E795F800805FEA58130ED0A4
:10B6A000034608F01F02D34013F0010F0AD0012314
:10B6B00003FA08F34FF0A042C2F80C3526E74FF02A
:10B6C000FF33EEE752494FF4F67003F06FFCEEE7FC
:10B6D0004FF0FF330CE74E494FF4F67003F066FC71
:10B6E0000DE74FF0FF3318E749494FF4F67003F0C8
:10B6F0005DFC19E7C1465FEA58131FD0534608F0B6
:10B700001F02D34013F0010F1BD0012303FA08F3EB
:10B710004FF0A042C2F80C355FEA581317D05346D9
:10B7200008F01F02D34013F0010F13D008F5E078A2
:10B730004FF0A043032243F8282004E74FF0FF33E3
:10B74000DDE733494FF4F67003F030FCDDE74FF0EE
:10B75000FF33E5E72E494FF4F67003F027FCE5E7E9
:10B76000C3465FEA58130ED0534608F01F02D34079
:10B7700013F0010F0AD008F5E0784FF0A0430C2237
:10B7800043F82820E7E64FF0FF33EEE720494FF477
:10B79000F67003F00BFCEEE74FF0FF33F3E61C49C5
:10B7A0004FF4F67003F002FCF4E65FEA58130ED093
:10B7B000534608F01F02D34013F0010F0AD00123B3
:10B7C00003FA08F34FF0A042C2F80835E9E64FF05B
:10B7D000FF33EEE70E494FF4F67003F0E7FBEEE7B8
:10B7E0004FF0FF33E4E60A494FF4F67003F0DEFB56
:10B7F000E5E643F0020308E743F0040305E700BF72
:10B800009C35002059B3020000E100E008C60300A7
:10B810002CAF030043F00603F7E609496B2003F061
:10B82000C5FB0DE707F00F076D01EDB2054BDD55C8
:10B8300011E74FF0080A26E74FF0110A23E700BF8F
:10B84000C4C5030014ED00E02DE9F84306460D469B
:10B850009046047904EBC4034C4F07EB83073B7F0E
:10B86000002B55D02B68002B58D0AB68002B5ED036
:10B8700033792BB9EB68FF2B02D86B68FF2B04D907
:10B8800043494FF40C7003F091FB04EBC4033F4AAF
:10B8900002EB83035B7F002B76D104EBC40352F8E9
:10B8A000233043B118F0140F05D104EBC40302EBAD
:10B8B000830301225A7704EBC40C344B03EB8C0C4A
:10B8C0000CF10C0E95E80F008EE80F009CF81F900D
:10B8D000B9F1FF0F14D09CF81E30002B39D05FEA6D
:10B8E00059132DD0002309F01F02D34013F0010F8C
:10B8F00029D0012303FA09F34FF0A042C2F808351A
:10B9000043462A4639463068FFF730FDBDE8F883E4
:10B910001F4940F22D2003F049FBA3E76B68002B81
:10B92000A3D01B4940F22E2003F040FB9DE7EB68BB
:10B93000002B9DD0164940F22F2003F037FB97E7EC
:10B940004FF0FF33CFE713494FF4F67003F02EFBAF
:10B95000CFE75FEA59130ED0002309F01F02D3404E
:10B9600013F0010F0AD0012303FA09F34FF0A042AC
:10B97000C2F80C35C4E74FF0FF33EEE705494FF44A
:10B98000F67003F013FBEEE71120BFE79C350020B3
:10B9900008C603002CAF0300F0B583B005460F4680
:10B9A0001646002401E00134E4B2B44215D2A000EE
:10B9B00000F5A0704FF48033A3402A58002AF2D03B
:10B9C000D5F804231342EED000232B502B580193BB
:10B9D000019B3B6879689847E5E703B0F0BD00003C
:10B9E00008B5042202490348FFF7D6FF08BD00BF8F
:10B9F000C0350020009000402DE9F04385B0074697
:10BA0000894690464FF4A0744FF48036002503E039
:10BA100076000434A4B20135A84511D9D7F804330F
:10BA20001E42F5D03B59002BF2D000233B513B592D
:10BA30000193019B184B53F82930E8B29847E7E788
:10BA4000D7F8043313F0010F0ED0D7F800315BB1F3
:10BA50000023C7F80031D7F800310293029B0E4B48
:10BA600053F8293004209847D7F8043313F0020F15
:10BA70000ED0D7F804315BB10023C7F80431D7F8F2
:10BA800004310393039B044B53F829300520984756
:10BA900005B0BDE8F08300BFD0350020F8B50446FE
:10BAA00015460E46002940D0002D43D063792E4A1A
:10BAB00042F8235003EB43032C4AD35C002B50D1B4
:10BAC00094F90470B578AB1EDBB2012B03D96B1F60
:10BAD000DBB2022B33D8002F36DB6D01EDB207F15C
