:020000022000DC
:1060000000000120756302005D6302004DA00200E4
:106010006163020063630200656302000000000028
:10602000000000000000000000000000F9C60200AF
:1060300069630200000000001DC702006D630200DA
:1060400001F602006F630200750203006F63020035
:106050006F6302006F63020095FF02006F6302002E
:106060006F6302006F6302006F6302006F630200E0
:106070006F6302006F6302006F6302006F630200D0
:106080006F63020035E802006F6302006F63020075
:106090006F6302006F630200B9D903006F630200EF
:1060A0006F6302006F6302006F6302006F630200A0
:1060B0006F6302006F630200000000000000000038
:1060C0006F6302006F6302006F6302006F63020080
:1060D0006F6302006F6302006F6302000000000044
:1060E00000000000000000000000000000000000B0
:1060F00000000000000000000000000000000000A0
:10610000000000000000000000000000000000008F
:10611000000000000000000000000000000000007F
:10612000000000000000000000000000000000006F
:10613000000000000000000000000000000000005F
:10614000000000000000000000000000000000004F
:10615000000000000000000000000000000000003F
:10616000000000000000000000000000000000002F
:10617000000000000000000000000000000000001F
:10618000000000000000000000000000000000000F
:1061900000000000000000000000000000000000FF
:1061A00000000000000000000000000000000000EF
:1061B00000000000000000000000000000000000DF
:1061C00000000000000000000000000000000000CF
:1061D00000000000000000000000000000000000BF
:1061E00000000000000000000000000000000000AF
:1061F000000000000000000000000000000000009F
:10620000354936480A1A02D0072291438D4634494F
:1062100034480A1A06D00722914381F309880222E2
:1062200082F3148830483149314A00F044F831484B
:106230003149324A00F03FF831483249324A00F0E1
:106240003AF832483249334A00F035F83248334997
:10625000334A00F030F833483349344A00F02BF821
:1062600033483449344A00F026F83448344900228F
:1062700000F02CF833483449002200F027F8334866
:106280003349091A082902DB002202604160314AC1
:1062900090471F481F49884205D00268043003B464
:1062A000904703BCF7E700208646EC46002000211B
:1062B000294A9047FEE7884207D0521A05D0037852
:1062C00001300B700131013AF9D17047884202D098
:1062D00002700130FAE770470000012000F800204A
:1062E0000000012000000120B80F04007C590020AC
:1062F000D45A0020D0630200D0630200D2DD030034
:10630000B80F04007C5900207C5900206CDF03008A
:106310006CDF03006CDF03006CDF03006CDF030045
:106320006CDF03006CDF03006CDF0300B60F0400BA
:1063300010110400D45A0020D45A0020D45A00204E
:10634000B4810020B4810020B4810020B4810020F9
:10635000B48500209D630200D1300300FEE7FEE714
:10636000FEE7FEE7FEE7FEE7FEE7FEE7FEE7FEE705
:1063700000F002B8FFF7FCBF0F484FF00701884359
:1063800085460E4880470E48016841F4700101605F
:10639000BFF34F8FBFF36F8FFFF732BF09480A4932
:1063A0000A4A884207D0521A05D0037801300B7090
:1063B0000131013AF9D17047000001203DBF0200D0
:1063C00088ED00E058DF0300685900207C59002068
:1063D00000B585B00190019B002B0AD0074B43F01C
:1063E00001030393019B9B010293039B029898472F
:1063F00000E000BF05B05DF804FB00BF80DF0300D4
:1064000000B583B00190019B002B0AD04FF47A7045
:10641000FFF7DEFF019B013B0193019B002BF5D1B0
:1064200000E000BF03B05DF804FB08B50DF028F8EC
:1064300000BF08BD00B589B0039002910192019B95
:10644000002B33D00023079303230693029A079B64
:106450001344019A194600200CF09CFF0590079AFE
:10646000059B13440793019A059BD31A0193059B3F
:10647000002B13D10F4B1B7883F00103DBB2002BF1
:1064800013D10120FFF7BCFF069B013B0693069B3F
:10649000002B03D1074B00221A7007E0054B0122A5
:1064A0001A70019B002BD1D100E000BF00BF09B0E2
:1064B0005DF804FBD45A002000B585B0039002912A
:1064C000054B00934023054A0299039800F012F807
:1064D00000BF05B05DF804FB35640200D85A002007
:1064E00082B0019000BF02B0704782B0019000BF3F
:1064F00002B0704700B5A1B00590049103920293D9
:10650000049805F021FB039B1593029B169300232F
:10651000179300238DF8603000231993229B1A9360
:1065200000231F930FA91F9B0822049805F0CAFBA4
:1065300008231F93119B1293BDF84030ADF84C30E7
:10654000BDF84230ADF84E3000238DF851309DF843
:106550003C3003F00303DBB2012B26D10F9BC3F3C6
:1065600095231C939DF83C30C3F3C203DBB28DF836
:106570005030BDF83C30C3F38313DBB21B931B9B3D
:106580009A0009A91F9B049805F09CFB1B9B9B008C
:106590001F9A13441F9312AA09A915AB009313461F
:1065A0001B9A1C9800F0E4FF2FE09DF83C3003F0AC
:1065B0000303DBB2022B28D1BDF83E30C3F38913AD
:1065C0009BB21E939DF83C30C3F3C203DBB28DF83F
:1065D00050301E9B082B28BF08231D9307A91F9B23
:1065E0001D9A049805F06EFB1F9A1D9B13441F9380
:1065F0001E9A1D9BD31A1E9315AB12AA07A81D99AC
:1066000001F058F81E9B002BE3D1049805F0ABFA7B
:1066100000BF21B05DF804FB00B583B00190019B81
:106620001B781A460C4B9B5C002B05D0019B043356
:1066300018460AF0F3FF0BE0019B1B781A46064B45
:106640009B5C002B04D1019B0C3318460AF0F2F935
:1066500000BF03B05DF804FB6474002000B587B090
:106660000390029113468DF8073000230593039B96
:106670001B781A46114B9B5C002B09D0039B0433FB
:106680009DF80720029918460BF01EF805900FE0C0
:10669000039B1B781A46094B9B5C002B08D1039B7C
:1066A0000C339DF80720029918460AF03BFA059032
:1066B000059B184607B05DF804FB00BF647400201A
:1066C00082B001900091034B01221A7000BF02B00A
:1066D000704700BF585B002030B58DB003468DF881
:1066E0000730194B02AC1D460FCD0FC495E80F00C3
:1066F00084E80F00062302934FF0FF3303934FF01B
:10670000FF3304934FF0FF3305934FF0EB7308937F
:106710009DF80730002B01D00C4A00E0002202ABAC
:1067200019460B4808F08AFD0B900B9B0A930A9BB5
:10673000002B02D00A9801F005FB064A9DF80730AD
:10674000137000BF0DB030BD88DF0300C1660200CA
:106750007C590020595B002000B583B001238DF8DF
:1067600007309DF807301846FFF7B6FF00BF03B0AB
:106770005DF804FB00B589B0039002910192019B82
:106780008DF81F30114B00221A709DF81F301A46E9
:1067900002990F48FFF762FF0690069B0593059B41
:1067A000002B02D0059801F0CDFA00BF094B1B78F1
:1067B000002B07D0054B1B78DBB283F00103DBB263
:1067C000002BF3D100BF09B05DF804FB585B00203B
:1067D0007C590020595B002000B585B003900291E0
:1067E000054B00934023054A02990398FFF782FE68
:1067F00000BF05B05DF804FB75670200185B002060
:1068000082B0019000BF02B07047000000B583B0B5
:1068100001900548FFF700FF0020FFF75DFF00BF74
:1068200003B05DF804FB00BF7C59002082B00190EA
:10683000019BDB6801225A7100BF02B07047000063
:1068400000B583B04FF0FF330193FFF7EEFD042155
:106850000A4800F0A7FD01900848FFF7E7FFFFF79F
:106860007BFF0421064800F09DFD01900448FFF7DE
:10687000DDFF00BF03B05DF804FB00BF38DF03009D
:1068800048DF030000B583B001900091019B1B68B5
:106890001B6800990198984700BF03B05DF804FB9E
:1068A00000B583B00190019B1B685B680198984715
:1068B00000BF03B05DF804FB00B583B00190019BFD
:1068C0001B689B680198984700BF03B05DF804FB04
:1068D00082B001900B468DF80330019BDB689DF878
:1068E00003201A7100BF02B0704782B00190019B73
:1068F000DB681B79184602B0704782B00190019B9B
:10690000DB6801225A7100BF02B0704782B001906B
:10691000019BDB685B79184602B0704700B585B013
:1069200001900091154BFF229A60144B00221A60CF
:10693000124B00225A60114B0022C3F818240F4B4F
:106940000022C3F814240D4B002283F820240C48A5
:1069500005F05EF80390039B002B01D0039B08E039
:10696000084805F0C3F9084A084BD31ADB0802931C
:106970000023184605B05DF804FB00BFC45C00208E
:106980005CDE0300D8DF030038DF030070DE0300A5
:10699000024A034BD31ADB081846704738DF03005E
:1069A00070DE030000B587B001900B468DF8033010
:1069B0009DF80330002B1FD0FFF7EAFF049000235F
:1069C000059313E0059B9B000E4A13440393039B1E
:1069D0001B881A46019B1B689A4204D1019B059AA9
:1069E0001A60002309E0059B01330593059A049B77
:1069F0009A42E7D3052300E00023184607B05DF86C
:106A000004FB00BF7C59002000B585B001900B4607
:106A10008DF803309DF8032001AB11461846FFF7AF
:106A2000C1FF0346002B07D1019BDB00054A13443D
:106A30000393039B1B6800E00023184605B05DF834
:106A400004FB00BF70DE030084B001900B468DF89C
:106A50000330019BDB00174A134402939DF8033077
:106A6000013B032B1CD801A252F823F07D6A0200DF
:106A7000856A02008D6A0200976A020002238DF87F
:106A80000F3011E004238DF80F300DE0029B1B79CD
:106A90008DF80F3008E0029B5B798DF80F3003E032
:106AA00000238DF80F3000BF9DF80F30184604B05A
:106AB000704700BF70DE030084B001900091002396
:106AC0008DF80F30019B1B7803F00403DBB2002B21
:106AD00024D0019B1B78C3F30103DBB2012B02D04E
:106AE000022B0CD017E0009B1B68019A1288C2F39E
:106AF0008312D2B213449A1C009B1A600BE0009BD5
:106B00001B68019A5288C2F3891292B213449A1CEC
:106B1000009B1A6000BF01238DF80F309DF80F30E5
:106B2000184604B07047000000B58BB00023ADF8E4
:106B300026303B4803F055FE3A4803F052FE3A4BEC
:106B40005B680493384B9B680693049A069B13403A
:106B500002339B00344A13440433089304AB1946B0
:106B60000898FFF7A9FF0346002B09D0049A069B5B
:106B7000134002339B002C4A134404330893EDE77F
:106B800000BF0023079311E0049B5A1C0492069A4D
:106B90001340079A920001A90A44234902339B003B
:106BA0000B445B681360079B01330793079B012B22
:106BB000EAD99DF80430C3F30103DBB2012B10D0F6
:106BC000022B1CD1BDF80A30ADF82630BDF80630D6
:106BD000C3F389139BB203339A08049B13440493B1
:106BE0000EE0BDF80A30ADF82630BDF80430C3F32E
:106BF0008313DBB21A46049B1344049300E000BFE6
:106C0000084803F0FAFD0590059B002B02D0049B79
:106C1000054A5360BDF8263018460BB05DF804FBFA
:106C2000DC600020D8600020C45C002000B585B086
:106C30000021074803F00AFD0390039B0293029B87
:106C400083F310030193019B184605B05DF804FB24
:106C5000E060002000B589B003900291019200939A
:106C6000039B1B0C0693FFF7E1FF0790079B19049A
:106C7000009B5A1C0A9B1340069A0A431B49023385
:106C80009B000B445A60009A0A9B134002339B00FE
:106C9000164A134404330593039B03F00703D9B248
:106CA000059A137861F3C5031370019B03F00F037A
:106CB000D9B2059A138861F389131380029BC3F339
:106CC0001501059A136861F39F231360059A1378E1
:106CD000012161F301031370059A13786FF38203A6
:106CE000137000BF09B05DF804FB00BFC45C002056
:106CF00000B58DB00390029113468DF80730039BC9
:106D000002330A9301238DF8273000238DF81B30BE
:106D10000DF11B03184601F027FA404B1A68029B3D
:106D20001A603E4B9A683D4B59683C4B1B68CB1A26
:106D3000134401330B9314E00121394803F015FD8E
:106D4000FFF7F2FE07900799354803F00EFD334B2D
:106D50009A68324B5968314B1B68CB1A1344013384
:106D60000B930A9A0B9B9A42E6D89DF82730002B8A
:106D700048D0002305939DF80730002B17D09DF8CD
:106D80001430012262F301038DF814309DF81430A1
:106D900043F004038DF81430039B03F00F03DAB2C1
:106DA000BDF8143062F38913ADF8143016E09DF885
:106DB0001430022262F301038DF814309DF8143070
:106DC00043F004038DF81430039BC3F309039AB214
:106DD000BDF8163062F38F13ADF816300F4B1A68FA
:106DE0000E4B9B68134002339B000C4A1344043340
:106DF0000893059A089B1A60084B1A680A9B13446B
:106E0000064A13609DF81B30184601F0B7F99DF84B
:106E1000273018460DB05DF804FB00BFC45C0020AD
:106E2000E060002000B58BB00590049103920293BE
:106E30001F4B9B68079306AB012219460298FFF788
:106E400057FF0346002B24D0069B023309930023EF
:106E5000089311E0089B9B00039A1A44099B591C54
:106E6000099107990B401268114902339B000B44AA
:106E70005A60089B01330893089A029B9A42E9D30F
:106E8000069A079B00931346029A04990598FFF708
:106E9000E1FE074B93F82034002B05D000BF00F033
:106EA00079F80346002BFAD100BF0BB05DF804FB64
:106EB000C45C002000B583B0019000910023002243
:106EC00000990198FFF7AEFF00BF03B05DF804FB27
:106ED00000B587B0039002910192019B059305AA2A
:106EE000012302990398FFF79DFF00BF07B05DF8EB
:106EF00004FB00B587B00390029101920093019BBF
:106F00000493009B059304AA022302990398FFF7B8
:106F100089FF00BF07B05DF804FB00B589B003909E
:106F2000029101920093019B0593009B06930A9B9B
:106F3000079305AA032302990398FFF773FF00BF85
:106F400009B05DF804FB00B589B00390029101928D
:106F50000093019B0493009B05930A9B06930B9B54
:106F6000079304AA042302990398FFF75BFF00BF6D
:106F700009B05DF804FB0000054B5A68044B1B6820
:106F80009A420CBF01230023DBB21846704700BFB2
:106F9000C45C002000B599B0FFF7EEFF0346002B5C
:106FA00001D00023BEE19B4B0022C3F81824BFF39D
:106FB0004F8F00BF974B5B680493964B9B68109371
:106FC000049A109B134002339B00924A13440433EB
:106FD0001193002317930023169300230F9304AB00
:106FE00019461198FFF768FD0346002B19D0894B0D
:106FF000D3F81834002B14D1864B1A68049B9A429C
:1070000005D8844B1B68834A536000238AE1049AA5
:10701000109B134002339B007E4A134404331193A8
:10702000DDE70023159311E0049B5A1C0492109A8B
:107030001340159A920001A90A44764902339B0035
:107040000B445B681360159B01331593159B012B53
:10705000EAD99DF8043003F00303DBB2022B40F0C1
:107060009C80BDF80630C3F389139BB20D93BDF825
:107070000630C3F389139BB2502B28BF50239BB219
:107080000C930C9BC3F309039AB2BDF8063062F36C
:107090008F13ADF806300C9B08330B939DF804302A
:1070A000C3F3C203DBB20F930B995B4804F0BBFC44
:1070B0001790179B002B00F0D180179804F044FD27
:1070C00001A9169B0822179804F0E8FD169B0833C7
:1070D0001693049BDA43109B134001339B000A93E1
:1070E0000C9A0A9B9A4242D90A9B002B08D0049A18
:1070F000109B134002339B00464A1344043300E0C4
:10710000464B08930A9B002B02D00A9BDBB201E09E
:107110000C9BDBB28DF81F300A9B002B01D03F4B3C
:1071200000E0002306930A9B002B06D00C9BDAB2EA
:107130000A9BDBB2D31ADBB200E000238DF81730D4
:107140009DF81F20169B0899179804F0A7FD9DF83D
:107150001F30169A13441693069B002B16D09DF8E9
:107160001720169B0699179804F098FD0EE0049AD4
:10717000109B134002339B00264A134404330993A7
:10718000169B0C9A0999179804F088FD0D9B033300
:107190009A08049B1344049360E09DF8043003F0C4
:1071A0000303DBB2012B59D1BDF80430C3F38313C1
:1071B000DBB2062B28BF0623DAB2BDF8043062F337
:1071C0008913ADF80430BDF80430C3F38313DBB288
:1071D00002330E939DF80430C3F3C203DBB20F9366
:1071E0000E9B9B0019460C4804F01DFC1790179B42
:1071F000002B33D0179804F0A7FC01A9169B082296
:10720000179804F04BFD169B083316930023159333
:107210001BE000BFC45C00205CDE0300D05C0020EB
:10722000049B5A1C0492109A134002339B003F4A5D
:107230001344191D169B0422179804F02FFD169B6A
:1072400004331693159B01331593BDF80430C3F333
:107250008313DBB21A46159B9342E1D3179B002B95
:1072600040D0324BD3F810341493304BD3F8183449
:10727000002B1BD0179804F076FC4DE000238DF80E
:107280004F301498FFF742FB0346002B02D0012336
:107290008DF84F309DF84F30002B03D0179914987C
:1072A000FFF7F0FA149BDB681B681493149B002B08
:1072B000E4D1179804F057FC00238DF803300DF14A
:1072C0000303184600F050FF184BD3F81834002B76
:1072D00002D1049B154A53609DF80330184600F014
:1072E0004DFF19E0114BD3F81034129306E01298B9
:1072F000FFF7E2FA129BDB681B681293129B002BCC
:10730000F5D10B4A0B4BD31ADB081B0443F00203E5
:1073100009491846FFF7CEFDFFF72EFE034683F01E
:107320000103DBB2184619B05DF804FBC45C002011
:1073300098DE030070DE0300E8DF030000B585B0CF
:107340000023039323E0164BD3F810340293012358
:107350008DF807300FE00298FFF7C7FA03461A4688
:10736000039B934203D100238DF8073006E0029B74
:10737000DB681B680293029B002BECD19DF8073061
:10738000002B01D0039B07E0039B01330393039B76
:10739000092BD8DD4FF0FF33184605B05DF804FB2C
:1073A000C45C002000B585B001900B468DF8033019
:1073B000FFF7C4FF0390039BB3F1FF3F01D1039B91
:1073C00022E0039BDBB219460198FFF781FA104BCC
:1073D000D3F81034002B08D10D4A019BC2F81034A9
:1073E000019BDB6800221A600DE0094BD3F81034D2
:1073F000DA68019BDB6812681A60054BD3F8103419
:10740000DB68019A1A60039B184605B05DF804FB1F
:10741000C45C002000B583B00D4BD3F81034019349
:107420000B4B012283F8202409E00198FFF765FA4D
:107430000198FFF735FA019BDB681B680193019BFC
:10744000002BF2D100BF00BF03B05DF804FB00BF0A
:10745000C45C002082B00190009100BF02B0704770
:1074600010B584B003900291039BDB88002B0AD0F7
:10747000039BDB881A461F4B009313461E4A1F4985
:10748000029803F088FA039B1B7A052B2ED0039BEE
:107490005B7A002B12D0039B9B881A46039B1B7AB6
:1074A00019461046FFF7D0FA03461A46144B53F814
:1074B00022301A461349029803F06DFA039B1B68A9
:1074C00019460298FFF7C6FF039B1B7A1A460E4B1C
:1074D00053F82240039B9B8800211846FFF794FA3B
:1074E000034622460949029803F055FA00BF04B04A
:1074F00010BD00BF1CE003002CE0030064E00300AB
:10750000B45900207CE00300A059002080E0030073
:1075100000B585B00390029113468DF80730039BA8
:107520001B7A052B0FD0039B5B7A002B06D00D4BEB
:107530001B681A460C49029803F02DFA0B49029871
:1075400003F029FA07E09DF80730002B03D0074924
:10755000029803F020FA029803F005FA00BF05B084
:107560005DF804FBB45900207CE003008CE00300CC
:1075700030B58BB007900691059204930E9B1B7B50
:107580008DF827300E9B00221A730E990498FFF78E
:1075900067FF059B062B7FD801A252F823F000BF9E
:1075A000BD750200C7750200D7750200EB750200B9
:1075B00009760200317602006176020007990E9882
:1075C00003F0E9F969E0069B1B681A4607990E98D3
:1075D00003F0E1F961E0069B1A68069B04331B681F
:1075E00007990E9803F0D7F957E0069B1A68069B97
:1075F00004331968069B08331B6800930B460799F0
:107600000E9803F0C8F948E0069B1968069B0433FE
:107610001868069B08331B68069A0C3212680192A0
:10762000009303460A4607990E9803F0B4F934E034
:10763000069B1868069B04331C68069B08331B686E
:10764000069A0C321268069910310968029101926B
:1076500000932346024607990E9803F09CF91CE01C
:10766000069B1C68069B04331D68069B08331B6839
:10767000069A0C321268069910310968069814307F
:10768000006803900291019200932B4622460799CD
:107690000E9803F080F900E000BF00220E990498D4
:1076A000FFF736FF0E9B9DF827201A7300BF0BB023
:1076B00030BD00BF00B587B00390029101920093E6
:1076C000029B082B60D8009B1B7B8DF81330009B1E
:1076D00000221A7300990198FFF7C2FE0023059358
:1076E00014E0059A029B9A4209D2039A059B13441F
:1076F0001B781A462649009803F04DF903E0254906
:10770000009803F048F9059B01330593059B072B6F
:10771000E7D92149009803F03EF90023059326E0BC
:10772000059A029B9A421BD2039A059B13441B782D
:107730008DF812309DF812307E2B0AD89DF8123049
:10774000184616F043FA0346002B02D09DF812307B
:1077500000E02E231A461149009803F01CF903E0BB
:107760000F49009803F017F9059B01330593059B1A
:10777000072BD5D9012200990198FFF7C9FE009B7C
:107780009DF813201A7300E000BF07B05DF804FBFA
:1077900090E0030098E003009CE00300A0E00300F9
:1077A000A4E0030084B003468DF807309DF807304D
:1077B0005B08DBB21A460D4B9B5C8DF80F309DF8D1
:1077C000073003F00103002B04D09DF80F301B0994
:1077D000DBB204E09DF80F3003F00F03DBB28DF84D
:1077E0000E309DF80E30184604B07047206100201E
:1077F00084B003460A468DF8073013468DF80630EC
:107800009DF8073003F00103002B01D00F2300E0A7
:10781000F0238DF80F309DF8073003F00103002BA3
:1078200004D09DF806301B01DBB201E09DF8063064
:107830008DF80E309DF807305B08DBB21A46114B0D
:107840009A5C9DF807305B08DBB219469DF80F3053
:107850001340DAB20B4B5A549DF807305B08DBB289
:107860001A46084B9A5C9DF807305B08DBB2194654
:107870009DF80E301343DAB2024B5A5400BF04B0E5
:10788000704700BF2061002084B003468DF80730A8
:107890000023039310E00D4B1A68039BDB00134495
:1078A0000293029B1B789DF807209A4201D1029B0C
:1078B00009E0039B01330393054B1B781A46039B96
:1078C0009342E8DB0023184604B07047E8600020CC
:1078D000EC60002000B585B003460A468DF80730FD
:1078E00013468DF806309DF807301846FFF7CCFF99
:1078F0000390039B002B0BD0039B5B68002B07D0EE
:10790000039B5B689DF806109DF80720104698477A
:1079100000BF05B05DF804FB2DE9F04F87B00346CA
:107920000A468DF80F3013468DF80E309DF80F3053
:107930001846FFF737FF0346042B00F2C28001A26E
:1079400052F823F059790200CD790200E97902005A
:10795000197A02002F7A02009DF80E30002B00F0F9
:10796000AD809DF80F3001211846FFF741FF00233D
:107970008DF817300DF11703184600F0F5FB9DF850
:107980000F104FF001024FF00003A1F12004C1F1EC
:10799000200003FA01F702FA04F4274322FA00F068
:1079A000074302FA01F6494BD3E9002346EA0201F4
:1079B00000913B430193454BDDE90012C3E90012FE
:1079C0009DF81730184600F0D9FB77E09DF80E308F
:1079D000002B01D0022200E000229DF80F3011465A
:1079E0001846FFF705FF6CE09DF80E30002B0CD019
:1079F0009DF80F3003211846FFF7FAFE9DF80F306F
:107A000001211846FFF766FF5BE09DF80F3001216A
:107A10001846FFF7EDFE54E09DF80E30002B4FD1D5
:107A20009DF80F3004211846FFF7E2FE48E09DF86C
:107A30000E30002B06D09DF80F3003211846FFF7BB
:107A4000D7FE3EE09DF80F3000211846FFF7D0FE2C
:107A50009DF80F3000211846FFF73CFF00238DF8FA
:107A600016300DF11603184600F07EFB9DF80F103E
:107A70004FF001024FF00003A1F12006C1F12000F8
:107A800003FA01F502FA06F6354322FA00F005433F
:107A900002FA01F46FEA04086FEA05090B4BD3E917
:107AA000002308EA020A09EA030B084BC3E900AB0A
:107AB0009DF81630184600F061FB02E000BF00E0C0
:107AC00000BF00BF07B0BDE8F08F00BF1861002005
:107AD00000B583B00648074B1B685B0800221946B7
:107AE00000F00CFA019000BF03B05DF804FB00BF8A
:107AF000F4600020F060002000B587B00190002302
:107B0000059328E01C4B1A68059BDB001344049383
:107B1000049B1B78184608F02DFA03468DF80F30A9
:107B2000049B5B78012B0CBF01230023DBB21A46B8
:107B30009DF80F309A420CBF012300238DF80E30C0
:107B4000049B1B789DF80E2011461846FFF7E4FEB3
:107B5000059B01330593094B1B781A46059B9342FD
:107B6000D0DB074BD3E90023134301D0FFF7B0FF6D
:107B700000BF07B05DF804FBE8600020EC60002067
:107B80001861002000B585B001900B468DF80330D8
:107B9000019BDBB21846FFF777FE0390039B1B782F
:107BA000184608F0E7F903468DF80B30039B5B7825
:107BB000012B0CBF01230023DBB21A469DF80B30CA
:107BC0009A420CBF012300238DF80A309DF80A3039
:107BD000002B06D0054BD3E90023134301D1FFF757
:107BE00077FF00BF05B05DF804FB00BF18610020FF
:107BF00000B58BB003900B4601928DF80B30019BC2
:107C0000092B01D8072367E008F0C4F8034683F086
:107C10000103DBB2002B09D008F06AF80990099B38
:107C20000893089B002B01D0089B55E02C4A039B2E
:107C300013602C4A9DF80B3013702B4A019B136084
:107C400010220021294816F03FF829494FF0000280
:107C50004FF00003C1E9002331E09DF80B30DB0059
:107C6000039A1344079303238DF8143000238DF8EF
:107C700015309DF816306FF300038DF816309DF81F
:107C800016306FF341038DF816309DF816306FF300
:107C900082038DF81630079B9B788DF81530079B73
:107CA0001B78184605AB134A194608F07FF809906F
:107CB000099B0693069B002B01D0069B0CE09DF8C8
:107CC0000B305A1E8DF80B20002BC6D10A4A00211A
:107CD0000A4800F0BDF8034618460BB05DF804FBF7
:107CE000E8600020EC600020F060002020610020AF
:107CF00018610020857B0200F97A0200B4E00300DD
:107D000000B583B0002301930CE00C4B1A68019B73
:107D1000DB0013441B780121184608F0B7F8019BDB
:107D200001330193064B1B781A46019B9342ECD317
:107D30000023184603B05DF804FB00BFE860002094
:107D4000EC60002000B587B001900023039300236E
:107D50000493019B059303AB1A46002144F20100F2
:107D600000F01AF800BF07B05DF804FBBFF34F8FB7
:107D700000BF074BDB6803F4E0620549054B134382
:107D8000CB60BFF34F8F00BF00BF00BFFCE700BF59
:107D900000ED00E00400FA0500B585B00390029103
:107DA000019272B600BFFFF735FB00BFFFF7F2F894
:107DB0000346002BFAD1114A114BD31ADB081B04DE
:107DC00043F001030F491846FFF774F80E4B1B6888
:107DD00003F00103002B00D000BE084A084BD31A61
:107DE000DB081B0443F0020308491846FFF762F85A
:107DF000FFF7BCFF00BF05B05DF804FB98DE030091
:107E000070DE0300B8E00300F0ED00E0C4E0030022
:107E100000B585B00190019806F0BAFB0390039B72
:107E20001B7B002B0CD0039B5B7B83F00103DAB23E
:107E3000039B1A73039B9B68039A1268104698472A
:107E400000BF05B05DF804FB002318467047000032
:107E500000B58BB005900B4603928DF81330059B4F
:107E60001B68089300230993039B002B02D0059BFA
:107E7000002B01D1072338E0089B1B7B002B01D08E
:107E8000082332E0089B5B68002B2BD110220021D5
:107E9000089815F019FF9DF81330002B14BF01232B
:107EA0000023DBB207939DF81330002B0CBF012396
:107EB0000023DAB2089B5A73089B039A9A600D4B11
:107EC0000093089B079A4FF47A710B4806F0B2F8BA
:107ED0000246089B5A60089B5B68002B04D10E2366
:107EE000099301E0082300E0099B18460BB05DF8F8
:107EF00004FB00BF117E0200D4E0030000B58BB08C
:107F0000059004910392059B0993099B5B68089374
:107F1000089B002B01D1082363E0099B1B7B002BEE
:107F200001D000235DE0099B039A1A60EFF30583FB
:107F30000793079B002B2CD00023069306AB00224F
:107F40000092049A0921089806F0B4F80346012B20
:107F500001D0042345E005F0DFFB024606AB00211B
:107F600000910621089806F0A5F80346012B01D0E0
:107F7000042336E0069B002B2FD01C4B4FF0805281
:107F80005A6040BF00BFBFF34F8F00BFBFF36F8F7A
:107F900023E0089806F0E6FA0346002B01D0002300
:107FA0001FE0022300930023049A0421089806F09E
:107FB00081F80346012B01D0042312E005F0A2FB57
:107FC00002460223009300230121089806F072F86C
:107FD0000346012B01D0042303E0099B01221A73FD
:107FE000002318460BB05DF804FB00BF00ED00E075
:107FF00000B589B00390039B0793079B5B680693CA
:10800000069B002B01D1082334E0EFF30583059391
:10801000059B002B1DD00023049304AB002200928B
:1080200000220821069806F045F80346012B01D0EE
:1080300004231FE0049B002B18D0104B4FF08052FC
:108040005A6040BF00BFBFF34F8F00BFBFF36F8FB9
:108050000CE002230093002300220321069806F07F
:1080600029F80346012B01D0042303E0079B0022DB
:108070001A730023184609B05DF804FB00ED00E018
:1080800082B0EFF310830093009B019372B600BFA0
:10809000019B184602B0704762B600BF00BF704730
:1080A00000B585B00190FFF7EBFF0390164B9B687E
:1080B000002B1BD1144B01229A60144BD3F8802063
:1080C000134B1340104A1360104B114AC3F8802021
:1080D0000E4BD3F884300C4A53600C4B4FF0FF32F8
:1080E000C3F88420019B00221A7002E0019B012248
:1080F0001A70039B002B01D1FFF7CEFF0023184617
:1081000005B05DF804FB00BF3061002000E100E035
:10811000FC06FFBD00B585B003468DF80730104B57
:108120009B68002B16D09DF80730002B12D1FFF76B
:10813000A7FF03900B4A0A4B1B681360094A084BC0
:108140005B685360064B00229A60039B002B01D1B1
:10815000FFF7A2FF0023184605B05DF804FB00BF3F
:108160003061002000E100E000B583B0019001988B
:10817000FFF796FF00BF03B05DF804FB00B583B0C6
:1081800003468DF807309DF807301846FFF7C2FF09
:1081900000BF03B05DF804FB82B00190019B03F0C7
:1081A0000303002B0CBF01230023DBB2184602B0EF
:1081B0007047000000B585B00190002303930EE0E6
:1081C0000B4A039B52F82330002B05D0084A039B2F
:1081D00052F8233001989847039B01330393039B84
:1081E000032BEDD900BF00BF05B05DF804FB00BF55
:1081F0004C61002082B001900091019B1B78013BF3
:10820000052B61D801A252F823F000BF258202009D
:108210002D8202005382020085820200A5820200A4
:10822000C1820200009B00221A704EE0009B0122D6
:108230001A70019B1A89009B9A81019B9A88009B66
:10824000DA81019BDA68009B9A60009B00221A7415
:108250003BE0009B02221A70019B1A89009B9A81C5
:10826000019B9A88009BDA81019BDA68009B9A60E7
:10827000019B9B7D062B0CBF01230023DAB2009BE0
:108280001A7422E0009B03221A70019BDA88009B7B
:108290009A81019B1A89009BDA81019BDA68009B15
:1082A0009A6012E0009B04221A70019BDA88009BFE
:1082B0009A81009B0022DA81009B00229A6004E0F0
:1082C000009B05221A7000E000BF00BF02B070479B
:1082D00084B001900091019B0393039A009B9A4202
:1082E00006D2039B1B68B3F1FF3F01D0012300E0DE
:1082F000002303F00103DBB2184604B0704782B0DC
:108300000190019B5B8803339B00019A134418463C
:1083100002B0704700B583B0019000910198FFF75B
:10832000EEFF0246009B934201D2022311E0019B23
:108330009B884FF6FF72934208D0019B1B88002B4D
:1083400004D0019B9B68B3F1FF3F01D1012300E002
:108350000023184603B05DF804FB000000B583B0AD
:108360000190019B002B13D00D4BDB681A46019B3B
:1083700093420DD30A4B1B691A46019B934207D8BF
:108380000198FFF709FF0346002B01D0012300E00D
:10839000002303F00103DBB2184603B05DF804FBD1
:1083A0006859002082B00190019B002B04D0019BF2
:1083B0001B680B4A934201D003230DE0019B043359
:1083C0001B68084A934204D0074A934203D1012311
:1083D00002E0002300E00323184602B0704700BF0C
:1083E000DEC0ADDEFE011EF1FF011EF184B0019082
:1083F000019B1B68B3F1FF3F06D0019B1B680E4A2F
:10840000934201D0002314E0012303930CE0039B6B
:108410009B00019A13441B68B3F1FF3F01D0002376
:1084200007E0039B01330393039BB3F5806FEED307
:108430000123184604B07047DEC0ADDE82B00346AB
:108440000A46ADF806301346ADF80430BDF80620F4
:10845000134913469B0013449B000B4408331A88AE
:10846000BDF804301344ADF80430BDF806200C49C3
:1084700013469B0013449B000B440A331A88BDF833
:1084800004301344ADF80430BDF80430B3F5806F08
:1084900094BF01230023DBB2184602B0704700BF2F
:1084A000FC61002084B00190009148F209630393BD
:1084B0000023ADF80A3027E0BDF80A20164913461C
:1084C0009B0013449B000B4404331B68009A9A42A0
:1084D00015D9BDF80A20104913469B0013449B0090
:1084E0000B4404331B6803F58053009A9A4206D26A
:1084F00000230393019BBDF80A201A8008E0BDF811
:108500000A300133ADF80A30BDF80A30012BD3D957
:10851000039B184604B07047FC61002000B589B089
:10852000039002910192039B03F580530693039BF2
:1085300008330393029B02221A80039B079332E0C5
:1085400006990798FFF7E6FE03468DF817309DF869
:108550001730002B0AD1079B9A68184B1B689A4268
:1085600013D9079B9B68154A13600EE0019B002BF3
:1085700002D0019B01221A709DF81730022B04D102
:10858000029B4FF480621A8014E0029B1A88079BBA
:108590005B8813449BB203339AB2029B1A800798FC
:1085A000FFF7ADFE079006990798FFF791FE034687
:1085B000002BC5D109B05DF804FB00BF5C61002051
:1085C00082B001900091009B9B7D022B09D9019BF9
:1085D0001A89009BDB8813449BB203339AB2019B38
:1085E0001A81019B5A89009BDB88D31A9BB2033BFB
:1085F0009AB2019B5A8100BF02B0704700B583B0A8
:10860000074B1B681946002300930823054A0648B8
:1086100002F06CFD0346184603B05DF804FB00BF92
:1086200024620020D8E003006859002000B585B01E
:1086300003900399002300930823044A044802F09E
:1086400055FD0346184605B05DF804FBE0E0030065
:108650006859002000B585B003460091ADF806309A
:1086600000238DF80F30BDF806300333ADF80A3023
:10867000BDF80A3040F2FE32934202D948F2086354
:108680004BE00023ADF80C303BE0BDF80C20254951
:1086900013469B0013449B000B441B78002B2BD1EB
:1086A000BDF80A20BDF80C3011461846FFF7C6FE8B
:1086B0000346002B20D001238DF80F30009BBDF81E
:1086C0000C201A80BDF80C20164913469B00134459
:1086D0009B000B440A331988BDF80C20BDF80A3002
:1086E0000B4498B20F4913469B0013449B000B4464
:1086F0000A3302461A8008E0BDF80C300133ADF8A9
:108700000C30BDF80C30012BBFD99DF80F30002B79
:1087100001D0002301E048F20663184605B05DF879
:1087200004FB00BFFC61002082B003460A46ADF89E
:1087300006301346ADF80430BDF804200D49134649
:108740009B0013449B000B440A331A88BDF8063083
:10875000D31A9BB2BDF80420033B98B205491346D7
:108760009B0013449B000B440A3302461A8000BF4F
:1087700002B07047FC61002008B50121024801F0F9
:10878000F4FF0346184608BD5C61002000B585B0C3
:1087900003460091ADF80630BDF806202449134683
:1087A0009B0013449B000B4404331B6803F5805368
:1087B0000293009B1B680393039B002B04D0039838
:1087C000FFF79DFD039026E0BDF8062018491346EB
:1087D0009B0013449B000B4404331B680833039332
:1087E00019E002990398FFF795FD0346022B10D07C
:1087F000022B10DC002B02D0012B05D00BE0009BDC
:10880000039A1A6001230EE00398FFF778FD0390A6
:1088100001E0002307E002990398FFF759FD0346A2
:10882000002BDED10023184605B05DF804FB00BF25
:10883000FC61002000B585B001900091019B5B6850
:108840001846FFF78BFD0346002B19D0019B1A89B0
:10885000244B1B899A4213D1019B1A68019B5B68C8
:108860009B689A420CD1019B5B6819460098FFF700
:1088700019FE0346002B0CBF01230023DBB22CE0C2
:10888000009B00221A8023E00023029310E0029B49
:108890000393039B9A68019B1B689A4208D1029A32
:1088A000019B5A600F4B1A89019B1A81012314E026
:1088B000009B1B8802AA11461846FFF767FF034674
:1088C000002BE4D1009B1B8801339AB2009B1A80D5
:1088D000009B1B88012BD7D90023184605B05DF8F3
:1088E00004FB00BF2C62002000B587B0039002910A
:1088F00001920093324B1B78DBB283F00103DBB2B1
:10890000002B02D048F2016355E0019B002B02D0FE
:10891000009B002B49D148F204634CE0009B9B88EC
:108920001946284A0B469B000B449B0013441B78B6
:10893000002B33D124E0009B1B680593039B002B85
:1089400006D0059B9A88039B1B889A4200D017E0AB
:10895000029B002B06D0059B1A88029B1B889A421B
:1089600000D00DE0059B9A68019B1A60009B1A6875
:10897000019B5A60144B1A89019B1A8100231AE04B
:10898000009B9B88009A11461846FFF7FFFE03469E
:10899000002BD0D1009B00221A6000E000BF009B9A
:1089A0009B8801339AB2009B9A80009B9B88012B85
:1089B000B4D948F20963184607B05DF804FB00BF5C
:1089C0003C610020FC6100202C62002000B587B0D3
:1089D0000291019200930346ADF80E30BDF80E20CF
:1089E000324913469B0013449B000B4404331B681D
:1089F00008330593BDF80E202C4913469B00134401
:108A00009B000B4404331B6803F58053049342E03E
:108A100004990598FFF77EFC0346022B25D0022B14
:108A200038DC002B16D0012B34D1019B1B8801337D
:108A30009AB2019B1A80009B1A88059B5B8813449D
:108A40009BB203339AB2009B1A800598FFF757FC3C
:108A5000059020E0029B1B8801339AB2029B1A808A
:108A60000598FFF74CFC059015E0019B1B8801332E
:108A70009AB2019B1A80009B1A880499059BCB1A15
:108A80009B109BB213449AB2009B1A80089B012250
:108A90001A7007E000BF04990598FFF719FC034618
:108AA000002BB5D107B05DF804FB00BFFC610020CE
:108AB00000B585B00190084B0199184601F0B0FC53
:108AC00003901C220021039815F0FEF8039B184622
:108AD00005B05DF804FB00BFEC61002000B583B079
:108AE0000190044B0199184601F0B3FC00BF03B09C
:108AF0005DF804FBEC61002000B583B00190054BEC
:108B00000199184601F0B9FC0346184603B05DF818
:108B100004FB00BFEC61002000B583B00190044B62
:108B20000199184601F0C2FC00BF03B05DF804FBD8
:108B3000EC61002008B50121054801F02EFE034636
:108B4000002B14BF01230023DBB2184608BD00BF71
:108B50004461002000B587B0002305930023ADF8E1
:108B600012300323ADF8103000238DF80F300023AE
:108B7000ADF80C30F7E0BDF80C301A03824BDB681F
:108B8000134402930298FFF70DFC03468DF807305B
:108B90009DF80730032B08D0032B00F3DE80002B59
:108BA00065D0012B00F09880D7E00298FFF71EFCFB
:108BB0000346002B3BD0754B1B68002B29D0BDF81A
:108BC0001220734913469B0013449B000B4402225E
:108BD0001A70BDF812206E4913469B0013449B0087
:108BE0000B440433029A1A60BDF8122068491346F8
:108BF0009B0013449B000B44083302221A80654AF1
:108C0000BDF812305380BDF812300133ADF8123088
:108C100008E05E4A029B13605C4B02229A800123AB
:108C20008DF80F30059B43F00103059396E0BDF8E6
:108C30001030013BADF81030BDF8122054491346F6
:108C40009B0013449B000B440433029A1A60BDF846
:108C500012204F4913469B0013449B000B440322F0
:108C60001A70BDF812300133ADF8123076E0BDF85D
:108C70001220474913469B0013449B000B440022DB
:108C80001A70BDF81220424913469B0013449B0002
:108C90000B440433029A1A60BDF8122013469B005D
:108CA00013449B0008333A4A9918BDF81220134622
:108CB0009B0013449B001033354A13441A46029814
:108CC000FFF72CFC059B43F002030593BDF812301F
:108CD0000133ADF8123041E09DF80F30002B29D060
:108CE000BDF812202A4913469B0013449B000B44F5
:108CF00002221A70BDF81220244B1968244813462A
:108D00009B0013449B00034404331960BDF81220F8
:108D10001F4913469B0013449B000B440833022257
:108D20001A801C4ABDF812305380BDF8123001334E
:108D3000ADF81230154A029B1360002216490298C2
:108D4000FFF7ECFB114B9B88022B01D1042300E0C1
:108D50000823059A1343059300E000BFBDF80C30CB
:108D60000133ADF80C30BDF80C30022B7FF603AFA9
:108D7000BDF81030012B01D800230593059BDBB211
:108D8000184607B05DF804FB6859002024620020F3
:108D9000FC6100202C6200202862002000B587B012
:108DA00003900291039B02229A750299039B1A1D5C
:108DB000002300930423074802F098F90590059BCF
:108DC000002B01D1002301E048F20D63184607B0E3
:108DD0005DF804FB6859002000B587B0039002914C
:108DE000039B1B69002B01D0032200E00122039B9F
:108DF0009A75029B08331946039B03F10C0200236A
:108E000000930423074802F071F90590059B002B9D
:108E100001D1002301E048F20D63184607B05DF868
:108E200004FB00BF6859002000B587B00390029191
:108E3000039B1B78032B01D1052200E00622039B34
:108E40009A75029B04331946039B03F10802002321
:108E500000930423074802F049F90590059B002B75
:108E600001D1002301E048F20D63184607B05DF818
:108E700004FB00BF6859002000B587B003900B4683
:108E8000ADF80A3003990023009304230D4A0E48DD
:108E900002F02CF90590059B002B02D048F20D63DF
:108EA0000BE0BDF80A20094913469B0013449B00C0
:108EB0000B44103301221A700023184607B05DF8E6
:108EC00004FB00BFE8E0030068590020FC610020BB
:108ED00000B589B0019002AB00221A605A609A6016
:108EE000019BDB6802930DF1160202AB1146184696
:108EF000FFF7A0FC0346002B12D0039B0693069BB2
:108F00009A88019BDA80069B1A88019B1A81039B31
:108F1000BDF8162011461846FFF7AEFF079002E095
:108F200048F209630793079B184609B05DF804FBF4
:108F300000B587B00190019B981D02AA0D4B00213E
:108F4000FFF7D2FC0590059B002B08D1039B094A33
:108F5000928811461846FFF78FFF059004E008221B
:108F60000021044814F0B0FE059B184607B05DF8D8
:108F700004FB00BF3C62002000B587B00390029163
:108F8000039B01229A75029B0C331846039B1A69B6
:108F9000039BDB889B00002100910146074802F0FB
:108FA000A5F80590059B002B01D1002301E048F2B4
:108FB0000D63184607B05DF804FB00BF6859002038
:108FC00082B0184B1B8901339AB2164B1A81154B8C
:108FD00000225A80134B00221A730023ADF806308A
:108FE00018E0BDF80620104913469B0013449B006F
:108FF0000B441A78BDF80630002A0CBF012200226B
:10900000D1B2084A13440A469A72BDF806300133B9
:10901000ADF80630BDF80630012BE2D900BF00BF25
:1090200002B070472C620020FC61002084B00190E7
:1090300000238DF80F300023ADF80C3031E0BDF87F
:109040000C301C4A13449B7A002B25D0BDF80C3001
:10905000184A134400229A72BDF80C201649134690
:109060009B0013449B000B440C331B68002B13D153
:10907000BDF80C20104913469B0013449B000B4481
:1090800010331B78002B07D0019BBDF80C201A80F1
:1090900001238DF80F3008E0BDF80C300133ADF836
:1090A0000C30BDF80C30012BC9D99DF80F30184693
:1090B00004B070472C620020FC61002008B5084B0A
:1090C00005221A70074B02229A80064B1B6819462C
:1090D00000230122044802F0EBF80346184608BDBD
:1090E0002C620020246200206859002000B583B063
:1090F000164B5B88ADF80230BDF8022014491346C8
:109100009B0013449B000B440C331B68002B14D1B1
:109110000E4B04221A70BDF802200D4913469B0025
:1091200013449B000B4404331B681946002301229F
:10913000084802F0BDF8019002E0FFF7BFFF019080
:10914000019B184603B05DF804FB00BF2C620020B1
:10915000FC6100206859002000B587B0104B5B68A7
:109160000593104B1A680F4B9B889B001344049384
:10917000059B5B880333ADF80E30094B03221A7050
:109180000499074B5A68BDF80E309B0000200090F0
:10919000054801F0ABFF0346184607B05DF804FB35
:1091A0002C620020246200206859002000B583B0A2
:1091B0000A4B5B880A491846FFF7E8FA0346002B7A
:1091C00003D0FFF7C9FF019002E0FFF78FFF019086
:1091D000019B184603B05DF804FB00BF2C62002021
:1091E0003062002008B50A4B06221A70084B5B88D3
:1091F0001946084A0B469B000B449B00134404335A
:109200001B681846FFF712FA0346184608BD00BF50
:109210002C620020FC61002008B5054B07221A7063
:10922000034B00225A60FFF7E9F90346184608BDD0
:109230002C62002008B50D48FFF7F8FE034683F0C6
:109240000103DBB2002B0BD0094B00221A70084B34
:1092500000225A80064B00225A6041F61D5302E05C
:10926000FFF7A4FF0346184608BD00BF2E6200208A
:109270002C62002082B0094B5B680193019B5B88E4
:109280000333ADF80230064B9A88BDF80230134420
:109290009AB2034B9A8000BF02B070472C62002044
:1092A0002462002082B0184B1B680193174B5B8827
:1092B0001946174A0B469B000B449B00134404338A
:1092C0001B68114A1360114B5B881946104A0B4604
:1092D0009B000B449B0013440433019A1A600B4B10
:1092E0005B881946084B9888094A0B469B000B443B
:1092F0009B001344083302461A80034B02229A80D3
:1093000000BF02B0704700BF246200202C62002022
:10931000FC61002008B51A4B1B78072B2CD801A242
:1093200052F823F0459302007993020079930200EA
:10933000519302005D930200699302006993020059
:1093400071930200FFF73CFE0D4B01221A7014E0EE
:10935000FFF790FF0A4B02221A700EE0FFF7A2FF00
:10936000074B06221A7008E0054B07221A7004E02A
:10937000034B01221A7000E000BF00BF08BD00BF10
:109380002C62002000B587B00190009148F20E6376
:109390000593019B002B05D0634B00225A604FF4CC
:1093A0000643BCE0009B1B79032B00F2AB8001A2BB
:1093B00052F823F0C5930200D39302006194020097
:1093C00081940200009B01221A71FFF717F90590A2
:1093D0009BE000238DF813300023ADF810302BE014
:1093E000BDF81020514913469B0013449B000B44C9
:1093F0001B78022B1BD1BDF810204C4913469B0053
:1094000013449B000B4400221A7001238DF8133083
:10941000BDF81020454913469B0013449B000B44A4
:1094200004331B681846FFF701F9059008E0BDF802
:1094300010300133ADF81030BDF81030012BCFD90A
:109440009DF8133083F00103DBB2002B5CD0364B68
:1094500001221A70344B00225A6041F61D535EE01F
:10946000009B00221A71324B02229A80304B1B68FB
:109470001946002301222F4801F01AFF059044E00D
:10948000009B00221A712A4B1B681846FFF7CEF882
:109490000590294B5B88ADF80E30254B1B68029375
:1094A000BDF80E20214913469B0013449B000B443A
:1094B00004331B681E4A1360BDF80E201B49134677
:1094C0009B0013449B000B440433029A1A60BDF8BE
:1094D0000E20174B9888154913469B0013449B0098
:1094E0000B44083302461A80114B02229A80BDF8C1
:1094F0000E200E4913469B0013449B000B44002290
:109500001A7002E000BF00E000BF059B002B05D0F1
:10951000054B00225A6048F20D6300E00023184614
:1095200007B05DF804FB00BF3C610020FC61002037
:1095300024620020685900202C62002000B587B00A
:1095400001900091009B9B8A1A4613469B0013448E
:109550009B003B4A13440493019B002B06D00099C7
:109560000498FFF72DF84FF4064364E0049B5A6813
:10957000049B1B899B0013440393009B9B7D062B3C
:109580004DD801A252F823F0CD950200F1950200CA
:10959000D9950200E5950200A5950200FD9502000F
:1095A00017960200274B00225A60009B9B69254AB0
:1095B000136025492348FFF73DF9034683F0010373
:1095C000DBB2002B02D048F2096334E00399009823
:1095D000FFF7E4FB059026E003990098FFF7FCFBFA
:1095E000059020E003990098FFF7C6FC05901AE06B
:1095F00003990098FFF718FC059014E0009B0622E1
:109600009A75104B5B68104A128811461846FFF78E
:1096100033FC059007E041F61D53059303E048F243
:109620000E63059300BF059B002B03D0009904989F
:10963000FEF7C6FF059B184607B05DF804FB00BFA8
:10964000FC610020446200205062002000B585B01B
:1096500001900091019B002B02D04FF4064329E0BA
:10966000009B1B79022B1BD0022B1DDC002B02D090
:10967000012B08D018E0009B02221A710098FFF716
:1096800027FC039015E00098FFF752FC0390039B22
:1096900048F2096293420BD141F61D53039307E050
:1096A00041F61D53039304E048F20E63039300E078
:1096B00000BF039B184605B05DF804FB00B585B0FC
:1096C0000190019B002B02D04FF406433DE0214B5B
:1096D0001B7B002B03D01F4B00221A7301E0FFF706
:1096E00019FE1C4B1B78013B062B29D801A252F80E
:1096F00023F000BF11970200199702002197020082
:109700002997020041970200319702003997020021
:10971000FFF790FD039017E0FFF748FD039013E07B
:10972000FFF71AFD03900FE0FFF7E0FC03900BE05A
:10973000FFF758FD039007E0FFF76EFD039003E08D
:1097400048F20E63039300BF039B184605B05DF813
:1097500004FB00BF2C62002000B589B001903B4B98
:109760001B68002B05D13A48FFF7C6F90346374A74
:109770001360364B1B681B78013B052B2BD801A2CD
:1097800052F823F09D970200AD970200AD970200BA
:10979000BD970200BD970200CD9702002B4B1B68BE
:1097A00019460198FFF7EEFD019018E0274B1B6862
:1097B00019460198FFF7C2FE019010E0234B1B6889
:1097C00019460198FFF742FF019008E00198FFF762
:1097D00075FF019003E048F20E63019300BF019B07
:1097E000002B2BD003AB00221A605A609A60DA601B
:1097F0001A61019B41F61D52934201D0019B00E08A
:1098000000230493114B1B6803AA11461846FEF768
:10981000F1FC03AB1846FEF7CDFC0C4B00221A609E
:10982000002301930A48FFF777F9FFF783F903460E
:1098300083F00103DBB2002B02D190E700BF00E010
:1098400000BF00BF09B05DF804FB00BF54620020F8
:109850005862002008B50121054800F06EFF03465C
:10986000002B02D10020FFF777FF00BF08BD00BF2B
:109870004461002000B583B00190019B5B681846ED
:10988000FFF76AFF00BF03B05DF804FB00B58BB0C3
:109890000390029101928DF803300023ADF824303B
:1098A0000023ADF82630534B1B78DBB283F0010365
:1098B000DBB2002B02D048F2016397E0029B002B41
:1098C00002D148F2046391E0029B1B884FF6FF72BD
:1098D000934203D0029B5B88002B02D148F20363C2
:1098E00084E0029B5B681846FEF756FC034683F053
:1098F0000103DBB2002B02D048F2026376E0019B49
:10990000002B11D1029B9B68ADF826300DF11A0295
:10991000BDF8263011461846FEF79CFE0890089BBD
:10992000002B09D0089B61E0019B1B88ADF81A3021
:10993000019B5B88ADF8263005AB1846FFF7B8F8F9
:109940000790079B002B0AD1BDF81A20BDF82630DE
:1099500011461846FEF7E8FE48F2076346E0079B0B
:109960009DF803201A70079B00229A75BDF81A20F3
:10997000079B9A82029B5A68079B1A61FEF7FCFEBE
:109980000246079BDA60029B1A88079B1A81029B9A
:109990005A88079B9A80079BBDF82620DA809DF89D
:1099A0000330032B06D1079B04229A75039B1A6888
:1099B000079B9A61079BBDF824205A8105AB184686
:1099C000FFF78CF8039B002B0DD0039B00225A60FD
:1099D000079BDA68039B1A60039B00229A72064B6E
:1099E0001A89039B1A81FFF735FF002318460BB035
:1099F0005DF804FB3C6100202C62002000B585B0BE
:109A000001900C4B1B68042B03D148F20B630393AA
:109A10000BE0084B1B680849019A41F823200121FB
:109A2000044800F0A2FE00230393039B184605B0F0
:109A30005DF804FB486100204C61002084B040F6D2
:109A4000F8731B68B3F1FF3F02D10F4B1B6802E0B4
:109A500040F6F8731B6803934FF080531B69029321
:109A60004FF080535B690193039BB3F1FF3F04D137
:109A7000019B029A02FB03F300E0039B0093009B0F
:109A8000184604B0704700BF1410001000B583B032
:109A90004FF440530193FFF7D1FF0346054A13618A
:109AA000044B1A69019BD31A024AD36000BF03B06A
:109AB0005DF804FB6859002008B5FFF7E7FF0022B6
:109AC0000349044801F0CAFA0346184608BD00BF1E
:109AD00010E903006859002008B504481C238C22B3
:109AE000034900F056FC00BF08BD00BFEC61002038
:109AF0006061002000B58BB002AB00221A605A6092
:109B00009A60DA601A61424B1B78DBB2002B05D0F9
:109B100002AB1846FEF74EFB002375E03D4800F00F
:109B200054FE0346002B01D000236DE0FFF7C4FF75
:109B30000990099B002B01D0099B65E0FFF7CCFF42
:109B4000FFF708F803468DF823309DF82330062BE5
:109B500008D0062B12DC002B01D0022B0ED148F2CC
:109B60000A6351E02A4B01221A70294B00225A60E5
:109B700002AB1846FEF71EFB002345E000BF01AB19
:109B80001846FEF795FF0790079B002B02D148F27D
:109B9000076339E0079B01221A709DF82330013BCF
:109BA0000A2B29D801A252F823F000BFD99B02004A
:109BB000F99B0200D99B0200F99B0200F19B020075
:109BC000F99B0200F19B0200F99B0200E19B02005D
:109BD000E99B0200E19B0200079B00221A710CE046
:109BE000079B03221A7108E0079B02221A7104E006
:109BF000079B01221A7100E000BF01AB1846FEF777
:109C00006DFFFFF727FE002318460BB05DF804FB3D
:109C10003C6100204061002000B585B001900091BA
:109C2000019B002B02D0009B002B02D148F2046361
:109C30002AE00DF10A0319460198FEF7FBFD0346E1
:109C4000002B1FD0019B5B680393BDF80A301A46B6
:109C500013469B0013449B0008330D4A13440433FE
:109C60000121184600F081FD009B039A1A60019BB8
:109C70005B6803F10C02009B5A60019B01229A72FF
:109C8000002301E048F20963184605B05DF804FBC3
:109C9000FC61002000B585B00190019B002B02D132
:109CA00048F204633BE00DF10A0319460198FEF700
:109CB000C1FD0346002B2ED0BDF80A3019461A4AC2
:109CC0000B469B000B449B0013440C331B68002B7A
:109CD0001DD0019B9B7A002B19D0BDF80A301A4683
:109CE000114913469B0013449B000B440C331B6823
:109CF000591E0D4813469B0013449B0003440C332C
:109D00001960019B00229A720023039306E048F237
:109D10000563039302E048F209630393039B18462B
:109D200005B05DF804FB00BFFC61002000B583B006
:109D3000019000910223002200990198FFF7A6FDEF
:109D40000346184603B05DF804FB00B583B00190EC
:109D50000091019B002B02D148F2046306E003232B
:109D6000002200990198FFF791FD0346184603B0C1
:109D70005DF804FB00B585B00346ADF806301A4B1C
:109D80001B78DBB283F00103DBB2002B02D048F278
:109D9000016324E0BDF806304FF6FF72934202D112
:109DA00048F203631BE002AB1846FEF781FE039006
:109DB000039B002B02D148F2076310E0039B0522AE
:109DC0001A70039B01221A71039BBDF80620DA80EA
:109DD00002AB1846FEF782FEFFF73CFD0023184653
:109DE00005B05DF804FB00BF3C61002000B583B006
:109DF000154B1B78DBB283F00103DBB2002B02D0E2
:109E000048F201631BE06B461846FEF751FE0190D5
:109E1000019B002B02D148F2076310E0019B062250
:109E20001A706B461846FEF759FE084B1B78002B3C
:109E300002D0064B01221A73FFF70CFD00231846CF
:109E400003B05DF804FB00BF3C6100202C620020E1
:109E500000B585B0029201930346ADF80E300B4673
:109E6000ADF80C3003A90DF10E00019B029AFEF72C
:109E70003BFD0346184605B05DF804FB00B585B010
:109E8000034602910192ADF80E300DF10E01019BD7
:109E9000029A0020FEF728FD0346184605B05DF83B
:109EA00004FB00B585B0034602910192ADF80E3077
:109EB0000DF10E00019B029A0021FEF715FD0346ED
:109EC000184605B05DF804FB82B001900091019B3B
:109ED000002B02D0009B002B02D148F2046304E067
:109EE000019B1A68009B1A600023184602B0704755
:109EF00010B586B003904FF48063ADF814300023A2
:109F0000ADF812304F4B1B78DBB283F00103DBB2AC
:109F1000002B02D048F2016391E0039B002B02D199
:109F200048F204638BE012220021039813F0CCFE68
:109F3000039B03221A800023ADF816307AE0BDF8A7
:109F40001620414913469B0013449B000B440833E1
:109F50001988BDF816203C4813469B0013449B000B
:109F600003440A331B880B44ADF81030BDF81620AB
:109F7000354913469B0013449B000B4404331B6874
:109F80001846FEF70FFA0346032B05D1039B1B88E7
:109F9000013B9AB2039B1A80BDF816202A4913464A
:109FA0009B0013449B000B440C331968039B5A8895
:109FB0008BB213449AB2039B5A80039B1989BDF854
:109FC0001620214813469B0013449B0003440A3388
:109FD0001B880B449AB2039B1A81039B5A89BDF8D4
:109FE000103013449AB2039B5A81BDF81420BDF877
:109FF0001030D31AADF81230039B9B89BDF81220A4
:10A000009A4203D9039BBDF812209A81039B191D24
:10A01000039B9A1D039B03F10E04039B1033BDF8B1
:10A02000160000932346FEF7D1FCBDF8163001332D
:10A03000ADF81630BDF81630012B80D90023184634
:10A0400006B010BD3C610020FC6100201EF0040F32
:10A050001CBFEFF309800AE0EFF308800549064AC8
:10A06000884201D8904202D88D464FF00000034B41
:10A07000184700000000012000F80020C5A00200E1
:10A0800000BF00BFBFF34F8F00BF074BDB6803F477
:10A09000E0620549054B1343CB60BFF34F8F00BF10
:10A0A00000BF00BFFCE700BF00ED00E00400FA05C0
:10A0B00000B583B00190FFF7E5FF00BF03B05DF886
:10A0C00004FB000010B588B00390FDF7A3F900BFB2
:10A0D000FCF760FF0346002BFAD1039B0693544B19
:10A0E0009B6A0593069B002B35D0524A524BD31ADC
:10A0F000DB081B0443F00100069B9B691A464F498D
:10A10000FCF7E6FE4B4A4C4BD31ADB081B0443F02A
:10A110000100069B1968069B5C68069B9B68069A73
:10A12000D2680192009323460A464549FCF70BFF8B
:10A13000404A414BD31ADB081B0443F00100069B45
:10A140001A69069B5969069BDB6900930B463D49DA
:10A15000FCF7E3FE0AE0374A374BD31ADB081B044F
:10A1600043F0010338491846FCF7A4FE304BDB6A84
:10A1700003F00203002B0AD02E4A2F4BD31ADB0820
:10A180001B0443F0010331491846FCF793FE0023FA
:10A19000079320E00122079B02FA03F31A46059B6E
:10A1A0001340002B14D02A4A079B52F82330002B6F
:10A1B0000ED0204A204BD31ADB081B0443F00100C9
:10A1C000234A079B52F823301A462249FCF780FEA7
:10A1D000079B01330793079B192BDBD9059B03F0E2
:10A1E0008003002B0CD0134A134BD31ADB081B043B
:10A1F00043F001030E4A526B17491846FCF768FEFC
:10A20000059B03F40043002B0CD00A4A0A4BD31AD7
:10A21000DB081B0443F00103054A926B0F49184603
:10A22000FCF756FE0398FFF743FF00BF08B010BDD0
:10A2300000ED00E0B8DE030070DE0300F8E003008C
:10A2400010E1030048E1030070E10300A4E1030012
:10A25000D8590020E8E10300F4E1030014E2030010
:10A2600086B001900091019B53E8011F8AB2D88902
:10A2700002449889824228BF121A1889824202BF7A
:10A28000BFF32F8F002307E0C2EA010243E8012059
:10A290000028E9D14FF001038DF80F3005900291AD
:10A2A0000492029A009B1A609DF80F30DBB21846A8
:10A2B00006B0704784B00190019951E8013FC3EAAC
:10A2C000034341E80132002AF7D10392029300BF11
:10A2D00004B0704786B001900091019B53E8021FC3
:10A2E0001FFAA1F2D888824202BFBFF32F8F00234A
:10A2F0000DE0D88902449889824228BF121AC1EA27
:10A30000024243E802200028E8D14FF001038DF813
:10A310000F30059002910492029A009B1A609DF8FA
:10A320000F30DBB2184606B0704784B00190019937
:10A3300051E8023FC3EA234341E80232002AF7D141
:10A340000392029300BF04B0704786B00190019B56
:10A3500053E8021FDA88B1EB314F4FF0000017BF0E
:10A3600089B242EA024241EA024204E05968B1EB92
:10A37000314F08BF012043E802210029E8D18DF8C0
:10A380000F00059104929DF80F30DBB2184606B01D
:10A39000704784B00390029111461A460B46ADF8FF
:10A3A00006301346ADF80430029B002B01D10E237A
:10A3B0001FE0BDF80630BDF80420B3FBF2F102FB4C
:10A3C00001F29B1A9BB2002B01D0092311E0039BE1
:10A3D000029A1A60039B00225A60039B00229A6033
:10A3E000039BBDF806209A81039BBDF80420DA8107
:10A3F0000023184604B0704700B585B0019001985D
:10A40000FFF7A3FF03468DF80F309DF80F30002BA8
:10A4100001D0002300E01123184605B05DF804FBCD
:10A4200000B585B001900091009B19460198FFF797
:10A4300017FF0346002B07D0019B1B68009A128868
:10A4400013440393039B00E00023184605B05DF816
:10A4500004FB00B583B001900091009B1A88009B1B
:10A460005B889A4204D10198FFF724FF012300E0A2
:10A470000023184603B05DF804FB00B585B00190D9
:10A480000091009B19460198FFF724FF0346002B1B
:10A4900007D0019B1B68009A528813440393039BC7
:10A4A00000E00023184605B05DF804FB00B583B05A
:10A4B00001900091009B1A88009B5B889A4204D10E
:10A4C0000198FFF732FF012300E00023184603B094
:10A4D0005DF804FB00B585B001900091009B5B091D
:10A4E0009B00019A1A44009B03F01F03012101FA0B
:10A4F00003F31946104600F0D8F8039000BF05B0EA
:10A500005DF804FB00B583B001900091009B5B09EE
:10A510009B00019A1A44009B03F01F03012101FADA
:10A5200003F31946104600F0A8F80246009B03F01A
:10A530001F0322FA03F303F00103002B14BF0123CE
:10A540000023DBB2184603B05DF804FB00B585B00C
:10A5500001900091009B5B099B00019A1A44009BAB
:10A5600003F01F03012101FA03F3DB4319461046F0
:10A5700000F0CBF8039000BF05B05DF804FB82B09B
:10A5800001900091009B5B099B00019A13441A689B
:10A59000009B03F01F0322FA03F303F00103002BD7
:10A5A00014BF01230023DBB2184602B0704700B588
:10A5B0008BB001900091002309933BE0099B9B0025
:10A5C000019A13441B68DB430693069B93FAA3F39B
:10A5D0000593059BB3FA83F3089323E0099B5B0182
:10A5E000089A13440793079A009B9A421ED2079930
:10A5F0000198FFF787FF034683F00103DBB2002BCE
:10A6000001D0079B1EE0099B9B00019A13441B6825
:10A61000DB430493049B93FAA3F30393039BB3FAE2
:10A6200083F30893089B1F2BD8D900E000BF099B38
:10A6300001330993009B013B5B090133099A9A425C
:10A64000BCD3009B18460BB05DF804FB10B487B078
:10A6500001900091019B009A53E8004F104643E897
:10A66000000191F0000FF7D1059404900391059B30
:10A67000184607B05DF8044B704710B487B00190DE
:10A680000091019B009A53E8004F44EA020043E81E
:10A69000000191F0000FF6D1059404900391059B01
:10A6A000184607B05DF8044B704710B487B00190AE
:10A6B0000091019B009A53E8004F44EA020043E8EE
:10A6C000000191F0000FF6D1059404900391049BD2
:10A6D000184607B05DF8044B704710B487B001907E
:10A6E0000091019B009A53E8004F04EA020043E8FE
:10A6F000000191F0000FF6D1059404900391059BA1
:10A70000184607B05DF8044B704710B487B001904D
:10A710000091019B009A53E8004F04EA020043E8CD
:10A72000000191F0000FF6D1059404900391049B71
:10A73000184607B05DF8044B704710B487B001901D
:10A740000091019B009A53E8004F04EB020043E89C
:10A75000000191F0000FF6D1059404900391059B40
:10A76000184607B05DF8044B704710B487B00190ED
:10A770000091019B009A53E8004F04EB020043E86C
:10A78000000191F0000FF6D1059404900391049B11
:10A79000184607B05DF8044B704710B487B00190BD
:10A7A0000091019B009A53E8004FA4EB020043E89C
:10A7B000000191F0000FF6D1059404900391049BE1
:10A7C000184607B05DF8044B704700B583B00190A0
:10A7D00001210198FFF751FF0346184603B05DF8C9
:10A7E00004FB00B583B0019001210198FFF75DFFE4
:10A7F0000346184603B05DF804FB00B583B0019032
:10A8000000210198FFF769FF0346184603B05DF881
:10A8100004FB82B001900B468DF80330019BDA688F
:10A820009DF803300199098A01FB03F3134418468C
:10A8300002B0704782B001900091009B019AD268EB
:10A840009B1A019A128AB3FBF2F3DBB2184602B0EC
:10A85000704784B00190019B002B01D10E2320E0B2
:10A86000019B9A68019B5B68D31A8DF80F30019B9E
:10A870001B68019A52681A6007E0019B1A68136806
:10A88000591C11609DF80F201A709DF80F305A1E48
:10A890008DF80F20002BF0D1019B1B6800221A714C
:10A8A0000023184604B0704700B585B0019000231E
:10A8B000039300238DF80A300DF10A031846FDF7C3
:10A8C00053FC019B1B681A68019B5B689A421FD965
:10A8D000019B1B681A68013A1A601B681B781946AD
:10A8E0000198FFF796FF0390019B9A68019B1B68F4
:10A8F0001B68D31A8DF80B30019B1B681B799DF8E0
:10A900000B209A4204D9019B1B689DF80B201A71F9
:10A910009DF80A301846FDF731FC039B184605B038
:10A920005DF804FB10B584B001900091009B039387
:10A9300000238DF80B300DF10B031846FDF714FCC6
:10A94000019B1B681C68621C1A6003990198FFF741
:10A9500071FF034623709DF80B301846FDF70EFC7F
:10A9600000BF04B010BD00B583B00190019B9B688F
:10A97000002B0CD0019B5B69019A1069019A116848
:10A98000019A92689847019B00229A6000E000BFFC
:10A9900003B05DF804FB0EB400B584B00190059BD4
:10A9A000002B0AD00023039306AB039303AB1A4694
:10A9B0000599019800F0B4F900E000BF04B05DF81B
:10A9C00004EB03B0704700B583B001900B468DF8DF
:10A9D00003309DF803300A2B03D10D210198FFF7B6
:10A9E000F2FF019B1A68019B9B68581C01998860C3
:10A9F00013449DF803201A70019B9A68019B5B68C1
:10AA00009A4202D30198FFF7AEFF00BF03B05DF892
:10AA100004FB00B587B003900291019200930023DC
:10AA20000593009B03F00103002B24D00BE0029B55
:10AA300001330293059B013305939DF813301946AA
:10AA40000398FFF7C0FF029B1B788DF813309DF829
:10AA50001330002BEBD106E0019B013B0193202139
:10AA60000398FFF7B0FF019A059B9A422ED9019BEC
:10AA7000002BF1D12AE0029B002B0BD0029813F09F
:10AA800078F9059006E0019B013B01932021039892
:10AA9000FFF799FF019A059B9A420FD9019B002B62
:10AAA000F1D10BE0029B01330293059B0133059327
:10AAB0009DF8133019460398FFF785FF029B1B781A
:10AAC0008DF813309DF81330002BEBD100BF07B089
:10AAD0005DF804FB00B589B00390029101920093E8
:10AAE000029B07930123069307E0079A019BB2FBA1
:10AAF000F3F30793069B01330693079A019B9A424F
:10AB0000F3D2009A069B9A4201D9009B06930B9BB5
:10AB100003F00103002B22D10A9B002B1FD00B9BBB
:10AB200003F00203002B06D0009B002B03D130233F
:10AB30008DF8173002E020238DF8173008E00A9BCB
:10AB4000013B0A939DF8173019460398FFF73BFF26
:10AB50000A9B002B03D0069A0A9B9A42EFD301234B
:10AB60000793009B012B03D9009B013B009309E055
:10AB7000029A079BB2FBF3F30493049A019B9A4257
:10AB800000D205E0079B019A02FB03F30793E8E775
:10AB9000029A079BB2FBF3F30493049B079A02FB10
:10ABA00003F3029AD31A0293154A049B13441B78A9
:10ABB00019460398FFF707FF079A019BB2FBF3F3CF
:10ABC0000793079B002BE3D10B9B03F00103002BA2
:10ABD00011D00A9B002B0ED006E00A9B013B0A9382
:10ABE00020210398FFF7EFFE0A9B002B03D0069A63
:10ABF0000A9B9A42F1D300BF09B05DF804FB00BF85
:10AC000004E7030000B589B0059004910392029314
:10AC1000049B002BB8BF5B4206930123079307E018
:10AC2000039B069A92FBF3F30693079B013307936A
:10AC3000039B069A9A42F3DA029A079B9A4201D939
:10AC4000029B07930A9B002B0AD0049B002B04DB7A
:10AC50000B9B03F00403002B02D00A9B013B0A93D9
:10AC60000B9B03F00203002B02D0029B002B16D09B
:10AC70000B9B03F00103002B11D10A9B002B0ED07C
:10AC800006E00A9B013B0A9320210598FFF79BFEF3
:10AC90000A9B002B03D0079A0A9B9A42F1D3049B8C
:10ACA000002B07DA049B5B4204932D210598FFF7E4
:10ACB0008AFE08E00B9B03F00403002B03D02B213A
:10ACC0000598FFF780FE0B9B03F00203002B19D0C1
:10ACD0000B9B03F00103002B14D1029B002B11D11D
:10ACE0000A9B002B0ED006E00A9B013B0A93302101
:10ACF0000598FFF768FE0A9B002B03D0079A0A9B72
:10AD00009A42F1D304990B9B01930A9B0093029BF7
:10AD1000039A0598FFF7DEFE00BF09B05DF804FB5B
:10AD200000B58FB0059004910392049B002B00F0B6
:10AD30009181049B1B788DF83730049B0133049379
:10AD40009DF83730002B00F07C819DF83730252BA3
:10AD500040F06B8100230A9301230C93049B1B7822
:10AD60008DF837309DF83730302B0DD0302B1BDC71
:10AD70002B2B11D02D2B17D10A9B43F001030A93E3
:10AD8000049B0133049312E00A9B43F002030A93ED
:10AD9000049B013304930AE00A9B43F004030A93E3
:10ADA000049B0133049302E000230C9300BF0C9B2F
:10ADB000002BD3D1002309939DF837302A2B0CD1D7
:10ADC000039B1B68191D039A11601B68099A1344A1
:10ADD0000993049B013304931AE0049B1B788DF8BC
:10ADE00037309DF837302F2B12D99DF83730392B5B
:10ADF0000ED8049B01330493099A13469B00134415
:10AE00005B001A469DF837301344303B0993D3E773
:10AE100000230B93049B1B788DF837309DF8373057
:10AE20002E2B1DD1049B01330493049B1B788DF8BA
:10AE300037309DF837302F2B12D99DF83730392B0A
:10AE40000ED8049B013304930B9A13469B001344C2
:10AE50005B001A469DF837301344303B0B93E4E710
:10AE6000049B1B788DF837309DF837306C2B03D05E
:10AE70009DF83730682B07D1049B01330493049B62
:10AE80001B788DF83730EFE79DF83730252B00F031
:10AE9000C280252BC0F2C480782B00F3C180582BD0
:10AEA000C0F2BE80583B202B00F2BA8001A252F8BB
:10AEB00023F000BFA3AF020021B0020021B00200C6
:10AEC00021B0020021B0020021B0020021B0020036
:10AED00021B0020021B0020021B0020021B0020026
:10AEE00039AF02005BAF020021B0020021B00200C6
:10AEF00021B0020021B002005BAF020021B00200CD
:10AF000021B0020021B0020021B0020021B00200F5
:10AF100021B00200E3AF020021B0020021B0020024
:10AF2000C7AF020021B002007FAF020021B00200D3
:10AF300021B00200A3AF0200039B1B68191D039AF6
:10AF400011601B680C930C9B8DF81F309DF81F300F
:10AF500019460598FFF737FD63E0039B1B68191D31
:10AF6000039A11601B680C930A9B0193099B009341
:10AF70000B9B0A220C990598FFF744FE51E0039BB6
:10AF80001B68191D039A11601B680C930C990A9B8E
:10AF90000193099B00930B9B0A220598FFF79AFDEA
:10AFA0003FE0039B1B68191D039A11601B680C93FB
:10AFB0000C990A9B0193099B00930B9B1022059807
:10AFC000FFF788FD2DE0039B1B68191D039A116094
:10AFD0001B6808930A9B099A08990598FFF719FDC1
:10AFE0001FE0039B1B68191D039A11601B680C93DB
:10AFF00030210598FFF7E7FC78210598FFF7E3FC7F
:10B000000C9900230193082300930823102205982C
:10B01000FFF760FD05E025210598FFF7D4FC00E06F
:10B0200000BF049B0133049305E09DF837301946B7
:10B030000598FFF7C8FC049B1B78002B7FF479AEC2
:10B0400000E000BF059B1B7B002B04D00598FFF799
:10B050008AFC00E000BF0FB05DF804FB00B587B0CC
:10B06000059004910392059B002B10D1194A1A4BAD
:10B07000D31ADB081B0443F00100184A18490E23B9
:10B0800000930B461749FBF748FF0E231DE0049B76
:10B09000002B10D10F4A104BD31ADB081B0443F0CE
:10B0A0000100114A0E490E2300930B460D49FBF790
:10B0B00034FF0E2309E0059B049A1A60059B1B6868
:10B0C0001B680399059898470346184607B05DF832
:10B0D00004FB00BFC8DE030070DE030024E70300AA
:10B0E000C8E803002CE7030058E7030010B586B05A
:10B0F0000590049103920293059B002B10D1604AA6
:10B10000604BD31ADB081B0443F001005E4A5F4921
:10B110000E2300930B465E49FBF7FFFE0E23ABE0C8
:10B12000039B002B10D1564A564BD31ADB081B0445
:10B1300043F00100574A55490E2300930B465449EA
:10B14000FBF7EBFE0E2397E0059B1B68002B10D14D
:10B150004B4A4C4BD31ADB081B0443F001004E4A08
:10B160004A49082300930B464949FBF7D6FE0823BA
:10B1700082E0029B002B10D1414A424BD31ADB08DC
:10B180001B0443F00100454A4049092300930B4644
:10B190003F49FBF7C2FE09236EE0059B5B685A68D6
:10B1A000029BB3FBF2F102FB01F29B1A002B10D0C1
:10B1B000334A344BD31ADB081B0443F00100384AEE
:10B1C0003249092300930B463149FBF7A6FE0923B8
:10B1D00052E0049800F01EF90346002B10D1284AD3
:10B1E000284BD31ADB081B0443F001002D4A2749E2
:10B1F000102300930B462649FBF78FFE10233BE0FC
:10B20000039B184600F006F90346002B10D11C4A98
:10B210001C4BD31ADB081B0443F00100224A1B49D4
:10B22000102300930B461A49FBF777FE102323E007
:10B23000029A0499059800F0D3F80346002B10D128
:10B240000F4A104BD31ADB081B0443F00100174AC6
:10B250000E49102300930B460D49FBF75EFE1023A9
:10B260000AE0059B1B68DC68089B0093029B039A1D
:10B2700004990598A0470346184606B010BD00BFC4
:10B28000C8DE030070DE030024E70300DCE80300EF
:10B290002CE70300B8E7030060E7030074E703004E
:10B2A000C0E70300ECE7030004E8030028E803001C
:10B2B00010B586B00590049103920293059B002B74
:10B2C00010D13E4A3E4BD31ADB081B0443F0010069
:10B2D0003C4A3D490E2300930B463C49FBF71DFEBB
:10B2E0000E2368E0059B1B68002B10D1334A344BBA
:10B2F000D31ADB081B0443F00100354A3249082306
:10B3000000930B463149FBF708FE082353E0039BEB
:10B31000002B10D1294A2A4BD31ADB081B0443F017
:10B3200001002C4A2849092300930B462749FBF7C3
:10B33000F4FD09233FE00499059800F078F80346EE
:10B34000002B10D11D4A1E4BD31ADB081B0443F0FF
:10B350000100214A1C49102300930B461B49FBF7AF
:10B36000DCFD102327E0059B5B681B68039A02FB4A
:10B3700003F31A460499059800F032F80346002BAF
:10B3800010D10E4A0E4BD31ADB081B0443F0010008
:10B39000124A0D49102300930B460C49FBF7BDFDE3
:10B3A000102308E0059B1B681C69029B039A049903
:10B3B0000598A0470346184606B010BDC8DE030036
:10B3C00070DE030024E70300F0E803002CE703002D
:10B3D00060E7030074E7030050E8030078E8030027
:10B3E00084B0039002910192039BDB68029A9A4217
:10B3F00009D3029A019B13445A1E039B1B699A426C
:10B4000001D8012300E0002303F00103DBB218465A
:10B4100004B0704782B00190019B03F00303002B3E
:10B420000CBF01230023DBB2184602B0704782B084
:10B4300001900091019B5B681B685A1E009B1340A2
:10B44000002B0CBF01230023DBB2184602B070476B
:10B4500029DF704700BF184628DF704700BF184635
:10B4600000B589B001900091019B1B689B68002B7F
:10B4700035D002AB00221A605A609A60DA601A6115
:10B480005A61009B0393019B9B680793019B1B7967
:10B49000002B02D0012B0DD01AE001238DF80830CB
:10B4A000019B1B690493019BDB680593019B5B690E
:10B4B00006930DE002238DF80830019BDB684FF402
:10B4C000805202FB03F30493019B5B69069300BF68
:10B4D000019B1B689B6802AA1046984700E000BFCA
:10B4E00009B05DF804FB00B587B00190019B5A6973
:10B4F000019B9B69D31AB3F5805F28BF4FF480533B
:10B5000005930422059BB3FBF2F3012B38BF012303
:10B510000593019B1A69019B9B6913440493019B4A
:10B52000DB681A46019B9B6913440393059A0399B0
:10B530000498FFF78DFF0346184607B05DF804FB3B
:10B5400000B583B00190019BDA68019B1B6913442D
:10B550001846FFF781FF0346184603B05DF804FB69
:10B5600008B5034B03491846FEF7A0FF00BF08BD0E
:10B57000E86200201063002008B5084B084918460F
:10B58000FEF77BFF0346074A1360064B1B68002B40
:10B5900014BF01230023DBB2184608BDE862002077
:10B5A000106300200C63002000B583B02A4B1B7A87
:10B5B000002B0BD1FFF7E0FF034683F00103DBB262
:10B5C000002B03D0244B00225A6042E0224B02227F
:10B5D0001A72224B1B681B79002B02D0012B07D05B
:10B5E0000DE01E4B1B681846FFF77DFF019009E038
:10B5F0001A4B1B681846FFF7A3FF019002E00323D4
:10B60000019300BF019B002B03D0019B112B0CD099
:10B610000FE0114B1B7C83F00103DBB2002B17D032
:10B620000021022000F060F912E00B4B01221A7297
:10B630000FE00A4B1B6803211846FFF711FF064B6A
:10B6400000221A72044B00225A60FFF789FF00E0C3
:10B6500000BF03B05DF804FBF86200200C6300201B
:10B6600008B50848FFF7B1F80346002B08D1064B90
:10B670005B7C83F00103DBB2002B01D0FFF794FF6A
:10B6800000BF08BDFC620020F862002084B0019079
:10B690001B4B0022DA60019B1B79002B02D0012B8F
:10B6A00019D028E0019B5A69019B9B69D31AB3F515
:10B6B000805F28BF4FF480530393019B9A69039BDB
:10B6C0001A44019B9A61019B9A69019B5B699A42AA
:10B6D0000ED1012310E0019B1B695A1C019B1A61CA
:10B6E000019B1A69019B5B699A4203D1012303E024
:10B6F00000BF00E000BF0023184604B0704700BF41
:10B70000F862002082B00190084BDB680133074AE1
:10B71000D360064BDB68082B04D9044B0022DA60A7
:10B72000012300E00023184602B07047F8620020B1
:10B7300000B583B001900091019B0C4A5A600C48FF
:10B74000FFF743F80346002B0BD112F001F8034634
:10B750001A46074B1A7407481C238C220649FEF729
:10B7600018FE0023184603B05DF804FB04E903004B
:10B77000F8620020E86200205C62002000B583B01F
:10B780000190009114220021054812F09DFA054B0A
:10B790001846FEF731FE0023184603B05DF804FB9F
:10B7A000F8620020E862002000B587B003900291A3
:10B7B00001920093174A04AB19461046FEF730FE7B
:10B7C0000590059B002B01D104231FE01C220021C2
:10B7D000059812F079FA059B00221A71059B039ACD
:10B7E0001A60059B089A9A60059B029A1A61059B4C
:10B7F000019ADA60059B009A5A61064A04AB194621
:10B800001046FEF726FEFFF72BFF0023184607B071
:10B810005DF804FBE862002000B585B0039002915A
:10B8200001920093029B009A1946019812F023FAA4
:10B830000023184605B05DF804FB000000B587B092
:10B840000390029101920093184A04AB19461046E6
:10B85000FEF7E6FD0590059B002B01D1042320E0B7
:10B860001C220021059812F02FFA059B01221A7163
:10B87000059B039A1A60059B009A9A604FF48052C8
:10B88000029BB3FBF2F2059BDA60059B019A5A61B9
:10B89000064A04AB19461046FEF7DBFDFFF7E0FE53
:10B8A0000023184607B05DF804FB00BFE8620020E3
:10B8B00082B001900091009B184602B0704782B0A0
:10B8C000019000910023184602B0704782B00190A9
:10B8D000044B1B7A002B14BF01230023DBB2184654
:10B8E00002B07047F862002000B585B00190009169
:10B8F000019B022B02D0019B032B48D1274B1B7AC3
:10B90000022B05D0022B35DC002B42D0012B31E07D
:10B9100000238DF80F30019B022B03D0019B032BDA
:10B9200009D011E01E4B1B681846FFF7AFFE034617
:10B930008DF80F3008E01A4B1B681846FFF7E2FE3F
:10B9400003468DF80F3000BF9DF80F30002B10D04C
:10B95000124B00221A72124B1A68019B022B01D162
:10B96000002300E00D2319461046FFF779FDFFF78D
:10B97000F7FD00BF094B5B7C83F00103DBB2002BBA
:10B9800002D0FFF711FE05E011F0C6FE02E000BF95
:10B9900000E000BF05B05DF804FB00BFF8620020C6
:10B9A0000C63002082B0034600918DF80730064BEF
:10B9B00001225A74044B1B7A002B0CBF0123002375
:10B9C000DBB2184602B07047F862002000B583B0C1
:10B9D000034600918DF807309DF80730012B03D006
:10B9E0009DF80730032B0DD1084B00225A749DF8A7
:10B9F0000730012B0CBF01230023DAB2034B1A746A
:10BA0000FFF7D2FD00BF03B05DF804FBF862002031
:10BA100000B583B001900198FEF71BFF034618465E
:10BA200003B05DF804FB00B58BB001900091019B61
:10BA30001B8A043B0793009A079B1344DA1C079B5D
:10BA4000B2FBF3F38DF81B300198FEF72DFF059044
:10BA5000059B002B01D1002338E0059B00221A71C1
:10BA6000059B01225A71079B9AB2059BDA80059BC0
:10BA700009939DF81B30013B0493099B019A1A60BE
:10BA8000002308931DE00198FEF70EFF0390039B2F
:10BA9000002B0ED0059B5B790133DAB2059B5A71FE
:10BAA000099B039A1A60039B019A1A60039B0993EE
:10BAB00004E0059800F00EF8002307E0089B01332E
:10BAC0000893089A049B9A42DDD3059B18460BB055
:10BAD0005DF804FB00B58BB00190019B0793079BB9
