:1000000000000120750300005D0300005F03000095
:1000100061030000630300006503000000000000AE
:100020000000000000000000000000006703000066
:1000300069030000000000006B0300006D03000076
:100040006F0300006F030000310800006F03000021
:100050006F0300006F0300006F0300006F030000D8
:100060006F0300006F0300006F0300006F030000C8
:100070006F0300006F0300006F0300006F030000B8
:100080006F0300006F0300006F0300006F030000A8
:100090006F0300006F0300006F0300006F03000098
:1000A0006F0300006F0300006F0300006F03000088
:1000B0006F0300006F03000000000000000000005C
:1000C0006F0300006F0300006F0300006F03000068
:1000D0006F0300006F0300006F03000000000000CA
:1000E0000000000000000000000000000000000010
:1000F0000000000000000000000000000000000000
:1001000000000000000000000000000000000000EF
:1001100000000000000000000000000000000000DF
:1001200000000000000000000000000000000000CF
:1001300000000000000000000000000000000000BF
:1001400000000000000000000000000000000000AF
:10015000000000000000000000000000000000009F
:10016000000000000000000000000000000000008F
:10017000000000000000000000000000000000007F
:10018000000000000000000000000000000000006F
:10019000000000000000000000000000000000005F
:1001A000000000000000000000000000000000004F
:1001B000000000000000000000000000000000003F
:1001C000000000000000000000000000000000002F
:1001D000000000000000000000000000000000001F
:1001E000000000000000000000000000000000000F
:1001F00000000000000000000000000000000000FF
:10020000354936480A1A02D0072291438D463449AF
:1002100034480A1A06D00722914381F30988022242
:1002200082F3148830483149314A00F044F83148AB
:100230003149324A00F03FF831483249324A00F041
:100240003AF832483249334A00F035F832483349F7
:10025000334A00F030F833483349344A00F02BF881
:1002600033483449344A00F026F8344834490022EF
:1002700000F02CF833483449002200F027F83348C6
:100280003349091A082902DB002202604160314A21
:1002900090471F481F49884205D00268043003B4C4
:1002A000904703BCF7E700208646EC46002000217B
:1002B000294A9047FEE7884207D0521A05D00378B2
:1002C00001300B700131013AF9D17047884202D0F8
:1002D00002700130FAE770470000012000E00020C2
:1002E00000000120000001200C1D00000000002083
:1002F00018000020D0030000D0030000801C000084
:100300000C1D00000000002000000020801C0000E8
:10031000801C0000801C0000801C0000801C00006D
:10032000801C0000801C0000801C00000B1D0000D1
:10033000241D0000180000201800002018000020D4
:10034000B0020020B0020020B0020020B002002065
:10035000B02200209D030000C5110000FEE7FEE76B
:10036000FEE7FEE7FEE7FEE7FEE7FEE7FEE7FEE765
:1003700000F002B8FFF7FCBF0F484FF007018843B9
:1003800085460E4880470E48016841F470010160BF
:10039000BFF34F8FBFF36F8FFFF732BF09480A4992
:1003A0000A4A884207D0521A05D0037801300B70F0
:1003B0000131013AF9D1704700000120BD1200005F
:1003C00088ED00E0801C00000000002000000020FC
:1003D000044B1A5C012393404FF0A042C2F8083549
:1003E000704700BF801C000008B50020FFF7F0FF39
:1003F0000120FFF7EDFF0220FFF7EAFFBDE808400C
:100400000320FFF7E5BFC20708B501460CD54FF042
:10041000A0430322C3F84427C3F84827C3F84C2756
:10042000C3F85027FFF7E0FF8B070AD54FF0A04332
:100430000C22C3F83427C3F83827C3F83C27C3F885
:10044000402708BD1FB50021039001AA44F2010016
:10045000CDE9011100F004F805B05DF804FB0000DF
:1004600072B6094B1B68DB0700D500BEBFF34F8F88
:100470000649074BCA6802F4E0621343CB60BFF33E
:100480004F8F00BFFDE700BFF0ED00E000ED00E0A2
:100490000400FA0549B152B1531E1A4007D18260D7
:1004A00001608380C260104670470E2070470920AB
:1004B000704710B58468C2688388121B934208D3C2
:1004C000C26813400268D154C3680133C36000207E
:1004D00010BD0420FCE78268C3689A420AD0826893
:1004E000838813400268D35C0B7083680133836098
:1004F00000207047052070470648074A03780749DF
:10050000D35C012213B1043000F0E6BD0C3000F0E2
:10051000ABBB00BF000000205000002040000020C6
:100520000648074A03780749D35C012213B1043017
:1005300000F07EBD0C3000F045BB00BF0000002085
:10054000500000204100002037B50578012D0BD068
:10055000022D2ED065B91E491E48FFF7BCFF0028AA
:1005600032D1FFF7DDFF03E0037A1BB9FFF7C4FFC9
:1005700003B030BD4368184C19782046FFF799FF47
:1005800080B18DF800500190144B68461B68984765
:10059000A168E368A2885B1A9A42E7D2104B012255
:1005A0001A70E5E7A268E3689A42F1D08DF800007E
:1005B000EAE7C3688DF800500193FFF79DFF074BF2
:1005C00068461B689847D3E703238DF80030F6E7A9
:1005D00041000020300000201C00002018000020F6
:1005E0002C000020F0B51F46234B89B004461A604A
:1005F0000D4600293DD08A8820480968FFF74AFF48
:10060000002834D1AA89A9681D48FFF743FF0028B4
:100610002DD11C4E0FCE6D460FC596E80F0085E814
:100620000F0063690693237C174A18488DF81C70E5
:10063000003B18BF01238DF81430637C002B14BFDE
:100640000E2300238DF81530E3680293A36803930B
:100650002368019369466368009300F0ABF830B9F2
:100660000B4B18702368013301D0FFF745FF09B029
:10067000F0BD0720FBE700BF180000201C00002091
:1006800030000020841C000049050000000000200C
:100690002C00002070B5084D014608482E78FFF761
:1006A0001AFF044636B100232B70FFF725FF08B16F
:1006B000FFF7C8FE204670BD2C0000201C00002063
:1006C00010B501460E48FFF7F4FE0446A8B90D48E0
:1006D0000D4A0378D35C63B1043000F0F1FC60B9DB
:1006E0000A490748FFF7F7FE38B9BDE81040FFF7A1
:1006F00017BF0C3000F0ACFAF1E7204610BD00BF88
:1007000030000020000000205000002041000020A8
:1007100072B6024A13680133136070474400002028
:10072000034A1368013B136003B962B6704700BF08
:1007300044000020FFF7ECBFFFF7F2BF10B50446FE
:10074000C0B2FFF7BDFF204610BD00001FB5037803
:100750008DF800304368019383688DF80830C368D2
:10076000054A0393054B684653F8213052F821108F
:10077000984705B05DF804FB480000204C000020BD
:100780001FB503788DF800304368019383688DF8B6
:100790000830C368054A0393054B684653F8213077
:1007A00052F82110984705B05DF804FB480000207E
:1007B0004C000020F0B5194B90F800C091F81DE0F6
:1007C00043F82C20164B16460A6943F82C20154B8B
:1007D00003F80CE00C4607460FCC89B06D460FC5F8
:1007E00094E80F0085E80F00CDF810C0BEF1000FAF
:1007F00009D0002E0C4A694608BF3246381D00F069
:100800004FFB09B0F0BD002E084A694608BF3246CA
:1008100007F10C0000F01AF9F3E700BF4C000020CC
:1008200048000020500000204D0700008107000014
:10083000014B1B68184700BF5400002038B50B4B14
:1008400098420C4601D0002038BD0020FFF772FF0F
:10085000074B1D7915B901221C601A710020FFF7A2
:100860006BFF002DEFD01120EEE700BF002000400D
:10087000540000200023435082B043580193019B51
:1008800002B070470A4610B54FF48E71FFF7F2FFC1
:10089000136A9168C95C136A01331362C0F81C15AE
:1008A00010BD024608B500684FF49271FFF7E2FFF1
:1008B0004FF484711068FFF7DDFF136801221A609E
:1008C00008BD8B690A4610B54FF4847123B9FFF750
:1008D000D1FFD0F8183510BDFFF7CCFF536AD168AF
:1008E000D0F81805C854536A01335362F3E7000087
:1008F0001FB501238DF80030044BCDE90110D3E979
:1009000000126846904705B05DF804FB5C000020CB
:1009100030B54C48D0F8043313F4007F85B0054659
:100920004DD0D0F82431002B49D04FF49271FFF70D
:10093000A1FF4FF40173C0F80833434B93F829200B
:100940000AB9012242603F4902228DF80020D1F805
:100950008024C1F8802403929A690292DA68019295
:100960000022C3E906226846D3E9001290473548C1
:10097000D0F81C315BB134494A690B6A9A420A4685
:100980004AD991F82830002B46D1FFF77BFF2D483C
:10099000D0F844318BB14FF4A271FFF76BFF2A4BB3
:1009A00093F829200AB1012202609A692AB1002233
:1009B000586AD9689A61FFF79BFF05B030BDD5F83A
:1009C00004335B07D3D5D5F80831002BCFD01E4CAC
:1009D0001C482146FFF775FF636AA2699A422346C5
:1009E000C5D1E269E1684AB12369E3600023606A26
:1009F000A261E3616362FFF77BFFB8E794F8292007
:100A00000AB901226A600F4A4FF40170C2F8080364
:100A10000022586A9A61EEE70A484FF48E71FFF798
:100A200029FF5369002BB2D05169029100239168CC
:100A30008DF80030019153616846D2E90013984760
:100A4000A5E700BF002000405C0000202DE9F8432E
:100A5000574B057991462C2202FB0532064692F847
:100A60002A200C469846002A40F09D805149006893
:100A7000FFF7E4FE0746002840F0978021683368BE
:100A8000481C0BD04FF0A04001228A40C0F8082536
:100A900001F5E0724FF0030C40F822C06068421C80
:100AA0001FBF00F5E0724FF0A04C4FF0000E4CF865
:100AB00022E0A269C3F8242594F814C0627DBCF139
:100AC000010F4CEA0202C3F86C25C3F81405C3F801
:100AD0000C151DD1A1684A1C1FBF01F5E0724FF033
:100AE000A0404FF0000C40F822C0E268501C0BD030
:100AF0004FF0A04C01209040CCF8080502F5E070C2
:100B00004FF0030E4CF820E0C3F80825C3F8101589
:100B10002C236B4308EB0302C2F80490226948F8C7
:100B20000320B9F1000F2BD03068247F4FF48E7171
:100B3000FFF7A0FE30684FF4A271FFF79BFE32680A
:100B40001D4BC2F80433110B42F30732002AA8BF31
:100B500002F160404FEA4413BABF184801F00F0495
:100B600000F56140DBB2B4BF035580F8003301F0FB
:100B70001F01012303FA01F15209114B43F822101E
:100B800033680422C3F800252C2303FB05830022CD
:100B9000C3E9062283F829205A61012283F82A201A
:100BA0003846BDE8F8830827FAE71127F8E700BFC1
:100BB0005C000020110900008000020014ED00E03C
:100BC00000E100E02DE9F047204F90F804904FF04D
:100BD0002C0808FB097405466669002E34D1626151
:100BE0000068A16026624FF48E7184F82860FFF7D8
:100BF00041FE2868012383602146FFF743FE6368B6
:100C0000A0468BB92868D4F814A0236A9A4511D855
:100C10002A68D2F81C31002BFBD00123D3602C238F
:100C200003FB097300225A613046BDE8F08794F84F
:100C300028303BB9D0F81C31002BF8D04146FFF7E3
:100C400021FEE2E70F26EAE71126EDE75C0000202F
:100C50000379044A2C2101FB03235869003818BF8B
:100C6000012070475C0000202DE9F843394F0579D9
:100C70002C2303FB057306465C6824B103684FF41C
:100C80000170C3F808032C2303FB0573986950B166
:100C9000D86900283ED024B133684FF40172C3F8FC
:100CA0000423112433E09A61D9605862D8612C235F
:100CB00003FB057393F829301BB910B93046FFF7D1
:100CC000F0FD4FF02C0909FB05783068D8F80430A6
:100CD000002B34D14FF4A271C146FFF7CBFD306831
:100CE000D0F82431D0F80821D0F84441B2B90CB979
:100CF000002BF4D02C2202FB05750022AA6123BB35
:100D00002CBB95F8291033680122B1B11A60204636
:100D1000BDE8F8831961DA610120C8E7002BE9D149
:100D2000002CE7D14946FFF7CCFDD8F82430D8F89D
:100D300018209A42D3D82346DCE75A60E7E74FF4FD
:100D40000173C0F804330024E1E70324DFE70F2434
:100D5000DDE700BF5C0000200023435082B0435811
:100D60000193019B02B070471FB501238DF800303D
:100D7000044BCDE90110D3E900126846904705B055
:100D80005DF804FB880000207FB5434AD2F8246157
:100D9000002E60D010464FF49271FFF7DDFF022362
:100DA0008DF80030D2F88034C2F880340393D2F842
:100DB0003C350293394BDA6801920022C3E90622DE
:100DC0006846D3E9001290473348D0F8443173B1F4
:100DD0004FF4A271FFF7C0FF304B9A693AB100227D
:100DE000C3E90622D968D0F83C05FFF7BDFF2A48C1
:100DF000D0F82031ABB14FF49071FFF7ADFF012374
:100E0000C360264B5A6962B1D0F84C15029100229A
:100E100099688DF8002001915A616846D3E9001263
:100E200090471D48D0F858319BB14FF4AC71FFF793
:100E300093FF1A4B5A6962B1D0F84C150291002207
:100E400099688DF8002001915A616846D3E9001233
:100E5000904704B070BDD2F81031002BB4D04FF4DD
:100E600088711046FFF778FF0C4BD2F83C05996962
:100E70008842A9D1DC69D96864B1D2F8005225F062
:100E80002005C2F800521A699C61DA60DE61FFF742
:100E90006BFF99E79C61FAE7002000408800002082
:100EA0002DE9F8435D4B06799146242202FB063278
:100EB000044692F820200D469846002A40F0AA8069
:100EC00057490068FFF7BAFC0746002840F0A480A5
:100ED00029682368481C0BD04FF0A04001228A40AB
:100EE000C0F8082501F5E0724FF0030C40F822C06D
:100EF0006868421C1FBF00F5E0724FF0A04C4FF035
:100F0000000E4CF822E0AA69C3F8242595F814C015
:100F10006A7DBCF1010F4CEA0202C3F86C25C3F8EC
:100F20000C15C3F814051DD1A9684A1C1FBF01F593
:100F3000E0724FF0A0404FF0000C40F822C0EA6889
:100F4000501C0BD04FF0A04C01209040CCF808056D
:100F500002F5E0704FF0030E4CF820E0C3F80825CE
:100F6000C3F810152423734308EB0302C2F804905E
:100F70002A6948F80320B9F1000F3AD020682A7F87
:100F80004FF48871FFF7E8FE20684FF49071FFF787
:100F9000E3FE20684FF49271FFF7DEFE20684FF405
:100FA000A271FFF7D9FE20684FF4AC71FFF7D4FEB1
:100FB00023681C49C3F80413190B43F30733002BB0
:100FC000AEBF03F1604001F00F0517484FEA42122F
:100FD000A8BF00F56140D2B2B4BF425580F80023EB
:100FE00001F01F01012202FA01F15B090F4A42F8E8
:100FF000231023680822C3F80025242303FB06835B
:101000000022C3E906225A61012283F820203846D3
:10101000BDE8F8830827FAE71127F8E788000020E1
:10102000890D00001003420014ED00E000E100E033
:1010300001F06043B3F1005F2DE9F041064638D17D
:101040001E4B0779242505FB073598466C69002C53
:1010500031D16A610068A9604FF49071FFF77CFE9E
:101060004FF4AC713068FFF777FE33686A69A9689E
:10107000C3F84415C3F8482501229A606A68AAB9E2
:10108000D3F82021D3F858411AB9002CF8D00F24F6
:1010900007E0002CFBD10122DA60D3F85821002AA6
:1010A000FBD0242303FB078700237B612046BDE898
:1010B000F0811024FAE71124F8E700BF880000202F
:1010C0000379044A242101FB03235869003818BF1F
:1010D0000120704788000020F8B501F06043B3F1AB
:1010E000005F04460F465ED10379304D242101FB99
:1010F0000351496821B100684FF40476C0F80863D1
:10110000242000FB03539E6956B1D869002839D0CA
:1011100021B123684FF40472C3F80423112030E096
:101120009A61DF60DE6120684FF48871FFF714FE7A
:1011300020684FF4A271FFF70FFE2368C3F83475DF
:10114000C3F8382516BB01221A602179242202FB3C
:10115000015252680ABBD3F81041D3F84421D3F8A6
:101160002401144302D10028F5D02246242303FB96
:1011700001550023984218BF03209A42AB6118BF63
:101180000F20F8BD1F61DA610126CCE7D3F80022F9
:1011900042F02002C3F80022D7E74FF40472C3F8EC
:1011A00004230020EDE71020EBE700BF88000020BB
:1011B0000378022B02D14068FFF744B9012BFAD023
:1011C0007047000030B51A4D8BB00120FFF71BF9B6
:1011D0000FCD04AC0FC495E80300164B164A0093DC
:1011E0004FF4807384E80300CDE902230193134A8E
:1011F0000723694604A8FFF7F5F908B1FFF722F9BC
:101200000F4800F0BFF96846FFF744FA0028FAD10A
:101210009DF80000FFF754FA0028F9D19DF800303E
:1012200003F0DF03512BEED1064800F0ABF9FEE7E7
:10123000CC1C0000AC000020AC010020B11100006B
:10124000A41C0000BE1C00000C4B1B78062B10D108
:101250000B4B1B681A070CD10A4B186800F0F003FF
:10126000302B08D000F0E000A0F140035842584174
:101270007047002070470120704700BFE00F00F06A
:10128000E40F00F0E80F00F0094B1B78062B0CD19F
:10129000084B1B681A0708D1074B186800F0F000CC
:1012A000A0F130035842584170470020704700BFFA
:1012B000E00F00F0E40F00F0E80F00F008B5FFF7D2
:1012C000C3FF28B17D4B7E4A1B68C3F30423136020
:1012D000FFF7DAFF10B17B4B7B4A1A60FFF7B4FFD0
:1012E00028B17A4B7A4A1B68C3F342331360FFF785
:1012F000CBFF20B1774AD36823F08073D360FFF728
:10130000A3FF40B14FF080430022C3F80C21C3F883
:101310001021C3F83825FFF7B7FF10B16E4B032239
:101320001A60FFF7B1FF40B16C4B05221A60012231
:101330009A6700229A603F225A60694B1B78062BFD
:1013400050D1684B1B6819074CD1674B1B6803F0E1
:10135000F003502B46D14FF08052644BD2F8041466
:10136000C3F82015D2F80814C3F82415D2F80C14C9
:10137000C3F82815D2F81014C3F82C15D2F8141499
:10138000C3F83015D2F81814C3F83415D2F81C1469
:10139000C3F84015D2F82014C3F84415D2F8241429
:1013A000C3F84815D2F82814C3F84C15D2F82C14F9
:1013B000C3F85015D2F83014C3F85415D2F83414C9
:1013C000C3F86015D2F83814C3F86415D2F83C1489
:1013D000C3F86815D2F84014C3F86C15D2F8442449
:1013E000C3F87025FFF730FF28B1414B414A1B6815
:1013F00003F04F031360FFF727FF48B14FF080431E
:10140000D3F80024D20744BF6FF00102C3F80024D0
:10141000394B1B68062B08D1384B1B68062B01BFC4
:10142000374A136843F480631360364AD2F8883031
:1014300043F47003C2F88830BFF34F8FBFF36F8F50
:101440004FF01023D3F80022002A03DBD3F8043234
:10145000002B2FDA2C4B0122C3F80425D3F80024EB
:10146000002AFBD04FF010221521C2F80012D3F849
:101470000024002AFBD04FF010231522C3F80422C9
:10148000214B1A46D3F800140029FBD00021C3F8E1
:101490000415D2F80034002BFBD0BFF34F8F19494D
:1014A0001A4BCA6802F4E0621343CB60BFF34F8F5C
:1014B00000BFFDE7164B174A1A6008BD2403001051
:1014C0004035014074C007400DF0ADBA4402001031
:1014D0003C050040F0ED00E0A00500401056004043
:1014E000E00F00F0E40F00F0E80F00F000C0004053
:1014F00058020010E40E00403001001034010010CA
:101500003C17004000ED00E000E001400400FA0557
:10151000140000200090D00338B504460846A268A5
:1015200042B1236861685D1C8D4208BF00208B4278
:1015300008D2D054E3682BB121686268914201D28D
:101540002146984723680133236038BD70B54C1E8F
:1015500009D41646C5B229463046FFF7DDFF013CE7
:10156000B4F1FF3FF7D170BD10F0100F08D108B5EE
:1015700010F4007F14BF30202020FFF7E7FF08BDE4
:10158000704700000FB410B586B008AB53F8044B99
:101590000593002303936FF000430293084B0493D9
:1015A00000F051F8059A214601A800F04FF80446D2
:1015B00000F04AF8204606B0BDE8104004B070477D
:1015C0003D070000037853B159B10144034613F8B5
:1015D000012F12B18B42FAD10B46181A70470346FD
:1015E000FBE70346F9E700F1010110F0030F11D00A
:1015F00010F8012B002A23D010F0030F0AD010F8A6
:10160000012B002A1CD010F0030F03D010F8012B7F
:10161000002A15D02DE970004FF001324FF08033D1
:1016200050F8044BA4EB020525EA04051D4000D147
:10163000F6E7A0F1040070BC10F8012B002AFBD1E2
:10164000A0EB010070477047704700002DE9F04F94
:1016500089B007460392002303600C4614F8011B6F
:10166000002900F0FA82DFF814B5E9E2002507E06E
:101670005E2868D145F4805501E045F040051C46E0
:10168000234613F8010B3028F2D81F2837D9A0F1D0
:101690002002102A33D801A151F822F07B16000055
:1016A000FF160000FF160000E1160000FF16000004
:1016B000FF160000FF160000E7160000FF160000EE
:1016C000FF160000FF160000ED160000FF160000D8
:1016D000F3160000FF160000FF160000F9160000C8
:1016E00045F08005CBE745F40045C8E745F0200507
:1016F000C5E745F01005C2E745F40075BFE72A28A5
:1017000021D1039A111D0391D2F800A0BAF1000F64
:10171000BCBFCAF1000A45F010051878A31C2AEADC
:10172000EA7A2E2826D00021742847D07A2845D07E
:101730006C2800F0A8804C2800F0AB80682800F0EE
:10174000B8801C463DE0A0F13002D2B2092A88BF21
:101750004FF0000AE3D84FF0000A0AEB8A0A30384B
:1017600000EB4A0A13F8010BA0F13002D2B2092AA9
:10177000F3D9D4E718782A280AD1039A111D0391C6
:101780001168587802330029CEDB45F48075CBE729
:101790000133A0F13002D2B2092A88BF0021F4D867
:1017A000002101EB8101303800EB410113F8010BFE
:1017B000A0F13002D2B2092AF3D9E4E71C4614F8AA
:1017C000010B002800F05582A0F12503DBB2532B5A
:1017D00062D8A0F12503532B5ED8DFE813F0760022
:1017E0005D005D005D005D005D005D005D005D0011
:1017F0005D005D005D005D005D005D005D005D0001
:101800005D005D005D005D005D005D005D005D00F0
:101810005D005D005D005D005D005D005D005D00E0
:101820005D005D005D005D005D005D005D005D00D0
:101830005D005D005D005D005D005D005D005D00C0
:101840005D005D00EB005D005D005D005D005D0022
:101850005D005D005D005D005D007B0020015D00BE
:101860005D005D005D0020015D005D005D005D00CC
:1018700095000E01D1005D005D00A6005D0019011C
:101880005D005D00ED001C4614F8010B45F00105FC
:1018900097E745F001051C46B44B1E68002E00F08A
:1018A000CC8103AB0193009153462A463946B04799
:1018B000C3E11878682803D05C1C45F0040580E774
:1018C00045F008059C1C58787BE725213846FFF732
:1018D00023FEB2E1039B1A1D03921E780AF1FF3A20
:1018E0003A4651462846FFF73FFE31463846FFF755
:1018F00013FEA94619F0100F00F09F813A46514699
:101900002020FFF723FE98E115F0080F06D03A6873
:10191000039B191D03911B681A708EE1039B1A1D0E
:1019200003921B683A681A6087E1039B1A1D0392B1
:10193000D3F800808E4BB8F1000F08BF984646469A
:1019400025F4007915F4807F15D04046FFF73AFE64
:101950000546AAEB050A3A4651464846FFF704FEFB
:10196000002DC7D0454416F8011B3846FFF7D4FDBB
:10197000B542F8D1BEE74046FFF735FE0546E8E739
:10198000039B1A1D03921B6815F0800F0CBF0026E5
:10199000232645F4807508211A46002B00F0298182
:1019A00005AB4FF0000805F4005CA64660468C4687
:1019B0000146D1E045F4005515F0800F1BD043F2ED
:1019C000780643F25803782818BF1E4615F4807F26
:1019D00001D025F4007515F4804F32D0039B1A1DF9
:1019E00003921B6815F0040F1FD01BB2002B20DAE6
:1019F0005B422D262DE00026E8E715F0800F0CBF96
:101A00000026302615F4807FE5D025F40075E2E746
:101A100015F4807F07D025F400750026DBE745F438
:101A200080450026D7E70026D5E715F0080FDDD062
:101A3000DBB215F0200F60D115F0400F18BF202643
:101A400007E0039B1A1D03921B6815F0040F4FD08B
:101A50009BB215F4807F14BF25F40075012158381E
:101A6000202800F2AE8001A252F820F0991900005F
:101A7000C31B0000C31B0000C31B0000C31B0000EE
:101A8000C31B0000C31B0000C31B0000C31B0000DE
:101A9000C31B0000C31B0000C31B0000271B00006A
:101AA000C31B0000C31B0000C31B0000C31B0000BE
:101AB000271B0000C31B0000C31B0000C31B00004A
:101AC000C31B0000C31B0000FF1A0000991900008F
:101AD000C31B0000C31B0000C31B0000C31B00008E
:101AE000271B0000C31B0000C31B00009919000046
:101AF00015F0080FADD0DBB2ABE72B26A9E71A46ED
:101B00004FF00008002B5ED005A84FF0000803F04E
:101B10000703303300F8013B08F10108D2081346EF
:101B2000002AF4D14FE018464FF00008002B4AD0AD
:101B30004FF0000805F4004E4FF02C0973468E4616
:101B400019462FE002F00F000A4C205C03F8010B4D
:101B500008F10108120906D00029F3D002F00F00A5
:101B6000054C205CF2E7744661462CE0AC02002094
:101B7000041D0000E41C0000F41C0000CDCCCCCC03
:101B800008AB03EB080CABFB0032D20802EB82037C
:101B9000A0EB430330330CF80C3C08F10108092892
:101BA0000DD910460029EBD008F00303032BE7D131
:101BB00008AB434403F80C9C08F10108E0E77146C8
:101BC00001E04FF00008A1EB080121EAE179AAEB5E
:101BD000090AAAEB080AFF2E0ED9AAF1020AC6F3D7
:101BE00007213846FFF798FCF1B23846FFF794FC1E
:101BF00004E04FF00008E6E7002E3DD13A4651469A
:101C00002846FFF7B1FC3A4649463020FFF79EFCD4
:101C1000B8F1000F0EDD0DF1140908F1FF38C844CA
:101C200098F8001046463846FFF776FCC14508F1A3
:101C3000FF38F5D115F0100F09D114F8011B61B16F
:101C400025293FF413AD3846FFF766FCF5E73A4621
:101C500051462020FFF77AFCEFE7BB682BB13A68CA
:101C600079688A423CBF00219954386809B0BDE8C0
:101C7000F08F4FF0FF30F9E70AF1FF3AB4E700BF09
:101C800011121314FFFFFFFFFFFFFFFFFFFFFFFF16
:101C9000FFFFFFFF00000000000000000000D60171
:101CA000060100000D0A55415254206578616D709F
:101CB0006C6520737461727465642E0D0A00200DCA
:101CC0000A45786974210D0A000000000800000030
:101CD00006000000050000000700000000000000F2
:101CE00000E0D7013031323334353637383961626C
:101CF00063646566303132333435363738394142C2
:0B1D000043444546286E756C6C2900BA
:101D0C000000000000200040000000000020004007
:081D1C00000000000090D0035C
:040000030000037581
:00000001FF
