:020000040002F8
:10600000704C0020C1630200C9630200CB63020030
:10601000CD630200CF630200D163020000000000E4
:10602000000000000000000000000000D363020038
:10603000D563020000000000D7630200D9630200AC
:10604000ED650200DB63020075690200DB6302009C
:10605000DB630200DB63020089640200DB63020091
:10606000DB630200DB630200DB630200DB63020030
:10607000DB630200DB630200DB630200DB63020020
:10608000DB63020045660200DB630200DB630200A3
:10609000DB630200DB63020055660200DB63020083
:1060A000DB630200DB630200DB630200DB630200F0
:1060B000DB630200DB630200000000000000000060
:1060C000DB630200DB630200DB630200DB630200D0
:1060D000DB630200DB630200DB6302000000000000
:1060E00000000000000000000000000000000000B0
:1060F00000000000000000000000000000000000A0
:10610000000000000000000000000000000000008F
:10611000000000000000000000000000000000007F
:10612000000000000000000000000000000000006F
:10613000000000000000000000000000000000005F
:10614000000000000000000000000000000000004F
:10615000000000000000000000000000000000003F
:10616000000000000000000000000000000000002F
:10617000000000000000000000000000000000001F
:10618000000000000000000000000000000000000F
:1061900000000000000000000000000000000000FF
:1061A00000000000000000000000000000000000EF
:1061B00000000000000000000000000000000000DF
:1061C00000000000000000000000000000000000CF
:1061D00000000000000000000000000000000000BF
:1061E00000000000000000000000000000000000AF
:1061F000000000000000000000000000000000009F
:10620000DFF80CD000F02EF9004800471D82020094
:10621000704C002030B450E8012F93B2C48923445D
:106220008489A34228BF1B1B0489A34202BFBFF37A
:106230002F8F002007E0C3EA020340E80134002C5E
:10624000E9D14FF001000A6030BC704750E8012FDF
:10625000C2EA024240E801210029F7D1704730B478
:1062600050E8022F1FFAA2F3C488A34202BFBFF373
:106270002F8F00200DE0C48923448489A34228BFC6
:106280001B1BC2EA034340E80234002CE8D14FF064
:1062900001000A6030BC704750E8022FC2EA224277
:1062A00040E802210029F7D17047034653E8022F46
:1062B000D988B2EB324F4FF0000017BF92B241EADB
:1062C000014142EA014104E05A68B2EB324F08BF93
:1062D000012043E80212002AE8D1704730B4044696
:1062E00054E8000F0D4644E80053002BF8D1156028
:1062F00030BC704730B4044654E8000F40EA010552
:1063000044E80053002BF7D1156030BC704730B41F
:10631000044654E8000F00EA010544E80053002B4E
:10632000F7D1156030BC704730B4044654E8000F14
:1063300080EA010544E80053002BF7D1156030BC1A
:10634000704730B4044654E8000F00EB010544E800
:106350000053002BF7D1156030BC704730B40446B1
:1063600054E8000FA0EB010544E80053002BF7D1DF
:10637000156030BC704770B404464FF0000054E81C
:10638000006F0D68AE4207BF44E80023012044E8D7
:1063900000630E60002B1CBF0020F0E770BC70474C
:1063A00030B4044654E8000F88422CBF451A054615
:1063B00044E80053002BF5D1156030BC7047000055
:1063C0000648804706480047FEE7FEE7FEE7FEE78F
:1063D000FEE7FEE7FEE7FEE7FEE7FEE7596602009E
:1063E00001620200202A04DB203A00FA02F10020B8
:1063F00070479140C2F1200320FA03F31943904003
:106400007047000000487047E8B2020040EA01030C
:106410009B0703D009E008C9121F08C0042AFAD25A
:1064200003E011F8013B00F8013B521EF9D270471E
:10643000D2B201E000F8012B491EFBD270470022C6
:10644000F6E710B513460A4604461946FFF7F0FF73
:10645000204610BD421C10F8011B0029FBD1801AF8
:1064600070470000064C074D06E0E06840F001036D
:1064700094E8070098471034AC42F6D3FFF7C4FE07
:1064800010BA020030BA02002DE9F04700268AB0A7
:10649000DFF85091B0464FF48075012437460696D8
:1064A000284602F0B7FC38B1D9F80403204203D0E3
:1064B000284602F0A5FC26432D1D64007F1CADB2CA
:1064C000082FEDD34FF4BE74204602F0A3FC48B170
:1064D000204602F095FC46F0004606AA0121002065
:1064E00002F07AFC404D16F0FF0F15D00127002472
:1064F00037420DD009EB8401D1F81005D1F8101501
:10650000C0F3042055F82420C1F3014102B19047A3
:106510007F00641C082CEBD3002E5FDA4FF0FF30B5
:10652000CDF8108054E0281910F8507F90F9000041
:1065300027F0C008401C3BD007A9404602F0EEF807
:1065400010B34FEA9719404601F0F8F855F820705B
:106550001FB1B9F1030F03D006E0B9F1030F27D142
:1065600004A9404602F0E2F84FF0A04101EB880098
:10657000D0F8000706A9C0F3014A404602F0CEF861
:1065800018B1BAF1020F03D012E0BAF1030F0FD124
:10659000B9F1030F08D1BAF1020F1DD00221404614
:1065A00002F0FEFB761CF6B217B149464046B847EA
:1065B000641C042CB7D3002E10D06A4601210020A1
:1065C00002F00AFC06990098884207D006900498C9
:1065D000002634460790A6E70321E0E70AB0BDE8AD
:1065E000F0870000006000405025002070B54FF497
:1065F0008076304602F0D6F9114CB50560B13046D0
:1066000002F0D7F90120C5F80803607920B901200C
:1066100060712168002088474FF48276304602F08E
:10662000C1F900280AD0304602F0C3F90220C5F8AB
:1066300008032168BDE870400120084770BD0000D4
:106640002023002002490248091F09680068084702
:106650007023002003F036B9F0B5B5480023021DC1
:106660000178101D01254FF0805406290BD11678B2
:10667000360708D10678C6F30316032E06D0042E7B
:1066800004D0052E02D0062907D00EE0B4F824630A
:10669000A84FC6F304263E6002E01678360704D100
:1066A0000678C6F30316032E02D0062904D00FE0A5
:1066B000A24FA14E7E670EE01678360708D1067805
:1066C000C6F30316032E06D0042E04D0052E02D0E6
:1066D000062907D00EE0D4F84462994FC6F342363B
:1066E0003E6002E01678360704D10678C6F303163A
:1066F000032E02D0062906D011E0924E376827F00B
:10670000807737600EE01678360708D10678C6F332
:106710000316032E06D0042E04D0052E02D006291F
:106720000AD011E04FF08046C6F80C31C6F810319F
:10673000834E361F336002E01678360704D10678A0
:10674000C6F30316032E02D0062905D00CE07C4FB9
:10675000032664373E600AE01678360704D10678CF
:10676000C6F30316032E02D006290DD014E0764F8F
:1067700005263E60744E78363560734E08363360B9
:106780003F263F1D3E6002E01678360704D10678AA
:10679000C6F30316052E02D0062957D062E06B4ED1
:1067A00036686B4F3E60694E361D36683F1D3E6051
:1067B000664E083636683F1D3E60644E0C363668BD
:1067C0003F1D3E60614E103636683F1D3E605F4E95
:1067D000143636683F1D3E605C4E183636685C4F96
:1067E00020373E60594E1C3636683F1D3E60574E7E
:1067F000203636683F1D3E60544E243636683F1DB5
:106800003E60524E283636683F1D3E604F4E2C3655
:1068100036683F1D3E604D4E303636684C4F40372F
:106820003E604A4E343636683F1D3E60474E38362D
:1068300036683F1D3E60454E3C3636683F1D3E6023
:10684000424E403636683F1D3E6002E016783607FD
:1068500008D10678C6F30316032E06D0042E04D002
:10686000052E02D0062907D019E0D4F85812394A6B
:1068700001F04F01116002E0117809070FD1007893
:10688000C0F30310032803D0042801D0052806D143
:1068900031480168C90702D06FF001010160D4F8E6
:1068A0003001062808D1D4F83401062804D12B4839
:1068B000016841F48061016022487438016841F444
:1068C00070010160BFF34F8FBFF36F8F4FF0102146
:1068D000D1F80002002803DBD1F80402002822DAF4
:1068E0001F4A15601F480468002CFCD01524C1F80D
:1068F00000420568002DFCD0C1F80442016800295F
:10690000FCD0136001680029FCD0BFF34F8F0D4805
:10691000F0380168144A01F4E06111430160BFF3EB
:106920004F8F00BFFDE7124910480860F0BD00001E
:10693000E00F00F0403501400DF0ADBA00C0074057
:106940003C050040FCED00E010560040040400103F
:1069500020C50040E40E0040000400403C17004009
:1069600004E5014000E401400400FA050090D00372
:10697000F42300200148006800470000282300207D
:1069800002E008C8121F08C1002AFAD170477047F8
:10699000002001E001C1121F002AFBD17047000056
:1069A0000121202803DA81400548014003E0402806
:1069B00002DA2038814009B1012070470020704779
:1069C000FC06FFBD30B52548A5B03C2100682490E9
:1069D0002348807C8DF892006846FFF730FD022046
:1069E0008DF8000001248DF8024006208DF8030088
:1069F0003C210FA8FFF723FD24A81A4D1490ADF8F1
:106A00004C402A1D6846296800F026FA08B100F0BB
:106A1000F3F8144A0FA80C32A96800F01DFA08B167
:106A200000F0EAF818211EA8FFF709FD00208DF8F4
:106A30008D408DF87840ADF884001F908DF88C0063
:106A40004020084920901EAAA1F10C0072DF002806
:106A500001D000F0D1F825B030BD0000B0AF020089
:106A6000F8230020FC220020064810B50121007800
:106A700073DF08B100F0C0F8BDE81040002000F05E
:106A80005FBD0000F022002038B500240E4D05E067
:106A9000686810F8340003F01BF8641C28788442FE
:106AA000F6D300208DF80000684600F00FF90020B2
:106AB000C5E904009DF8000000F02CF90348406887
:106AC000BDE8384000F0FCB830230020F0AF0200F1
:106AD00070B50024064D06E06868012110F8340006
:106AE00003F01AF8641C28788442F5D3002070BDA6
:106AF00030230020F8B516460C4605460A2A01D276
:106B00000720F8BD03F002F918B903F0C9F800280E
:106B1000F7D1134F102113487D603C70BE60FFF722
:106B20008EFC0020C7E904000F4E0DE005EBC40009
:106B30003168009181788DF8011000780B4A694620
:106B400003F03CF80028DCD1641EE4B2EED2BDE8CC
:106B5000F84005480021064A001D00F05FB800001B
:106B60003023002020260020F0AF0200197F020011
:106B70000D7B020072B602F0EFFB00BF02F030FAAC
:106B80000028FBD111481249401AC408012000EB2B
:106B9000044010A102F03EFB11480068C00700D07D
:106BA00000BE022000EB04400EA102F033FBBFF355
:106BB0004F8F0B48E43801680E4A01F4E06111433D
:106BC0000160BFF34F8F00BFFDE7000098BA0200DD
:106BD00040BA0200466174616C206572726F720087
:106BE000F0ED00E053797374656D20726573657420
:106BF000000000000400FA050EB500210091CDE967
:106C000001106A4644F20100FFF7B4FF0EBD000018
:106C1000014800F0E2BF0000502300203AB10068B4
:106C20000129426100D00021016100207047072046
:106C30007047000038B51148082358224168009178
:106C40000F49006801F091FC002815D10D4A6946F2
:106C50000D4800F0C7FF04000ED101210A4801F0E1
:106C600038F80123094A1946074800F08EFF064903
:106C7000012008390870204638BD0000F8AF020036
:106C80004026002089A4020050230020FFFF7F003F
:106C900070B50446007F0D4608B1002070BDA261AA
:106CA00001F020F9401941F10001C4E90201206915
:106CB00000B125612146BDE87040002003F08CBE84
:106CC000014600200877012003F086BE30B5EFF3BF
:106CD000108172B60D4A9468012324B10370002913
:106CE00000D162B630BD93604FF0E023D3F88051FD
:106CF000074C25401560C3F88041D3F884415460A7
:106D00005A17C3F8842100220270E8E79826002071
:106D1000FC06FFBD0B498A68002A11D000280FD15C
:106D2000EFF3108072B60B684FF0E022C2F800312A
:106D30004B68C2F8043100228A60002800D162B694
:106D400070470000982600202DE9F04106460868AB
:106D50000C46411C4FF0A0474FF0010506D005FA44
:106D600000F1C7F80815206802F006F86068411CB9
:106D700002D0002101F0EEFF3168A069C1F82405BE
:106D8000607D227D31681043C1F86C05D4E90012A2
:106D90003068C0F81425C0F80C15207D012815D1E5
:106DA000A068411C02D0002101F0D4FFE068411C22
:106DB00005D08540C7F80855E06801F0DDFFD4E94B
:106DC00002123068C0F80825C0F81015BDE8F0813F
:106DD0002DE9F041064608680C46411C4FF0A047DB
:106DE0004FF0010506D005FA00F1C7F80815206834
:106DF00001F0CCFF6068411C02D0002101F0B3FF1C
:106E00003168A069C1F82405607D217D326808439E
:106E1000C2F86C05D4E900123068C0F80C15C0F84F
:106E20001425207D012815D1A068411C02D0002125
:106E300001F099FFE068411C05D08540C7F808556E
:106E4000E06801F0A3FFD4E902123068C0F8082519
:106E5000C0F81015BDE8F0812DE9FC470025178822
:106E60000646158090F82D001446894630B13A4602
:106E70002146484600F0E6F8051E09D1B0784FF0EB
:106E80000C0A18B32088C846001DB84202D95046E3
:106E9000BDE8FC87684679DF0028F9D12088032106
:106EA00008F8001020881921401C80B2208008F8C2
:106EB00000102088401C80B2208000EB0801BDF843
:106EC000000003F058FF218808442080F078022257
:106ED000C8B1218896F9033001F1030C4846BC453E
:106EE000D5D8425421884FF0010C491C89B2218029
:106EF00000F801C02188491C89B2218009F80130BD
:106F00002088401C20807068B8B1218890F900303A
:106F100001F1030C4846BC45B9D8425421880A22E5
:106F2000491C89B2218042542188491C89B22180A0
:106F300009F801302088401C2080308950B1CDE90B
:106F400000474B460622022106F1080003F0C8FF65
:106F5000051E9DD1308A50B1CDE900474B4607222E
:106F6000032106F1100003F0BBFF051E90D1308B0A
:106F700050B1CDE900474B461522142106F1180007
:106F800003F0AEFF051E83D1306A30B13B46224686
:106F9000494600F0F0FC051EDBD1706A30B13B467B
:106FA0002246494601F004FA051ED2D196F82C007B
:106FB00038B13B4622464946304603F0ADFB051E3C
:106FC000C7D1307838B13B4622464946304601F0B9
:106FD00079FA051EBDD128465AE7000070B50400B5
:106FE00012D001461C221448FFF710FA1248134D24
:106FF0000560206850B17ADF002806D1206801685A
:1070000029604068686005E00E2070BD0B487BDF9A
:107010000028FAD108484FF6FF711438084A20F8C2
:10702000041B0549343901600021FFF7F7FD0028F2
:10703000EBD0032070BD0000A42400200C2300200E
:1070400035AE02007CB5054608880C4609309042F2
:1070500001D90C207CBD68466DDF0028FAD121885B
:107060000820685420881B21401C80B220802954AD
:107070002088401C80B220802844DDF80110016087
:10708000BDF8051081802088801D80B220809DF889
:107090000010490800D0012129542088401C20807C
:1070A00000207CBDF8B5334D018804466E88212947
:1070B0004BD015DC3048314A1029A0EB02004FEAD2
:1070C000D0004FF0030202EB004013D011292AD068
:1070D000132943D100231A46852130467FDF1CE067
:1070E0003B2942D052293AD0562937D180881321E2
:1070F00076DF12E022A102F08DF8012000F020FAE4
:10710000002000F015FAA1886980204801F0D2FB28
:1071100008B1FFF771FDFFF7DBFC00281ED0BDE8CA
:10712000F840FFF769BD1AA102F074F8012000F0E1
:10713000FFF94FF6FF706880FFF7A6FC08B1FFF774
:107140005BFDBDE8F840FFF78FBC00200090A088F1
:1071500069468FDF002801D0FFF74EFDF8BD002300
:107160001A4619463046B1DFD7E78088132176DF0B
:10717000D3E70000F022002098BA020040BA0200D3
:10718000436F6E6E65637465640000002424002004
:10719000446973636F6E6E6563746564000000001C
:1071A0002DE9F04701883B4E40F2F3194FF6FF7589
:1071B00010291BD011293ED0122954D0502946D174
:1071C000C188F289841D914241D1618902293ED151
:1071D0008688304600F0BEFE050038D004F10C0071
:1071E00000F078F9A8B3294630464EE0C17B878885
:1071F000044601292BD1A846284600F0ABFE050025
:1072000017D02F8000202872234843464A46016841
:10721000C5F80A104068C5F80E0004F1100105F128
:107220000A0000F051FF6872F08900280FD129464A
:107230002AE0042013E0808800F08CFE040006D0D1
:107240006068FFF73DFD08B103F03EFA2580BDE818
:10725000F087FFE76868FFF733FD0028F7D0BDE847
:10726000F04703F031BA87880646384600F072FED0
:107270000400ECD02B464A4606F1080104F10A004E
:1072800000F022FF607221463846BDE8F04700F06A
:10729000B9BB0000A42400200C2300202DE9F04FEE
:1072A000044686880188424897B0834610290CD04E
:1072B000112950D0103019296AD01A2974D1217A95
:1072C0000C09042C4DD301224CE0394D083DA8682F
:1072D000C0430B9069680BA801F0B2F90B990CA898
:1072E00000F02AFB2C220CA96846FFF78FF8002734
:1072F000E946A84610E000BF09EB47005FF0000533
:10730000B0F804A008EB85005146001D01F06CF9AF
:107310006D1C1E2DF6D37F1C0098B842ECD8142E9D
:1073200005D317B00420BDE8F04FFFF765BC314628
:10733000584601F06FF9314608F1040001F06AF98E
:10734000E07B012830D017B03146BDE8F04F184837
:10735000001D01F05FB917B03146BDE8F04F01F0F4
:1073600043B90022314600F0B7FD032C01D30122BE
:1073700000E000220E4831460C3000F0ADFD022C3A
:1073800001D3012200E0002209483146083006E01E
:10739000217A002908D1617AC1F3C002314617B0C1
:1073A000BDE8F04F00F098BD17B0BDE8F08F0000C9
:1073B000C824002030B58DB004462E4B08686061AB
:1073C0000FCB08AD85E80F0004F1120108A862DFB9
:1073D00000284CD1A07C8DF8320041F22350ADF84A
:1073E000300022460CA90120A8DF00283FD120212F
:1073F0006846FFF724F841F22450ADF80000A07C65
:107400008DF8020001259DF80D00ADF8065040F002
:1074100012008DF81150ADF804508DF80D008DF864
:107420001350208804F10A02694600F08FF9002801
:107430001DD120216846FFF702F841F22550ADF832
:107440000000A07C8DF802009DF80D00ADF80650FC
:1074500040F00A008DF81150ADF804508DF80D0081
:107460008DF812502088A21C694600F06FF90DB00B
:1074700030BD0000D4AF020030B40288502A10D1D1
:10748000034630F8062F4C88A2420AD14289012ACD
:1074900007D14C69002C04D0027B9888A44630BCEC
:1074A000604730BC704707B586B0012200230093C7
:1074B000ADF810200193029303938DF802204989BF
:1074C000ADF8001008A9039104A902916946AEDF46
:1074D00009B000BD007800F0010070472DE9FC41C3
:1074E0000646C0074FF000050ED0104F00240122C1
:1074F000385D009500231146019501F0D1FB641C15
:10750000042CF4D300F024F8B0070DD5074E002466
:10751000361D0022305D032300951146019501F0D0
:10752000BFFB641C042CF4D3BDE8FC81B4AF0200A3
:107530000249085C012101F044BC0000B4AF020024
:107540000249085C002101F03CBC0000B4AF02001D
:1075500010B500242046FFF7EBFF641C042CF9D380
:1075600010BD00002DE9F8430546861C00208DF86B
:10757000000090460F464FF001096846FFF7A6FB52
:107580001B4C20683860D4E90001401AA16804F25D
:107590001C47081A0EE00121384601F04BF800F0B4
:1075A000EFFD0146384601F045F8D4E90001401AE4
:1075B000A168081A401C8642EDD8B8F1000F03D02C
:1075C000052065F3891002E0062065F39F50A2684C
:1075D0002168114004EB8101C860206830442060BC
:1075E0009DF80000FFF796FB4846BDE8F8830000D1
:1075F0004828002070B50D4604460A2902D10D2105
:10760000FFF7F8FFA0682268411CA1601554D4E977
:107610000101814204D32046BDE8704001F047BA21
:1076200070BD0000034803C8814201D101207047AA
:10763000002070474828002010B50C460D281BD1AB
:1076400010481149401AC008032101EB00400FA166
:1076500001F0E0FD1548224613494088FFF723FF5B
:1076600000280DD0A0F54051023909D0082807D0D4
:1076700043F20141884203D0BDE81040FFF7BCBA95
:1076800010BD000098BA020040BA020053656E6453
:1076900020627574746F6E20737461746520636802
:1076A000616E67652E000000F8230020F0220020A4
:1076B000034630B5074800210478426806E000BF61
:1076C00002EBC10005789D4203D0491CA142F7DBC3
:1076D000002030BD3023002005494FF0FF3208283C
:1076E00041F8202002D3084480F848207047000069
:1076F00050250020F0B54FF0FF3512B100230826C9
:1077000001E008230C260C4C05E000BF54F8237060
:107710007F1C04D05B1CB342F8D32846F0BD26186A
:107720005DB286F8305044F82310002AF5D1E118F4
:1077300081F84800F1E70000502500200249084484
:1077400090F9300070470000502500202DE9F043EB
:107750008146887891B090460C4600B901208DF89A
:107760003E002088ADF83C0000250095607C69460D
:1077700003F016F86E46A07C711C03F011F8E07B54
:1077800000289DF8020002D040F0080001E020F03F
:1077900008008DF80200217C11B140F0100001E0DA
:1077A00020F010008DF80200217B11B140F00100A3
:1077B00001E020F001008DF80200217D09B10221D5
:1077C00000E0012161F342008DF802001C2102A8B3
:1077D000FEF735FE607BC10601D4800617D50E95F5
:1077E0000EAFE07C791C02F0DBFF9DF838000797B4
:1077F00020F00F00401C20F0F00010308DF8380011
:107800009DF83A0020F00600801C8DF83A00607B5D
:107810008DF80800A07B8DF80900142109A8FEF757
:107820000EFE0FA8CDE90906A088ADF83000A068CB
:1078300020B1E088ADF82C00A0680D90A06998B345
:1078400001950088ADF81000A06901AD01A940883C
:10785000ADF81200A069406806950390A069007B0E
:1078600002F09EFFA069691C407B02F099FFA069AD
:10787000807A00289DF8060002D040F0080001E060
:1078800020F008008DF80600A169C97A11B140F016
:10789000100001E020F010008DF80600A169097ABF
:1078A00019B140F0010002E00DE020F001008DF878
:1078B0000600A169897B09B1022100E0012161F381
:1078C00042008DF80600E06900B10590434609AA20
:1078D00002A94846AADF11B0BDE8F08370B5084C94
:1078E000050009D010342168002907D008682060FD
:1078F000496828468847F6E70834F4E770BD000079
:107900003C250020054A012120B1012805D19170B4
:10791000FFF7E4BF51700020FAE770473C250020D4
:1079200010B5D0E90234D1E90220D11AA04101D327
:10793000012010BD002010BD73B58CB0064600209C
:1079400000900D9880B100246D4621460DA800F0EE
:1079500056FE30B1009805EB400084800098401C32
:107960000090641C142CF0D32C2269463046FEF79C
:107970004DFD0EB070BD2DE9F04117880646B81DCB
:1079800014460D46984202D90C20BDE8F08131889A
:10799000072206290AD34FF4486C4FF6FF7361455E
:1079A00001D9994202D17088062801D21046ECE72D
:1079B000604501D99842F9D1994203D0984201D04B
:1079C0008142F3D80520E85520881221401C80B25E
:1079D000208029542088401C80B2208041193088A2
:1079E00003F0C9F92188084480B2208041197088C9
:1079F00003F0C1F92188084420800020C5E7FFF783
:107A0000FBB8000038B54A7A0F4B62B100220A7207
:107A10005969002906D001228DF80020ADF8020036
:107A20006846884738BD0A7A62B19B684C6802464E
:107A300019462046FFF72CF90028F3D0BDE838405E
:107A400002F042BE5B68F1E7A424002070B588B064
:107A50000646002005900690ADF81410ADF81610FB
:107A60000190029001AA05A9304690DF050021D0BF
:107A700001F0CCFF0346114811493246401AC108B3
:107A8000012000EB014004460E4901F0CEFBBDF899
:107A9000042012B9BDF8060028B1BDF80630204612
:107AA00009A101F0C2FBBDF808201AB12046164911
:107AB00001F0B4FB08B0284670BD000040BA0200D7
:107AC00040BA0200ECB2020054686520726571751C
:107AD00065737465642054582F5258207061636B2D
:107AE0006574206C656E67746820697320746F6FAD
:107AF000206C6F6E672062792025752F2575206FA9
:107B000063746574732E000038B3020070B50024EE
:107B10000F4D10E0686800EBC406307802F0B6F84C
:107B20007178012901D0012100E000214140307825
:107B300000F058F9641C28788442EBDBD5E9040195
:107B4000084303D0BDE8704002F062BF70BD000082
:107B50003023002010B50021024800F07CFD80F3A6
:107B6000100010BD642C00204FF480328A40016860
:107B7000C1F848230068C0F8082370474FF4A0728A
:107B800002EB810189B200F09DB92DE9F041054673
:107B90000E464FF4A07000EB860081B228684FF4C7
:107BA0008034B440984622F07F47C0F808432868E4
:107BB000C0F84843286801F0F5FC286800EB86000F
:107BC000C0F840752868C0F84443B8F1000F02D0EF
:107BD0002868C0F80443BDE8F0810068D0F80405C7
:107BE0007047000070B54379224C44F82320427955
:107BF000241D04EBC202204B1579204A9A1AD3089F
:107C00002DB10824022000EB03401DA12EE00268E4
:107C10000D88C2F8085590F904208978002A4FEAA7
:107C2000411106DA02F00F0202F1E02282F8141D7F
:107C300003E002F1E02282F8001490F9041001221E
:107C400001F01F0502FA05F54909890001F1E0215B
:107C5000C1F80051417904EBC1010A71417944F83E
:107C600031000320002400EB03400EA101F0D2FA02
:107C7000204670BD6C23002080BA020040BA02008A
:107C800052544320696E7374616E636520616C7237
:107C90006561647920696E697469616C697A65648B
:107CA0002E0000005254433A20696E697469616C79
:107CB000697A65642E00000090F90400012100F04B
:107CC0001F0291404009800000F1E020C0F800123E
:107CD00070470A46022100F07BB84FF4827100F031
:107CE000F1B800680121016070470068012141601E
:107CF00070472DE9F05F07460C464FF4A07000EB8B
:107D000084001FFA80FA38684FF48036A6409B46FC
:107D100022F07F45C0F848633868C0F808633868C7
:107D2000D0F8048500EB8402D2F84095C2F8408573
:107D30005146386801F036FCA9EB080020F07F407E
:107D4000012806D1102001F0BBFE5146386801F031
:107D500029FC3868D0F80485C0F84463A5EB080115
:107D600021F07F413868012900EB840010D0C0F871
:107D700040553868D0F804156FF07F4C6A1A521ECF
:107D800022F07F42ACEB0B03934217D362B118E0B1
:107D90006D1CC0F84055102001F092FE3868D0F8F4
:107DA000040540450AD10CE000EB84006D1CC0F8CE
:107DB00040553868D0F80405884202D00D20BDE84F
:107DC000F09F01223146384600F002F80020F6E725
:107DD0000368C3F84413002A02D00068C0F80413F3
:107DE000704700002DE9F84F0E463449804601EBFC
:107DF0005001C007097801D00F0901E001F00F0719
:107E00004FF00009424601204946FEF7EBFADFF841
:107E1000B0A004460D46052F4ED2DFE807F003164A
:107E20001B282C00002E47D00121404602F00EFDF9
:107E30008DF800906846FEF749FF5046D0E90412DD
:107E40000C431543CAE9044532E00EB1022114E0A7
:107E5000002112E04EB10321404602F0F7FC4046FB
:107E6000BDE8F84F012103F02BB8012105E0002EF9
:107E700022D1042101E02EB103214046BDE8F84F94
:107E800002F0E4BC0021404602F0E0FC0021404644
:107E900003F016F88DF800906846FEF717FF50467D
:107EA000E243D0E904341A4024EA0501CAE9042176
:107EB0009DF80000FEF72EFFBDE8F88F2026002079
:107EC0003023002010B5006842581AB101F06AFB57
:107ED000012010BD002010BD0AB100F09BBB00F0D6
:107EE00083BB000010B50B48FFF777FE094A083A3C
:107EF000D2E90434C018D2E9063244F10001C31AB1
:107F000071EB020204D24FF08072801841F100013F
:107F100010BD00005023002010B5C0B2FFF7C8FB11
:107F20000446007801F0B2FE01466078012801D0D5
:107F3000012000E0002090EA010F08D00449D1E9B7
:107F40000401084303D1BDE8104002F061BD10BD3B
:107F5000302300200146034802888A4200D00020D6
:107F600070470000902400202DE9FC5F0E0083463E
:107F7000DDE90C47C6F1000098469246814600D4E0
:107F80000846012503E000BF90FBFAF06D1C504548
:107F9000FADAA84500D9454624B1002E01DB78075E
:107FA00000D5641EB80702D5B8F1000F0AD0F80753
:107FB00008D13CB1A54205D220215846641EFFF7E6
:107FC00019FBF6E7002E02DA4E462D2102E0780773
:107FD00003D52B215846FFF70DFB07F003000228BD
:107FE0000BD1B8F1000F08D13CB1A54205D2302128
:107FF0005846641EFFF7FEFAF6E7CDE90047434610
:1080000052463146584602F0BBFEBDE8FC9F0000D8
:1080100070B50D46044600684FF4887101F016FDF6
:108020004FF49071206801F011FD4FF492712068B7
:1080300001F00CFD4FF4A271206801F007FD4FF430
:10804000AC71206801F002FD20681149C0F80413EA
:108050002068690740F30730090E002806DA00F0AF
:108060000F0000F1E02080F8141D03E000F1E02093
:1080700080F800142068012140F3073000F01F024F
:1080800091404009800000F1E020C0F8001170BD6F
:1080900010034200024600201268530713D502F075
:1080A0000300012802D002280CD105E0C2F383109E
:1080B0000B68801C184404E00223086803EB92520A
:1080C0001044086001207047F0B58488A5189442D8
:1080D00000D82246A41AC288D6189A4200D813465D
:1080E000D21A4B880788BB420CD34088834209D8F8
:1080F0008888A04206D3A84204D8C888904201D3F9
:10810000B04201D90020F0BD0120F0BD0B480C4960
:1081100010B5401AC008032101EB00444FF00200E3
:1081200022B1FFF70DFA204606A103E0FFF700FA9F
:10813000204609A1BDE8104001F06CB898BA0200D1
:1081400040BA02005265636569766564204C454417
:10815000204F4E210000000052656365697665641A
:10816000204C4544204F4646210000001721018045
:1081700041800021017141711B218171C1717047E2
:108180002DE9FF410026234800F051FA2148001F45
:10819000074600F04CFA204C60680090A56800E0AB
:1081A00000986946284004EB80000C30FFF772FF0E
:1081B0000028F5D101AA009901EA050304EB830325
:1081C000491CDB6842F82030401C00910228F2D3A1
:1081D000019800F0030001280BD0022810D101986B
:1081E000032101EB90500099BDF80A6001EB90006B
:1081F00005E00198BDF80A60C0F3831008440090C0
:10820000384600F011FA08B10098606004B03046BA
:10821000BDE8F081602C00204828002088B04FF491
:108220008041002001F062F808B1FEF7E5FC00F0A3
:10823000C9FE0120FFF752F9FEF7FCFC08B1FEF77A
:10824000DBFC40F2333201214748FEF753FC08B112
:10825000FEF7D2FC01F060F908B1FEF7CDFC01F0A9
:10826000F7FA08B1FEF7C8FC002469460120009423
:1082700001F0A8F908B1FEF7BFFC684601F022FA48
:1082800008B1FEF7B9FC9DF8080038A120F00F00F6
:10829000401C20F0F00010308DF808000D2202A8DC
:1082A0007CDF08B1FEF7A8FC00945020ADF8000078
:1082B000A0200194ADF80200ADF804404FF4C8705E
:1082C000ADF8060068467ADF08B1FEF795FC00219C
:1082D0002A4800F035FA08B1FEF78EFC284801A9BB
:1082E000CDE900402548143000F0EFFA08B1FEF760
:1082F00083FC24480090214869461838FFF75AF853
:1083000008B1FEF779FCFEF75DFB1C216846FEF71D
:1083100096F84FF4A020CDE90040801002901A4852
:108320000590032519488DF80C500690ADF80E40C5
:108330008DF810406846FEF751FE08B1FEF75CFC70
:1083400013481449401AC00805EB004012A100F080
:1083500061FFFEF789FB00BF00F042FE0028FBD161
:1083600001F0EEF8F8E70000F42200204E6F72648E
:1083700069635F426C696E6B790000001024002015
:10838000859502000D810200FDA10200FF79020027
:1083900098BA020040BA0200426C696E6B7920659F
:1083A00078616D706C6520737461727465642E0001
:1083B00070B5144682880E4605462088111D01447A
:1083C000921C994201D8FE2A01D90C2070BD521C82
:1083D00032542088FF21401C80B2208031542088F4
:1083E000401C80B220808119288802F0C4FC2188BA
:1083F000084480B22080AA8842B1A96841B13044C3
:10840000FEF704F82088A98808442080002070BD69
:10841000072070BD2DE9F047C5881E1DB6FBF5F796
:108420008946B6FBF5F1044605FB176C40791668E2
:108430006843DDF820A0F718001F874200D9C61A4C
:10844000166001E02468491E0029FBD1A5EB0C074A
:108450008846B74216D818E004EB0C00001D09EB63
:108460000803BAF1000F3A4602D00146184600E070
:108470001946FDF7CBFF2468F61B4FF0000CB844FB
:10848000B54201D9374600E02F46002EE4D1BDE8C1
:10849000F087000030B5024651B100F045FF0021E1
:1084A000074C08E034F821301568AB4202D1116066
:1084B000002030BD491C8142F4D3052030BD0000AE
:1084C00000000000F8B50F46017814460546012962
:1084D00001D1687830B12088821C9A4232D80129B3
:1084E00002D006E00720F8BD69780144891C994252
:1084F00028D8181A801E86B2ADF800602188B81CF2
:10850000084469467DDF0028EDD12978022904D08E
:108510006878BDF80020904205D3BDF80000B04255
:1085200001D809200AE00820012905D16978B14263
:1085300002D8ADF8001001E0ADF80060BDF8001001
:10854000FE2901D90C20F8BD2288491CB954218884
:10855000491C89B2218078542088401C2080BDF8B5
:108560000010084420800020F8BD10B531B1B2FBE6
:10857000F3F403FB14241CB1092010BD0E2010BD20
:1085800001600021416081608281C381084610BD85
:1085900070B50C460546FDF73DFE002802D0218847
:1085A0002868084470BD10B50A8849888A4203D1FA
:1085B000FDF772FE012010BD002010BD70B50C4605
:1085C0000546FDF74CFE002802D061882868084463
:1085D00070BD10B50A8849888A4203D1FDF736FE7E
:1085E000012010BD002010BD01F01F0301229A40A0
:1085F000D243490900EB8100114600F021B84A0935
:1086000050F8220001F01F0201219140084000D0E3
:108610000120704701F01F0301229A40490900EB35
:108620008100114600F01CB8002100F00FB80121B4
:1086300000F016B808B56A46FDF783FE009808BD3D
:1086400008B56A46FDF763FE009808BD08B56A469E
:10865000FDF75DFE08BD08B56A46FDF73FFE08BDA3
:1086600008B56A46FDF746FE009808BD08B56A469B
:10867000FDF774FE009808BD38B5044600258DF856
:1086800000506846FEF722FB216862680868904245
:108690000ED9401E08600178238AE26801FB032599
:1086A000227A2168101AC0B20A79824200D2087177
:1086B0009DF80000FEF72EFB284638BD38B505466C
:1086C00000208DF800000C466846FEF7FFFAE868C7
:1086D000298A201AB0FBF1F12A681068431C136044
:1086E00001709DF80000FEF715FB38BD10B530B1E4
:1086F000017A42680368891AC9B21A6006E00E203E
:1087000010BD03681A68541C1C601170491EC9B260
:10871000F7D2006800210171084610BDC20800F0C0
:1087200007030120895C98400840704710B5C208D3
:1087300000F00703885C01249C402043885410BD4E
:1087400010B560B10161172120F8021B20F8021B4F
:108750001B2100F8021BFFF709FD002010BD0E20B1
:1087600010BD0000F0B5858893B00C46002D39D1BE
:10877000018800263F4F24293BD006DC102909D070
:1087800011290CD0232958D14FE03A290BD0552973
:1087900053D129E00146204601F03EFD4DE0A01DE9
:1087A000FFF7E4FC49E02246408934F8061F814285
:1087B00000D808466080172800D217206080106912
:1087C00070B1607960B1D7E90001CDE90301ADF87E
:1087D0000E506088ADF81000136903A91046984741
:1087E0006671267113B0F0BD0146204601F068FDA8
:1087F00023E0011D2C2206A8FDF708FEBDF8180095
:10880000BDF81C2004EBC0014A732269AAB1D7E964
:108810000423CDE90423ADF81200487B8DF8140041
:108820002269204604A9904707E0017A207B88420C
:1088300000D201462846FFF709F9A07A0028D1D0D6
:10884000E1882846A5DF012580B11128CAD001F0B2
:10885000DDF802460848094913B0401AC00805EB84
:108860000040BDE8F04006A100F0D8BCA672E57259
:10887000B8E70000BCAF020040BA020040BA0200F4
:1088800073645F626C655F67617474635F6578636E
:1088900068616E67655F6D74755F7265717565732C
:1088A0007428292072657475726E65642025732E94
:1088B0000000000020B10278DE2A03D008207047B3
:1088C0000E20704741800020704760B159B1027896
:1088D000DE2A0AD009684160DE2101704FF6FF717F
:1088E0004180002070470E207047082070477FB5F8
:1088F000054600294DD0002D4BD008780C46DE28C7
:1089000047D1A8886188884202D1204602F0C6FA81
:108910002888012825D002283BD011283AD0512898
:1089200037D135F8040F6188884232D1A978A81C64
:1089300002292ED1017A042903D0062901D0052964
:1089400027D10021009102228DF8002001914FF4DF
:10895000C07202910391ADF80420007A05280FD06F
:1089600010E0297A2046012913D1A9884288914232
:108970000FD10121017204B0BDE8704002F08EBA3F
:10898000ADF8041028886946B0DF002801D061687E
:1089900088477FBDA88861888842FAD14FF6FF706A
:1089A00060807FBD00F180400068002800D0012079
:1089B000704708B500F18040002101600068009018
:1089C00008BD000070B50B4C207808B185250FE07C
:1089D0000020A06060602061E060074801F052F86C
:1089E000054600F081FF08B901F036F8012020703B
:1089F000284670BD3C2500200579020038B50025C9
:108A00008DF800506846FEF761F9074CE068401E9B
:108A1000E060E06810B901F045F8A5709DF800002D
:108A2000FEF778F938BD00003C250020F0B505467A
:108A30000478154889B0164640F82420124A08697F
:108A4000121DA2F1080742F82400487F3855202261
:108A50006846FDF7DBFC04942878385C48B10EB119
:108A60000A4A00E000226946281D01F0BDFA09B05B
:108A7000F0BD0EB1064A00E00022694605F10C0087
:108A800001F084F9F3E700001823002035AC020060
:108A90007DAA02000FB408B50399002904D004AAE6
:108AA00000926A4600F00FF801B05DF814FB10B5B3
:108AB00082680446002A05D0D4E904032168984757
:108AC0000020A06010BD2DE9FC4791460C008046B7
:108AD00076D014F8011B39B125290ED04046FEF797
:108AE00089FD20780028F4D198F80C00002867D080
:108AF0004046BDE8FC47FFF7DABF0020012221789D
:108B00002B291BD02D2902D0302908D102E040F0BA
:108B1000010001E040F00200641C002AEFD10025B2
:108B20002A290ED02178A1F130020A2A11D205EBB0
:108B3000850201EB4205641C303DF1E740F0040082
:108B4000EAE7D9F800100B1DC9F800300968641C69
:108B50000D44217800232E290BD114F8011FA1F117
:108B600030020A2A05D203EB830201EB4203303BB9
:108B7000F3E76C290DD068290BD0692921D00BDCD3
:108B8000252918D0582931D063290ED0642915D150
:108B900017E014F8011FECE7702969D0732932D06F
:108BA00075291BD0782909D120E0D9F80000011DD2
:108BB000C9F8001001784046FEF71CFD641C90E7E0
:108BC0006CE0D9F800100A1DC9F800200968CDE949
:108BD00000500A224046FFF7C7F9EFE7D9F8001026
:108BE0000A1DC9F8002009680A2206E0D9F8001019
:108BF0000A1DC9F8002009681022CDE9005040463E
:108C000002F0BEF8DAE7D9F8001000270A1DC9F80B
:108C100000200E68C00705D112E04046761C7F1C7C
:108C2000FEF7E8FC31780029F7D104E02021404626
:108C30006D1EFEF7DFFCBD42C0D9002DF6D1BDE7A9
:108C40004EB13046FDF706FC074604E020214046C1
:108C50006D1EFEF7CFFCBD4206D9002DF6D103E014
:108C60004046761CFEF7C6FC31780029F8D1A5E70E
:108C7000D9F80000011DC9F80010056830214046F0
:108C8000FEF7B8FC78214046FEF7B4FC082000212E
:108C9000CDE90001034610222946B0E7BDE8FC8774
:108CA00070B541EA4201DDE904564FF0A04441EAC3
:108CB000830141EA052104EB800041EA0641C0F846
:108CC000001770BD70B541EA4201DDE904564FF06E
:108CD000A04441EA830141EA052104EB800041EA16
:108CE0000641C0F8001770BD70B541EA4201DDE9E8
:108CF00004564FF0A04441EA830141EA052104EB08
:108D0000800041EA0641C0F8001770BD70B541EA25
:108D10004201DDE904564FF0A04441EA830141EAF3
:108D2000052104EB800041EA0641C0F8001770BD40
:108D30001CB5002100910B4601220191FFF7D4FFE1
:108D40001CBD1CB5002100910B4601220191FFF7CB
:108D5000DDFF1CBD1CB500220B460092114601929E
:108D6000FFF7C2FF1CBD1CB500220B460092114646
:108D70000192FFF7CBFF1CBD1CB5002100910B46F3
:108D8000012201911146FFF7AFFF1CBD1CB5002168
:108D900000910B46012201911146FFF7B7FF1CBD60
:108DA0004FF0A04202EB8000D0F8002722F44032BE
:108DB000C0F80027D0F8002742EA0141C0F80017A8
:108DC000704701224FF0A043824011B1C3F808253B
:108DD0007047C3F80C25704718B5084B6C46014422
:108DE0001B68009306E000BF54F82030D3F810351C
:108DF000401C08C28142F7D818BD0000E4AF020051
:108E0000034908B50844002101600068009008BDCE
:108E10000060004002494058012800D000207047FF
:108E20000060004030B5154A01460020D2F81044D9
:108E300023460AE0DB681D79854205D1401C0A28DB
:108E4000F6DB4FF0FF3030BD1B68002BF2D1431C26
:108E5000F9D0CB681871D2F8103443B1DB68CC6814
:108E60001B682360D2F81024D268116030BDC2F8AC
:108E70001014C96800220A6030BD00004828002094
:108E8000F0B595B01C4615460F4608461A9E00F0F0
:108E90001DFB182109A8FDF7D2FA0E96CDE9095459
:108EA0000023082203A9384600F025FB0598069008
:108EB000BDF81000ADF81C00BDF81200ADF81E00A2
:108EC00000208DF821000398082600F003000128F7
:108ED00002D0022818D032E003983346850AC0F346
:108EE000C2008DF8200003980FA9C0F38314A200DC
:108EF000384600F000FB09A8009006AB22460FA9F7
:108F0000284600F03FFA1AE00398840DC0F3C2002F
:108F10008DF82000082C01D2254600E008253346B4
:108F20002A460FA9384600F0E6FA2E44641B09AB26
:108F300006AA29460FA800F081F9002CEAD138468C
:108F400000F0CAFA15B0F0BD7047012001F0B4BDC1
:108F5000084810B50178084A515C19B1001D01F0AC
:108F6000DDF802E00C3000F0DDFFBDE8104000202D
:108F700001F0A2BD842300201423002008B5034A79
:108F800000924023024AFFF77BFF08BDD9A60200EA
:108F9000B02600200A4A012902EBC00007D00229AE
:108FA00007D0032907D0042907D0002070470220EA
:108FB000704704207047007970474079704700007F
:108FC00040BA020010B5FFF7C0FF04210348FFF7C5
:108FD00029FF02490120C968487110BD30BA02005A
:108FE0002DE9F04F8DB0FEF71DFB18B100200DB03C
:108FF000BDE8F08F7E4C4FF0000BC4F818B4BFF3FF
:109000004F8F60680290A568D846284004EB800026
:109010000CE000BFD4F8180470B9216802988142AE
:1090200001D86160E2E7284004EB80000C3002A91F
:10903000FFF730F80028EDD1002005AA029901EAD7
:10904000050304EB8303491CDB6842F82030401C15
:1090500002910228F2D3059800F00300022802D002
:1090600001284DD0AAE005985022810D8946B2EB27
:10907000905F00D850210E4666F39F50059008314E
:109080005C4800F0DAF9070078D000F01FFA434698
:10909000082205A9384600F036FA029908F1080AB4
:1090A0002940681A8000001D864222D9504D0C3597
:1090B00030B1C2B204EB8101301A90460C3104E0A9
:1090C0002946F2B2002590462846C6B25346384695
:1090D00000F019FA0AEB080325B132462946384652
:1090E00000F011FA029909F1030001EB90000290DF
:1090F0003BE004EB81015346324638460C31EFE742
:109100000598C0F38310062800D30620059960F364
:109110008911C1F38310801C05918100354800F04E
:109120008CF907004AD000F0D1F94346082205A97E
:10913000384600F0E8F908F1080800260FE0029828
:10914000434600EA0501401C04EB81010290042221
:1091500038460C3100F0D7F908F10408761C059860
:10916000C0F38310B042EAD847B1D4F81054D4F811
:10917000180478B1384600F0AFF934E01EE0E86832
:109180004079012804D12A68284639461268904758
:10919000E8680568002DF2D1384600F09DF98DF899
:1091A00000B06846FDF792FDD4F8180408B902989B
:1091B00060609DF80000FDF7ADFD14E0D4F81044A8
:1091C00005E02168204689688847E0680468002C2B
:1091D000F7D109480949401AC008022101EB0040B3
:1091E00007A100F017F8FEF71DFA80F00100FEE677
:1091F00048280020B8BA020098BA020040BA02001B
:109200004261636B656E647320666C757368656438
:109210000000000000231A4601F030BB08B501230E
:1092200000926A4601F02AFB08BD1CB5CDE9002377
:1092300002236A4601F022FB1CBD00002DE9F04725
:109240000E4680461C469246082940D894F80C9059
:10925000002020731946104601F0BEF80025B542E3
:1092600006D218F805201BA12046FFF713FC03E0E7
:109270001AA12046FFF70EFC6D1C082DEFD318A194
:109280002046FFF707FC0025B54212D218F80570FA
:109290007E2F08D8FDF7B6F80068C05D10F03E0FCD
:1092A00001D03A4600E02E220EA12046FFF7F2FB45
:1092B00003E00DA12046FFF7EDFB6D1C082DE3D365
:1092C00001222146504601F069F884F80C90BDE86F
:1092D000F087000020253032780000002020200098
:1092E0007C00000025630000200000000B4810B542
:1092F000FF218160002101604160C0F81814C0F8AE
:10930000141480F82014064800F0E4F8002803D173
:10931000044800F039F9002010BD00004828002062
:10932000B8BA0200B4B1020002480349401AC008AA
:1093300070470000B8BA020040BA020013B5684690
:10934000FFF7A8F808B100201CBD0248009950F8AA
:1093500031001CBD40BA020070B509480125D0F8A3
:10936000104480F8205407E0E068457121682046E9
:1093700049688847E0680468002CF5D170BD00009A
:10938000482800202DE9FF4781460C9D00200C460F
:109390002F7B2873984616462946184601F01CF87C
:1093A000072E42D2DFE806F004090F161F2A360006
:1093B00049462846FFF76EFB37E0494628462268B3
:1093C000FFF768FB31E0D4E9002349462846FFF760
:1093D00061FB2AE0A0680090D4E9002349462846B2
:1093E000FFF758FB21E0D4E90201CDE90001D4E9FF
:1093F000002349462846FFF74DFB16E004F108001C
:1094000007C88DE80700D4E9002349462846FFF73E
:1094100041FB0AE004F108000FC88DE80F00D4E911
:10942000002349462846FFF735FB002229464046DF
:1094300000F0B4FF2F73BDE8FF872DE9F041058AE6
:1094400080462D1F4819C01CB0FBF5F0C6B240463F
:10945000FFF712F9041E19D000202071012060715D
:10946000E58000272546761EC4F800800BE04046C4
:10947000FFF702F960B16179491C61712860054606
:109480007F1CC0F80080B742F1D32046BDE8F081D0
:10949000204600F002F80020F8E72DE9F041457978
:1094A00001466B1E002201E00968521C9A42FBD360
:1094B0000F680146002605E038460C68FFF7FEF805
:1094C0002146761CAE42F7D3BDE8F0810121001D94
:1094D000FFF7B0B8FFF70AB910B504460121001D27
:1094E000FFF7C4F810F0FF0F04D12046BDE810408C
:1094F000FFF7D3BF10BD1CB501920122009201AA53
:10950000FEF788FF1CBD1CB501920022009201AA43
:10951000FEF780FF1CBD0000064910B50020487012
:10952000091D0860BFF35F8F0349044800F000FA8B
:10953000002010BD7823002040B00200A4260020A7
:1095400008B500208DF800006846FDF7BFFBF1EE7E
:10955000100A20F09F00E1EE100ABFF35F8F084968
:109560004020C1F880029DF80000FDF7D3FB00F019
:10957000BBF908B141DF08BD20BF40BF20BF08BD17
:1095800004E000E0FDF738BB82680021916082684A
:109590001161826851618268D1608268516080681F
:1095A0000160704708B5002242504058009008BD45
:1095B00020B1034909680160002070470E20704700
:1095C00038B20200FEB502460E460846FFF7F0FF2D
:1095D000002868D1002400940194012706208DF80A
:1095E0000020ADF8040002948DF802706946202036
:1095F000326869DF2C492D4A891AC908012202EB19
:10960000014530B100F002FA024628462849FFF72A
:1096100005FE00948DF801708DF8024001940294CB
:109620008DF8034069464020326869DF30B100F0B0
:10963000EDF9024628461F49FFF7F0FD00940A2085
:109640008DF800000194029469460120326869DFB8
:1096500030B100F0DBF9024628461749FFF7DEFD7E
:109660004FF4B0600090019402946946A1203268E2
:1096700069DF30B100F0CAF9024628460F49FFF70A
:10968000CDFD0094019402948DF800406946A0201D
:10969000326869DF30B100F0B9F90246284608495E
:1096A000FFF7BCFD0020FEBDA8BA020040BA0200D0
:1096B000D8B8020020B9020038B8020084B802000D
:1096C000E4B702002DE9F0410546076860DF8046F7
:1096D00019491A482A68081AC608BA4219D9022034
:1096E00000EB064416A12046FFF794FD20463A46BB
:1096F0001FA12B68FFF799FD4FF08050D0F80C01A7
:109700002968800200F10050421A204625A1FFF787
:1097100085FDB8F100004FF001040AD000F076F9A1
:10972000024604EB06402AA1FFF778FD4046BDE85B
:10973000F0812F480470F9E7A8BA020040BA02008D
:10974000496E73756666696369656E742052414D32
:1097500020616C6C6F636174656420666F72207445
:10976000686520536F66744465766963652E0000F2
:109770004368616E6765207468652052414D2073AF
:1097800074617274206C6F636174696F6E206672AD
:109790006F6D203078257820746F20307825782EF2
:1097A000000000004D6178696D756D2052414D20BB
:1097B00073697A6520666F72206170706C6963618D
:1097C00074696F6E20697320307825782E00000050
:1097D00073645F626C655F656E61626C65282920E9
:1097E00072657475726E65642025732E000000002A
:1097F000F323002030B5144891B00078002820D021
:109800005FF03405ADF8405010A903A861DF30B116
:10981000052816D011B0BDE83040FDF7EDB903AC16
:109820000A49684600F084F807E000BFD0E900214B
:1098300020469047684600F092F802980028E1D050
:10984000F4E711B030BD0000F32300203CB2020069
:109850007CB5194C207808B108207CBD0120A0708F
:10986000002000F003FF112819D0002000F016FF9F
:1098700012480026006801908DF800606846FDF7E8
:1098800025FA0F4901A810DF05000AD0002020703A
:109890009DF80000FDF73EFA2DB128467CBD002062
:1098A0007CBD0120F3E7A670667000F09DFF0120EB
:1098B00000F0F4FEF3E70000F0230020D0B1020036
:1098C000756B02000EB50749684600F031F805E0F7
:1098D000D0E900108847684600F041F80298002857
:1098E000F6D10EBDECB102000148007870470000CF
:1098F000F02300201FB568464BDF30B1052814D097
:1099000004B0BDE81040FDF777B9084901A800F0A0
:109910000FF806E0D0E900210098904701A800F078
:109920001EF803980028E6D0F4E71FBD58B20200E5
:10993000016009684160AFF3008010B5D0E90021F3
:109940005368994201D1002104E0D1E90034A342D7
:1099500002D01946816010BD08314160F0E781688E
:1099600000290BD0026892680A44826041684B6803
:109970009A4203D108314160FFF7DFBF704770B5ED
:109980000D460646446804E0B2682946904718B17F
:10999000246820680028F7D120682860256070BD01
:1099A00040680068704741680868002801D0026874
:1099B0000A60704702460020526806E08B4203D1DD
:1099C00008681060012070471A461368002BF5D113
:1099D000704700000C4A10B502F594730EE0991A16
:1099E000C91001EBD171491002EBC1010C6884422E
:1099F00001D90B4602E005D201F108029A42EED3EA
:109A0000002010BD486810BD60B0020000B5FFF72F
:109A1000E1FF002800D1014800BD00004CB0020069
:109A20004058002800D00120704708B5002242505D
:109A30004058009008BDD0F80403084000D0012031
:109A400070474058002800D00120704708B5002218
:109A500042504058009008BD08480068012110F0AD
:109A6000010F06D14FF0E020C02280F80024C0F89A
:109A700000110349012008607047000000E100E088
:109A8000180500400649024600200B790BB18520DD
:109A900070470A6001220A7100224A717047000073
:109AA0002023002004490120086004480168C1F314
:109AB00000410029FAD170470C0000401804004012
:109AC000002802D0014980010847704711B0020008
:109AD00010B5044600F04AFC28B12046BDE810400D
:109AE0000021FFF75DB9204600F04CFC00280FD0A4
:109AF0002046FDF723FE074A02EB8001D1F810351E
:109B000023F00103C1F8103501218140C2F8081388
:109B100010BD0000006000402DE9F0418846054678
:109B200000F024FC234E002828461AD0FDF706FE3C
:109B3000304490F848008009032802D001280ED054
:109B400007E04FF0A040D0F81005E84010F0010FFA
:109B500005D003212846BDE8F041FFF721B90221D5
:109B6000F8E700F00FFC002822D02846FDF7E6FDBC
:109B700004464FF4807000EB84000F4F81B207EB76
:109B80008400D0F8102542F00102C0F810250846E4
:109B9000FFF736F9B8F1000F0AD02846FDF7CEFDE1
:109BA00056F82000002803D00120A040C7F8040385
:109BB000BDE8F08150250020006000402DE9FC4107
:109BC000DFF8BC80044608EB0400002790F9300061
:109BD0001346C0170E46401C01D008274CE0B07851
:109BE0001946C0F340022046FDF784FD0546401C9F
:109BF00041D0B078410719D4C0070AD04FF0A04037
:109C000000EB8401D1F8000720F00200C1F8000742
:109C100007E000217378204600910A460191FFF782
:109C200051F8174920465431FEF780FDB07880077F
:109C300018D51448317800EB8500D0F81025124B68
:109C40001A40C0F810254FF4F8524FF4403302EA9E
:109C5000042203EA01410A43D0F810150A43C0F870
:109C6000102509E008EB0500327810F8481F41EA9A
:109C70008211017000E004273846BDE8FC81000035
:109C80005025002000600040FFE0FCFF4FF0A041A5
:109C9000D1F81015C14011F0010000D0012070472B
:109CA00070B5174D95F8580008B1082070BD002018
:109CB000411E2A18401CC0B282F830102028F8D368
:109CC00000242046FDF708FD641CE4B20C2CF8D3F8
:109CD00000240C49C0206C6581F800040126402056
:109CE000891FC1F800014FF4BE70FFF789F80649DB
:109CF000F007C1F8040385F85860204670BD0000E5
:109D00005025002006E000E000600040034890F885
:109D10005800002800D00120704700005025002086
:109D20000121B1EB507F01D1012070470020704725
:109D300038B50D4600F09CFB040014D000208DF8CF
:109D400000006846FCF7C2FF207928B19DF80000AA
:109D5000FCF7E0FF112038BD0120256020719DF83F
:109D60000000FCF7D7FF002038BD10B500F080FBE5
:109D7000002802D000210160017110BD0149024894
:109D800000F0C2BEAC250020002000402DE9F041CB
:109D90000546007916460F4600EB40012C4A01EBC0
:109DA000C00102EB810494F82A1011B10820BDE82B
:109DB000F081284951F820102868FFF7B9FF08B151
:109DC0001120F4E739462846FCF7BEFF6660386983
:109DD000206030004FF001062DD03F7F4FF48E7190
:109DE0002868FFF722FE4FF4A2712868FFF71DFED6
:109DF00028681949C0F8041328684FEA471140F34E
:109E00000730002806DA00F00F0000F1E02080F8AB
:109E1000141D03E000F1E02080F80014286840F3EE
:109E2000073000F01F0106FA01F14009800000F13F
:109E3000E020C0F8001128680421C0F800150020B7
:109E4000A061E06184F8290044F8140FA675AEE71C
:109E5000AC250020E8AF0200800002002DE9F05F91
:109E6000054600790B4600EB400101EBC000244998
:109E700001EB8004284600F045F810B11120BDE840
:109E8000F09F62614FF00009C4F82090A36084F84D
:109E900028904FF48E784E4641462868FFF7C5FD5E
:109EA00028684FF0010AC0F808A02146286800F091
:109EB000BBFD606808BBD5F800B067690FE000BF64
:109EC00094F8280008B10F2615E041465846FFF7E0
:109ED000A7FD0028F4D02146584600F0A5FD206AD1
:109EE000B842F2D3574641462868FFF799FD00284B
:109EF000F9D02868C760C4F814903046BFE7000066
:109F0000AC250020007900EB400101EBC0000449C2
:109F100001EB80004069002800D00120704700005C
:109F2000AC2500202DE9F047044600794FF00009E8
:109F300000EB400101EBC000254901EB80072068E0
:109F4000C0F80095786880B120682249C0F80813ED
:109F50002068012140F3073000F01F0291404009C2
:109F6000800000F1E020C0F880112068D0F80C25B6
:109F7000D0F81485D0F80865D0F810554FF0FF31AF
:109F8000C0F81415C0F80C152068C0F80815C0F802
:109F90001015501C02D01046FEF7CAFEB8F1FF3F64
:109FA00002D04046FEF7C4FE681C02D02846FEF7E9
:109FB000BFFE701C02D03046FEF7BAFE2068FFF7E5
:109FC000D4FE87F82A90C7F80490BDE8F087000017
:109FD000AC250020840202000149024800F042BE84
:109FE000D8250020002000402DE9F0410546164606
:109FF00000790F46154A00EBC00102EB810494F88A
:10A00000201011B10820BDE8F081114951F820104D
:10A010002868FFF78DFE08B11120F4E7394628467D
:10A02000FCF7D6FE6660386920601EB1397F28468D
:10A03000FDF7EEFF28680821C0F800150020A06198
:10A04000E0616061012184F82010DCE7D825002060
:10A05000ECAF02002DE9F04704460E46007927498F
:10A0600000EBC00001EB800517463046FFF758FEB5
:10A0700030B1204600F044F820B11120BDE8F0874F
:10A080001020FBE76F61AE604FF490774FF000084F
:10A0900039462068FFF7DAFC4FF4AC763146206889
:10A0A000FFF7D4FC2068AA686969C0F84425C0F8A5
:10A0B000481520684FF00109C0F808906868D0B9C9
:10A0C000BA4651462068FFF7BCFC07463146206877
:10A0D000FFF7B7FC0743F4D010B14FF00F0808E0CA
:10A0E0002068C0F80C9031462068FFF7AAFC0028D1
:10A0F000F9D0002068614046C0E70000D825002064
:10A100000079054900EBC00001EB800040690028A0
:10A1100000D0012070470000D82500202DE9F0472D
:10A1200004460079334900EBC00001EB80070125AC
:10A13000786880B120683049C0F80813206840F37F
:10A14000073000F01F0105FA01F14009800000F11D
:10A15000E020C0F880112068D0F8001221F0200122
:10A16000C0F80012206845604FF4AC763146206894
:10A17000FFF76CFC2068C56031462068FFF761FC82
:10A180000028F9D020684FF00009C0F80095206839
:10A19000D0F80C25D0F81485D0F80865D0F8105503
:10A1A0004FF0FF31C0F80C15C0F814152068C0F846
:10A1B0000815C0F81015501C02D01046FEF7C1FD5E
:10A1C000B8F1FF3F02D04046FEF7BBFD681C02D04D
:10A1D0002846FEF7B6FD701C02D03046FEF7B1FDF2
:10A1E0002068FFF7C2FD87F82090C7F80490BDE80B
:10A1F000F0870000D82500201003420000780028D6
:10A2000007D104483B21408876DF002801D0FCF7C5
:10A21000F3BC7047F022002070B58D88027900EB06
:10A22000C5042273C97BA41D012902D0022904D1CF
:10A2300001E0008800E04088208021886088814219
:10A2400011D92846A5DF0126B0B1112816D0FFF795
:10A25000DDFB02460B480C49401AC00806EB0040E3
:10A260000AA1FEF7DBFFA179E079814208D92846EF
:10A27000BDE87040FDF7EABB6671F4E72671F2E7CE
:10A2800070BD000040BA020040BA020073645F6211
:10A290006C655F67617474635F65786368616E673E
:10A2A000655F6D74755F72657175657374282920BB
:10A2B00072657475726E65642025732E000000004F
:10A2C0007CB506468D88C88806EBC504A41D1728F2
:10A2D00000D217202188814200D8084660800020E3
:10A2E000207121882846B5DF60B1FFF78FFB024659
:10A2F0000F481049401AC008012101EB00400EA18F
:10A30000FEF78CFF6079002810D1306900280DD04D
:10A310001549D1E90201CDE90001ADF8025060888C
:10A32000ADF8040032696946304690477CBD0000B4
:10A3300040BA020040BA020073645F626C655F67F6
:10A34000617474735F65786368616E67655F6D746F
:10A35000755F7265706C7928292072657475726EEC
:10A3600065642025732E0000BCAF02000449084438
:10A3700090F93000082801DB012070470020704769
:10A38000502500200449084490F93000082801D2E3
:10A3900001207047002070475025002010B50C4662
:10A3A000017A052908D0407A38B1084808A1026826
:10A3B0002046FEF76FFB00E01AB106A12046FEF72B
:10A3C00069FB2046BDE81040FEF771BBCC2300209E
:10A3D000257300000D0A000038B5C3880D460446F9
:10A3E00033B114A0009015A216A12846FEF752FB27
:10A3F000217A05291CD0607A48B1A088FEF7CAFDF1
:10A40000164951F8202016A12846FEF743FBA088E4
:10A410000021FEF793FF03461049207A143951F8C2
:10A42000202001B02846BDE830400EA1FEF732BB27
:10A4300038BD00001B5B306D000000001B5B313B32
:10A4400033316D0025734C6F67732064726F7070C9
:10A450006564202825642925730D0A00CC2300207B
:10A46000257300003C25733E2025733A2000000030
:10A470000349884201D1034870470020704700001B
:10A48000002000402823002070B50546FDF725FC7C
:10A49000134C40B1D4E904024FF08071411842F1ED
:10A4A0000000C4E9041000212846FDF767FB30B125
:10A4B000606820B1606800F027FA00206060012128
:10A4C0002846FDF75BFB18B1FDF70CFDC4E906015A
:10A4D000284600F045FA2846BDE8704000F034B840
:10A4E0004823002070B5054600200C460870FDF793
:10A4F000F9FCD5E90223101A63EB0103002631466B
:10A50000361A994112DAB0F5350F03D3FCF780FB08
:10A510000B4942184FF4960300210A48FDF7E9FB66
:10A5200010B10D2806D009E0012070BD00210548BA
:10A53000FDF71AFB284600F0E7F92070002070BDF7
:10A54000FFFFB40050230020F8B51A4C0746002640
:10A550001948FFF725FAD0B1616871B1D0E902104E
:10A560006268D2E90232C91A904120D26068007F45
:10A5700018B161681048FFF702FA00F061F905466A
:10A580006946FFF7AFFF98B1606840B10AE06068C4
:10A5900000280CD13846BDE8F840FDF7A6BB384688
:10A5A000FDF79FFB65609DF800000028D0D1F8BD45
:10A5B0006660CDE74823002000B0020070B5054674
:10A5C00088690C4600284FF4847128460AD0FFF7AA
:10A5D0002CFAD5F81805626AE1688854606A401C54
:10A5E000606270BDFFF721FAD5F8180570BD1FB580
:10A5F00001238DF80030CDE90121D0E90012684631
:10A6000090471FBD1FB501238DF80030CDE9012112
:10A61000D0E90012684690471FBD000038B5002100
:10A62000012548B101280CD0032809D1FFF714FAFD
:10A63000BDE83840FEF7E2B94FF0E020C0F88051A5
:10A6400038BD8DF800106846FCF740FB064C2078BA
:10A6500008B9FEF7B7F9E068401CE060A5709DF806
:10A660000000FCF757FB38BD3C2500203EB50446F2
:10A6700009496846FFF75CF908E000BFD0E900210E
:10A680002046904730B16846FFF769F902980028E4
:10A69000F4D13EBD11203EBDD4B102003EB504460A
:10A6A00008496846FFF744F907E000BFD0E90021F8
:10A6B000204690476846FFF752F902980028F5D1E6
:10A6C0003EBD0000E0B1020002498969002900D0C6
:10A6D00008477047A424002070B50D4C0020D2B26A
:10A6E0002070201D0B4D0378EB5C1BB1001DFFF7A4
:10A6F000B1FC02E00C30FFF7B1FB08B1FCF77CFACB
:10A700006078002802D021780029FAD070BD0000BE
:10A7100080230020142300202DE9F0410746806AA1
:10A7200014468846C8B3002531E000BFB96A05EB7E
:10A73000450001EB8006B088801CFE2802D90C2061
:10A74000BDE8F0812288401C08F80200208816220B
:10A75000401C80B2208008F800202088401C80B275
:10A76000208000EB0801308800F005FB21880844B8
:10A7700080B22080B28842B1B16871B14044FBF729
:10A7800045FE2088B188084420806D1CEDB297F802
:10A790002C00A842CAD80020D2E7FFE70720CFE765
:10A7A0000A78062822F0FF020A7010D2DFE800F0D3
:10A7B000030507090B0D002008E0112006E0212009
:10A7C00004E0312002E0122000E0222008707047EF
:10A7D000002805D10349012048700020FDF77EB80C
:10A7E000704700003C25002010B51620FCF7D8F873
:10A7F000A0B1114890F800044009082811D20121A5
:10A80000814011F0EC0F0CD00C4882684FF48001AD
:10A810006AB1016841F48001016010BD42F201009B
:10A8200001E042F20200BDE81040FCF7E5B94FF04C
:10A83000E020C0F8001110BD16E000E098260020CE
:10A840000148FFF7B0B8000000B00200C207002ABC
:10A8500003D000BF4FF00F0201E04FF0F00201D033
:10A860004FEA0111044B03EB5003187800EA020091
:10A8700040EA010018707047202600202DE9F84FAB
:10A88000204D92468946064698460122694618465A
:10A89000AF68FCF767FE58B3009800210446801C9F
:10A8A00009E000BF00EA07035AF8212005EB830303
:10A8B000401C491CDA604145F4D34FEA164AFDF7C3
:10A8C00049F94AEA0041601C384005EB80003C40F1
:10A8D00005EB8402C160D06866F3C50068F3891097
:10A8E00069F39F2020F00300401C20F00400D0609A
:10A8F00095F8200402E000BFFEF772FB0028FBD1B0
:10A90000BDE8F88F4828002070B50446124800259D
:10A910000078F8B1F4B1207FE0B1FDF7E3FAD4E9B3
:10A920000223801A994110D32069002600B92677A6
:10A93000D4E905108847206960B1217F51B1D4E97D
:10A94000022110187141C4E9020121460348FFF7B2
:10A9500016F80125284670BD4823002000B00200EB
:10A96000F8B51B4C69462068FDF728FE0026012734
:10A97000184D29E0017821B101290CD002291BD101
:10A9800014E041680A7FBAB90F774168104808306F
:10A99000FEF7F5FF10E041686868814201D16E6002
:10A9A0000AE00B480830FFF705F805E0FFF748FF1D
:10A9B00008B10677FAE72F7069462068FDF7F3FDC6
:10A9C00069462068FDF7FAFD0028D3D1F8BD0000E4
:10A9D000F8AF020048230020F8B50B4C0D460646A0
:10A9E00069462068FDF7D4FD58B106704560694698
:10A9F0002068FDF7EEFD10B10448FDF75DF9002079
:10AA0000F8BD0420F8BD0000F8AF0200502300207C
:10AA1000034880684108034800224068FCF738B9C1
:10AA200030230020F0AF020070B50C4605464FF40D
:10AA30008E71FEF7FAFF216AA068415C206A401C13
:10AA40002062C5F81C1570BD1FB500228DF80020CE
:10AA50000291816801914261D0E9001268469047F5
:10AA60001FBD1FB500228DF8002002918168019161
:10AA70004261D0E90012684690471FBD1FB50A46E3
:10AA800001788DF8001041680191017A8DF8081065
:10AA9000C0680390044850F82210001F50F822208C
:10AAA000684690471FBD00001C230020014901207B
:10AAB000087070478023002010B588B0044620221B
:10AAC0000E496846FBF7A2FC06200090C01F0190CB
:10AAD000029003904FF0EB7006900CB1084A00E032
:10AAE000002269460748FDF7A1FF08B1FCF784F88A
:10AAF0000448001F447008B010BD000094B102006B
:10AB0000ADAA0200842300202DE9FF470C4605462C
:10AB10004FF40071FEF78FFF01274FF401780026F4
:10AB200018B34FF4927949462846FEF779FFE0B111
:10AB300049462846FEF779FFC5F8088394F82900AE
:10AB400000B96F6002208DF80000D5F88004C5F8C8
:10AB500080040390A0690290E0680190A661E6611C
:10AB6000D4E900126846904728E004212846FEF701
:10AB700062FF18B34FF484712846FEF751FFE8B125
:10AB800021462846FFF71AFD616AA069884215D15F
:10AB9000E06938B1E268616AA0612069E6616662D5
:10ABA000E06008E094F8290000B96F60C5F80883F8
:10ABB000A661E268616A2046FFF719FD4FF48E78BE
:10ABC00041462846FEF72CFF80B16069216A814228
:10ABD00002D294F8280028B341462846FEF725FF04
:10ABE000606918B161692046FFF72EFF4FF4A27823
:10ABF00041462846FEF714FF002818D04146284653
:10AC0000FEF713FF94F8290000B12F60A069002817
:10AC10000DD0A661E268616A04B02046BDE8F04745
:10AC2000FFF7E5BC21462846FFF7FEFEDEE7BDE85C
:10AC3000FF8700001FB50A4601788DF800104168B3
:10AC40000191017A8DF80810C0680390044850F80B
:10AC50002210001F50F82220684690471FBD0000B8
:10AC60001C2300202DE9FF410C464FF49277054646
:10AC70003946FEF7E6FE0026B8B139462846FEF70B
:10AC8000E5FE02208DF80000D5F88004C5F88004A8
:10AC90000390D5F83C050290E0680190A661E6615A
:10ACA000D4E900126846904723E04FF4887739468C
:10ACB0002846FEF7C6FEE0B139462846FEF7C6FE36
:10ACC000D5F83C15A069884213D1E06960B1E2680B
:10ACD000D5F8000220F02000C5F80002E069A0616C
:10ACE0002069E661E06001E0A661E2682046FFF7C6
:10ACF00089FC4FF4A27739462846FEF7A2FE68B1D8
:10AD000039462846FEF7A2FEA06938B1A661E66181
:10AD1000D5F83C152046E268FFF774FC4FF49076B6
:10AD200031462846FEF78DFE60B131462846FEF7D3
:10AD30008DFE0120E860606920B1D5F84C152046F1
:10AD4000FFF78FFE4FF4AC7631462846FEF779FECA
:10AD500000280ED031462846FEF778FE60690028AC
:10AD600007D0D5F84C1504B02046BDE8F041FFF7F8
:10AD700078BEBDE8FF810870000A48700220704765
:10AD80002DE9F05F8346DDE90A4A994690460D4673
:10AD90000846012703E000BFB0FBF8F07F1C4045E8
:10ADA000FAD2B94500D94F465FEACA7012D18CB1C8
:10ADB0005FEA8A7002D5B9F1000F01D0202607E0C2
:10ADC000302605E031465846641EFCF713FC0CB1F2
:10ADD000A742F7D35FF00106B9F1010F02D9A9F13B
:10ADE000010903E0B5FBF6F0404502D306FB08F687
:10ADF000F2E7DFF83C9000BFB5FBF6F000FB16551C
:10AE000019F800105846FCF7F5FBB6FBF8F6002ED3
:10AE1000F2D15FEACA7009D0002C07D0A74205D250
:10AE200020215846641EFCF7E5FBF5E7BDE8F09FDE
:10AE300016B00200F8B5054680B2FDF78BF80400A5
:10AE400013D0154E207A0027317B88420ED2A8B24B
:10AE500004F10A0175DF28B1112806D0BDE8F840D9
:10AE6000FFF732BC207A401C2072F8BD2772307C7C
:10AE700038B1A8B23B2176DF18B1082801D0FFF71E
:10AE800023FC71690029F0D08DF80070ADF80250F4
:10AE900068468847F8BD0000A424002030B404466A
:10AEA000007A00280AD06088002166DF28B11128C6
:10AEB00002D0616830BC08470120207230BC704766
:10AEC00070B50C460546FCF7F3FB002807D0426836
:10AED000002A04D021462846BDE87040104770BDC6
:10AEE0002DE9FC411646DDE90854CDE900541F4622
:10AEF0008046022200F00CF8002807D1CDE900546A
:10AF00003B4610223146404600F002F8BDE8FC8185
:10AF10002DE9FC5F0026DDE90C4B994692468E46F2
:10AF200080462788354630E0D8F80400002200EB40
:10AF3000850069460068019001A864DF002830D1CF
:10AF40009DF8000050451FD10EB1002100E0022104
:10AF5000228808441118594522D846B9521C90B28B
:10AF6000208009F800E02088401C208001262188EC
:10AF700001A801EB0902694664DF002811D120888D
:10AF80009DF80010084420806D1CB8F80000A8420D
:10AF9000CADC56B12088C01B401E80B2FF2802D9EF
:10AFA0000C20BDE8FC9F09F807000020F9E700002D
:10AFB00023150000111213140D0E0F10770A000054
:10AFC00000000000770A0000000000007ADA0000AC
:10AFD0000000000023D1BCEA5F782315DEEF1212D7
:10AFE00000000000000000507D9D0200D99F02007B
:10AFF000030000000026002030260020010006008B
:10B0000000000000682300202179020000000000F9
:10B010000338FDD87047303132333435363738395C
:10B02000414243444546000000000000000000008B
:10B030000000000000000000000000000000000010
:10B0400028B0020040B0020004000000556E6B6E94
:10B050006F776E206572726F7220636F6465000097
:10B060000000000008B7020001000000B4B50200B3
:10B0700002000000A8B302000300000028B602008E
:10B08000040000007CB60200050000005CB5020070
:10B0900006000000F8B402000700000064B60200D9
:10B0A0000800000070B5020009000000D4B50200DD
:10B0B0000A000000F0B602000B00000090B302008E
:10B0C0000C00000088B502000D00000058B7020017
:10B0D0000E00000054B602000F00000090B60200FF
:10B0E00010000000C4B60200110000006CB702009E
:10B0F0001200000040B7020013000000DCB602009E
:10B100008000000010B50200810000004CB4020075
:10B11000820000000CB4020083000000ECB30200C7
:10B120008400000028B402008500000034B502004D
:10B13000860000003CB6020090000000D8B4020077
:10B1400091000000CCB30200920000009CB5020008
:10B1500000820000A4B6020001820000F0B50200E7
:10B16000028200000CB602000084000068B40200F5
:10B170000184000014B7020002840000B0B4020091
:10B18000038400008CB402007D8F0200518F020006
:10B19000498F0200FFFFFFFFFFFFFFFFFFFFFFFFE1
:10B1A000FFFFFFFF00000000000000000000D601CC
:10B1B00006010000B02700207F000000302800209A
:10B1C000000000000000000000000000000000007F
:10B1D00001000007C0B10200D0B102000800000069
:10B1E000F8B1020008B202000800000008B2020034
:10B1F00018B202000800000014BB02001CBB0200D1
:10B20000000000000000000004BB020014BB0200AC
:10B210000000000000000000CCBA0200D4BA020016
:10B22000D4BA0200E4BA0200E4BA0200F4BA02009E
:10B23000F4BA0200FCBA0200F022002018B20200A8
:10B2400038B2020008000000FCBA020004BB020091
:10B25000000000000000000048B2020058B20200E6
:10B260000800000000404040404040404040414114
:10B2700041414140404040404040404040404040CB
:10B280004040404040050202020202020202020265
:10B290000202020202202020202020202020200262
:10B2A00002020202020290909090909010101010F2
:10B2B000101010101010101010101010101010108E
:10B2C0000202020202028888888888880808080822
:10B2D00008080808080808080808080808080808EE
:10B2E000020202024000000065B2020073645F6265
:10B2F0006C655F6761705F646174615F6C656E67E8
:10B3000074685F757064617465282920287265719E
:10B310007565737429206F6E20636F6E6E6563743C
:10B32000696F6E20307825782072657475726E654D
:10B33000642025732E0000005468652072657175C5
:10B34000657374656420636F6D62696E6174696FA3
:10B350006E206F6620545820616E64205258207011
:10B3600061636B6574206C656E67746873206973C4
:10B3700020746F6F206C6F6E6720627920257520B6
:10B380006D6963726F7365636F6E64732E00000086
:10B390004E52465F4552524F525F494E56414C49BC
:10B3A000445F4441544100004E52465F4552524F63
:10B3B000525F534F46544445564943455F4E4F54A0
:10B3C0005F454E41424C4544000000004E52465FEE
:10B3D0004552524F525F464541545552455F4E4F7C
:10B3E000545F454E41424C45440000004E52465F7A
:10B3F0004552524F525F4D555445585F554E4C4F34
:10B40000434B5F4641494C45440000004E52465F65
:10B410004552524F525F4D555445585F4C4F434B28
:10B420005F4641494C4544004E52465F4552524F9B
:10B43000525F4D555445585F434F4E445F494E4906
:10B44000545F4641494C4544000000004E52465F5F
:10B450004552524F525F4D555445585F494E4954DD
:10B460005F4641494C4544004E52465F4552524F5B
:10B47000525F424C455F495053505F52585F504BAA
:10B48000545F5452554E4341544544004E52465F1A
:10B490004552524F525F424C455F495053505F50A6
:10B4A0004545525F52454A4543544544000000001B
:10B4B0004E52465F4552524F525F424C455F495093
:10B4C00053505F4C494E4B5F444953434F4E4E459A
:10B4D00043544544000000004E52465F4552524FCF
:10B4E000525F4150495F4E4F545F494D504C454D5E
:10B4F000454E5445440000004E52465F4552524F5F
:10B50000525F4E4F545F535550504F525445440074
:10B510004E52465F4552524F525F4D4F44554C4537
:10B520005F4E4F545F494E495449414C495A454436
:10B53000000000004E52465F4552524F525F4D4F41
:10B5400044554C455F414C52454144595F494E4931
:10B550005449414C495A4544000000004E52465F50
:10B560004552524F525F4E4F545F464F554E440026
:10B570004E52465F4552524F525F494E56414C49DA
:10B58000445F5354415445004E52465F4552524F1A
:10B59000525F444154415F53495A45004E52465F01
:10B5A0004552524F525F494F5F50454E44494E47B6
:10B5B000000000004E52465F4552524F525F5356B4
:10B5C000435F48414E444C45525F4D495353494EA9
:10B5D000470000004E52465F4552524F525F494E5F
:10B5E00056414C49445F4C454E47544800000000CA
:10B5F0004E52465F4552524F525F4452565F545727
:10B60000495F4552525F414E41434B004E52465FA7
:10B610004552524F525F4452565F5457495F45520C
:10B62000525F444E41434B004E52465F4552524F8B
:10B63000525F494E5445524E414C00004E52465FB7
:10B640004552524F525F53544F524147455F465502
:10B650004C4C00004E52465F4552524F525F4E5581
:10B660004C4C00004E52465F4552524F525F494E7D
:10B6700056414C49445F504152414D004E52465F45
:10B680004552524F525F4E4F5F4D454D00000000F6
:10B690004E52465F4552524F525F464F52424944C6
:10B6A00044454E004E52465F4552524F525F4452FF
:10B6B000565F5457495F4552525F4F564552525557
:10B6C0004E0000004E52465F4552524F525F494E67
:10B6D00056414C49445F4144445200004E52465F3B
:10B6E0004552524F525F5245534F555243455300B6
:10B6F0004E52465F4552524F525F494E56414C4959
:10B70000445F464C414753004E52465F53554343B6
:10B71000455353004E52465F4552524F525F424C82
:10B72000455F495053505F4348414E4E454C5F4141
:10B730004C52454144595F45584953545300000009
:10B740004E52465F4552524F525F434F4E4E5F43FB
:10B750004F554E54000000004E52465F4552524F26
:10B76000525F54494D454F55540000004E52465FBC
:10B770004552524F525F4255535900007761726EE5
:10B78000696E670064656275670000001B5B313B92
:10B7900033306D001B5B306D000000001B5B313BE4
:10B7A00033316D001B5B313B33326D001B5B313B32
:10B7B00033336D001B5B313B33346D001B5B313B1E
:10B7C00033356D001B5B313B33366D001B5B313B0A
:10B7D00033376D00696E666F000000006572726F2E
:10B7E0007200000073645F626C655F6366675F731D
:10B7F000657428292072657475726E6564202573DE
:10B80000207768656E20617474656D7074696E6709
:10B8100020746F2073657420424C455F4741545437
:10B82000535F4346475F534552564943455F43483C
:10B83000414E4745442E000073645F626C655F6350
:10B8400066675F73657428292072657475726E650A
:10B8500064202573207768656E20617474656D704F
:10B8600074696E6720746F2073657420424C455F65
:10B87000434F4D4D4F4E5F4346475F56535F5555BF
:10B8800049442E0073645F626C655F6366675F7333
:10B89000657428292072657475726E65642025733D
:10B8A000207768656E20617474656D7074696E6769
:10B8B00020746F2073657420424C455F4741545497
:10B8C000535F4346475F415454525F5441425F5374
:10B8D000495A452E0000000073645F626C655F6327
:10B8E00066675F73657428292072657475726E656A
:10B8F00064202573207768656E20617474656D70AF
:10B9000074696E6720746F2073657420424C455FC4
:10B91000434F4E4E5F4346475F4741502E00000065
:10B9200073645F626C655F6366675F736574282923
:10B930002072657475726E65642025732077686562
:10B940006E20617474656D7074696E6720746F2009
:10B9500073657420424C455F4741505F4346475FE3
:10B96000524F4C455F434F554E542E006E72665FEA
:10B97000626C655F6761747400000000636C6F63E4
:10B980006B000000434C4F434B0000004750494FB1
:10B9900054450000505253005541525400000000DD
:10B9A00055415254450000006170705F62757474B7
:10B9B0006F6E00006170705F74696D6572000000E9
:10B9C0007077725F6D676D7400000000736F727442
:10B9D0006C69737400000000756172745F6C6F674E
:10B9E0005F6261636B656E640000000061707000EF
:10B9F0006E72665F736468006E72665F7364685F20
:10BA0000626C65006E72665F7364685F736F63007B
:10BA10001CBB0200F0220020080100008069020027
:10BA200024BC0200F823002078280000906902005E
:10BA300088B1020000000000D8B90200982300205D
:10BA40006CB90200000003037CB902000000000092
:10BA500084B90200000000008CB902000000000060
:10BA600094B902000000000098B902000000000034
:10BA7000A0B9020000000000A8B902000000000008
:10BA8000B4B9020000000000C0B9020000000000CC
:10BA9000CCB9020000000000ECB902000000030372
:10BAA000F0B9020000000303F8B90200000003032C
:10BAB00004BA020000000303A8230020A0230020F2
:10BAC000A8230020F0260020180000009D7202002C
:10BAD000000000006587020010240020A171020010
