:020000040002F8
:1060000020670020C1630200C9630200CB63020065
:10601000CD630200CF630200D163020000000000E4
:10602000000000000000000000000000D363020038
:10603000D563020000000000D7630200D9630200AC
:1060400045990200DB630200399F0200DB63020016
:10605000DB630200DB630200E1970200DB63020006
:10606000DB630200DB630200DB630200DB63020030
:10607000DB6302009D990200DB630200DB63020028
:10608000DB630200C5990200DB630200DB630200F0
:10609000DB630200DB630200199C0200DB63020089
:1060A000DB630200DB630200DB630200DB630200F0
:1060B000DB630200DB630200000000000000000060
:1060C000DB630200DB630200DB630200DB630200D0
:1060D000DB630200DB630200DB6302000000000000
:1060E00000000000000000000000000000000000B0
:1060F00000000000000000000000000000000000A0
:10610000000000000000000000000000000000008F
:10611000000000000000000000000000000000007F
:10612000000000000000000000000000000000006F
:10613000000000000000000000000000000000005F
:10614000000000000000000000000000000000004F
:10615000000000000000000000000000000000003F
:10616000000000000000000000000000000000002F
:10617000000000000000000000000000000000001F
:10618000000000000000000000000000000000000F
:1061900000000000000000000000000000000000FF
:1061A00000000000000000000000000000000000EF
:1061B00000000000000000000000000000000000DF
:1061C00000000000000000000000000000000000CF
:1061D00000000000000000000000000000000000BF
:1061E00000000000000000000000000000000000AF
:1061F000000000000000000000000000000000009F
:10620000DFF80CD001F0C6FB0048004779EF020030
:106210002067002030B450E8012F93B2C489234492
:106220008489A34228BF1B1B0489A34202BFBFF37A
:106230002F8F002007E0C3EA020340E80134002C5E
:10624000E9D14FF001000A6030BC704750E8012FDF
:10625000C2EA024240E801210029F7D1704730B478
:1062600050E8022F1FFAA2F3C488A34202BFBFF373
:106270002F8F00200DE0C48923448489A34228BFC6
:106280001B1BC2EA034340E80234002CE8D14FF064
:1062900001000A6030BC704750E8022FC2EA224277
:1062A00040E802210029F7D17047034653E8022F46
:1062B000D988B2EB324F4FF0000017BF92B241EADB
:1062C000014142EA014104E05A68B2EB324F08BF93
:1062D000012043E80212002AE8D1704730B4044696
:1062E00054E8000F0D4644E80053002BF8D1156028
:1062F00030BC704730B4044654E8000F40EA010552
:1063000044E80053002BF7D1156030BC704730B41F
:10631000044654E8000F00EA010544E80053002B4E
:10632000F7D1156030BC704730B4044654E8000F14
:1063300080EA010544E80053002BF7D1156030BC1A
:10634000704730B4044654E8000F00EB010544E800
:106350000053002BF7D1156030BC704730B40446B1
:1063600054E8000FA0EB010544E80053002BF7D1DF
:10637000156030BC704770B404464FF0000054E81C
:10638000006F0D68AE4207BF44E80023012044E8D7
:1063900000630E60002B1CBF0020F0E770BC70474C
:1063A00030B4044654E8000F88422CBF451A054615
:1063B00044E80053002BF5D1156030BC7047000055
:1063C0000648804706480047FEE7FEE7FEE7FEE78F
:1063D000FEE7FEE7FEE7FEE7FEE7FEE71D9C0200A4
:1063E0000162020070B491E87800B2E802105B1814
:1063F00054EB0C04B2E802104D4156EB0C0680E859
:1064000078008041013070BC704770B491E878002A
:10641000B2E802105B1A74EB0C04B2E802108D4172
:1064200076EB0C0680E878008041404270BC7047F3
:106430002DE9F00791E8F807B2E802105B1854EB79
:106440000C04B2E802104D4156EB0C06B2E8021003
:106450004F4158EB0C08B2E8021059EB01095AEB16
:106460000C0A80E8F80780410130BDE8F00770476A
:106470002DE9F00791E8F807B2E802105B1A74EB17
:106480000C04B2E802108D4176EB0C06B2E8021063
:106490008F4178EB0C08B2E8021079EB01097AEB36
:1064A0000C0A80E8F80780414042BDE8F0077047D9
:1064B0002DE9F007524290E87800B1E880071740D4
:1064C000DB1918EA020854EB080419EA020955EB33
:1064D00009051AEA020A56EB0A0678C090E8780025
:1064E000B1E8800717407B4118EA020854EB080422
:1064F00019EA020955EB09051AEA020A56EB0A06DF
:1065000078C080410130BDE8F00770472DE9F00701
:10651000524290E87800B1E880071740DB1B18EA88
:10652000020874EB080419EA020975EB09051AEA76
:10653000020A76EB0A0678C090E87800B1E8800796
:106540001740BB4118EA020874EB080419EA020973
:1065500075EB09051AEA020A76EB0A0678C0804153
:106560004042BDE8F007704790E8300091E8C00075
:10657000A31B1340E41AF618EB1B1340ED1AFF1887
:1065800030C0C0C17047F0B55242FFF7EDFFFFF7D2
:10659000EBFFFFF7E9FFFFF7E7FFF0BD2DE9F0079D
:1065A0003AC91668A1FB069A4FF0000CE3FB06AC53
:1065B0004FF00007E4FB06C74FF00008E5FB067844
:1065C00040F8049B56684FF00009E1FB06A91CEB5C
:1065D000090C4FF0000949EB0909E3FB06C917EB69
:1065E00009074FF0000949EB0909E4FB067918EBAC
:1065F00009084FF0000949EB0909E5FB068940F855
:1066000004AB96684FF0000AE1FB06CA17EB0A07D5
:106610004FF0000A4AEB0A0AE3FB067A18EB0A0875
:106620004FF0000A4AEB0A0AE4FB068A19EB0A0952
:106630004FF0000A4AEB0A0AE5FB069A40F804CB41
:10664000D6684FF0000CE1FB067C18EB0C084FF00D
:10665000000C4CEB0C0CE3FB068C19EB0C094FF017
:10666000000C4CEB0C0CE4FB069C1AEB0C0A4FF0F4
:10667000000C4CEB0C0CE5FB06AC80E88017BDE889
:10668000F00770470A462DE9F04F41EC140A92ECEE
:10669000080A1EC910EE100AA1FB00784FF000098D
:1066A000E2FB00894FF0000AE3FB009A4FF0000B79
:1066B000E4FB00AB12EE100A4FF0000CE1FB00BC53
:1066C0004FF0000EE2FB00CE4FF00005E3FB00E5CB
:1066D0004FF00006E4FB005605EE107A10EE900A2B
:1066E0004FF00007E1FB008719EB07094FF00007A7
:1066F00047EB0707E2FB00971AEB070A4FF000078A
:1067000047EB0707E3FB00A71BEB070B4FF0000766
:1067100047EB0707E4FB00B712EE900A1CEB070CEF
:106720004FF0000747EB0707E1FB00C71EEB070E22
:106730004FF0000747EB0707E2FB00E7ED194FF0CA
:10674000000747EB0707E3FB0057F6194FF0000778
:1067500047EB0707E4FB006705EE908A11EE100A8D
:106760004FF00008E1FB00981AEB080A4FF0000810
:1067700048EB0808E2FB00A81BEB080B4FF00008F1
:1067800048EB0808E3FB00B81CEB080C4FF00008CE
:1067900048EB0808E4FB00C813EE100A1EEB080ED5
:1067A0004FF0000848EB0808E1FB00E815EB08058E
:1067B0004FF0000848EB0808E2FB005816EB08060B
:1067C0004FF0000848EB0808E3FB006817EB0807E8
:1067D0004FF0000848EB0808E4FB007806EE109A3A
:1067E00011EE900A4FF00009E1FB00A91BEB090B29
:1067F0004FF0000949EB0909E2FB00B91CEB090C59
:106800004FF0000949EB0909E3FB00C91EEB090E33
:106810004FF0000949EB0909E4FB00E913EE900A87
:1068200015EB09054FF0000949EB0909E1FB005997
:1068300016EB09064FF0000949EB0909E2FB006974
:1068400017EB09074FF0000949EB0909E3FB007951
:1068500018EB09084FF0000949EB0909E4FB00892E
:1068600006EE90AA14EE901A01F110011EC910EE66
:10687000100A4FF0000AE1FB00BA1CEB0A0C4FF0C3
:10688000000A4AEB0A0AE2FB00CA1EEB0A0E4FF0AE
:10689000000A4AEB0A0AE3FB00EA15EB0A054FF08F
:1068A000000A4AEB0A0AE4FB005A12EE100A16EB41
:1068B0000A064FF0000A4AEB0A0AE1FB006A17EBEE
:1068C0000A074FF0000A4AEB0A0AE2FB007A18EBCB
:1068D0000A084FF0000A4AEB0A0AE3FB008A19EBA8
:1068E0000A094FF0000A4AEB0A0AE4FB009A07EE95
:1068F00010BA10EE900A4FF0000BE1FB00CB1EEB3C
:106900000B0E4FF0000B4BEB0B0BE2FB00EB15EB10
:106910000B054FF0000B4BEB0B0BE3FB005B16EB97
:106920000B064FF0000B4BEB0B0BE4FB006B12EE76
:10693000900A17EB0B074FF0000B4BEB0B0BE1FB37
:10694000007B18EB0B084FF0000B4BEB0B0BE2FB43
:10695000008B19EB0B094FF0000B4BEB0B0BE3FB20
:10696000009B1AEB0B0A4FF0000B4BEB0B0BE4FBFD
:1069700000AB07EE90CA11EE100A4FF0000CE1FBDD
:1069800000EC15EB0C054FF0000C4CEB0C0CE2FB93
:10699000005C16EB0C064FF0000C4CEB0C0CE3FB10
:1069A000006C17EB0C074FF0000C4CEB0C0CE4FBED
:1069B000007C13EE100A18EB0C084FF0000C4CEBA7
:1069C0000C0CE1FB008C19EB0C094FF0000C4CEBAC
:1069D0000C0CE2FB009C1AEB0C0A4FF0000C4CEB89
:1069E0000C0CE3FB00AC1BEB0C0B4FF0000C4CEB66
:1069F0000C0CE4FB00BC08EE10EA11EE900A4FF01C
:106A0000000EE1FB005E16EB0E064FF0000E4EEBA3
:106A10000E0EE2FB006E17EB0E074FF0000E4EEB72
:106A20000E0EE3FB007E18EB0E084FF0000E4EEB4F
:106A30000E0EE4FB008E13EE900A19EB0E094FF0D8
:106A4000000E4EEB0E0EE1FB009E1AEB0E0A4FF00D
:106A5000000E4EEB0E0EE2FB00AE1BEB0E0B4FF0EA
:106A6000000E4EEB0E0EE3FB00BE1CEB0E0C4FF0C7
:106A7000000E4EEB0E0EE4FB00CE14EE100AA0EC5E
:106A8000075A80E8E05FBDE8F08F00BF30B44FF0F8
:106A9000000310F8014B11F8015B013A84EA050488
:106AA00043EA0403F5D1A3F101034FEAD37030BCEC
:106AB00070474FF0000310F8012B013943EA02033D
:106AC000F9D1A3F101034FEAD370704711F8013BEC
:106AD00000F8013B013AF9D17047002200F8012B80
:106AE0000139FBD1704700BF2DE9F00791E8F807A5
:106AF000B2E802105B1854EB0C04B2E802104D41EE
:106B000056EB0C06B2E802104F4158EB0C08B2E805
:106B1000021059EB01095AEB0C0A8941B3F1FF331A
:106B200074F1FF3475F1FF3576F1000677F1000757
:106B300078F1000879F101097AF1FF3A51F1000189
:106B40004A425B184C414D4156F1000657F100078F
:106B500058F1000859EB02095AEB010A80E8F807DE
:106B6000BDE8F00770472DE9F00791E8F807B2E8B3
:106B700002105B1A74EB0C04B2E802108D4176EB44
:106B80000C06B2E802108F4178EB0C08B2E8021054
:106B900079EB01097AEB0C0A89414A425B184C41B6
:106BA0004D4156F1000657F1000758F1000859EB26
:106BB00002095AEB010A80E8F807BDE8F0077047C0
:106BC0000A462DE9F04F41EC140A92EC080A1EC95E
:106BD00010EE100AA1FB00784FF00009E2FB0089DB
:106BE0004FF0000AE3FB009A4FF0000BE4FB00AB10
:106BF00012EE100A4FF0000CE1FB00BC4FF0000E4B
:106C0000E2FB00CE4FF00005E3FB00E54FF000068D
:106C1000E4FB005605EE107A10EE900A4FF00007E4
:106C2000E1FB008719EB07094FF0000747EB070767
:106C3000E2FB00971AEB070A4FF0000747EB070744
:106C4000E3FB00A71BEB070B4FF0000747EB070721
:106C5000E4FB00B712EE900A1CEB070C4FF00007A4
:106C600047EB0707E1FB00C71EEB070E4FF00007DD
:106C700047EB0707E2FB00E7ED194FF0000747EB92
:106C80000707E3FB0057F6194FF0000747EB07072C
:106C9000E4FB006705EE908A11EE100A4FF0000841
:106CA000E1FB00981AEB080A4FF0000848EB0808CF
:106CB000E2FB00A81BEB080B4FF0000848EB0808AC
:106CC000E3FB00B81CEB080C4FF0000848EB080889
:106CD000E4FB00C813EE100A1EEB080E4FF000088C
:106CE00048EB0808E1FB00E815EB08054FF0000849
:106CF00048EB0808E2FB005816EB08064FF00008C6
:106D000048EB0808E3FB006817EB08074FF00008A2
:106D100048EB0808E4FB007806EE109A11EE900AA2
:106D20004FF00009E1FB00A91BEB090B4FF0000934
:106D300049EB0909E2FB00B91CEB090C4FF0000913
:106D400049EB0909E3FB00C91EEB090E4FF00009EE
:106D500049EB0909E4FB00E913EE900A15EB09057C
:106D60004FF0000949EB0909E1FB005916EB090650
:106D70004FF0000949EB0909E2FB006917EB09072D
:106D80004FF0000949EB0909E3FB007918EB09080A
:106D90004FF0000949EB0909E4FB008906EE90AACF
:106DA00014EE901A01F110011EC910EE100A4FF0F6
:106DB000000AE1FB00BA1CEB0A0C4FF0000A4AEB98
:106DC0000A0AE2FB00CA1EEB0A0E4FF0000A4AEB69
:106DD0000A0AE3FB00EA15EB0A054FF0000A4AEB4A
:106DE0000A0AE4FB005A12EE100A16EB0A064FF0EC
:106DF000000A4AEB0A0AE1FB006A17EB0A074FF0A8
:106E0000000A4AEB0A0AE2FB007A18EB0A084FF084
:106E1000000A4AEB0A0AE3FB008A19EB0A094FF061
:106E2000000A4AEB0A0AE4FB009A07EE10BA10EED9
:106E3000900A4FF0000BE1FB00CB1EEB0B0E4FF066
:106E4000000B4BEB0B0BE2FB00EB15EB0B054FF0D4
:106E5000000B4BEB0B0BE3FB005B16EB0B064FF051
:106E6000000B4BEB0B0BE4FB006B12EE900A17EBE5
:106E70000B074FF0000B4BEB0B0BE1FB007B18EB10
:106E80000B084FF0000B4BEB0B0BE2FB008B19EBED
:106E90000B094FF0000B4BEB0B0BE3FB009B1AEBCA
:106EA0000B0A4FF0000B4BEB0B0BE4FB00AB07EEB8
:106EB00090CA11EE100A4FF0000CE1FB00EC15EB4C
:106EC0000C054FF0000C4CEB0C0CE2FB005C16EBDD
:106ED0000C064FF0000C4CEB0C0CE3FB006C17EBBA
:106EE0000C074FF0000C4CEB0C0CE4FB007C13EE99
:106EF000100A18EB0C084FF0000C4CEB0C0CE1FBEB
:106F0000008C19EB0C094FF0000C4CEB0C0CE2FB65
:106F1000009C1AEB0C0A4FF0000C4CEB0C0CE3FB42
:106F200000AC1BEB0C0B4FF0000C4CEB0C0CE4FB1F
:106F300000BC08EE10EA11EE900A4FF0000EE1FBE3
:106F4000005E16EB0E064FF0000E4EEB0E0EE2FB4F
:106F5000006E17EB0E074FF0000E4EEB0E0EE3FB2C
:106F6000007E18EB0E084FF0000E4EEB0E0EE4FB09
:106F7000008E13EE900A19EB0E094FF0000E4EEB47
:106F80000E0EE1FB009E1AEB0E0A4FF0000E4EEBC8
:106F90000E0EE2FB00AE1BEB0E0B4FF0000E4EEBA5
:106FA0000E0EE3FB00BE1CEB0E0C4FF0000E4EEB82
:106FB0000E0EE4FB00CE53EC172A18EE104A12EB2B
:106FC0000A0253EB0B0354EB0C0455EB0E050020A7
:106FD00040F1000012EB0B0253EB0C0354EB0E04D8
:106FE00055EB0E0546410020474158EB000859EB90
:106FF0000A0940F10000B2EB0E0273F1000374F1D4
:10700000000475EB0A0576EB0B0677EB0C0778EBC3
:107010000A0879EB0C0960F10000B5EB0B0576EB83
:107020000C0677EB0E0778EB0B0879EB0E0960F195
:1070300000005FEAE07C7FEA0C0CDCF1000EB2EBB2
:107040000C0273EB0C0374EB0C0475F1000576F184
:10705000000677F1000778EB0E0879EB0C0960F178
:1070600000005FEAE07CDCF1000E12EB0C0253EB57
:107070000C0354EB0C0455F1000556F1000657F1D2
:10708000000758EB0E0859EB0C0940F100005FEACD
:10709000E07CDCF1000E12EB0C0253EB0C0354EB22
:1070A0000C0455F1000556F1000657F1000758EBA6
:1070B0000E0859EB0C095BEC15AA51EC160A1AEBF9
:1070C000060A5BEB070B50EB080051EB09015FF080
:1070D000000C4CF1000C1AEB070A5BEB080B50EBB1
:1070E000090051EB090152EB0C025FF0000C53EB6D
:1070F0000C0354EB0C0475414CF1000CBAEB090A7B
:107100007BF1000B70F10000B141BA4173EB080351
:10711000B44175EB08056CF1000CC91B72EB080259
:1071200073EB0903BC4175EB09056CF1000C5FEAD8
:10713000EC787FEA0808D8F10009BAEB080A7BEB83
:10714000080B70EB080071F1000172F1000273F19D
:10715000000374EB090475EB08056CF1000C5FEAA1
:10716000EC78D8F100091AEB080A5BEB080B50EB3E
:10717000080051F1000152F1000253F1000354EBF9
:10718000090455EB08054CF1000C5FEAEC78D8F1E6
:1071900000091AEB080A5BEB080B50EB080051F1F1
:1071A000000152F1000253F1000354EB090455EBC6
:1071B000080514EE107AA7E8000C87E83F00BDE848
:1071C000F08F00BF2DE9F00791E8F807B2E8021050
:1071D0005B1854EB0C04B2E802104D4156EB0C0660
:1071E000B2E802104F4158EB0C08B2E8021059EB1C
:1071F00001095AEB0C0A4FF0260261EB010122EA69
:1072000001015B1854F1000455F1000556F1000628
:1072100057F1000758F1000859F100095AF1000A26
:1072200061EB010122EA01010B4480E8F807BDE8A7
:10723000F00770472DE9F00791E8F807B2E802106F
:107240005B1A74EB0C04B2E802108D4176EB0C066D
:10725000B2E802108F4178EB0C08B2E8021079EB2B
:1072600001097AEB0C0A4FF0260261EB010102EAF8
:1072700001015B1A74F1000475F1000576F1000656
:1072800077F1000778F1000879F100097AF1000A36
:1072900061EB010102EA0101A3EB010380E8F807B9
:1072A000BDE8F00770470A462DE9F04F41EC140A9B
:1072B00092EC080A1EC910EE100AA1FB00784FF0EC
:1072C0000009E2FB00894FF0000AE3FB009A4FF04F
:1072D000000BE4FB00AB12EE100A4FF0000CE1FBD8
:1072E00000BC4FF0000EE2FB00CE4FF00005E3FBC8
:1072F00000E54FF00006E4FB005605EE107A10EEB4
:10730000900A4FF00007E1FB008719EB07094FF0E7
:10731000000747EB0707E2FB00971AEB070A4FF05D
:10732000000747EB0707E3FB00A71BEB070B4FF03A
:10733000000747EB0707E4FB00B712EE900A1CEBCF
:10734000070C4FF0000747EB0707E1FB00C71EEBF8
:10735000070E4FF0000747EB0707E2FB00E7ED19C8
:107360004FF0000747EB0707E3FB0057F6194FF014
:10737000000747EB0707E4FB006705EE908A11EE74
:10738000100A4FF00008E1FB00981AEB080A4FF0D2
:10739000000848EB0808E2FB00A81BEB080B4FF0C5
:1073A000000848EB0808E3FB00B81CEB080C4FF0A2
:1073B000000848EB0808E4FB00C813EE100A1EEBB7
:1073C000080E4FF0000848EB0808E1FB00E815EB59
:1073D00008054FF0000848EB0808E2FB005816EBE0
:1073E00008064FF0000848EB0808E3FB006817EBBD
:1073F00008074FF0000848EB0808E4FB007806EEA9
:10740000109A11EE900A4FF00009E1FB00A91BEB66
:10741000090B4FF0000949EB0909E2FB00B91CEB2D
:10742000090C4FF0000949EB0909E3FB00C91EEB09
:10743000090E4FF0000949EB0909E4FB00E913EEDE
:10744000900A15EB09054FF0000949EB0909E1FB2A
:10745000005916EB09064FF0000949EB0909E2FB58
:10746000006917EB09074FF0000949EB0909E3FB35
:10747000007918EB09084FF0000949EB0909E4FB12
:10748000008906EE90AA14EE901A01F110011EC9AF
:1074900010EE100A4FF0000AE1FB00BA1CEB0A0CD8
:1074A0004FF0000A4AEB0A0AE2FB00CA1EEB0A0E82
:1074B0004FF0000A4AEB0A0AE3FB00EA15EB0A0563
:1074C0004FF0000A4AEB0A0AE4FB005A12EE100AD7
:1074D00016EB0A064FF0000A4AEB0A0AE1FB006AC3
:1074E00017EB0A074FF0000A4AEB0A0AE2FB007AA0
:1074F00018EB0A084FF0000A4AEB0A0AE3FB008A7D
:1075000019EB0A094FF0000A4AEB0A0AE4FB009A59
:1075100007EE10BA10EE900A4FF0000BE1FB00CB23
:107520001EEB0B0E4FF0000B4BEB0B0BE2FB00EBDB
:1075300015EB0B054FF0000B4BEB0B0BE3FB005B6C
:1075400016EB0B064FF0000B4BEB0B0BE4FB006B49
:1075500012EE900A17EB0B074FF0000B4BEB0B0BE7
:10756000E1FB007B18EB0B084FF0000B4BEB0B0B18
:10757000E2FB008B19EB0B094FF0000B4BEB0B0BF5
:10758000E3FB009B1AEB0B0A4FF0000B4BEB0B0BD2
:10759000E4FB00AB07EE90CA11EE100A4FF0000CAE
:1075A000E1FB00EC15EB0C054FF0000C4CEB0C0C68
:1075B000E2FB005C16EB0C064FF0000C4CEB0C0CE5
:1075C000E3FB006C17EB0C074FF0000C4CEB0C0CC2
:1075D000E4FB007C13EE100A18EB0C084FF0000CD3
:1075E0004CEB0C0CE1FB008C19EB0C094FF0000C80
:1075F0004CEB0C0CE2FB009C1AEB0C0A4FF0000C5D
:107600004CEB0C0CE3FB00AC1BEB0C0B4FF0000C39
:107610004CEB0C0CE4FB00BC08EE10EA11EE900AF7
:107620004FF0000EE1FB005E16EB0E064FF0000E71
:107630004EEB0E0EE2FB006E17EB0E074FF0000E46
:107640004EEB0E0EE3FB007E18EB0E084FF0000E23
:107650004EEB0E0EE4FB008E13EE900A19EB0E09B2
:107660004FF0000E4EEB0E0EE1FB009E1AEB0E0AE1
:107670004FF0000E4EEB0E0EE2FB00AE1BEB0E0BBE
:107680004FF0000E4EEB0E0EE3FB00BE1CEB0E0C9B
:107690004FF0000E4EEB0E0EE4FB00CE4FF0260135
:1076A00053EC152A4FF00000E6FB01201B184FF0A9
:1076B000000040EB0000E7FB013057EC166A36187B
:1076C0004FF0000040EB0000E8FB01603F184FF076
:1076D000000040EB0000E9FB017059EC178A18EB41
:1076E00000084FF0000040EB0000EAFB018019EBBE
:1076F00000094FF0000040EB0000EBFB019018EE9A
:1077000010AA1AEB000A4FF0000040EB0000ECFB5F
:1077100001A02D184FF0000040EB0000EEFB0150DF
:1077200000FB01F0121853F1000356F1000657F167
:10773000000758F1000859F100095AF1000A55F103
:10774000000B60EB000021EA0000024414EE100A76
:1077500080E8CC0FBDE8F08F2DE9F00791E8F01735
:107760004EF6A1514FEA4101A4FB01234FF0000462
:10777000E5FB01344FF00005E6FB01454FF0000644
:10778000E7FB01564FF00007E8FB01674FF00008E8
:10779000E9FB01784FF00009EAFB01894FF0000A8C
:1077A000ECFB019A4FF026010AFB01FA12EB0A02E8
:1077B00053F1000354F1000455F1000556F10006A1
:1077C00057F1000758F1000859F100096AEB0A0A5D
:1077D00021EA0A010A4480E8FC03BDE8F00770478B
:1077E0002DE9F00390E8F8134FEAEC7202F013026F
:1077F0002CF0004C02F11301591854F1000155F11D
:10780000000156F1000157F1000158F1000159F152
:1078100000015CF100014FEAE17101F01301114434
:107820005B1854F1000455F1000556F1000657F1BC
:10783000000758F1000859F100094CF1000C2CF038
:10784000004C80E8F813BDE8F00370472DE9F05FC5
:107850000546002092469B468846064681464024BF
:107860001BE0284641464746224600F083F853462F
:107870005A46C01A914110D311461846224600F0CC
:1078800016F82D1A67EB01084F4622460120002109
:1078900000F00DF817EB00094E41201EA4F1010481
:1078A000DFDC484631462A464346BDE8F09F202AA1
:1078B00004DB203A00FA02F1002070479140C2F147
:1078C000200320FA03F319439040704700487047A3
:1078D0000896030010B5441A0346944209D284184E
:1078E000114403E011F8013D04F8013D521EF9D2A4
:1078F00010BD40EA0104A40703D009E010C9121F1B
:1079000010C3042AFAD203E011F8014B03F8014B2B
:10791000521EF9D210BDD2B201E000F8012B491E6F
:10792000FBD270470022F6E710B513460A4604461C
:107930001946FFF7F0FF204610BD421C10F8011B4E
:107940000029FBD1801A704730B504460020034659
:1079500000E05B1C934203D2E05CCD5C401BF8D09E
:1079600030BD034611F8012B00F8012B002AF9D194
:1079700018467047202A04DB203A21FA02F0002141
:10798000704721FA02F3D040C2F12002914008432F
:1079900019467047064C074D06E0E06840F00103C9
:1079A00094E8070098471034AC42F6D3FEF72CFC5D
:1079B000F8B6030018B7030070B58C1810F8015B17
:1079C00015F0070301D110F8013B2A1106D110F878
:1079D000012B03E010F8016B01F8016B5B1EF9D17C
:1079E0002B0705D40023521E0DD401F8013BFAE702
:1079F00010F8013BCB1A921C03E013F8015B01F86D
:107A0000015B521EF9D5A142D8D3002070BD000001
:107A10002DE9F0410446B0B00D460A46684604F12F
:107A20002007002100F0C0F804F140083A46214642
:107A300010A804F16006FFF737FC4146324618A84B
:107A4000FFF732FC4246394620A8FFF72DFC3246AC
:107A5000214628A8FFF728FCEB0F6A4610A920460C
:107A600000F000F930B0BDE8F08100BF2DE9F04131
:107A70000446B0B00D460A46684604F120070121CD
:107A800000F092F804F140083A46214610A804F1AB
:107A90006006FFF709FC4146324618A8FFF704FCD0
:107AA0004246394620A8FFF7FFFB3246214628A868
:107AB000FFF7FAFBEB0F6A4610A9204600F0D2F858
:107AC00030B0BDE8F08100BF2DE9F0410446B0B010
:107AD000684604F12006884604F1400700F096F855
:107AE00004F160053246214610A8FFF7DDFB394658
:107AF0002A4618A8FFF7D8FB3A46314620A8FFF7D8
:107B0000D3FB2A46214628A8FFF7CEFB4FEAD873BD
:107B10006A4610A9204600F0A5F830B0BDE8F08113
:107B200070B5A0B0044601F1200668460D46FFF787
:107B3000BAFB314608A8FFF7B6FB05F1400110A8D3
:107B4000FFF7B1FB10AA11461046FFF73BFB694651
:107B500018A800F0D1FB324629462046FFF732FB39
:107B600021462046FFF79FFB6A4621462046FFF745
:107B700061FB04F1400508AA21462046FFF75AFBA5
:107B8000284608AA18A9FFF71DFB10AA294604F1E8
:107B90002000FFF74FFB08AA18A904F16000FFF7C7
:107BA00049FB20B070BD00BF2DE9F84302EBE2763F
:107BB00086EAE27680460C46002100F093FB08F14D
:107BC0002007711EC90F38460F4D00F08BFB05EBE7
:107BD000442540354FF0010986EA0904013CE40FD1
:107BE000294622464046FEF763FC09F1010905F1EA
:107BF000200122463846FEF75BFCB9F1090F05F17A
:107C00004005E9D1BDE8F88318B003002DE9F84339
:107C100001EBE177814687EAE177002100F062FB22
:107C200009F12008791EC90F404600F05BFB0C4E9D
:107C3000012587EA0504013CE40F31462246484607
:107C4000FEF736FC013506F1200122464046FEF7DC
:107C50002FFC092D06F14006EBD1BDE8F88300BFEB
:107C600058B403002DE9F0430D46A1B001F12009FD
:107C70001646044649462A466846984606F12007B5
:107C8000FFF7D8FA49462A4608A8FFF79BFA394673
:107C9000324610A8FFF7CEFA3946324618A8FFF749
:107CA00091FA424618A910A8FEF76DFC10AA694681
:107CB0006846FFF7F9FA08A918AA0846FFF7F4FA88
:107CC0003A46314610A8FFF7EFFA10A905F1600215
:107CD0000846FFF7E9FA10A90846144AFFF7E4FA44
:107CE00005F14002114618A8FFF76CFA6A4608A988
:107CF0002046FFF79FFA04F120056A4608A904F11F
:107D00006000FFF75FFA4034284610AA18A9FFF771
:107D100091FA10AA18A92046FFF754FA42462946BC
:107D20002046FEF730FC21B0BDE8F08358B60300D2
:107D30002DE9F047CC7F0D78C0B00B4604F03F042E
:107D40004978D3F804C093F802809F68D3F810A054
:107D5000DE688DF8411044F04004114625F0070517
:107D60005A698DF85F409C6993F803E08DF84050A4
:107D70008DF842801D7F93F81D809B7F8DF843E036
:107D800081466846CDE911C78DF85E30CDE91524EE
:107D9000CDE9136A8DF85D808DF85C5000F086FAAD
:107DA0002022694618A8FEF791FE6846012100F0DE
:107DB00099FA08A8002100F095FA18A920A8202215
:107DC000FEF784FE28A8012100F08CFA18AF0DF10F
:107DD00040084FF0060A002417F8016D46FA0AF52C
:107DE00005F001056C40224620A96846FEF7CBFB52
:107DF000224628A908A8FEF7C6FB08AA694630A8AB
:107E0000FFF7E0F908AA10466946FFF713FA28AA17
:107E100020A938A8FFF7D6F928AA104620A9FFF70D
:107E200009FA38A9084608AAFFF73EFA28A9084621
:107E300030AAFFF739FA38AA28A920A8FFF7C2F913
:107E400028A938AA0846FFF7F5F920A90846FFF740
:107E50002AFA28A90846FFF726FA28A918AA0846E8
:107E6000FFF722FA30A90846FFF71DFA08A938A83B
:107E7000FFF719FA38AA30A96846FFF715FA30A9B2
:107E800038AA0846FFF7D6F930A908A8FFF764FC1E
:107E900008A9084638AAFFF795F908A90AF1FF3A98
:107EA00030AA0846FFF700FABAF1FF3F2C4695D1F9
:107EB00047454FF0070A8FD108A90846012200F074
:107EC0002DFA08AA69466846FFF7EEF96946484662
:107ED00000F036FB40B0BDE8F08700BF014AFFF775
:107EE00027BF00BFD8AC030070B500F1200590B0EB
:107EF0000E46044600F058FB06F12001284600F02B
:107F000053FB214608A8FEF75BFE08A908460C4A69
:107F1000FEF7EAFD08A922460846FEF752FE08A928
:107F20000846084AFEF7E0FD29466846FEF748FE87
:107F3000694608A82022FEF7A9FD013810B070BDDF
:107F400078B6030098B603002DE9F047B8B08A462A
:107F50008146114610A8514AFEF78AFA5049024656
:107F600010A8FEF7A5FA179F4C4900EAD77780467C
:107F7000C7F1010210A8FEF79BFA179D524628A9E7
:107F800018A8ED4301F088F8ED0F20A9C5F1010212
:107F9000084600F0EDFAC8F10108FE266A4618A965
:107FA00028A801F02DF8731138AA02EB830306F01C
:107FB0001F0253F8A04CD44004F0010465402A4647
:107FC00028A918A8FEF7DFFA2A4630A920A8FEF74C
:107FD000DAFA013E28A918A800F0ACFF731C254668
:107FE000DCD1C4F1010208A820A900F0C1FA7D404B
:107FF0006A4618A928A801F003F828A92A4618A853
:10800000FEF7C1FA2A4630A920A8FEF7BCFA08A953
:108010006A460846FEF7D5FD08A9084600F0DEFAD4
:1080200008A909F120040AF120020846FEF7C9FD5B
:1080300020A908AA2046FEF7C4FD08AA18A9684688
:10804000FEF7BFFD69466846FEF7BAFD18AA694605
:1080500008A8FEF7B6FD21466846FEF7B1FD08AA5E
:1080600069461046FEF77FFD08A90E4A6846FEF7EE
:108070007AFD20462021FEF71CFD08A94342024656
:10808000684643EA0808FEF77EFA48466946064A0B
:10809000FEF797FD404638B0BDE8F087D8B603003C
:1080A000B8AF030098B60300D8AF03000A460149F1
:1080B000FFF74ABFF8AC030000F040BB38B50446F8
:1080C0000D4600F03BFB05F1200104F12000BDE866
:1080D000384000F033BB00BF30B5A9B014460546A8
:1080E000684600F09DFB214618A8FFF7FDFE6A4692
:1080F00018A9044608A8FFF727FF08A90443284643
:10810000FFF7DAFF204629B030BD00BF30B599B087
:108110000546684600F084FB694608A8FFF7C6FFDD
:1081200008A904462846FFF7C9FF204619B030BD0C
:1081300010B52022B0B004460DEB020000F098FB11
:108140009DF83F309DF8202003F07F0343F040036B
:1081500022F0070208A968468DF83F308DF82020EC
:1081600000F006FB694618A800F028F818A9204678
:1081700000F002F830B010BD30B599B004460D469D
:1081800010A84031012200F0C9F810AA294668461B
:10819000FFF78AF810AA05F1200108A8FFF784F874
:1081A00008A9204600F0CCF9684600F093F8E37F78
:1081B00083EAC010E07719B030BD00BF2DE9F0416F
:1081C000B0B0E8460446404600F00AFB04F1400621
:1081D00020469DF93F10FFF719FD3046012100F0C0
:1081E00081F804F120070DF11505214610A8FFF7CD
:1081F00097FC18AA10A92046FFF756F828AA20A92C
:108200003846FFF751F820AA18A93046FFF74CF876
:10821000214610A8FFF784FC18AA10A92046FFF7F2
:1082200043F828AA20A93846FFF73EF820AA18A943
:108230003046FFF739F8214610A8FFF771FC18AA5D
:1082400010A92046FFF730F828AA20A93846FFF7E2
:108250002BF820AA18A93046FFF726F8214610A8C7
:10826000FFF75EFC15F9011D10A8FFF7D1FB95F98A
:10827000151010A8FFF7FAFB95F92A1010A8FFF7C0
:1082800023FC18AA10A92046FFF70EF828AA20A957
:108290003846FFF709F820AA18A93046FFF704F876
:1082A000A845A2D130B0BDE8F08100BF0B680360E3
:1082B0004B6843608B688360CB68C3600B69036164
:1082C0004B6943618B698361CB6923F00043C361D0
:1082D000704700BF10B50446FFF782FA206800F02F
:1082E000010010BD0023C0E90013C0E90233C0E95A
:1082F0000433C0E90633704700B589B000230A464D
:108300006946CDE90033CDE90233CDE90433CDE947
:108310000633FEF78FFF09B05DF804FBF0B5A1B09E
:108320000546684617460E46FEF7BDFF694618A883
:10833000FEF7B9FF18A90846FEF7B5FF324618A99F
:1083400008A8FEF7B1FF6A4608A96846FEF7ACFF29
:10835000694618A8FEF7A7FF08AA104618A9FEF755
:10836000A3FF08A918A8FEF79EFF18A90846FEF764
:108370009AFF18A90846FEF796FF18A90846FEF7C7
:1083800092FF18A90846FEF78EFF08AA18A9104602
:10839000FEF78AFF022408A900E0012418A8FEF7CE
:1083A00082FF18A90846FEF77EFF18A90846FEF7C7
:1083B0007AFF18A90846FEF776FF18A90846FEF7C7
:1083C00072FF012C18A9E8D110A808AAFEF76CFFCB
:1083D000042410A918A8FEF766FF18A90846FEF79E
:1083E00062FF18A90846FEF75EFF18A90846FEF7C7
:1083F0005AFF18A90846FEF756FF013C18A9E9D113
:1084000010AA0846FEF750FF022400E0012418A934
:108410000846FEF748FF18A90846FEF744FF18A9CA
:108420000846FEF740FF18A90846FEF73CFF18A9CA
:108430000846FEF738FF012CE8D118A908AA10A8B1
:10844000FEF732FF0A2410A918A8FEF72CFF18A97E
:108450000846FEF728FF18A90846FEF724FF18A9CA
:108460000846FEF720FF18A90846FEF71CFF013C4E
:1084700018A9E9D110AA08A8FEF716FF142408A924
:1084800018A8FEF710FF18A90846FEF70CFF18A958
:108490000846FEF708FF18A90846FEF704FF18A9CA
:1084A0000846FEF700FF013C18A9E9D108AA0846D2
:1084B000FEF7FAFE0A2418A90846FEF7F4FE18A9EA
:1084C0000846FEF7F0FE18A90846FEF7ECFE18A9CC
:1084D0000846FEF7E8FE18A90846FEF7E4FE013C50
:1084E000E9D118A9084610AAFEF7DEFE18A9084629
:1084F00067B9FEF7D8FE18A90846FEF7D4FE324643
:1085000018A92846FEF7D0FE21B0F0BDFEF7CBFE3D
:1085100018A90846FEF7C7FE18A90846FEF7C3FECD
:1085200018A90846FEF7BFFE18A90846FEF7BBFECD
:108530006A4618A92846FEF7B7FE21B0F0BD00BF75
:1085400038B50C4605460846FFF74AF923682B6004
:1085500063686B60A368AB60E368EB6023692B61C1
:1085600063696B61A369AB61E369EB6138BD00BF0F
:1085700070B588B004460D46684620211646FEF7C1
:10858000ACFA00232946204620220093FEF79EFAEB
:108590002A4669466846FEF7E6FA324669462046AC
:1085A000FDF7F1FF08B070BD0B681BBAC3614B68E3
:1085B0001BBA83618B681BBA4361CB681BBA03612A
:1085C0000B691BBAC3604B691BBA83608B691BBA0A
:1085D0004360CB691BBA0360704700BF70B598B0A9
:1085E0000D46064610A8FEF7EBFA2A4610A9684683
:1085F000FEF7E7FA694610A8FEF7E2FA10A9084666
:10860000FEF7DEFA6A4610A908A8FEF7DAFA08A90A
:1086100010A8FEF7D5FA10A90846FEF7D1FA10A95E
:108620000846FEF7CDFA10A90846FEF7C9FA10A9C8
:1086300008AA0846FEF7C5FA10A90846FEF7C0FAD0
:1086400010A90846FEF7BCFA10A96A4608A8FEF76A
:10865000B8FA052408A910A8FEF7B2FA10A908462E
:10866000FEF7AEFA013C10A9F5D108AA0846FEF7BC
:10867000A8FA052410A90846FEF7A2FA10A9084690
:10868000FEF79EFA013CF5D110A908AA0846FEF7AC
:1086900098FA10A908A8FEF793FA08A90846FEF769
:1086A0008FFA08A96A466846FEF78BFA10246946D5
:1086B00010A8FEF785FA10A90846FEF781FA013CDA
:1086C00010A9F5D12A460846FEF77BFA402410A9E6
:1086D0000846FEF775FA10A90846FEF771FA013C44
:1086E000F5D110A96A460846FEF76BFA102410A9C6
:1086F0000846FEF765FA10A90846FEF761FA013C44
:10870000F5D110A96A460846FEF75BFA102410A9B5
:108710000846FEF755FA10A90846FEF751FA013C43
:10872000F5D110A908AA0846FEF74BFA2A4610A967
:108730003046FEF746FA18B070BD00BFCB691BBAD1
:1087400003608B691BBA43604B691BBA83600B697A
:108750001BBAC360CB681BBA03618B681BBA436149
:108760004B681BBA83610B681BBAC361704700BFBB
:10877000F0B50B4699B0DA69184D149218A9120F8A
:1087800004465F689E68186941F85C2DDA68D3F882
:1087900000C00E970F965F699E69109200232A46CB
:1087A000119005A8CDF834C0CDE916331593CDE965
:1087B0000333029312971396FDF7F0FE019B05AA6F
:1087C0001B070DA920460C93FDF752FEE2692946CE
:1087D000D20F2046FDF76CFE19B0F0BDF8AF0300D4
:1087E000F0B40025471E2C462A46E30814F0070F74
:1087F00008BF51F8235005F00F03134403F108029A
:1088000012090134D6B2A3EB06133F2C4FEA15151B
:1088100007F8013FE9D1354480F83F50F0BC70477C
:1088200038B50B68114D1BBAC3614B681BBA836125
:108830008B681BBA4361CB681BBA03610B691BBA17
:10884000C3604B691BBA83608B691BBA4360CB69F9
:108850001BBA2A46036001460446FDF709FE294675
:1088600002462046BDE83840FDF722BEB8B60300F8
:108870002DE9F04DE2A5D5E90045B2B0E2A7D7E970
:108880000067CDE90045E2A5D5E90045CDE90267DD
:10889000E1A7D7E90067CDE90445E1A5D5E90045A1
:1088A000CDE90667E0A7D7E90067CDE908450FF2F3
:1088B000803BDBE900ABE0A5D5E90045CDE90A67DF
:1088C0000027CDE90C4580461446CDE90EABCDE935
:1088D0003072002A40F0CD8080238DF84030012096
:1088E0006D4610AE00F1400E05EB0E035B42471CD7
:1088F00003F00303D91C7B2FC0F17B0C88BF4FF022
:10890000010C052938BF05217B2FC0F17A0288BFF1
:108910000022914229D8ABB132AA02440021012B96
:1089200002F8881C00F0A38032AA1744032B00F140
:10893000020207F8881C40F0538132AF3A440330FA
:1089400002F8881CACEB030C002273442B444FEA62
:108950009C0711460132974243F8041BFAD82CF0C9
:1089600003036345184427D0471C32AB034400225D
:108970007B2F03F8882C1FD032AB3B44811C7B2912
:1089800003F8882C18D032AB1944C31C7B2B01F898
:10899000882C11D032A90B44011D7B2903F8882CA7
:1089A0000AD0053032AB7B28194418BFC01801F833
:1089B000882C18BF00F8882C620F002362F307038D
:1089C000620D62F30F23620B62F3174362093146B3
:1089D00062F31F632846E400CDF8BB308DF8BF403A
:1089E00000F076FDDDE90623DDE90076DDE90254DD
:1089F000DDE9040193FA83FE089BC8F818E036BA53
:108A00002DBA24BA00BA09BA12BA93FA83FCC8F88C
:108A10000060C8F80C50C8F80840099D0A9CC8F8C6
:108A20001400C8F810100B980C99C8F81C200E9B65
:108A30000D9A0F9EC8F824C03FBA2DBA24BA00BAC6
:108A400009BA12BA1BBA36BAC8F80470C8F820506E
:108A5000C8F82C40C8F82800C8F83410C8F83020EE
:108A6000C8F83C30C8F8386032B0BDE8F08D384600
:108A700068E76D4628460E4600F06AFB241A024657
:108A80003119002800F0AE80431E022B40F2B28064
:108A900010AE4FEA900C3B4634460846013350F87E
:108AA000047B44F8047B6345F8D322F003039A4225
:108AB000194414D032A818440C7800F8884C581C7B
:108AC00082420CD932AC204402334C7800F8884CF6
:108AD0009A4204D932A80344897803F8881C32AB3F
:108AE000501C134480217028309203F8881C40F2F7
:108AF00084807F286BD832AB1844911C00238029D6
:108B000000F8883C63D032A80144D01C802801F8CA
:108B1000883C5CD032A90844111D802900F8883CAB
:108B200055D032A80144501D802801F8883C4ED011
:108B300032A90844911D802900F8883C47D032A80A
:108B40000144D01D802801F8883C40D032A9084457
:108B500002F10801802900F8883C38D032A801448D
:108B600002F10900802801F8883C30D032AB18446B
:108B700002F10A010023802900F8883C27D032A89E
:108B8000014402F10B00802801F8883C1FD032A973
:108B9000084402F10C01802900F8883C17D032A863
:108BA000014402F10D00802801F8883C0FD032A961
:108BB000084402F10E01802900F8883C07D032A851
:108BC0000144702A01F8883C08BF8DF8BF30314657
:108BD000284600F07DFC7A28319C7FF683AEEBE6D8
:108BE0001046AFE6802330908DF84030319C012054
:108BF00010AE77E63B4610AE5CE7319C72E600BFF4
:108C000008C9BCF367E6096A3BA7CA8485AE67BB9F
:108C10002BF894FE72F36E3CF1361D5F3AF54FA5CA
:108C2000D182E6AD7F520E511F6C3E2B8C68059BA6
:108C300079217E1319CDE05B6BBD41FBABD9831F5E
:108C40002DE9F04F9FB0A1F108031C93D2E90E3437
:108C5000CDE91834D2E90C34CDE90034D2E90A3434
:108C6000CDE90234D2E90634CDE91A34D2E902342E
:108C7000CDE90634D2E90434CDE9043400F18003AF
:108C8000D2E908ABD2E900891D93099094460146C8
:108C900005E0CDE90689DDE91689B246BB46F1E873
:108CA00002451C9F09914FEA9A3242EA8B424FEAF1
:108CB0009A43F7E902010A9243EA8B334FEA9B3663
:108CC0004FEA9B420C9346EA8A4642EA8A324FEACE
:108CD000CB530D920B9643EA5A23CDE916010F931D
:108CE000DDE90C011C974FEACA53DDE90A6743EA44
:108CF0005B230E9346404F40DDE90E014FEA1873A7
:108D000043EA091370407940109306460F464FEA34
:108D10008973DDE9160143EA980313934FEA197347
:108D200000194FEA887243EA08136941119342EA35
:108D30009903CDE916011293DDE90201DDE9002373
:108D40004FEA496442404B4044EAD814DDE9160139
:108D50001594DDE90045801902EA0A024FEA486EDF
:108D600079415440DDE9066703EA0B034EEAD91264
:108D70005D401492DDE9042346EA080647EA090744
:108D8000324016463B4022181F4645EB0103DDE901
:108D90001045DDE91201CDE9162344404D40DDE9DF
:108DA00014016040694004460D46DDE9060100EA11
:108DB000080001EA090140EA060241EA07031046F9
:108DC000DDE918671946DDE9162392197B41DDE9D3
:108DD0001A6700196941B6185F41841841EB030511
:108DE000DDE90201CDE91645CCE90C01DDE90034ED
:108DF000DDE90412CCE90E34CCE90612CDE91834D1
:108E0000DDE90423CDE91A23DDE90234DDE90601B9
:108E1000CDE90034DDE91634CCE90401CCE90034B5
:108E2000CDE904011D9B09999942CCE90AABCCE933
:108E30000289CCE90867CDE902AB7FF42AAF1FB005
:108E4000BDE8F08F2DE9F04F4FF0000C8BB0864657
:108E5000A0F1080A6346ACF102040CF1010C0CF01D
:108E60000F000EEBC00204F00F045EF830005268F1
:108E70000EEBC401073B5EF8344049684FEA5008E6
:108E800003F00F03070A0EEBC30B48EAC273E60CAC
:108E9000009347EA0263CD00029346EA413304930C
:108EA000CE0C45EA54730793E50046EA4433059334
:108EB000A60945EA51735408069344EAC073140A9C
:108EC0004FEAD018019344EA006348EA42680393EA
:108ED0004FEAD219FAE9022346EA8166CDE908236E
:108EE0008F09DDE90623DDE90401DBE90045504097
:108EF0005940DDE9082312196B41CDE90823DDE96A
:108F00000045DDE9022370407940DDE908675440FF
:108F10005D4084EA0804361985EA09056F41321874
:108F200047EB0103BCF1100FCAE9002392D10BB04B
:108F3000BDE8F08FF0B599B004460E460A460146EA
:108F40006846FDF710FE69466846FDF739FE6A4639
:108F5000214608A806F1200504F12007FDF731FE9F
:108F60006A4631466846FDF72CFE39462A4610A867
:108F7000FDF7BAFD2A4639462846FDF7F4FD294695
:108F80003046FDF71DFE6A4608A92046FDF7ACFDF8
:108F9000224631463046FDF7E6FD6A4608A9684696
:108FA000FDF7E1FD6A4639463846FDF70AFE3246CE
:108FB00008A96846FDF7D7FD6A4629462846FDF709
:108FC00000FE3A4629462846FDF7CDFD10A9684621
:108FD000FDF7F6FD224669462046FDF7C4FD08A9C7
:108FE00022460846FDF7BFFD10A908AA0846FDF76E
:108FF000E8FD3A4610A93846FDF7B5FD19B0F0BDB9
:109000002DE9F0410C4688B00546904601462246BF
:109010006846FDF7A8FD69466846FDF7D1FD6A463A
:109020002946284604F12006FDF7CBFD05F120076F
:109030006A4621466846FDF7C4FD32463046394649
:10904000FDF791FD31462046FDF7BAFD2A4621463F
:109050002046FDF788FD6A4621462046FDF783FD40
:109060006A4629464046FDF77EFD42463946384667
:10907000FDF7A7FD224629466846FDF774FD6A46BE
:1090800031463046FDF79DFD3A4631463046FDF704
:109090006AFD08B0BDE8F0812DE9F04188B00D46C9
:1090A000074602F12001684607F120069046FDF7C9
:1090B00087FD6A4669466846FDF716FD30466946F3
:1090C000FDF77EFD32463146304605F12004FDF7BE
:1090D0000BFD6A4669466846FDF706FD2046414697
:1090E000FDF76EFD6A4641463846FDF76AFD2246A9
:1090F00021466846FDF7F8FC224669466846FDF7BA
:10910000F3FC69466846114AFDF7EEFC69462846BD
:10911000FDF756FD3A4629462846FDF724FD3A4616
:1091200029462846FDF71FFD2A4639462046FDF709
:109130001AFD6A4621462046FDF743FD3246214688
:109140002046FDF710FD08B0BDE8F08178B60300B9
:109150002DE9F04FC7B07F2A159240F2AB810D4642
:10916000A2F18001D0E900230646CDE90023D6E92B
:109170000823CDE90A23D6E90A23CDE90223D6E95B
:109180000C2321F07F04D0E902ABD6E90689D0E9AF
:109190000401CDE90C23D6E90E238034CDE90E235A
:1091A000CDE904ABCDE91001CDE906892C19149461
:1091B00009962C68AF68D5F80CA0D5F810E02E6B96
:1091C000E86913962346DDE900891BBA0193002361
:1091D0000093AB6BAC691294CDE91689DDE9048983
:1091E0000493DDE91023DDE900BCCDE91A23DDE9B4
:1091F00006233946CDE91C239AFA8AFA0BBA5A4655
:1092000042EA0A02CDE92823DDE90A23CDE91889DB
:10921000D5F81480129E2F6A696AAC6ACDE91E23C4
:1092200098FA88F89EFA8EF35A4642EA0802CDE987
:109230002A2300BA33BA5A4642EA0002CDE92C2367
:1092400009BA3BBA5A4642EA0102CDE92E23EF6A37
:10925000139ED5F858E023BA5A463FBA42EA0702AD
:10926000CDE93023DDE90C236C6BCDE9222324BA50
:1092700033BA5A4642EA0402DDE90201CDE932235B
:10928000049B1FBACDE920013B46E86B6968DDE924
:109290000E6700BA4BEA0002CDE9246709BA5E46C0
:1092A000674646EA0106CDE934232B6EAA6E286F85
:1092B0000493B046EB6C2E6C696C0692B946AF6FA6
:1092C0001290CDE926890A97D5F84890D5F85080B4
:1092D0006F6D0293EC6DE86F6A6EEB6ED5F874A05B
:1092E00036BAB44609BA029E00BA4FF0000B4BEAF8
:1092F000010B029099FA89F10020CDE936BC36BA0B
:1093000083468C464BEA060BCDE938BCDDE900BC50
:1093100098FA88F13FBAD84689469EFA8EF148EA13
:10932000070824BA5E460F4646EA0406049C1298D3
:1093300021BACDE93C6712BA5E460F4646EA0206FC
:10934000069A11BA1BBA0A46594641EA030140ABD4
:10935000C3E900129AFA8AFA03BA5A4642EA0A02A2
:10936000CDE93E6742A90A9F5448C1E90023029A09
:109370003CBA5B4643EA0203CDE93A8916AA98460D
:10938000A14644AB26A9C3E90089FFF759FC26A8EA
:10939000FFF758FD16AA26A94948FFF751FC26A851
:1093A000FFF750FD16AA26A94648FFF749FC26A854
:1093B000FFF748FD16AA26A94348FFF741FC26A857
:1093C000FFF740FD16AA26A94048FFF739FC099C83
:1093D000DDE91623D4E90067B618D4E902AB5F4192
:1093E000DDE91834099A13EB0A0344EB0B04DDE9B9
:1093F0001A01CDE90434D2E904341B184C41DDE9EB
:109400001C899B46A446D2E9063413EB080344EBBF
:109410000904CDE90067CDE90634D2E90867DDE942
:109420001E34F61810466741D2E90A34DDE92012ED
:109430005B185441CDE90234D0E90C12DDE9223445
:10944000C918DDE924896241D0E90E3413EB080321
:1094500044EB09049846A146DDE90034C0E9003434
:10946000DDE90434CDE910BCC0E90234CDE90A6776
:10947000CDE90C12CDE90E891290C0E904BCDDE9FA
:1094800006ABDDE90234C0E90A344C464346C0E984
:109490000E34149C8035A542C0E906ABC0E90867CC
:1094A000C0E90C127FF485AE159B03F07F0047B036
:1094B000BDE8F08F104647B0BDE8F08F38AD03002F
:1094C000B8AD030038AE0300B8AE030038AF0300F8
:1094D0002DE9F04F0B68D1F808E0D1F80C90D1F8E5
:1094E00010C08F69D1F82080D1F824A0B7B01BBA82
:1094F0000193002300939EFA8EF599FA89F943EAC5
:1095000009022B46DDE900450646D1F814E0C8699A
:10951000CDE918239CFA8CF39C469EFA8EFE00BA85
:1095200022463BBA44EA0E0B42EA000298FA88F55A
:109530009AFA8AFA0024CDE91C2344EA0A022B464F
:109540004868CDE91E23DDE90023CDE91ABCD6E940
:109550000089D6E902AB00BA42EA0002CDE916233F
:10956000D6E90423CDE90689CDE908ABD6E9068919
:10957000D6E908ABCDE90A23D6E90A23CDE90C895F
:10958000CDE90EABD6E90C89D6E90EABD1F828C0EF
:10959000D1F830E08D6B086C8F6CCDE910239CFA0C
:1095A0008CF3039300230293DDE90223CDE91289B2
:1095B000D1F82C90D1F850C0D1F8588099FA89F997
:1095C00042EA0902CDE920239EFA8EF30393002399
:1095D0000293DDE90223D1F834E09EFA8EFE42EADE
:1095E0000E02CDE922232BBA039300230293DDE977
:1095F0000223CD6BD1F870E02DBA42EA0502CDE925
:10960000242303BA03930023CDE914AB8D6FD1F863
:1096100060A0D1F868B0486C0293DDE9022300BA7B
:1096200042EA0002CDE926233BBA039300230293CA
:10963000DDE90223C86C4F6D00BA42EA0002CDE9B1
:1096400028239CFA8CF3039300230293DDE9022381
:109650003FBA42EA0702CDE92A23C86DD1F864C0B7
:10966000CF6E98FA88F3002299469AFA8AF3039308
:10967000029200BA42EA0008DDE902239CFA8CFC5F
:10968000C86F42EA0C02CDE92C899BFA8BF4D1F821
:109690007480DDE900ABCDE92E2300BA2BBA00229D
:1096A0004E4D42EA000298FA88F1A1463FBA9EFA6E
:1096B0008EF4CDE934234AEA070806AA4AEA010AE9
:1096C000A34616A92846CDE93089CDE932ABFFF78C
:1096D000B7FA16A8FFF7B6FB06AA16A905F180008F
:1096E000FFF7AEFA16A8FFF7ADFB06AA16A905F517
:1096F0008070FFF7A5FA16A8FFF7A4FB06AA16A923
:1097000005F5C070FFF79CFA16A8FFF79BFB06AAA9
:1097100016A905F50070FFF793FAD6E90023DDE9F5
:109720000601D6E90289DDE908AB141843EB01050F
:1097300018EB0A0249EB0B03CDE90245DDE90AAB60
:10974000CDE90423D6E9043413EB0A0344EB0B04FC
:109750009A46A346D6E90623DDE90C4512191446BC
:10976000DDE902126B41D6E908781D46C6E9001210
:10977000DDE90E23BF1848EB0308DDE90423C6E941
:109780000878C6E90223DDE91089D6E90A2312EB3D
:10979000080243EB090390469946C6E904ABD6E9B3
:1097A0000C23DDE912AB12EB0A0243EB0B039246EA
:1097B0009B46C6E90645DDE91423D6E90E45A41803
:1097C00000985D4122462B46C6E90A89C6E90CABE2
:1097D000C6E90E2337B0BDE8F08F00BF38AD0300F7
:1097E0002DE9F04700268AB0DFF85091B0464FF4DB
:1097F0008075012437460696284607F03FFF38B1AA
:10980000D9F80403204203D0284607F02DFF264351
:109810002D1D64007F1CADB2082FEDD34FF4BE7434
:10982000204607F02BFF48B1204607F01DFF46F009
:10983000004606AA0121002007F002FF404D16F065
:10984000FF0F15D00127002437420DD009EB84010A
:10985000D1F81005D1F81015C0F3042055F82420D4
:10986000C1F3014102B190477F00641C082CEBD387
:10987000002E5FDA4FF0FF30CDF8108054E0281949
:1098800010F8507F90F9000027F0C008401C3BD032
:1098900007A9404606F00EFC10B34FEA9719404660
:1098A00002F062FF55F820701FB1B9F1030F03D029
:1098B00006E0B9F1030F27D104A9404606F002FCE7
:1098C0004FF0A04101EB8800D0F8000706A9C0F3D3
:1098D000014A404606F0EEFB18B1BAF1020F03D080
:1098E00012E0BAF1030F0FD1B9F1030F08D1BAF1A9
:1098F000020F1DD00221404607F086FE761CF6B20C
:1099000017B149464046B847641C042CB7D3002E13
:1099100010D06A460121002007F092FE06990098B7
:10992000884207D006900498002634460790A6E7A0
:109930000321E0E70AB0BDE8F087000000600040C6
:10994000DC3B002070B54FF48076304606F07EFE9A
:10995000114CB50560B1304606F07FFE0120C5F818
:109960000803607920B901206071216800208847D0
:109970004FF48276304606F069FE00280AD0304661
:1099800006F06BFE0220C5F808032168BDE87040B0
:109990000120084770BD0000542D0020064882B009
:1099A0000021016000680090044800680449C0B2CA
:1099B000496802B00847000000D1004008D50040C7
:1099C000642D002002490248091F09680068084701
:1099D000B02D0020F8B50D4B0646144618780D46FC
:1099E00008B900F0AFFA00208DF80000684600F0DA
:1099F00087FE22462946304600F00AF804469DF8C4
:109A0000000000F0A1FE2046F8BD000094440020B4
:109A100070B50E46144900EB400001EBC00514463A
:109A2000E86A183520B101280FD0022805D113E0CB
:109A3000284600F0BBFAA04201D2002411E02246E1
:109A40003146284600F0D8FB0BE0284600F0AEFA7D
:109A5000A042F4D20446F2E73146284600F09FFBCC
:109A60000446204670BD0000944400200FB408B5A1
:109A700004A900916A46039900F003F801B05DF86B
:109A800014FB2DE9F04198B0064607A8029040204B
:109A90000025CDE90305CDE9055690460C4614F89E
:109AA000011B002973D0252908D002A800F058FB1B
:109AB00005980028F3DA18B0BDE8F08100200121F4
:109AC0002278232A1ED02B2A19D02D2A02D0302A00
:109AD00008D102E040F0010001E040F00200641C07
:109AE0000029EDD100222178A1F130030A2B0CD2FC
:109AF00002EB820201EB4202303A641CF3E740F0D1
:109B00000400ECE740F00800E9E70023CFB22E2F75
:109B10000BD114F8011FA1F130070A2F05D203EB76
:109B2000830301EB4303303BF3E76C290DD0682935
:109B30000BD0702954D00BDC252916D0582931D0F0
:109B400063290CD0642913D114E014F8011FECE749
:109B5000732934D075291BD0782909D122E0D8F88F
:109B60000000011DC8F80010017802A800F0F8FA02
:109B7000641C9DE7D8F800100F1DC8F80070096834
:109B8000CDE900200A2202A800F01CFAF0E733E039
:109B9000D8F800100F1DC8F800700968CDE9002042
:109BA0000A2208E0D8F800100F1DC8F800700968F4
:109BB000CDE90020102202A800F068FAD8E7D8F812
:109BC0000000011DC8F80010076817F8011B0029E4
:109BD000CED002A800F0C4FA05980028F5DAC7E74D
:109BE000D8F80000011DC8F8001001680820CDE970
:109BF000000503461022DEE7059800287FF75BAFDB
:109C0000049820B1024607A93046FFF7E3FEDDE9DC
:109C10000410084405904EE708F094BBF0B5B54831
:109C20000023021D0178101D01254FF080540629E4
:109C30000BD11678360708D10678C6F30316032E23
:109C400006D0042E04D0052E02D0062907D00EE03F
:109C5000B4F82463A84FC6F304263E6002E01678E9
:109C6000360704D10678C6F30316032E02D0062960
:109C700004D00FE0A24FA14E7E670EE016783607A3
:109C800008D10678C6F30316032E06D0042E04D09E
:109C9000052E02D0062907D00EE0D4F84462994F71
:109CA000C6F342363E6002E01678360704D10678E5
:109CB000C6F30316032E02D0062906D011E0924EF9
:109CC000376827F0807737600EE01678360708D1BE
:109CD0000678C6F30316032E06D0042E04D0052EF4
:109CE00002D006290AD011E04FF08046C6F80C31A8
:109CF000C6F81031834E361F336002E016783607FF
:109D000004D10678C6F30316032E02D0062905D027
:109D10000CE07C4F032664373E600AE01678360775
:109D200004D10678C6F30316032E02D006290DD0FF
:109D300014E0764F05263E60744E78363560734EDB
:109D4000083633603F263F1D3E6002E01678360736
:109D500004D10678C6F30316052E02D0062957D083
:109D600062E06B4E36686B4F3E60694E361D36685A
:109D70003F1D3E60664E083636683F1D3E60644EAD
:109D80000C3636683F1D3E60614E103636683F1D0A
:109D90003E605F4E143636683F1D3E605C4E18369E
:109DA00036685C4F20373E60594E1C3636683F1D82
:109DB0003E60574E203636683F1D3E60544E243676
:109DC00036683F1D3E60524E283636683F1D3E6065
:109DD0004F4E2C3636683F1D3E604D4E303636684D
:109DE0004C4F40373E604A4E343636683F1D3E6029
:109DF000474E383636683F1D3E60454E3C36366825
:109E00003F1D3E60424E403636683F1D3E6002E0D8
:109E10001678360708D10678C6F30316032E06D047
:109E2000042E04D0052E02D0062907D019E0D4F85C
:109E30005812394A01F04F01116002E01178090708
:109E40000FD10078C0F30310032803D0042801D0F9
:109E5000052806D131480168C90702D06FF0010119
:109E60000160D4F83001062808D1D4F8340106285E
:109E700004D12B48016841F48061016022487438A4
:109E8000016841F470010160BFF34F8FBFF36F8F22
:109E90004FF01021D1F80002002803DBD1F80402B2
:109EA000002822DA1F4A15601F480468002CFCD0E5
:109EB0001524C1F800420568002DFCD0C1F8044209
:109EC00001680029FCD0136001680029FCD0BFF3B1
:109ED0004F8F0D48F0380168144A01F4E0611143D6
:109EE0000160BFF34F8F00BFFDE7124910480860C3
:109EF000F0BD0000E00F00F0403501400DF0ADBABC
:109F000000C007403C050040FCED00E0105600405A
:109F10000404001020C50040E40E0040000400408E
:109F20003C17004004E5014000E401400400FA054C
:109F30000090D0036C2E002001480068004700000C
:109F40005C2D002010B5124C02202061606111A030
:109F5000A06104F17800E0614FF4007020620020FD
:109F6000A06260620BA1A164E06204F51E71E1646D
:109F70001021A065C4E91410E06509A1E01DFDF7FA
:109F8000F0FC08A12046FDF7ECFC2020A07110BDDC
:109F9000944400205465726D696E616C000000008D
:109FA0005254540053454747455200000269C16866
:109FB0008A4203D88068401A104400E0501A401EBC
:109FC000704700002DE9FC5F0E008146DDE90C477B
:109FD000C6F1000098469346824600D40846012503
:109FE00003E000BF90FBFBF06D1C5845FADAA84572
:109FF00000D9454624B1002E01DB780700D5641E48
:10A00000B80702D5B8F1000F0FD0F8070DD164B131
:10A01000A5420AD220214846641E00F0A1F8D9F8D2
:10A020000C000028F3DABDE8FC9FD9F80C000028EA
:10A03000F9DB002E02DA56462D2102E0780707D51B
:10A040002B21484600F08CF8D9F80C000028EADBF8
:10A0500007F0030002280FD1B8F1000F0CD15CB15A
:10A06000A54209D230214846641E00F079F8D9F89B
:10A070000C000028F3DAD6E7CDE9004743465A46FC
:10A080003146484600F002F8CDE700002DE9F84FD0
:10A090008246DDE90A4B0126984691460D46084660
:10A0A000374602E0B0FBF9F07F1C4845FAD2B845CC
:10A0B00000D947465FEACB7017D1B4B15FEA8B7025
:10A0C00002D5B8F1000F02D0202000900BE0302024
:10A0D000FBE75046641E009900F042F8DAF80C00E5
:10A0E000002838DB0CB1A742F3D3DAF80C000028C3
:10A0F00031DB00BFB8F1010F02D9A8F1010803E07C
:10A10000B5FBF6F0484502D306FB09F6F2E7DFF8A7
:10A110004C8000BFB5FBF6F000FB165518F8001098
:10A12000504600F01DF8DAF80C00002803DBB6FBFF
:10A13000F9F6002EEED15FEACB700CD0002C0AD0DD
:10A14000A74208D220215046641E00F009F8DAF830
:10A150000C000028F2DABDE8F88F0000A8720300B6
:10A1600010B50446D4E90130421C934205D323685C
:10A170001954A260E068401CE060D4E90102824208
:10A1800009D121682069FFF725FCA168884203D026
:10A190004FF0FF30E06010BD0020A06010BD2DE941
:10A1A000F047C4681746894606464FF000083069F4
:10A1B000A04201D9051B02E0B168201A0D1AB0684F
:10A1C0006D1E001BA84200D80546BD4200D33D4687
:10A1D00070682A4620444946FDF77CFBB0687F1B27
:10A1E0002C44A844A944A04200D10024F460002FCC
:10A1F000DDD14046BDE8F0872DE9F04104468846B0
:10A20000D4E90207C51BE168606816460844B542F8
:10A2100006D94146FDF75EFBB819E060BDE8F08164
:10A220002A464146FDF756FB761B08EB05013246F0
:10A230006068FDF74FFBE660F0E702E008C8121F18
:10A2400008C1002AFAD170477047002001E001C11F
:10A25000121F002AFBD170470121202803DA814018
:10A260000548014003E0402802DA2038814009B166
:10A270000120704700207047FC06FFBD2DE9F84320
:10A28000804643F2020659B9694609F0AFFCB04274
:10A2900002D008B100F0C6F99DF80000800744D450
:10A2A0000021404609F0ACFC05003ED0112D3CD009
:10A2B0001F482049401AC708022000EB07440D2D13
:10A2C0000AD00B2D1DD0B5421FD11B492046424656
:10A2D000BDE8F84307F0DCBB20464246174907F0CB
:10A2E000D7FB1321404676DF00281ED008F0E6F8A1
:10A2F000024601B020464346BDE8F04310A107F0F6
:10A30000CEBB204642461C49E2E7284608F0D6F874
:10A310000246012000EB0740434618A107F0BFFBAF
:10A320002846BDE8F84300F07DB9BDE8F883000099
:10A3300078B7030030B70300789E0300049E030043
:10A3400073645F626C655F6761705F646973636F9C
:10A350006E6E65637428292072657475726E65640B
:10A36000202573206F6E20636F6E6E5F68616E6470
:10A370006C652025642E0000C49E03004173736544
:10A380007274696E672E20706D5F636F6E6E5F739F
:10A39000656375726528292072657475726E6564CF
:10A3A000202573206F6E20636F6E6E5F68616E6430
:10A3B0006C652025642E000010B560B159B102789B
:10A3C0000B785208B2EB530F05D10622401C491CF2
:10A3D000FDF7BAFA08B1002010BD012010BD8007BA
:10A3E00001D00020704701207047C3688B4206D817
:10A3F00011440069491E814201D8012070470020A4
:10A40000704790F82400012801D01F207047EE20EB
:10A41000704710B501220221002001F05DFF08B154
:10A42000072810D107220221012001F055FF08B1B1
:10A43000072808D100210A22084601F04DFF08B183
:10A44000072800D1002010BD10B560B10B480C49A1
:10A45000401AC008032101EB00400AA107F014FBD9
:10A460000AF04AF903E003210A4800F0D9FE002867
:10A4700003D0BDE8104000F0D5B810BD08B8030007
:10A4800030B70300457261736520626F6E6473219B
:10A49000000000008C2F002070B58CB015460E46D1
:10A4A00000236C46C3F10F01415CE1545B1C102B8F
:10A4B000F8D30D2104F11000FDF734FA0020C0F1AB
:10A4C0000F02315C2244401C11740328F7D3684604
:10A4D00046DF0020C0F10F01214491F820102954DB
:10A4E000401C0328F6D30CB070BD022001F0FEBD65
:10A4F0000149C97801F004B9D02C002070B50024BE
:10A50000064D06E06868012110F8340008F038F8BC
:10A51000641C28788442F5D3002070BD702D002083
:10A52000F8B516460C4605460A2A01D20720F8BDA2
:10A5300008F020F918B908F0E7F80028F7D1134F10
:10A54000102113487D603C70BE60FDF7EBF90020E0
:10A55000C7E904000F4E0DE005EBC400316800911F
:10A5600081788DF8011000780B4A694608F05AF896
:10A570000028DCD1641EE4B2EED2BDE8F840054804
:10A580000021064A001D00F063B80000702D002075
:10A59000A83C002030700300E9E102001DCF02005A
:10A5A00072B607F033FB00BF07F054F90028FBD167
:10A5B00011481249401AC408012000EB044010A1C0
:10A5C00007F062FA11480068C00700D000BE022000
:10A5D00000EB04400EA107F057FABFF34F8F0B4872
:10A5E000E43801680E4A01F4E06111430160BFF3F1
:10A5F0004F8F00BFFDE7000008B8030030B703002D
:10A60000466174616C206572726F7200F0ED00E05B
:10A6100053797374656D2072657365740000000072
:10A620000400FA050EB500210091CDE901106A463B
:10A6300044F20100FFF7B4FF0EBD401A20F07F4046
:10A6400070470000014802F0D0BC0000902D0020AF
:10A650003AB100680129426100D000210161002067
:10A66000704707207047000038B51148082358226A
:10A67000416800910F49006805F001FC002815D1E0
:10A680000D4A69460D4802F0B5FC04000ED10121C7
:10A690000A4802F026FD0123094A1946074802F03C
:10A6A0007CFC0649012008390870204638BD0000AE
:10A6B00038700300C83C0020514F0300902D00204B
:10A6C000FFFF7F0070B50446007F0D4608B10020F3
:10A6D00070BDA26103F06EFD401941F10001C4E9B3
:10A6E0000201206900B125612146BDE870400020CB
:10A6F0000BF078BD01460020087701200BF072BDF9
:10A7000030B5EFF3108172B60D4A9468012324B17D
:10A710000370002900D162B630BD93604FF0E02392
:10A72000D3F88051074C25401560C3F88041D3F819
:10A73000844154605A17C3F8842100220270E8E76C
:10A74000203D0020FC06FFBD0B498A68002A11D07D
:10A7500000280FD1EFF3108072B60B684FF0E022A3
:10A76000C2F800314B68C2F8043100228A60002828
:10A7700000D162B670470000203D002010B5144C97
:10A7800000224FF400412068FFF79CFF08B1FFF75B
:10A7900049FF00224FF480416068FFF793FF08B142
:10A7A000FFF740FF002241F23331A068FFF78AFF34
:10A7B00008B1FFF737FF00224FF4A031E068FFF740
:10A7C00081FF002803D0BDE81040FFF72BBF10BD6C
:10A7D000886D03002DE9F041064608680C46411CCF
:10A7E0004FF0A0474FF0010506D005FA00F1C7F879
:10A7F0000815206806F0F4FE6068411C02D00021B4
:10A8000006F0DCFE3168A069C1F82405607D227D78
:10A8100031681043C1F86C05D4E900123068C0F803
:10A820001425C0F80C15207D012815D1A068411C05
:10A8300002D0002106F0C2FEE068411C05D0854030
:10A84000C7F80855E06806F0CBFED4E9021230687C
:10A85000C0F80825C0F81015BDE8F0812DE9F041D9
:10A86000064608680C46411C4FF0A0474FF0010512
:10A8700006D005FA00F1C7F80815206806F0BAFE00
:10A880006068411C02D0002106F0A1FE3168A06979
:10A89000C1F82405607D217D32680843C2F86C054B
:10A8A000D4E900123068C0F80C15C0F81425207DDA
:10A8B000012815D1A068411C02D0002106F087FEB6
:10A8C000E068411C05D08540C7F80855E06806F0EF
:10A8D00091FED4E902123068C0F80825C0F81015BE
:10A8E000BDE8F08104F018BA2DE9FC5F04464FF092
:10A8F00008084FF00109694603F050FE02004F4876
:10A900004F49A0EB01004FEAD0014FF0020000EBED
:10A9100001450AD0104607F0D1FD024628462346DD
:10A92000484907F0BCF8BDE8FC9FDFF81CB1DBF834
:10A930000000FFF7DFFE28B107F0C0FD0246284601
:10A9400042A177E0FFF77EFE484E3168FFF775FEC3
:10A9500000F066FA0446FFF775FEDFF814A1002741
:10A96000C6F8000007EB87000AEB8006B07C58B3FE
:10A970000622711C0DF10100FCF7E6FF18BB307CCC
:10A980004FF47A6101FA00F2B2F57A4F00DA401C16
:10A99000307400228140C817B260C20342EA5142BB
:10A9A000C8034FF47A71401842F100014FF4FA6283
:10A9B0000023FCF74BFFF060A04200D804460120C2
:10A9C00070744FF0000900E0B8467F1C082FC9D30F
:10A9D000B9F1000F1FD0B8F1080F18D208EB8801A9
:10A9E0000AEB810000990160BDF8041081809DF898
:10A9F000061081710021017481604FF48031C160C3
:10AA00008C4200D30C4601214174817403E019A1EA
:10AA1000284607F039F8601C85D022461146DBF83D
:10AA20000000FFF74FFE0028F6D007F047FD024672
:10AA30001AA1284607F02CF875E7000030B703008C
:10AA400030B7030064960300CC6D03006170705F43
:10AA500074696D65725F73746F70282920726574F4
:10AA600075726E656420257300000000142C0020B0
:10AA7000803400204E6F20737061636520746F20F6
:10AA8000626C61636B6C69737420616E6F7468656E
:10AA90007220706565722049440000006170705F2B
:10AAA00074696D65725F73746172742829207265B0
:10AAB0007475726E6564202573000000024A0021DF
:10AAC0000248FFF7C5BD0000ADAD0200CC6D03002C
:10AAD0002DE9FC410446694603F060FD70B107F0C2
:10AAE000EDFC0246124813492346401AC0080221D1
:10AAF00001EB0040104906F0D2FF11E00F4E002498
:10AB00004FEA0D0704EB840006EB8005A87C50B1EA
:10AB10000622691C781CFCF717FF20B9687C10B16D
:10AB20000120BDE8FC81641C082CEBD30020F8E771
:10AB300030B7030030B70300649603008034002070
:10AB40002DE9F047814605884A484FF000088AB051
:10AB500001784246284600F0EBFD99F805004007D1
:10AB600001D4002176E005F58077B8B205AB01226B
:10AB7000072108F0A7FC04003F48404A4FF00101BC
:10AB8000A0EB02004FEAD00001EB00460AD02046BD
:10AB900007F094FC024630462B46394906F07FFF09
:10ABA000214629E0284603F039FE4FF6FF7104469E
:10ABB00088422BD18A46069803F09AFD04465045F8
:10ABC00010D00146284603F009FE2846FFF790FC06
:10ABD000E0B928460AF096FC2846FFF789FC0028D1
:10ABE000BFD013E008F03CFE0446504508D1304683
:10ABF00024A106F049FF042128460AF0B1FCB0E781
:10AC00000146284603F0EAFD4FF00108B8B222469B
:10AC1000072108F0CFFC07001BD0862F1ED007F0BD
:10AC20004DFC024630462B462349009406F03FFF78
:10AC3000394628460AF094FC0021484608F03AFBC1
:10AC4000B8F1000F02D0204603F0D2FD0AB0BDE8F3
:10AC5000F0870121484608F02DFBF7E71422174939
:10AC60006846FCF737FEADF80250684602F060FC1B
:10AC7000EFE70000D02C002080B7030030B70300BE
:10AC8000C0A10300436F756C64206E6F7420616C0B
:10AC90006C6F63617465206E657720706565725FA7
:10ACA000696420666F7220696E636F6D696E6720DC
:10ACB000626F6E642E0000008CA20300086F030018
:10ACC00070B5044690B0087B0D468DF83800202101
:10ACD00005A8FCF727FE42F61920ADF81400012064
:10ACE000ADF81800ADF81A000EA80790617C9DF829
:10ACF0002100A21D61F3041040F002008DF8210034
:10AD0000A87B8DF82700687B8DF82500A08805A911
:10AD100001F062FD00281CD1A968E1B10FA801F083
:10AD200012F9064614216846FCF7FCFD42F60810AD
:10AD3000ADF80000E87B8DF806000FA8ADF80A60BA
:10AD4000ADF80E600490E08804F10E02694602F04E
:10AD50008FF810B070BD0020E081FAE710B50D4902
:10AD60000D480AF074FCC1B24FF6FE720B4800F0B9
:10AD70006FFB00280DD008280BD0132809D011280C
:10AD800007D043F20141884203D0BDE81040FFF7ED
:10AD900049BC10BDC0330020D82B0020582F002004
:10ADA0000A4601461046AEDF7047000010B500F0BD
:10ADB00037F80446FFF746FC0D490860601C16D0C2
:10ADC0000C48224611460068FFF77CFC00280ED094
:10ADD00007F074FB024608480849BDE81040401AD5
:10ADE000C008022101EB004005A106F051BE10BDD4
:10ADF000142C0020CC6D030030B7030030B70300E3
:10AE00006170705F74696D65725F737461727428CC
:10AE1000292072657475726E6564202573000000C8
:10AE2000F0B5044600221C4E4FF0FF3013464FF49D
:10AE3000203500BF02EB820106EB81018F7C27B336
:10AE40004F7C7FB1CF68A74205D93F1BCF608742B7
:10AE50001BD8384619E04B740F7CD7B1A84214D3E5
:10AE6000284612E00F7CA7B18F6827448F60AF425D
:10AE700006D30F7C7F1E0F748F68A7F520378F6075
:10AE8000C7F52031814200D80846521C082AD1D388
:10AE9000F0BD8B74F9E70000803400202DE9FC47F9
:10AEA000002517880646158090F82D00144689461F
:10AEB00030B13A462146484600F060FC051E09D1F3
:10AEC000B0784FF00C0A18B32088C846001DB8426D
:10AED00002D95046BDE8FC87684679DF0028F9D1E1
:10AEE0002088032108F8001020881921401C80B216
:10AEF000208008F800102088401C80B2208000EBE1
:10AF00000801BDF800000BF074FB21880844208084
:10AF1000F0780222C8B1218896F9033001F1030CC0
:10AF20004846BC45D5D8425421884FF0010C491CF5
:10AF300089B2218000F801C02188491C89B2218092
:10AF400009F801302088401C20807068B8B1218841
:10AF500090F9003001F1030C4846BC45B9D8425481
:10AF600021880A22491C89B2218042542188491C27
:10AF700089B2218009F801302088401C2080308966
:10AF800050B1CDE900474B460622022106F10800E8
:10AF90000BF01EFC051E9DD1308A50B1CDE9004753
:10AFA0004B460722032106F110000BF011FC051E91
:10AFB00090D1308B50B1CDE900474B46152214217A
:10AFC00006F118000BF004FC051E83D1306A30B185
:10AFD0003B462246494601F0B0FD051EDBD1706AB2
:10AFE00030B13B462246494604F098F8051ED2D1BE
:10AFF00096F82C0038B13B462246494630460AF0C6
:10B000005BFC051EC7D1307838B13B462246494625
:10B01000304604F09DFE051EBDD128465AE718B5FE
:10B0200004460020ADF8000013466A46204600F0B2
:10B0300006F8002802D0BDF80000204418BD70B505
:10B04000C8B1C2B10024158803E0065D641C344415
:10B05000A4B2A54203D8061976789E4201D08C424C
:10B06000F3D38C4207D2005DA31C401E9BB280B27A
:10B070001C188C4201D9002070BD138070BD80F86F
:10B08000301070472DE9F0410D00044606D02CB178
:10B0900095F87A000026012803D006E00E20BDE8CE
:10B0A000F08195F89800012829D0D5F8A00004284F
:10B0B00025D0D5F89C00042821D04FF00108A670B7
:10B0C0002C2205F17801201DFCF704FC84F8306087
:10B0D000D5F8A4006063D5F8A800A0634FF6FF7010
:10B0E000A4F8240404F58260C4F82004C4F826649B
:10B0F000A4F82A6484F82C64207810B104E00720B6
:10B10000CDE7FF2084F8540004F155072046C4F829
:10B110001074FFF776F9A4F8140404F214423946C7
:10B120002846FFF7BBFE0028B9D104F23120C4F84D
:10B1300018042046FFF765F9A4F81C0404F21C4229
:10B1400005F13C00D4F81814FFF7A8FE0028A6D19A
:10B1500084F85180208BA4F8480084F83C80266451
:10B1600084F85060606900216064454604F13C0247
:10B17000781E72DF002892D1257090E710B5028802
:10B18000102A1BD0112A20D0262A1DD1007A0C4665
:10B19000012801D0022817D1A0780521401CB0FB5E
:10B1A000F1F201FB1201204600F03AF800280BD022
:10B1B000A16B002908D0BDE810400847C27B012AD6
:10B1C00002D18088A1F8240410BD0C46002184F827
:10B1D0002E148088B4F824148842F5D120790028F0
:10B1E000F2D10121DFE710B5044690F8540074DF76
:10B1F000012084F82E04002084F8300484F85000E4
:10B200000621204602F0CDFB002808D1A178204677
:10B2100000F006F810B1A16B01B18847002010BD05
:10B220002DE9F05F044600780F4698B1A77000251D
:10B23000C4F82654A4F82A5484F82C54A079012682
:10B2400008B1012F09D0E07980B1012F05D0022F7C
:10B2500003D00BE00820BDE8F09F616B21B184F8BA
:10B260002D640820884701E084F82D5404F227411A
:10B2700000200A5C0AB1304603E0401C0628F8D3DF
:10B2800000204FF002084FF0030B012F06D0022FD1
:10B290000CD0032F0FD0042F15D110E0A17929B1C4
:10B2A00094F8241011B908B130460DE0E17911B1DC
:10B2B00008B1404608E0207A08B1584604E0607AB8
:10B2C00008B1042000E02846A070616B41B103285A
:10B2D00001D0042804D1607910B194F82E0498B1FB
:10B2E00084F82F5404F13C0018210746FCF71AFBA0
:10B2F00084F83C6004F12C0008F0E4FB58B194F8A9
:10B300002C0084F8510008E084F8305484F82F644D
:10B3100007208847E6E784F8516094F8240058B184
:10B3200004F1280008F0CEFB20B194F8280084F83E
:10B33000520001E084F8526084F85050A27804F280
:10B34000264104F582694FF0060A052A64D2DFE837
:10B3500002F07C030F22420084F83160C4F82054CC
:10B36000C4E9101584F83C808020A4F8480055E01A
:10B3700084F8318094F82420384612B107220270F4
:10B3800001E080F800B0228A8281C4F82054416034
:10B39000E168B96042E06069B860208BB88194F8D8
:10B3A00024003D460028204602D084F83CA001E05D
:10B3B00084F83C600BF0D8F950B185F81480042172
:10B3C000204602F0EEFA38BB052184F8311021E066
:10B3D00084F831B01EE0E069B860208CB88194F840
:10B3E00024003D460028204602D084F83CA001E01D
:10B3F00084F83C600BF0B8F948B185F8148004215A
:10B40000204602F0CEFA38B984F831A002E00420D8
:10B4100084F83100C4F82094A07878B13A4604F159
:10B420005400D4F8201472DF00287FF414AF94F88D
:10B43000301094F8540073DF0028F6D1616B11B11D
:10B4400094F831008847002005E784F83150F5E78B
:10B45000F7B594B0174605003CD0287C9DF85410F1
:10B460000024884252D000264FF0010E0D9615A8F8
:10B47000ADF834E00E90ADF83660E9880DAA4FF6CD
:10B48000FF70ACDF040026D19DF854002874687C5E
:10B49000A0B30F96109611961296E888ADF83C006E
:10B4A000BDF83600ADF840000DA811900E9812902E
:10B4B000A7F57F408DF83EE0FE3805D039460FA84D
:10B4C000FFF76EFC044621E0684600F09DF8002579
:10B4D0006F460FE00E2017B0F0BD00BF07EB45062A
:10B4E000B08800F0EFF8022803D144B10FA9B0886A
:10B4F000AEDF6D1C0098A842F0D807E005E0B188E7
:10B500000FA8FFF74DFC0446F3E708242046E2E7C6
:10B5100038B50D46040018D0BDB1286820602879E0
:10B520006074FF20207401208DF8020041F60F00A6
:10B53000ADF80000221D69460120A8DF002803D1D4
:10B5400029462046FFF7BCFB38BD0E2038BD38B574
:10B55000002924D0002822D00288502A1FD1054675
:10B56000487C0C4600281AD0E9886289A81D9142BF
:10B5700015D14189022912D1216800290FD00C3040
:10B5800000F0DDFC08B1002000E001208DF8000093
:10B59000A888ADF80200226869462046904738BD69
:10B5A00070B5040012D001461C221448FCF792F931
:10B5B0001248134D0560206850B17ADF002806D18B
:10B5C0002068016829604068686005E00E2070BD51
:10B5D0000B487BDF0028FAD108484FF6FF7114387A
:10B5E000084A20F8041B0549343901600021FFF79F
:10B5F0002FF80028EBD0032070BD00005435002048
:10B60000182C0020016703000149496801F076BA4F
:10B610007035002010B5044600F0A6F8002805D0CB
:10B620002146BDE81040024804F0A8BC10BD00004F
:10B630008035002070B515460E4604460BF0A0F884
:10B64000002809D0054800EB8400C0692A4631462D
:10B65000BDE8704002F0D2B970BD00007035002026
:10B6600010B5044600F080F8002805D02146BDE85A
:10B670001040024804F082BC10BD00008835002054
:10B6800010B5044600F070F8002805D02146BDE84A
:10B690001040024804F072BC10BD00008435002048
:10B6A00070B50546002400F05FF838B1294604481B
:10B6B00004F064FC08B1022400E00124204670BDBF
:10B6C0007C35002070B50546002400F04DF838B1F7
:10B6D0002946044804F052FC08B1022400E0012489
:10B6E000204670BD7835002010B51821034804F0BD
:10B6F00020FC182800D0C0B210BD0000703500201A
:10B7000070B505460C4608460BF03AF860B128467D
:10B7100000F02AF840B10548294600EB8400BDE856
:10B7200070401C3004F02ABC002070BD7035002031
:10B7300070B5054616460C4608460BF021F8002861
:10B740000ED0284600F010F8002809D005483246EF
:10B7500000EB84002946BDE870401C3002F01CB9A3
:10B7600070BD000070350020142801D30020704700
:10B770000146014804F002BC743500207CB5054642
:10B7800008880C460930904201D90C207CBD6846DF
:10B790006DDF0028FAD121880820685420881B21F9
:10B7A000401C80B2208029542088401C80B2208018
:10B7B0002844DDF801100160BDF805108180208863
:10B7C000801D80B220809DF80010490800D0012122
:10B7D00029542088401C208000207CBD1FB50446D1
:10B7E00001208DF8060041F60A00ADF80400494A30
:10B7F00001A90120A8DF00287DD122885AB145483F
:10B80000801C009094F83C3042F62920616800F0DA
:10B81000B3FF00287BD122895AB13E480A300090FC
:10B8200094F83C3042F62420E16800F0A5FF00289F
:10B830006DD1228A5AB137481230009094F83C30CA
:10B8400042F62520616900F097FF00285FD1228B26
:10B850005AB130481A30009094F83C3042F6272014
:10B86000E16900F089FF002851D1228C5AB12948A2
:10B870002230009094F83C3042F62620616A00F0B5
:10B880007BFF002843D1228D5AB122482A300090F4
:10B8900094F83C3042F62820E16A00F06DFF002861
:10B8A00035D1216B79B102A80AF012FC194808229F
:10B8B0003230009094F83C3002A942F6232000F088
:10B8C0005BFF002823D1606B60B112493A310091CF
:10B8D0000279016894F83C3042F62A2000F04CFFCF
:10B8E000002814D1A16B89B102A808F074FF09489F
:10B8F0004230009000E00AE094F83C30072202A9B0
:10B9000042F6502000F038FF002800D1002004B09B
:10B9100010BD0000EA2C00203EB5044601883348E3
:10B92000334A801AC008032202EB0040182946D08F
:10B930000ADC304D102913D0112925D013292FD01E
:10B9400017292DD12CA13BE019293ED0212928D03F
:10B950003B2930D0562923D1A088132176DF0DE072
:10B960002DA106F091F8072000F0D8FC08B1FEF7F1
:10B9700059FEA18869802B4804F0F0FD00280FD003
:10B98000BDE83E40FEF74EBE227A27A106F080F8C1
:10B99000227A25A10020FEF769F84FF6FF70688033
:10B9A0003EBD00200090A08869468FDF0028F7D0B8
:10B9B000FEF738FE3EBDA088132176DFDEE721A129
:10B9C00003B0BDE8304006F05FB8A37A617B227B0C
:10B9D000C3F3C0030093CDE90121617A227AC1F358
:10B9E0008003204906F076F83EBD000008B8030049
:10B9F00030B70300D02B0020424C455F4741505FD9
:10BA00004556545F415554485F4B45595F52455127
:10BA10005545535400000000436F6E6E65637465B6
:10BA2000642E0000802F0020446973636F6E6E6582
:10BA3000637465642C20726561736F6E2025642EBB
:10BA400000000000424C455F4741505F4556545F3F
:10BA50004C4553435F44484B45595F52455155450A
:10BA6000535400000C96030010B51A4C018860680E
:10BA700010290ED011292BD1401E606028D1FEF76D
:10BA8000C8FC002824D02168002921D0BDE810403E
:10BA90000847D0B900210122084600F01DFC08B17A
:10BAA00007280FD107220221012000F015FC08B160
:10BAB000072807D104220221002000F00DFC20B14C
:10BAC000072802D0216801B188476068401C606087
:10BAD00010BD00000C2C00202DE9F04701883B4EE2
